{
  "_format": "hh-sol-artifact-1",
  "contractName": "GAMBLEToken",
  "sourceName": "contracts/Gamble.sol",
  "abi": [
    {
      "anonymous": false,
      "inputs": [
        {
          "indexed": false,
          "internalType": "address",
          "name": "previousAdmin",
          "type": "address"
        },
        {
          "indexed": false,
          "internalType": "address",
          "name": "newAdmin",
          "type": "address"
        }
      ],
      "name": "AdminChanged",
      "type": "event"
    },
    {
      "anonymous": false,
      "inputs": [
        {
          "indexed": true,
          "internalType": "address",
          "name": "owner",
          "type": "address"
        },
        {
          "indexed": true,
          "internalType": "address",
          "name": "spender",
          "type": "address"
        },
        {
          "indexed": false,
          "internalType": "uint256",
          "name": "value",
          "type": "uint256"
        }
      ],
      "name": "Approval",
      "type": "event"
    },
    {
      "anonymous": false,
      "inputs": [
        {
          "indexed": true,
          "internalType": "address",
          "name": "operator",
          "type": "address"
        },
        {
          "indexed": true,
          "internalType": "address",
          "name": "tokenHolder",
          "type": "address"
        }
      ],
      "name": "AuthorizedOperator",
      "type": "event"
    },
    {
      "anonymous": false,
      "inputs": [
        {
          "indexed": true,
          "internalType": "address",
          "name": "beacon",
          "type": "address"
        }
      ],
      "name": "BeaconUpgraded",
      "type": "event"
    },
    {
      "anonymous": false,
      "inputs": [
        {
          "indexed": true,
          "internalType": "address",
          "name": "operator",
          "type": "address"
        },
        {
          "indexed": true,
          "internalType": "address",
          "name": "from",
          "type": "address"
        },
        {
          "indexed": false,
          "internalType": "uint256",
          "name": "amount",
          "type": "uint256"
        },
        {
          "indexed": false,
          "internalType": "bytes",
          "name": "data",
          "type": "bytes"
        },
        {
          "indexed": false,
          "internalType": "bytes",
          "name": "operatorData",
          "type": "bytes"
        }
      ],
      "name": "Burned",
      "type": "event"
    },
    {
      "anonymous": false,
      "inputs": [
        {
          "indexed": true,
          "internalType": "address",
          "name": "operator",
          "type": "address"
        },
        {
          "indexed": true,
          "internalType": "address",
          "name": "to",
          "type": "address"
        },
        {
          "indexed": false,
          "internalType": "uint256",
          "name": "amount",
          "type": "uint256"
        },
        {
          "indexed": false,
          "internalType": "bytes",
          "name": "data",
          "type": "bytes"
        },
        {
          "indexed": false,
          "internalType": "bytes",
          "name": "operatorData",
          "type": "bytes"
        }
      ],
      "name": "Minted",
      "type": "event"
    },
    {
      "anonymous": false,
      "inputs": [
        {
          "indexed": true,
          "internalType": "address",
          "name": "previousOwner",
          "type": "address"
        },
        {
          "indexed": true,
          "internalType": "address",
          "name": "newOwner",
          "type": "address"
        }
      ],
      "name": "OwnershipTransferred",
      "type": "event"
    },
    {
      "anonymous": false,
      "inputs": [
        {
          "indexed": true,
          "internalType": "address",
          "name": "operator",
          "type": "address"
        },
        {
          "indexed": true,
          "internalType": "address",
          "name": "tokenHolder",
          "type": "address"
        }
      ],
      "name": "RevokedOperator",
      "type": "event"
    },
    {
      "anonymous": false,
      "inputs": [
        {
          "indexed": true,
          "internalType": "address",
          "name": "operator",
          "type": "address"
        },
        {
          "indexed": true,
          "internalType": "address",
          "name": "from",
          "type": "address"
        },
        {
          "indexed": true,
          "internalType": "address",
          "name": "to",
          "type": "address"
        },
        {
          "indexed": false,
          "internalType": "uint256",
          "name": "amount",
          "type": "uint256"
        },
        {
          "indexed": false,
          "internalType": "bytes",
          "name": "data",
          "type": "bytes"
        },
        {
          "indexed": false,
          "internalType": "bytes",
          "name": "operatorData",
          "type": "bytes"
        }
      ],
      "name": "Sent",
      "type": "event"
    },
    {
      "anonymous": false,
      "inputs": [
        {
          "indexed": true,
          "internalType": "address",
          "name": "from",
          "type": "address"
        },
        {
          "indexed": true,
          "internalType": "address",
          "name": "to",
          "type": "address"
        },
        {
          "indexed": false,
          "internalType": "uint256",
          "name": "value",
          "type": "uint256"
        }
      ],
      "name": "Transfer",
      "type": "event"
    },
    {
      "anonymous": false,
      "inputs": [
        {
          "indexed": true,
          "internalType": "address",
          "name": "implementation",
          "type": "address"
        }
      ],
      "name": "Upgraded",
      "type": "event"
    },
    {
      "inputs": [
        {
          "internalType": "address",
          "name": "holder",
          "type": "address"
        },
        {
          "internalType": "address",
          "name": "spender",
          "type": "address"
        }
      ],
      "name": "allowance",
      "outputs": [
        {
          "internalType": "uint256",
          "name": "",
          "type": "uint256"
        }
      ],
      "stateMutability": "view",
      "type": "function"
    },
    {
      "inputs": [
        {
          "internalType": "address",
          "name": "spender",
          "type": "address"
        },
        {
          "internalType": "uint256",
          "name": "value",
          "type": "uint256"
        }
      ],
      "name": "approve",
      "outputs": [
        {
          "internalType": "bool",
          "name": "",
          "type": "bool"
        }
      ],
      "stateMutability": "nonpayable",
      "type": "function"
    },
    {
      "inputs": [
        {
          "internalType": "address",
          "name": "operator",
          "type": "address"
        }
      ],
      "name": "authorizeOperator",
      "outputs": [],
      "stateMutability": "nonpayable",
      "type": "function"
    },
    {
      "inputs": [
        {
          "internalType": "address",
          "name": "tokenHolder",
          "type": "address"
        }
      ],
      "name": "balanceOf",
      "outputs": [
        {
          "internalType": "uint256",
          "name": "",
          "type": "uint256"
        }
      ],
      "stateMutability": "view",
      "type": "function"
    },
    {
      "inputs": [
        {
          "internalType": "uint256",
          "name": "amount",
          "type": "uint256"
        },
        {
          "internalType": "bytes",
          "name": "data",
          "type": "bytes"
        }
      ],
      "name": "burn",
      "outputs": [],
      "stateMutability": "nonpayable",
      "type": "function"
    },
    {
      "inputs": [],
      "name": "decimals",
      "outputs": [
        {
          "internalType": "uint8",
          "name": "",
          "type": "uint8"
        }
      ],
      "stateMutability": "pure",
      "type": "function"
    },
    {
      "inputs": [],
      "name": "defaultOperators",
      "outputs": [
        {
          "internalType": "address[]",
          "name": "",
          "type": "address[]"
        }
      ],
      "stateMutability": "view",
      "type": "function"
    },
    {
      "inputs": [],
      "name": "granularity",
      "outputs": [
        {
          "internalType": "uint256",
          "name": "",
          "type": "uint256"
        }
      ],
      "stateMutability": "view",
      "type": "function"
    },
    {
      "inputs": [
        {
          "internalType": "uint256",
          "name": "initialSupply",
          "type": "uint256"
        },
        {
          "internalType": "address[]",
          "name": "defaultOperators",
          "type": "address[]"
        }
      ],
      "name": "initialize",
      "outputs": [],
      "stateMutability": "nonpayable",
      "type": "function"
    },
    {
      "inputs": [
        {
          "internalType": "address",
          "name": "operator",
          "type": "address"
        },
        {
          "internalType": "address",
          "name": "tokenHolder",
          "type": "address"
        }
      ],
      "name": "isOperatorFor",
      "outputs": [
        {
          "internalType": "bool",
          "name": "",
          "type": "bool"
        }
      ],
      "stateMutability": "view",
      "type": "function"
    },
    {
      "inputs": [],
      "name": "name",
      "outputs": [
        {
          "internalType": "string",
          "name": "",
          "type": "string"
        }
      ],
      "stateMutability": "view",
      "type": "function"
    },
    {
      "inputs": [
        {
          "internalType": "address",
          "name": "account",
          "type": "address"
        },
        {
          "internalType": "uint256",
          "name": "amount",
          "type": "uint256"
        },
        {
          "internalType": "bytes",
          "name": "data",
          "type": "bytes"
        },
        {
          "internalType": "bytes",
          "name": "operatorData",
          "type": "bytes"
        }
      ],
      "name": "operatorBurn",
      "outputs": [],
      "stateMutability": "nonpayable",
      "type": "function"
    },
    {
      "inputs": [
        {
          "internalType": "address",
          "name": "sender",
          "type": "address"
        },
        {
          "internalType": "address",
          "name": "recipient",
          "type": "address"
        },
        {
          "internalType": "uint256",
          "name": "amount",
          "type": "uint256"
        },
        {
          "internalType": "bytes",
          "name": "data",
          "type": "bytes"
        },
        {
          "internalType": "bytes",
          "name": "operatorData",
          "type": "bytes"
        }
      ],
      "name": "operatorSend",
      "outputs": [],
      "stateMutability": "nonpayable",
      "type": "function"
    },
    {
      "inputs": [],
      "name": "owner",
      "outputs": [
        {
          "internalType": "address",
          "name": "",
          "type": "address"
        }
      ],
      "stateMutability": "view",
      "type": "function"
    },
    {
      "inputs": [],
      "name": "renounceOwnership",
      "outputs": [],
      "stateMutability": "nonpayable",
      "type": "function"
    },
    {
      "inputs": [
        {
          "internalType": "address",
          "name": "operator",
          "type": "address"
        }
      ],
      "name": "revokeOperator",
      "outputs": [],
      "stateMutability": "nonpayable",
      "type": "function"
    },
    {
      "inputs": [
        {
          "internalType": "address",
          "name": "recipient",
          "type": "address"
        },
        {
          "internalType": "uint256",
          "name": "amount",
          "type": "uint256"
        },
        {
          "internalType": "bytes",
          "name": "data",
          "type": "bytes"
        }
      ],
      "name": "send",
      "outputs": [],
      "stateMutability": "nonpayable",
      "type": "function"
    },
    {
      "inputs": [],
      "name": "symbol",
      "outputs": [
        {
          "internalType": "string",
          "name": "",
          "type": "string"
        }
      ],
      "stateMutability": "view",
      "type": "function"
    },
    {
      "inputs": [],
      "name": "totalSupply",
      "outputs": [
        {
          "internalType": "uint256",
          "name": "",
          "type": "uint256"
        }
      ],
      "stateMutability": "view",
      "type": "function"
    },
    {
      "inputs": [
        {
          "internalType": "address",
          "name": "recipient",
          "type": "address"
        },
        {
          "internalType": "uint256",
          "name": "amount",
          "type": "uint256"
        }
      ],
      "name": "transfer",
      "outputs": [
        {
          "internalType": "bool",
          "name": "",
          "type": "bool"
        }
      ],
      "stateMutability": "nonpayable",
      "type": "function"
    },
    {
      "inputs": [
        {
          "internalType": "address",
          "name": "holder",
          "type": "address"
        },
        {
          "internalType": "address",
          "name": "recipient",
          "type": "address"
        },
        {
          "internalType": "uint256",
          "name": "amount",
          "type": "uint256"
        }
      ],
      "name": "transferFrom",
      "outputs": [
        {
          "internalType": "bool",
          "name": "",
          "type": "bool"
        }
      ],
      "stateMutability": "nonpayable",
      "type": "function"
    },
    {
      "inputs": [
        {
          "internalType": "address",
          "name": "newOwner",
          "type": "address"
        }
      ],
      "name": "transferOwnership",
      "outputs": [],
      "stateMutability": "nonpayable",
      "type": "function"
    },
    {
      "inputs": [
        {
          "internalType": "address",
          "name": "newImplementation",
          "type": "address"
        }
      ],
      "name": "upgradeTo",
      "outputs": [],
      "stateMutability": "nonpayable",
      "type": "function"
    },
    {
      "inputs": [
        {
          "internalType": "address",
          "name": "newImplementation",
          "type": "address"
        },
        {
          "internalType": "bytes",
          "name": "data",
          "type": "bytes"
        }
      ],
      "name": "upgradeToAndCall",
      "outputs": [],
      "stateMutability": "payable",
      "type": "function"
    }
  ],
  "bytecode": "0x60a06040523073ffffffffffffffffffffffffffffffffffffffff1660809073ffffffffffffffffffffffffffffffffffffffff1681525034801561004357600080fd5b50608051614a5d61007460003960008181610941015281816109d001528181610aca0152610b590152614a5d6000f3fe60806040526004361061014b5760003560e01c80638da5cb5b116100b6578063d95b63711161006f578063d95b637114610471578063dd62ed3e146104ae578063f2fde38b146104eb578063fad8b32a14610514578063fc673c4f1461053d578063fe9d9303146105665761014b565b80638da5cb5b14610363578063959b8c3f1461038e57806395d89b41146103b75780639bd9bbc6146103e2578063a9059cbb1461040b578063a920b78c146104485761014b565b80633659cfe6116101085780633659cfe6146102765780634f1ef2861461029f578063556f0dc7146102bb57806362ad1b83146102e657806370a082311461030f578063715018a61461034c5761014b565b806306e485381461015057806306fdde031461017b578063095ea7b3146101a657806318160ddd146101e357806323b872dd1461020e578063313ce5671461024b575b600080fd5b34801561015c57600080fd5b5061016561058f565b604051610172919061310d565b60405180910390f35b34801561018757600080fd5b5061019061061d565b60405161019d91906131c8565b60405180910390f35b3480156101b257600080fd5b506101cd60048036038101906101c89190613260565b6106af565b6040516101da91906132bb565b60405180910390f35b3480156101ef57600080fd5b506101f86106d2565b60405161020591906132e5565b60405180910390f35b34801561021a57600080fd5b5061023560048036038101906102309190613300565b6106dc565b60405161024291906132bb565b60405180910390f35b34801561025757600080fd5b50610260610936565b60405161026d919061336f565b60405180910390f35b34801561028257600080fd5b5061029d6004803603810190610298919061338a565b61093f565b005b6102b960048036038101906102b491906134ec565b610ac8565b005b3480156102c757600080fd5b506102d0610c05565b6040516102dd91906132e5565b60405180910390f35b3480156102f257600080fd5b5061030d60048036038101906103089190613548565b610c0e565b005b34801561031b57600080fd5b506103366004803603810190610331919061338a565b610c74565b60405161034391906132e5565b60405180910390f35b34801561035857600080fd5b50610361610cbd565b005b34801561036f57600080fd5b50610378610d45565b604051610385919061360a565b60405180910390f35b34801561039a57600080fd5b506103b560048036038101906103b0919061338a565b610d6f565b005b3480156103c357600080fd5b506103cc610fd0565b6040516103d991906131c8565b60405180910390f35b3480156103ee57600080fd5b5061040960048036038101906104049190613625565b611062565b005b34801561041757600080fd5b50610432600480360381019061042d9190613260565b61108c565b60405161043f91906132bb565b60405180910390f35b34801561045457600080fd5b5061046f600480360381019061046a919061375c565b61119a565b005b34801561047d57600080fd5b50610498600480360381019061049391906137b8565b61131f565b6040516104a591906132bb565b60405180910390f35b3480156104ba57600080fd5b506104d560048036038101906104d091906137b8565b6114d0565b6040516104e291906132e5565b60405180910390f35b3480156104f757600080fd5b50610512600480360381019061050d919061338a565b611557565b005b34801561052057600080fd5b5061053b6004803603810190610536919061338a565b61164f565b005b34801561054957600080fd5b50610564600480360381019061055f91906137f8565b6118b0565b005b34801561057257600080fd5b5061058d60048036038101906105889190613897565b611912565b005b6060603780548060200260200160405190810160405280929190818152602001828054801561061357602002820191906000526020600020905b8160009054906101000a900473ffffffffffffffffffffffffffffffffffffffff1673ffffffffffffffffffffffffffffffffffffffff16815260200190600101908083116105c9575b5050505050905090565b60606035805461062c90613922565b80601f016020809104026020016040519081016040528092919081815260200182805461065890613922565b80156106a55780601f1061067a576101008083540402835291602001916106a5565b820191906000526020600020905b81548152906001019060200180831161068857829003601f168201915b5050505050905090565b6000806106ba611938565b90506106c7818585611940565b600191505092915050565b6000603454905090565b60008073ffffffffffffffffffffffffffffffffffffffff168373ffffffffffffffffffffffffffffffffffffffff16141561074d576040517f08c379a0000000000000000000000000000000000000000000000000000000008152600401610744906139c6565b60405180910390fd5b600073ffffffffffffffffffffffffffffffffffffffff168473ffffffffffffffffffffffffffffffffffffffff1614156107bd576040517f08c379a00000000000000000000000000000000000000000000000000000000081526004016107b490613a58565b60405180910390fd5b60006107c7611938565b90506107f5818686866040518060200160405280600081525060405180602001604052806000815250611b0b565b610821818686866040518060200160405280600081525060405180602001604052806000815250611c72565b6000603b60008773ffffffffffffffffffffffffffffffffffffffff1673ffffffffffffffffffffffffffffffffffffffff16815260200190815260200160002060008373ffffffffffffffffffffffffffffffffffffffff1673ffffffffffffffffffffffffffffffffffffffff168152602001908152602001600020549050838110156108e5576040517f08c379a00000000000000000000000000000000000000000000000000000000081526004016108dc90613aea565b60405180910390fd5b6108fb868386846108f69190613b39565b611940565b6109298287878760405180602001604052806000815250604051806020016040528060008152506000611e8f565b6001925050509392505050565b60006012905090565b7f000000000000000000000000000000000000000000000000000000000000000073ffffffffffffffffffffffffffffffffffffffff163073ffffffffffffffffffffffffffffffffffffffff1614156109ce576040517f08c379a00000000000000000000000000000000000000000000000000000000081526004016109c590613bdf565b60405180910390fd5b7f000000000000000000000000000000000000000000000000000000000000000073ffffffffffffffffffffffffffffffffffffffff16610a0d612061565b73ffffffffffffffffffffffffffffffffffffffff1614610a63576040517f08c379a0000000000000000000000000000000000000000000000000000000008152600401610a5a90613c71565b60405180910390fd5b610a6c816120b8565b610ac581600067ffffffffffffffff811115610a8b57610a8a6133c1565b5b6040519080825280601f01601f191660200182016040528015610abd5781602001600182028036833780820191505090505b506000612137565b50565b7f000000000000000000000000000000000000000000000000000000000000000073ffffffffffffffffffffffffffffffffffffffff163073ffffffffffffffffffffffffffffffffffffffff161415610b57576040517f08c379a0000000000000000000000000000000000000000000000000000000008152600401610b4e90613bdf565b60405180910390fd5b7f000000000000000000000000000000000000000000000000000000000000000073ffffffffffffffffffffffffffffffffffffffff16610b96612061565b73ffffffffffffffffffffffffffffffffffffffff1614610bec576040517f08c379a0000000000000000000000000000000000000000000000000000000008152600401610be390613c71565b60405180910390fd5b610bf5826120b8565b610c0182826001612137565b5050565b60006001905090565b610c1f610c19611938565b8661131f565b610c5e576040517f08c379a0000000000000000000000000000000000000000000000000000000008152600401610c5590613d03565b60405180910390fd5b610c6d85858585856001612308565b5050505050565b6000603360008373ffffffffffffffffffffffffffffffffffffffff1673ffffffffffffffffffffffffffffffffffffffff168152602001908152602001600020549050919050565b610cc5611938565b73ffffffffffffffffffffffffffffffffffffffff16610ce3610d45565b73ffffffffffffffffffffffffffffffffffffffff1614610d39576040517f08c379a0000000000000000000000000000000000000000000000000000000008152600401610d3090613d6f565b60405180910390fd5b610d436000612428565b565b6000606560009054906101000a900473ffffffffffffffffffffffffffffffffffffffff16905090565b8073ffffffffffffffffffffffffffffffffffffffff16610d8e611938565b73ffffffffffffffffffffffffffffffffffffffff161415610de5576040517f08c379a0000000000000000000000000000000000000000000000000000000008152600401610ddc90613e01565b60405180910390fd5b603860008273ffffffffffffffffffffffffffffffffffffffff1673ffffffffffffffffffffffffffffffffffffffff16815260200190815260200160002060009054906101000a900460ff1615610ecf57603a6000610e43611938565b73ffffffffffffffffffffffffffffffffffffffff1673ffffffffffffffffffffffffffffffffffffffff16815260200190815260200160002060008273ffffffffffffffffffffffffffffffffffffffff1673ffffffffffffffffffffffffffffffffffffffff16815260200190815260200160002060006101000a81549060ff0219169055610f6c565b600160396000610edd611938565b73ffffffffffffffffffffffffffffffffffffffff1673ffffffffffffffffffffffffffffffffffffffff16815260200190815260200160002060008373ffffffffffffffffffffffffffffffffffffffff1673ffffffffffffffffffffffffffffffffffffffff16815260200190815260200160002060006101000a81548160ff0219169083151502179055505b610f74611938565b73ffffffffffffffffffffffffffffffffffffffff168173ffffffffffffffffffffffffffffffffffffffff167ff4caeb2d6ca8932a215a353d0703c326ec2d81fc68170f320eb2ab49e9df61f960405160405180910390a350565b606060368054610fdf90613922565b80601f016020809104026020016040519081016040528092919081815260200182805461100b90613922565b80156110585780601f1061102d57610100808354040283529160200191611058565b820191906000526020600020905b81548152906001019060200180831161103b57829003601f168201915b5050505050905090565b61108761106d611938565b848484604051806020016040528060008152506001612308565b505050565b60008073ffffffffffffffffffffffffffffffffffffffff168373ffffffffffffffffffffffffffffffffffffffff1614156110fd576040517f08c379a00000000000000000000000000000000000000000000000000000000081526004016110f4906139c6565b60405180910390fd5b6000611107611938565b9050611135818286866040518060200160405280600081525060405180602001604052806000815250611b0b565b611161818286866040518060200160405280600081525060405180602001604052806000815250611c72565b61118f8182868660405180602001604052806000815250604051806020016040528060008152506000611e8f565b600191505092915050565b600060019054906101000a900460ff166111c25760008054906101000a900460ff16156111cb565b6111ca6124ee565b5b61120a576040517f08c379a000000000000000000000000000000000000000000000000000000000815260040161120190613e93565b60405180910390fd5b60008060019054906101000a900460ff16159050801561125a576001600060016101000a81548160ff02191690831515021790555060016000806101000a81548160ff0219169083151502179055505b6112cf6040518060400160405280600681526020017f47616d626c6500000000000000000000000000000000000000000000000000008152506040518060400160405280600681526020017f47414d424c450000000000000000000000000000000000000000000000000000815250846124ff565b6112f933846040518060200160405280600081525060405180602001604052806000815250612566565b801561131a5760008060016101000a81548160ff0219169083151502179055505b505050565b60008173ffffffffffffffffffffffffffffffffffffffff168373ffffffffffffffffffffffffffffffffffffffff1614806114375750603860008473ffffffffffffffffffffffffffffffffffffffff1673ffffffffffffffffffffffffffffffffffffffff16815260200190815260200160002060009054906101000a900460ff1680156114365750603a60008373ffffffffffffffffffffffffffffffffffffffff1673ffffffffffffffffffffffffffffffffffffffff16815260200190815260200160002060008473ffffffffffffffffffffffffffffffffffffffff1673ffffffffffffffffffffffffffffffffffffffff16815260200190815260200160002060009054906101000a900460ff16155b5b806114c85750603960008373ffffffffffffffffffffffffffffffffffffffff1673ffffffffffffffffffffffffffffffffffffffff16815260200190815260200160002060008473ffffffffffffffffffffffffffffffffffffffff1673ffffffffffffffffffffffffffffffffffffffff16815260200190815260200160002060009054906101000a900460ff165b905092915050565b6000603b60008473ffffffffffffffffffffffffffffffffffffffff1673ffffffffffffffffffffffffffffffffffffffff16815260200190815260200160002060008373ffffffffffffffffffffffffffffffffffffffff1673ffffffffffffffffffffffffffffffffffffffff16815260200190815260200160002054905092915050565b61155f611938565b73ffffffffffffffffffffffffffffffffffffffff1661157d610d45565b73ffffffffffffffffffffffffffffffffffffffff16146115d3576040517f08c379a00000000000000000000000000000000000000000000000000000000081526004016115ca90613d6f565b60405180910390fd5b600073ffffffffffffffffffffffffffffffffffffffff168173ffffffffffffffffffffffffffffffffffffffff161415611643576040517f08c379a000000000000000000000000000000000000000000000000000000000815260040161163a90613f25565b60405180910390fd5b61164c81612428565b50565b611657611938565b73ffffffffffffffffffffffffffffffffffffffff168173ffffffffffffffffffffffffffffffffffffffff1614156116c5576040517f08c379a00000000000000000000000000000000000000000000000000000000081526004016116bc90613fb7565b60405180910390fd5b603860008273ffffffffffffffffffffffffffffffffffffffff1673ffffffffffffffffffffffffffffffffffffffff16815260200190815260200160002060009054906101000a900460ff16156117b8576001603a6000611725611938565b73ffffffffffffffffffffffffffffffffffffffff1673ffffffffffffffffffffffffffffffffffffffff16815260200190815260200160002060008373ffffffffffffffffffffffffffffffffffffffff1673ffffffffffffffffffffffffffffffffffffffff16815260200190815260200160002060006101000a81548160ff02191690831515021790555061184c565b603960006117c4611938565b73ffffffffffffffffffffffffffffffffffffffff1673ffffffffffffffffffffffffffffffffffffffff16815260200190815260200160002060008273ffffffffffffffffffffffffffffffffffffffff1673ffffffffffffffffffffffffffffffffffffffff16815260200190815260200160002060006101000a81549060ff02191690555b611854611938565b73ffffffffffffffffffffffffffffffffffffffff168173ffffffffffffffffffffffffffffffffffffffff167f50546e66e5f44d728365dc3908c63bc5cfeeab470722c1677e3073a6ac294aa160405160405180910390a350565b6118c16118bb611938565b8561131f565b611900576040517f08c379a00000000000000000000000000000000000000000000000000000000081526004016118f790613d03565b60405180910390fd5b61190c8484848461257a565b50505050565b61193461191d611938565b83836040518060200160405280600081525061257a565b5050565b600033905090565b600073ffffffffffffffffffffffffffffffffffffffff168373ffffffffffffffffffffffffffffffffffffffff1614156119b0576040517f08c379a00000000000000000000000000000000000000000000000000000000081526004016119a790614049565b60405180910390fd5b600073ffffffffffffffffffffffffffffffffffffffff168273ffffffffffffffffffffffffffffffffffffffff161415611a20576040517f08c379a0000000000000000000000000000000000000000000000000000000008152600401611a17906140db565b60405180910390fd5b80603b60008573ffffffffffffffffffffffffffffffffffffffff1673ffffffffffffffffffffffffffffffffffffffff16815260200190815260200160002060008473ffffffffffffffffffffffffffffffffffffffff1673ffffffffffffffffffffffffffffffffffffffff168152602001908152602001600020819055508173ffffffffffffffffffffffffffffffffffffffff168373ffffffffffffffffffffffffffffffffffffffff167f8c5be1e5ebec7d5bd14f71427d1e84f3dd0314c0f7b2291e5b200ac8c7c3b92583604051611afe91906132e5565b60405180910390a3505050565b6000731820a4b7618bde71dce8cdc73aab6c95905fad2473ffffffffffffffffffffffffffffffffffffffff1663aabbb8ca877f29ddb589b1fb5fc7cf394961c1adf5f8c6454761adf795e67fe149f658abe8956040518363ffffffff1660e01b8152600401611b7c929190614114565b602060405180830381865afa158015611b99573d6000803e3d6000fd5b505050506040513d601f19601f82011682018060405250810190611bbd9190614152565b9050600073ffffffffffffffffffffffffffffffffffffffff168173ffffffffffffffffffffffffffffffffffffffff1614611c69578073ffffffffffffffffffffffffffffffffffffffff166375ab97828888888888886040518763ffffffff1660e01b8152600401611c36969594939291906141d4565b600060405180830381600087803b158015611c5057600080fd5b505af1158015611c64573d6000803e3d6000fd5b505050505b50505050505050565b611c7e868686866127cf565b6000603360008773ffffffffffffffffffffffffffffffffffffffff1673ffffffffffffffffffffffffffffffffffffffff16815260200190815260200160002054905083811015611d05576040517f08c379a0000000000000000000000000000000000000000000000000000000008152600401611cfc906142b5565b60405180910390fd5b838103603360008873ffffffffffffffffffffffffffffffffffffffff1673ffffffffffffffffffffffffffffffffffffffff1681526020019081526020016000208190555083603360008773ffffffffffffffffffffffffffffffffffffffff1673ffffffffffffffffffffffffffffffffffffffff1681526020019081526020016000206000828254611d9a91906142d5565b925050819055508473ffffffffffffffffffffffffffffffffffffffff168673ffffffffffffffffffffffffffffffffffffffff168873ffffffffffffffffffffffffffffffffffffffff167f06b541ddaa720db2b10a4d0cdac39b8d360425fc073085fac19bc82614677987878787604051611e199392919061432b565b60405180910390a48473ffffffffffffffffffffffffffffffffffffffff168673ffffffffffffffffffffffffffffffffffffffff167fddf252ad1be2c89b69c2b068fc378daa952ba7f163c4a11628f55a4df523b3ef86604051611e7e91906132e5565b60405180910390a350505050505050565b6000731820a4b7618bde71dce8cdc73aab6c95905fad2473ffffffffffffffffffffffffffffffffffffffff1663aabbb8ca877fb281fc8c12954d22544db45de3159a39272895b169a852b314f9cc762e44c53b6040518363ffffffff1660e01b8152600401611f00929190614114565b602060405180830381865afa158015611f1d573d6000803e3d6000fd5b505050506040513d601f19601f82011682018060405250810190611f419190614152565b9050600073ffffffffffffffffffffffffffffffffffffffff168173ffffffffffffffffffffffffffffffffffffffff1614611ff0578073ffffffffffffffffffffffffffffffffffffffff166223de298989898989896040518763ffffffff1660e01b8152600401611fb9969594939291906141d4565b600060405180830381600087803b158015611fd357600080fd5b505af1158015611fe7573d6000803e3d6000fd5b50505050612057565b8115612056576120158673ffffffffffffffffffffffffffffffffffffffff166127d5565b15612055576040517f08c379a000000000000000000000000000000000000000000000000000000000815260040161204c90614408565b60405180910390fd5b5b5b5050505050505050565b600061208f7f360894a13ba1a3210667c828492db98dca3e2076cc3735a920a3ca505d382bbc60001b6127e8565b60000160009054906101000a900473ffffffffffffffffffffffffffffffffffffffff16905090565b6120c0611938565b73ffffffffffffffffffffffffffffffffffffffff166120de610d45565b73ffffffffffffffffffffffffffffffffffffffff1614612134576040517f08c379a000000000000000000000000000000000000000000000000000000000815260040161212b90613d6f565b60405180910390fd5b50565b6000612141612061565b905061214c846127f2565b6000835111806121595750815b1561216a5761216884846128ab565b505b60006121987f4910fdfa16fed3260ed0e7147f7cc6da11a60208b5b9406d12a635614ffd914360001b61298f565b90508060000160009054906101000a900460ff166123015760018160000160006101000a81548160ff02191690831515021790555061226485836040516024016121e2919061360a565b6040516020818303038152906040527f3659cfe6000000000000000000000000000000000000000000000000000000007bffffffffffffffffffffffffffffffffffffffffffffffffffffffff19166020820180517bffffffffffffffffffffffffffffffffffffffffffffffffffffffff83818316178352505050506128ab565b5060008160000160006101000a81548160ff02191690831515021790555061228a612061565b73ffffffffffffffffffffffffffffffffffffffff168273ffffffffffffffffffffffffffffffffffffffff16146122f7576040517f08c379a00000000000000000000000000000000000000000000000000000000081526004016122ee9061449a565b60405180910390fd5b61230085612999565b5b5050505050565b600073ffffffffffffffffffffffffffffffffffffffff168673ffffffffffffffffffffffffffffffffffffffff161415612378576040517f08c379a000000000000000000000000000000000000000000000000000000000815260040161236f9061452c565b60405180910390fd5b600073ffffffffffffffffffffffffffffffffffffffff168573ffffffffffffffffffffffffffffffffffffffff1614156123e8576040517f08c379a00000000000000000000000000000000000000000000000000000000081526004016123df90614598565b60405180910390fd5b60006123f2611938565b9050612402818888888888611b0b565b612410818888888888611c72565b61241f81888888888888611e8f565b50505050505050565b6000606560009054906101000a900473ffffffffffffffffffffffffffffffffffffffff16905081606560006101000a81548173ffffffffffffffffffffffffffffffffffffffff021916908373ffffffffffffffffffffffffffffffffffffffff1602179055508173ffffffffffffffffffffffffffffffffffffffff168173ffffffffffffffffffffffffffffffffffffffff167f8be0079c531659141344cd1fd0a4f28419497f9722a3daafe3b4186f6b6457e060405160405180910390a35050565b60006124f9306127d5565b15905090565b600060019054906101000a900460ff1661254e576040517f08c379a00000000000000000000000000000000000000000000000000000000081526004016125459061462a565b60405180910390fd5b6125566129e8565b612561838383612a39565b505050565b612574848484846001612caa565b50505050565b600073ffffffffffffffffffffffffffffffffffffffff168473ffffffffffffffffffffffffffffffffffffffff1614156125ea576040517f08c379a00000000000000000000000000000000000000000000000000000000081526004016125e1906146bc565b60405180910390fd5b60006125f4611938565b905061260581866000878787611b0b565b61261281866000876127cf565b6000603360008773ffffffffffffffffffffffffffffffffffffffff1673ffffffffffffffffffffffffffffffffffffffff16815260200190815260200160002054905084811015612699576040517f08c379a00000000000000000000000000000000000000000000000000000000081526004016126909061474e565b60405180910390fd5b848103603360008873ffffffffffffffffffffffffffffffffffffffff1673ffffffffffffffffffffffffffffffffffffffff1681526020019081526020016000208190555084603460008282546126f19190613b39565b925050819055508573ffffffffffffffffffffffffffffffffffffffff168273ffffffffffffffffffffffffffffffffffffffff167fa78a9be3a7b862d26933ad85fb11d80ef66b8f972d7cbba06621d583943a40988787876040516127599392919061432b565b60405180910390a3600073ffffffffffffffffffffffffffffffffffffffff168673ffffffffffffffffffffffffffffffffffffffff167fddf252ad1be2c89b69c2b068fc378daa952ba7f163c4a11628f55a4df523b3ef876040516127bf91906132e5565b60405180910390a3505050505050565b50505050565b600080823b905060008111915050919050565b6000819050919050565b6127fb816127d5565b61283a576040517f08c379a0000000000000000000000000000000000000000000000000000000008152600401612831906147e0565b60405180910390fd5b806128677f360894a13ba1a3210667c828492db98dca3e2076cc3735a920a3ca505d382bbc60001b6127e8565b60000160006101000a81548173ffffffffffffffffffffffffffffffffffffffff021916908373ffffffffffffffffffffffffffffffffffffffff16021790555050565b60606128b6836127d5565b6128f5576040517f08c379a00000000000000000000000000000000000000000000000000000000081526004016128ec90614872565b60405180910390fd5b6000808473ffffffffffffffffffffffffffffffffffffffff168460405161291d91906148ce565b600060405180830381855af49150503d8060008114612958576040519150601f19603f3d011682016040523d82523d6000602084013e61295d565b606091505b50915091506129858282604051806060016040528060278152602001614a0160279139612e89565b9250505092915050565b6000819050919050565b6129a2816127f2565b8073ffffffffffffffffffffffffffffffffffffffff167fbc7cd75a20ee27fd9adebab32041f755214dbc6bffa90cc0225b39da2e5c2d3b60405160405180910390a250565b600060019054906101000a900460ff16612a37576040517f08c379a0000000000000000000000000000000000000000000000000000000008152600401612a2e9061462a565b60405180910390fd5b565b600060019054906101000a900460ff16612a88576040517f08c379a0000000000000000000000000000000000000000000000000000000008152600401612a7f9061462a565b60405180910390fd5b8260359080519060200190612a9e929190612ef0565b508160369080519060200190612ab5929190612ef0565b508060379080519060200190612acc929190612f76565b5060005b8151811015612b5e57600160386000848481518110612af257612af16148e5565b5b602002602001015173ffffffffffffffffffffffffffffffffffffffff1673ffffffffffffffffffffffffffffffffffffffff16815260200190815260200160002060006101000a81548160ff0219169083151502179055508080612b5690614914565b915050612ad0565b50731820a4b7618bde71dce8cdc73aab6c95905fad2473ffffffffffffffffffffffffffffffffffffffff166329965a1d307fac7fbab5f54a3ca8194167523c6753bfeb96a445279294b6125b68cce2177054306040518463ffffffff1660e01b8152600401612bd09392919061495d565b600060405180830381600087803b158015612bea57600080fd5b505af1158015612bfe573d6000803e3d6000fd5b50505050731820a4b7618bde71dce8cdc73aab6c95905fad2473ffffffffffffffffffffffffffffffffffffffff166329965a1d307faea199e31a596269b42cdafd93407f14436db6e4cad65417994c2eb37381e05a306040518463ffffffff1660e01b8152600401612c739392919061495d565b600060405180830381600087803b158015612c8d57600080fd5b505af1158015612ca1573d6000803e3d6000fd5b50505050505050565b600073ffffffffffffffffffffffffffffffffffffffff168573ffffffffffffffffffffffffffffffffffffffff161415612d1a576040517f08c379a0000000000000000000000000000000000000000000000000000000008152600401612d11906149e0565b60405180910390fd5b6000612d24611938565b9050612d3381600088886127cf565b8460346000828254612d4591906142d5565b9250508190555084603360008873ffffffffffffffffffffffffffffffffffffffff1673ffffffffffffffffffffffffffffffffffffffff1681526020019081526020016000206000828254612d9b91906142d5565b92505081905550612db28160008888888888611e8f565b8573ffffffffffffffffffffffffffffffffffffffff168173ffffffffffffffffffffffffffffffffffffffff167f2fe5be0146f74c5bce36c0b80911af6c7d86ff27e89d5cfa61fc681327954e5d878787604051612e139392919061432b565b60405180910390a38573ffffffffffffffffffffffffffffffffffffffff16600073ffffffffffffffffffffffffffffffffffffffff167fddf252ad1be2c89b69c2b068fc378daa952ba7f163c4a11628f55a4df523b3ef87604051612e7991906132e5565b60405180910390a3505050505050565b60608315612e9957829050612ee9565b600083511115612eac5782518084602001fd5b816040517f08c379a0000000000000000000000000000000000000000000000000000000008152600401612ee091906131c8565b60405180910390fd5b9392505050565b828054612efc90613922565b90600052602060002090601f016020900481019282612f1e5760008555612f65565b82601f10612f3757805160ff1916838001178555612f65565b82800160010185558215612f65579182015b82811115612f64578251825591602001919060010190612f49565b5b509050612f729190613000565b5090565b828054828255906000526020600020908101928215612fef579160200282015b82811115612fee5782518260006101000a81548173ffffffffffffffffffffffffffffffffffffffff021916908373ffffffffffffffffffffffffffffffffffffffff16021790555091602001919060010190612f96565b5b509050612ffc9190613000565b5090565b5b80821115613019576000816000905550600101613001565b5090565b600081519050919050565b600082825260208201905092915050565b6000819050602082019050919050565b600073ffffffffffffffffffffffffffffffffffffffff82169050919050565b600061307482613049565b9050919050565b61308481613069565b82525050565b6000613096838361307b565b60208301905092915050565b6000602082019050919050565b60006130ba8261301d565b6130c48185613028565b93506130cf83613039565b8060005b838110156131005781516130e7888261308a565b97506130f2836130a2565b9250506001810190506130d3565b5085935050505092915050565b6000602082019050818103600083015261312781846130af565b905092915050565b600081519050919050565b600082825260208201905092915050565b60005b8381101561316957808201518184015260208101905061314e565b83811115613178576000848401525b50505050565b6000601f19601f8301169050919050565b600061319a8261312f565b6131a4818561313a565b93506131b481856020860161314b565b6131bd8161317e565b840191505092915050565b600060208201905081810360008301526131e2818461318f565b905092915050565b6000604051905090565b600080fd5b600080fd5b61320781613069565b811461321257600080fd5b50565b600081359050613224816131fe565b92915050565b6000819050919050565b61323d8161322a565b811461324857600080fd5b50565b60008135905061325a81613234565b92915050565b60008060408385031215613277576132766131f4565b5b600061328585828601613215565b92505060206132968582860161324b565b9150509250929050565b60008115159050919050565b6132b5816132a0565b82525050565b60006020820190506132d060008301846132ac565b92915050565b6132df8161322a565b82525050565b60006020820190506132fa60008301846132d6565b92915050565b600080600060608486031215613319576133186131f4565b5b600061332786828701613215565b935050602061333886828701613215565b92505060406133498682870161324b565b9150509250925092565b600060ff82169050919050565b61336981613353565b82525050565b60006020820190506133846000830184613360565b92915050565b6000602082840312156133a05761339f6131f4565b5b60006133ae84828501613215565b91505092915050565b600080fd5b600080fd5b7f4e487b7100000000000000000000000000000000000000000000000000000000600052604160045260246000fd5b6133f98261317e565b810181811067ffffffffffffffff82111715613418576134176133c1565b5b80604052505050565b600061342b6131ea565b905061343782826133f0565b919050565b600067ffffffffffffffff821115613457576134566133c1565b5b6134608261317e565b9050602081019050919050565b82818337600083830152505050565b600061348f61348a8461343c565b613421565b9050828152602081018484840111156134ab576134aa6133bc565b5b6134b684828561346d565b509392505050565b600082601f8301126134d3576134d26133b7565b5b81356134e384826020860161347c565b91505092915050565b60008060408385031215613503576135026131f4565b5b600061351185828601613215565b925050602083013567ffffffffffffffff811115613532576135316131f9565b5b61353e858286016134be565b9150509250929050565b600080600080600060a08688031215613564576135636131f4565b5b600061357288828901613215565b955050602061358388828901613215565b94505060406135948882890161324b565b935050606086013567ffffffffffffffff8111156135b5576135b46131f9565b5b6135c1888289016134be565b925050608086013567ffffffffffffffff8111156135e2576135e16131f9565b5b6135ee888289016134be565b9150509295509295909350565b61360481613069565b82525050565b600060208201905061361f60008301846135fb565b92915050565b60008060006060848603121561363e5761363d6131f4565b5b600061364c86828701613215565b935050602061365d8682870161324b565b925050604084013567ffffffffffffffff81111561367e5761367d6131f9565b5b61368a868287016134be565b9150509250925092565b600067ffffffffffffffff8211156136af576136ae6133c1565b5b602082029050602081019050919050565b600080fd5b60006136d86136d384613694565b613421565b905080838252602082019050602084028301858111156136fb576136fa6136c0565b5b835b8181101561372457806137108882613215565b8452602084019350506020810190506136fd565b5050509392505050565b600082601f830112613743576137426133b7565b5b81356137538482602086016136c5565b91505092915050565b60008060408385031215613773576137726131f4565b5b60006137818582860161324b565b925050602083013567ffffffffffffffff8111156137a2576137a16131f9565b5b6137ae8582860161372e565b9150509250929050565b600080604083850312156137cf576137ce6131f4565b5b60006137dd85828601613215565b92505060206137ee85828601613215565b9150509250929050565b60008060008060808587031215613812576138116131f4565b5b600061382087828801613215565b94505060206138318782880161324b565b935050604085013567ffffffffffffffff811115613852576138516131f9565b5b61385e878288016134be565b925050606085013567ffffffffffffffff81111561387f5761387e6131f9565b5b61388b878288016134be565b91505092959194509250565b600080604083850312156138ae576138ad6131f4565b5b60006138bc8582860161324b565b925050602083013567ffffffffffffffff8111156138dd576138dc6131f9565b5b6138e9858286016134be565b9150509250929050565b7f4e487b7100000000000000000000000000000000000000000000000000000000600052602260045260246000fd5b6000600282049050600182168061393a57607f821691505b6020821081141561394e5761394d6138f3565b5b50919050565b7f4552433737373a207472616e7366657220746f20746865207a65726f2061646460008201527f7265737300000000000000000000000000000000000000000000000000000000602082015250565b60006139b060248361313a565b91506139bb82613954565b604082019050919050565b600060208201905081810360008301526139df816139a3565b9050919050565b7f4552433737373a207472616e736665722066726f6d20746865207a65726f206160008201527f6464726573730000000000000000000000000000000000000000000000000000602082015250565b6000613a4260268361313a565b9150613a4d826139e6565b604082019050919050565b60006020820190508181036000830152613a7181613a35565b9050919050565b7f4552433737373a207472616e7366657220616d6f756e7420657863656564732060008201527f616c6c6f77616e63650000000000000000000000000000000000000000000000602082015250565b6000613ad460298361313a565b9150613adf82613a78565b604082019050919050565b60006020820190508181036000830152613b0381613ac7565b9050919050565b7f4e487b7100000000000000000000000000000000000000000000000000000000600052601160045260246000fd5b6000613b448261322a565b9150613b4f8361322a565b925082821015613b6257613b61613b0a565b5b828203905092915050565b7f46756e6374696f6e206d7573742062652063616c6c6564207468726f7567682060008201527f64656c656761746563616c6c0000000000000000000000000000000000000000602082015250565b6000613bc9602c8361313a565b9150613bd482613b6d565b604082019050919050565b60006020820190508181036000830152613bf881613bbc565b9050919050565b7f46756e6374696f6e206d7573742062652063616c6c6564207468726f7567682060008201527f6163746976652070726f78790000000000000000000000000000000000000000602082015250565b6000613c5b602c8361313a565b9150613c6682613bff565b604082019050919050565b60006020820190508181036000830152613c8a81613c4e565b9050919050565b7f4552433737373a2063616c6c6572206973206e6f7420616e206f70657261746f60008201527f7220666f7220686f6c6465720000000000000000000000000000000000000000602082015250565b6000613ced602c8361313a565b9150613cf882613c91565b604082019050919050565b60006020820190508181036000830152613d1c81613ce0565b9050919050565b7f4f776e61626c653a2063616c6c6572206973206e6f7420746865206f776e6572600082015250565b6000613d5960208361313a565b9150613d6482613d23565b602082019050919050565b60006020820190508181036000830152613d8881613d4c565b9050919050565b7f4552433737373a20617574686f72697a696e672073656c66206173206f70657260008201527f61746f7200000000000000000000000000000000000000000000000000000000602082015250565b6000613deb60248361313a565b9150613df682613d8f565b604082019050919050565b60006020820190508181036000830152613e1a81613dde565b9050919050565b7f496e697469616c697a61626c653a20636f6e747261637420697320616c72656160008201527f647920696e697469616c697a6564000000000000000000000000000000000000602082015250565b6000613e7d602e8361313a565b9150613e8882613e21565b604082019050919050565b60006020820190508181036000830152613eac81613e70565b9050919050565b7f4f776e61626c653a206e6577206f776e657220697320746865207a65726f206160008201527f6464726573730000000000000000000000000000000000000000000000000000602082015250565b6000613f0f60268361313a565b9150613f1a82613eb3565b604082019050919050565b60006020820190508181036000830152613f3e81613f02565b9050919050565b7f4552433737373a207265766f6b696e672073656c66206173206f70657261746f60008201527f7200000000000000000000000000000000000000000000000000000000000000602082015250565b6000613fa160218361313a565b9150613fac82613f45565b604082019050919050565b60006020820190508181036000830152613fd081613f94565b9050919050565b7f4552433737373a20617070726f76652066726f6d20746865207a65726f20616460008201527f6472657373000000000000000000000000000000000000000000000000000000602082015250565b600061403360258361313a565b915061403e82613fd7565b604082019050919050565b6000602082019050818103600083015261406281614026565b9050919050565b7f4552433737373a20617070726f766520746f20746865207a65726f206164647260008201527f6573730000000000000000000000000000000000000000000000000000000000602082015250565b60006140c560238361313a565b91506140d082614069565b604082019050919050565b600060208201905081810360008301526140f4816140b8565b9050919050565b6000819050919050565b61410e816140fb565b82525050565b600060408201905061412960008301856135fb565b6141366020830184614105565b9392505050565b60008151905061414c816131fe565b92915050565b600060208284031215614168576141676131f4565b5b60006141768482850161413d565b91505092915050565b600081519050919050565b600082825260208201905092915050565b60006141a68261417f565b6141b0818561418a565b93506141c081856020860161314b565b6141c98161317e565b840191505092915050565b600060c0820190506141e960008301896135fb565b6141f660208301886135fb565b61420360408301876135fb565b61421060608301866132d6565b8181036080830152614222818561419b565b905081810360a0830152614236818461419b565b9050979650505050505050565b7f4552433737373a207472616e7366657220616d6f756e7420657863656564732060008201527f62616c616e636500000000000000000000000000000000000000000000000000602082015250565b600061429f60278361313a565b91506142aa82614243565b604082019050919050565b600060208201905081810360008301526142ce81614292565b9050919050565b60006142e08261322a565b91506142eb8361322a565b9250827fffffffffffffffffffffffffffffffffffffffffffffffffffffffffffffffff038211156143205761431f613b0a565b5b828201905092915050565b600060608201905061434060008301866132d6565b8181036020830152614352818561419b565b90508181036040830152614366818461419b565b9050949350505050565b7f4552433737373a20746f6b656e20726563697069656e7420636f6e747261637460008201527f20686173206e6f20696d706c656d656e74657220666f7220455243373737546f60208201527f6b656e73526563697069656e7400000000000000000000000000000000000000604082015250565b60006143f2604d8361313a565b91506143fd82614370565b606082019050919050565b60006020820190508181036000830152614421816143e5565b9050919050565b7f45524331393637557067726164653a207570677261646520627265616b73206660008201527f7572746865722075706772616465730000000000000000000000000000000000602082015250565b6000614484602f8361313a565b915061448f82614428565b604082019050919050565b600060208201905081810360008301526144b381614477565b9050919050565b7f4552433737373a2073656e642066726f6d20746865207a65726f20616464726560008201527f7373000000000000000000000000000000000000000000000000000000000000602082015250565b600061451660228361313a565b9150614521826144ba565b604082019050919050565b6000602082019050818103600083015261454581614509565b9050919050565b7f4552433737373a2073656e6420746f20746865207a65726f2061646472657373600082015250565b600061458260208361313a565b915061458d8261454c565b602082019050919050565b600060208201905081810360008301526145b181614575565b9050919050565b7f496e697469616c697a61626c653a20636f6e7472616374206973206e6f74206960008201527f6e697469616c697a696e67000000000000000000000000000000000000000000602082015250565b6000614614602b8361313a565b915061461f826145b8565b604082019050919050565b6000602082019050818103600083015261464381614607565b9050919050565b7f4552433737373a206275726e2066726f6d20746865207a65726f20616464726560008201527f7373000000000000000000000000000000000000000000000000000000000000602082015250565b60006146a660228361313a565b91506146b18261464a565b604082019050919050565b600060208201905081810360008301526146d581614699565b9050919050565b7f4552433737373a206275726e20616d6f756e7420657863656564732062616c6160008201527f6e63650000000000000000000000000000000000000000000000000000000000602082015250565b600061473860238361313a565b9150614743826146dc565b604082019050919050565b600060208201905081810360008301526147678161472b565b9050919050565b7f455243313936373a206e657720696d706c656d656e746174696f6e206973206e60008201527f6f74206120636f6e747261637400000000000000000000000000000000000000602082015250565b60006147ca602d8361313a565b91506147d58261476e565b604082019050919050565b600060208201905081810360008301526147f9816147bd565b9050919050565b7f416464726573733a2064656c65676174652063616c6c20746f206e6f6e2d636f60008201527f6e74726163740000000000000000000000000000000000000000000000000000602082015250565b600061485c60268361313a565b915061486782614800565b604082019050919050565b6000602082019050818103600083015261488b8161484f565b9050919050565b600081905092915050565b60006148a88261417f565b6148b28185614892565b93506148c281856020860161314b565b80840191505092915050565b60006148da828461489d565b915081905092915050565b7f4e487b7100000000000000000000000000000000000000000000000000000000600052603260045260246000fd5b600061491f8261322a565b91507fffffffffffffffffffffffffffffffffffffffffffffffffffffffffffffffff82141561495257614951613b0a565b5b600182019050919050565b600060608201905061497260008301866135fb565b61497f6020830185614105565b61498c60408301846135fb565b949350505050565b7f4552433737373a206d696e7420746f20746865207a65726f2061646472657373600082015250565b60006149ca60208361313a565b91506149d582614994565b602082019050919050565b600060208201905081810360008301526149f9816149bd565b905091905056fe416464726573733a206c6f772d6c6576656c2064656c65676174652063616c6c206661696c6564a2646970667358221220affb3e3191defe244944d93aaafe2911a7303974617f7b4679c4a595c4771ddd64736f6c634300080a0033",
  "linkReferences": {},
  "deployedLinkReferences": {}
}