{
  "_format": "hh-sol-artifact-1",
  "contractName": "GamebitInfra",
  "sourceName": "contracts/Infra.sol",
  "abi": [
    {
      "inputs": [
        {
          "internalType": "address",
          "name": "_gamebitAuthorizations",
          "type": "address"
        }
      ],
      "stateMutability": "nonpayable",
      "type": "constructor"
    },
    {
      "anonymous": false,
      "inputs": [
        {
          "indexed": false,
          "internalType": "uint256",
          "name": "requestIndex",
          "type": "uint256"
        }
      ],
      "name": "RNGRequestCancelled",
      "type": "event"
    },
    {
      "anonymous": false,
      "inputs": [
        {
          "indexed": false,
          "internalType": "uint256",
          "name": "requestIndex",
          "type": "uint256"
        }
      ],
      "name": "RNGRequestCreated",
      "type": "event"
    },
    {
      "anonymous": false,
      "inputs": [
        {
          "indexed": false,
          "internalType": "uint256",
          "name": "requestIndex",
          "type": "uint256"
        },
        {
          "indexed": false,
          "internalType": "uint256",
          "name": "result",
          "type": "uint256"
        }
      ],
      "name": "RNGRequestFulfilled",
      "type": "event"
    },
    {
      "inputs": [
        {
          "internalType": "uint256",
          "name": "_rngIndex",
          "type": "uint256"
        },
        {
          "internalType": "uint256",
          "name": "_randomNum",
          "type": "uint256"
        },
        {
          "internalType": "uint256",
          "name": "_provenance",
          "type": "uint256"
        }
      ],
      "name": "fulFillRng",
      "outputs": [],
      "stateMutability": "nonpayable",
      "type": "function"
    },
    {
      "inputs": [],
      "name": "requestRng",
      "outputs": [
        {
          "internalType": "uint256",
          "name": "rngIndex",
          "type": "uint256"
        }
      ],
      "stateMutability": "nonpayable",
      "type": "function"
    },
    {
      "inputs": [
        {
          "internalType": "uint256",
          "name": "_rngIndex",
          "type": "uint256"
        },
        {
          "internalType": "uint256",
          "name": "_provenance",
          "type": "uint256"
        }
      ],
      "name": "validateCommit",
      "outputs": [
        {
          "internalType": "bool",
          "name": "",
          "type": "bool"
        }
      ],
      "stateMutability": "nonpayable",
      "type": "function"
    }
  ],
  "bytecode": "0x60806040526001805534801561001457600080fd5b50604051610e49380380610e49833981810160405281019061003691906100df565b806000806101000a81548173ffffffffffffffffffffffffffffffffffffffff021916908373ffffffffffffffffffffffffffffffffffffffff1602179055505061010c565b600080fd5b600073ffffffffffffffffffffffffffffffffffffffff82169050919050565b60006100ac82610081565b9050919050565b6100bc816100a1565b81146100c757600080fd5b50565b6000815190506100d9816100b3565b92915050565b6000602082840312156100f5576100f461007c565b5b6000610103848285016100ca565b91505092915050565b610d2e8061011b6000396000f3fe608060405234801561001057600080fd5b50600436106100415760003560e01c8063713836051461004657806379663e4914610076578063c2cabcf014610094575b600080fd5b610060600480360381019061005b9190610721565b6100b0565b60405161006d919061077c565b60405180910390f35b61007e6102fb565b60405161008b91906107a6565b60405180910390f35b6100ae60048036038101906100a991906107c1565b6104ff565b005b60006002600084815260200190815260200160002060020160009054906101000a900473ffffffffffffffffffffffffffffffffffffffff1673ffffffffffffffffffffffffffffffffffffffff163373ffffffffffffffffffffffffffffffffffffffff1614610156576040517f08c379a000000000000000000000000000000000000000000000000000000000815260040161014d90610897565b60405180910390fd5b600015156002600085815260200190815260200160002060020160149054906101000a900460ff161515146101c0576040517f08c379a00000000000000000000000000000000000000000000000000000000081526004016101b790610929565b60405180910390fd5b81600360008581526020019081526020016000205414610215576040517f08c379a000000000000000000000000000000000000000000000000000000000815260040161020c90610995565b60405180910390fd5b60016002600085815260200190815260200160002060020160146101000a81548160ff0219169083151502179055507f2855065353b3a55ef896d853c04daf8a5c19f3de7bc77435e56eb3a50b0551d58360046000868152602001908152602001600020546040516102889291906109b5565b60405180910390a16002600084815260200190815260200160002060008082016000905560018201600090556002820160006101000a81549073ffffffffffffffffffffffffffffffffffffffff02191690556002820160146101000a81549060ff021916905550506001905092915050565b60008060009054906101000a900473ffffffffffffffffffffffffffffffffffffffff1673ffffffffffffffffffffffffffffffffffffffff16634e2b446f336040518263ffffffff1660e01b81526004016103579190610a1f565b602060405180830381865afa158015610374573d6000803e3d6000fd5b505050506040513d601f19601f820116820180604052508101906103989190610a66565b6103d7576040517f08c379a00000000000000000000000000000000000000000000000000000000081526004016103ce90610b05565b60405180910390fd5b604051806080016040528043815260200160015481526020013373ffffffffffffffffffffffffffffffffffffffff16815260200160001515815250600260006001548152602001908152602001600020600082015181600001556020820151816001015560408201518160020160006101000a81548173ffffffffffffffffffffffffffffffffffffffff021916908373ffffffffffffffffffffffffffffffffffffffff16021790555060608201518160020160146101000a81548160ff021916908315150217905550905050600160008154809291906104b990610b54565b91905055507f691281bc23b2c98645a6185b4b2ccbb54ced17597ff8d427652e0d655cdf3f196001546040516104ef91906107a6565b60405180910390a1600154905090565b60008054906101000a900473ffffffffffffffffffffffffffffffffffffffff1673ffffffffffffffffffffffffffffffffffffffff1663c28af974336040518263ffffffff1660e01b81526004016105589190610a1f565b602060405180830381865afa158015610575573d6000803e3d6000fd5b505050506040513d601f19601f820116820180604052508101906105999190610a66565b6105d8576040517f08c379a00000000000000000000000000000000000000000000000000000000081526004016105cf90610c0f565b60405180910390fd5b600015156002600085815260200190815260200160002060020160149054906101000a900460ff16151514610642576040517f08c379a000000000000000000000000000000000000000000000000000000000815260040161063990610ca1565b60405180910390fd5b8060036000858152602001908152602001600020819055508160046000858152602001908152602001600020819055503373ffffffffffffffffffffffffffffffffffffffff16635fedd0ab8484846040518463ffffffff1660e01b81526004016106af93929190610cc1565b600060405180830381600087803b1580156106c957600080fd5b505af11580156106dd573d6000803e3d6000fd5b50505050505050565b600080fd5b6000819050919050565b6106fe816106eb565b811461070957600080fd5b50565b60008135905061071b816106f5565b92915050565b60008060408385031215610738576107376106e6565b5b60006107468582860161070c565b92505060206107578582860161070c565b9150509250929050565b60008115159050919050565b61077681610761565b82525050565b6000602082019050610791600083018461076d565b92915050565b6107a0816106eb565b82525050565b60006020820190506107bb6000830184610797565b92915050565b6000806000606084860312156107da576107d96106e6565b5b60006107e88682870161070c565b93505060206107f98682870161070c565b925050604061080a8682870161070c565b9150509250925092565b600082825260208201905092915050565b7f4f6e6c79207468652072657175657374696e672067616d652063616e2076616c60008201527f69646174652074686520636f6d6d697400000000000000000000000000000000602082015250565b6000610881603083610814565b915061088c82610825565b604082019050919050565b600060208201905081810360008301526108b081610874565b9050919050565b7f5468697320524e472068617320616c7265616479206265656e20636f6e73756d60008201527f6564000000000000000000000000000000000000000000000000000000000000602082015250565b6000610913602283610814565b915061091e826108b7565b604082019050919050565b6000602082019050818103600083015261094281610906565b9050919050565b7f436f6d6d697420646f6573206e6f74206d617463680000000000000000000000600082015250565b600061097f601583610814565b915061098a82610949565b602082019050919050565b600060208201905081810360008301526109ae81610972565b9050919050565b60006040820190506109ca6000830185610797565b6109d76020830184610797565b9392505050565b600073ffffffffffffffffffffffffffffffffffffffff82169050919050565b6000610a09826109de565b9050919050565b610a19816109fe565b82525050565b6000602082019050610a346000830184610a10565b92915050565b610a4381610761565b8114610a4e57600080fd5b50565b600081519050610a6081610a3a565b92915050565b600060208284031215610a7c57610a7b6106e6565b5b6000610a8a84828501610a51565b91505092915050565b7f546869732067616d65206973206e6f7420617574686f72697a656420666f722060008201527f524e477300000000000000000000000000000000000000000000000000000000602082015250565b6000610aef602483610814565b9150610afa82610a93565b604082019050919050565b60006020820190508181036000830152610b1e81610ae2565b9050919050565b7f4e487b7100000000000000000000000000000000000000000000000000000000600052601160045260246000fd5b6000610b5f826106eb565b91507fffffffffffffffffffffffffffffffffffffffffffffffffffffffffffffffff821415610b9257610b91610b25565b5b600182019050919050565b7f546869732061646472657373206973206e6f7420746865206f6666696369616c60008201527f204f7261636c6500000000000000000000000000000000000000000000000000602082015250565b6000610bf9602783610814565b9150610c0482610b9d565b604082019050919050565b60006020820190508181036000830152610c2881610bec565b9050919050565b7f524e4720726571756573742068617320616c7265616479206265656e2066756c60008201527f66696c6c6564206f722063616e63656c6c656400000000000000000000000000602082015250565b6000610c8b603383610814565b9150610c9682610c2f565b604082019050919050565b60006020820190508181036000830152610cba81610c7e565b9050919050565b6000606082019050610cd66000830186610797565b610ce36020830185610797565b610cf06040830184610797565b94935050505056fea2646970667358221220e54c711c39d8c9b42d982bb25fb55e38e3a03bb2de07f7ccc118faca0d773f9d64736f6c634300080a0033",
  "linkReferences": {},
  "deployedLinkReferences": {}
}