{
  "_format": "hh-sol-artifact-1",
  "contractName": "GamebitInfra",
  "sourceName": "contracts/Infra.sol",
  "abi": [
    {
      "inputs": [
        {
          "internalType": "address",
          "name": "_gamebitAuthorizations",
          "type": "address"
        }
      ],
      "stateMutability": "nonpayable",
      "type": "constructor"
    },
    {
      "anonymous": false,
      "inputs": [
        {
          "indexed": false,
          "internalType": "uint256",
          "name": "requestIndex",
          "type": "uint256"
        }
      ],
      "name": "RNGRequestCancelled",
      "type": "event"
    },
    {
      "anonymous": false,
      "inputs": [
        {
          "indexed": false,
          "internalType": "uint256",
          "name": "requestIndex",
          "type": "uint256"
        }
      ],
      "name": "RNGRequestCreated",
      "type": "event"
    },
    {
      "anonymous": false,
      "inputs": [
        {
          "indexed": false,
          "internalType": "uint256",
          "name": "requestIndex",
          "type": "uint256"
        },
        {
          "indexed": false,
          "internalType": "uint256",
          "name": "result",
          "type": "uint256"
        }
      ],
      "name": "RNGRequestFulfilled",
      "type": "event"
    },
    {
      "inputs": [
        {
          "internalType": "uint256",
          "name": "_rngIndex",
          "type": "uint256"
        },
        {
          "internalType": "uint256",
          "name": "_randomNum",
          "type": "uint256"
        },
        {
          "internalType": "uint256",
          "name": "_commit",
          "type": "uint256"
        }
      ],
      "name": "fulFillRng",
      "outputs": [],
      "stateMutability": "nonpayable",
      "type": "function"
    },
    {
      "inputs": [],
      "name": "requestRng",
      "outputs": [
        {
          "internalType": "uint256",
          "name": "rngIndex",
          "type": "uint256"
        }
      ],
      "stateMutability": "nonpayable",
      "type": "function"
    },
    {
      "inputs": [
        {
          "internalType": "uint256",
          "name": "_rngIndex",
          "type": "uint256"
        },
        {
          "internalType": "uint256",
          "name": "_commit",
          "type": "uint256"
        }
      ],
      "name": "validateCommit",
      "outputs": [
        {
          "internalType": "bool",
          "name": "",
          "type": "bool"
        }
      ],
      "stateMutability": "nonpayable",
      "type": "function"
    }
  ],
  "bytecode": "0x60806040526001805534801561001457600080fd5b50604051610f23380380610f23833981810160405281019061003691906100df565b806000806101000a81548173ffffffffffffffffffffffffffffffffffffffff021916908373ffffffffffffffffffffffffffffffffffffffff1602179055505061010c565b600080fd5b600073ffffffffffffffffffffffffffffffffffffffff82169050919050565b60006100ac82610081565b9050919050565b6100bc816100a1565b81146100c757600080fd5b50565b6000815190506100d9816100b3565b92915050565b6000602082840312156100f5576100f461007c565b5b6000610103848285016100ca565b91505092915050565b610e088061011b6000396000f3fe608060405234801561001057600080fd5b50600436106100415760003560e01c8063713836051461004657806379663e4914610076578063c2cabcf014610094575b600080fd5b610060600480360381019061005b91906107fb565b6100b0565b60405161006d9190610856565b60405180910390f35b61007e6103d5565b60405161008b9190610880565b60405180910390f35b6100ae60048036038101906100a9919061089b565b6105d9565b005b60008060009054906101000a900473ffffffffffffffffffffffffffffffffffffffff1673ffffffffffffffffffffffffffffffffffffffff1663c28af974336040518263ffffffff1660e01b815260040161010c919061092f565b602060405180830381865afa158015610129573d6000803e3d6000fd5b505050506040513d601f19601f8201168201806040525081019061014d9190610976565b61018c576040517f08c379a000000000000000000000000000000000000000000000000000000000815260040161018390610a26565b60405180910390fd5b6002600084815260200190815260200160002060020160009054906101000a900473ffffffffffffffffffffffffffffffffffffffff1673ffffffffffffffffffffffffffffffffffffffff163373ffffffffffffffffffffffffffffffffffffffff1614610230576040517f08c379a000000000000000000000000000000000000000000000000000000000815260040161022790610ab8565b60405180910390fd5b600015156002600085815260200190815260200160002060020160149054906101000a900460ff1615151461029a576040517f08c379a000000000000000000000000000000000000000000000000000000000815260040161029190610b4a565b60405180910390fd5b816003600085815260200190815260200160002054146102ef576040517f08c379a00000000000000000000000000000000000000000000000000000000081526004016102e690610bb6565b60405180910390fd5b60016002600085815260200190815260200160002060020160146101000a81548160ff0219169083151502179055507f2855065353b3a55ef896d853c04daf8a5c19f3de7bc77435e56eb3a50b0551d5836004600086815260200190815260200160002054604051610362929190610bd6565b60405180910390a16002600084815260200190815260200160002060008082016000905560018201600090556002820160006101000a81549073ffffffffffffffffffffffffffffffffffffffff02191690556002820160146101000a81549060ff021916905550506001905092915050565b60008060009054906101000a900473ffffffffffffffffffffffffffffffffffffffff1673ffffffffffffffffffffffffffffffffffffffff16634e2b446f336040518263ffffffff1660e01b8152600401610431919061092f565b602060405180830381865afa15801561044e573d6000803e3d6000fd5b505050506040513d601f19601f820116820180604052508101906104729190610976565b6104b1576040517f08c379a00000000000000000000000000000000000000000000000000000000081526004016104a890610c71565b60405180910390fd5b604051806080016040528043815260200160015481526020013373ffffffffffffffffffffffffffffffffffffffff16815260200160001515815250600260006001548152602001908152602001600020600082015181600001556020820151816001015560408201518160020160006101000a81548173ffffffffffffffffffffffffffffffffffffffff021916908373ffffffffffffffffffffffffffffffffffffffff16021790555060608201518160020160146101000a81548160ff0219169083151502179055509050506001600081548092919061059390610cc0565b91905055507f691281bc23b2c98645a6185b4b2ccbb54ced17597ff8d427652e0d655cdf3f196001546040516105c99190610880565b60405180910390a1600154905090565b60008054906101000a900473ffffffffffffffffffffffffffffffffffffffff1673ffffffffffffffffffffffffffffffffffffffff1663c28af974336040518263ffffffff1660e01b8152600401610632919061092f565b602060405180830381865afa15801561064f573d6000803e3d6000fd5b505050506040513d601f19601f820116820180604052508101906106739190610976565b6106b2576040517f08c379a00000000000000000000000000000000000000000000000000000000081526004016106a990610a26565b60405180910390fd5b600015156002600085815260200190815260200160002060020160149054906101000a900460ff1615151461071c576040517f08c379a000000000000000000000000000000000000000000000000000000000815260040161071390610d7b565b60405180910390fd5b8060036000858152602001908152602001600020819055508160046000858152602001908152602001600020819055503373ffffffffffffffffffffffffffffffffffffffff16635fedd0ab8484846040518463ffffffff1660e01b815260040161078993929190610d9b565b600060405180830381600087803b1580156107a357600080fd5b505af11580156107b7573d6000803e3d6000fd5b50505050505050565b600080fd5b6000819050919050565b6107d8816107c5565b81146107e357600080fd5b50565b6000813590506107f5816107cf565b92915050565b60008060408385031215610812576108116107c0565b5b6000610820858286016107e6565b9250506020610831858286016107e6565b9150509250929050565b60008115159050919050565b6108508161083b565b82525050565b600060208201905061086b6000830184610847565b92915050565b61087a816107c5565b82525050565b60006020820190506108956000830184610871565b92915050565b6000806000606084860312156108b4576108b36107c0565b5b60006108c2868287016107e6565b93505060206108d3868287016107e6565b92505060406108e4868287016107e6565b9150509250925092565b600073ffffffffffffffffffffffffffffffffffffffff82169050919050565b6000610919826108ee565b9050919050565b6109298161090e565b82525050565b60006020820190506109446000830184610920565b92915050565b6109538161083b565b811461095e57600080fd5b50565b6000815190506109708161094a565b92915050565b60006020828403121561098c5761098b6107c0565b5b600061099a84828501610961565b91505092915050565b600082825260208201905092915050565b7f546869732061646472657373206973206e6f7420746865206f6666696369616c60008201527f204f7261636c6500000000000000000000000000000000000000000000000000602082015250565b6000610a106027836109a3565b9150610a1b826109b4565b604082019050919050565b60006020820190508181036000830152610a3f81610a03565b9050919050565b7f4f6e6c79207468652072657175657374696e672067616d652063616e2076616c60008201527f69646174652074686520636f6d6d697400000000000000000000000000000000602082015250565b6000610aa26030836109a3565b9150610aad82610a46565b604082019050919050565b60006020820190508181036000830152610ad181610a95565b9050919050565b7f5468697320524e472068617320616c7265616479206265656e20636f6e73756d60008201527f6564000000000000000000000000000000000000000000000000000000000000602082015250565b6000610b346022836109a3565b9150610b3f82610ad8565b604082019050919050565b60006020820190508181036000830152610b6381610b27565b9050919050565b7f436f6d6d697420646f6573206e6f74206d617463680000000000000000000000600082015250565b6000610ba06015836109a3565b9150610bab82610b6a565b602082019050919050565b60006020820190508181036000830152610bcf81610b93565b9050919050565b6000604082019050610beb6000830185610871565b610bf86020830184610871565b9392505050565b7f546869732067616d65206973206e6f7420617574686f72697a656420666f722060008201527f524e477300000000000000000000000000000000000000000000000000000000602082015250565b6000610c5b6024836109a3565b9150610c6682610bff565b604082019050919050565b60006020820190508181036000830152610c8a81610c4e565b9050919050565b7f4e487b7100000000000000000000000000000000000000000000000000000000600052601160045260246000fd5b6000610ccb826107c5565b91507fffffffffffffffffffffffffffffffffffffffffffffffffffffffffffffffff821415610cfe57610cfd610c91565b5b600182019050919050565b7f524e4720726571756573742068617320616c7265616479206265656e2066756c60008201527f66696c6c6564206f722063616e63656c6c656400000000000000000000000000602082015250565b6000610d656033836109a3565b9150610d7082610d09565b604082019050919050565b60006020820190508181036000830152610d9481610d58565b9050919050565b6000606082019050610db06000830186610871565b610dbd6020830185610871565b610dca6040830184610871565b94935050505056fea26469706673582212209da15e09bb48cd29a8e9f431ff40458abda31a33163786941bf01561e25a417464736f6c634300080a0033",
  "linkReferences": {},
  "deployedLinkReferences": {}
}