{
  "_format": "hh-sol-artifact-1",
  "contractName": "LottoWinnerMock",
  "sourceName": "contracts/LottoWinnerMock.sol",
  "abi": [
    {
      "inputs": [
        {
          "internalType": "address",
          "name": "_trustedParty",
          "type": "address"
        },
        {
          "internalType": "address payable",
          "name": "_treasury",
          "type": "address"
        },
        {
          "internalType": "uint256",
          "name": "_ticketValue",
          "type": "uint256"
        }
      ],
      "stateMutability": "nonpayable",
      "type": "constructor"
    },
    {
      "anonymous": false,
      "inputs": [
        {
          "indexed": false,
          "internalType": "uint256[3]",
          "name": "numbers",
          "type": "uint256[3]"
        }
      ],
      "name": "Draw",
      "type": "event"
    },
    {
      "anonymous": false,
      "inputs": [
        {
          "indexed": false,
          "internalType": "uint256",
          "name": "jackpot",
          "type": "uint256"
        }
      ],
      "name": "jackpotUpdated",
      "type": "event"
    },
    {
      "inputs": [
        {
          "internalType": "uint256[][]",
          "name": "_bets",
          "type": "uint256[][]"
        }
      ],
      "name": "bet",
      "outputs": [],
      "stateMutability": "payable",
      "type": "function"
    },
    {
      "inputs": [
        {
          "internalType": "uint256[3]",
          "name": "_numbers",
          "type": "uint256[3]"
        }
      ],
      "name": "getAmountOfBetForNumbers",
      "outputs": [
        {
          "internalType": "uint256",
          "name": "",
          "type": "uint256"
        }
      ],
      "stateMutability": "view",
      "type": "function"
    },
    {
      "inputs": [],
      "name": "getBets",
      "outputs": [
        {
          "internalType": "uint256[][]",
          "name": "",
          "type": "uint256[][]"
        }
      ],
      "stateMutability": "view",
      "type": "function"
    },
    {
      "inputs": [],
      "name": "getCurrentJackpot",
      "outputs": [
        {
          "internalType": "uint256",
          "name": "",
          "type": "uint256"
        }
      ],
      "stateMutability": "view",
      "type": "function"
    },
    {
      "inputs": [],
      "name": "getLastDrawNumbers",
      "outputs": [
        {
          "internalType": "uint256[3]",
          "name": "",
          "type": "uint256[3]"
        }
      ],
      "stateMutability": "view",
      "type": "function"
    },
    {
      "inputs": [],
      "name": "getNextDrawTime",
      "outputs": [
        {
          "internalType": "uint256",
          "name": "",
          "type": "uint256"
        }
      ],
      "stateMutability": "view",
      "type": "function"
    },
    {
      "inputs": [
        {
          "internalType": "uint256",
          "name": "amount",
          "type": "uint256"
        }
      ],
      "name": "payTreasury",
      "outputs": [],
      "stateMutability": "nonpayable",
      "type": "function"
    },
    {
      "inputs": [
        {
          "internalType": "uint256",
          "name": "amount",
          "type": "uint256"
        },
        {
          "internalType": "uint256",
          "name": "hashedWinners",
          "type": "uint256"
        }
      ],
      "name": "payoutAllWinners",
      "outputs": [],
      "stateMutability": "nonpayable",
      "type": "function"
    },
    {
      "inputs": [
        {
          "internalType": "bytes32",
          "name": "_seed",
          "type": "bytes32"
        }
      ],
      "name": "reveal",
      "outputs": [
        {
          "internalType": "uint256[3]",
          "name": "",
          "type": "uint256[3]"
        }
      ],
      "stateMutability": "nonpayable",
      "type": "function"
    },
    {
      "inputs": [
        {
          "internalType": "bytes32",
          "name": "_sealedSeed",
          "type": "bytes32"
        }
      ],
      "name": "setSealedSeed",
      "outputs": [],
      "stateMutability": "nonpayable",
      "type": "function"
    }
  ],
  "bytecode": "0x608060405260006004556000600760006101000a81548160ff0219169083151502179055506000600760016101000a81548160ff0219169083151502179055506000600760026101000a81548160ff021916908315150217905550600067ffffffffffffffff8111156200007857620000776200020c565b5b604051908082528060200260200182016040528015620000a75781602001602082028036833780820191505090505b50600c9080519060200190620000bf9291906200019b565b50348015620000cd57600080fd5b5060405162002504380380620025048339818101604052810190620000f3919062000325565b826000806101000a81548173ffffffffffffffffffffffffffffffffffffffff021916908373ffffffffffffffffffffffffffffffffffffffff16021790555081600160006101000a81548173ffffffffffffffffffffffffffffffffffffffff021916908373ffffffffffffffffffffffffffffffffffffffff1602179055508060038190555062093a80426200018c9190620003b0565b6005819055505050506200040d565b828054828255906000526020600020908101928215620001da579160200282015b82811115620001d9578251825591602001919060010190620001bc565b5b509050620001e99190620001ed565b5090565b5b8082111562000208576000816000905550600101620001ee565b5090565b7f4e487b7100000000000000000000000000000000000000000000000000000000600052604160045260246000fd5b600080fd5b600073ffffffffffffffffffffffffffffffffffffffff82169050919050565b60006200026d8262000240565b9050919050565b6200027f8162000260565b81146200028b57600080fd5b50565b6000815190506200029f8162000274565b92915050565b6000620002b28262000240565b9050919050565b620002c481620002a5565b8114620002d057600080fd5b50565b600081519050620002e481620002b9565b92915050565b6000819050919050565b620002ff81620002ea565b81146200030b57600080fd5b50565b6000815190506200031f81620002f4565b92915050565b6000806000606084860312156200034157620003406200023b565b5b600062000351868287016200028e565b93505060206200036486828701620002d3565b925050604062000377868287016200030e565b9150509250925092565b7f4e487b7100000000000000000000000000000000000000000000000000000000600052601160045260246000fd5b6000620003bd82620002ea565b9150620003ca83620002ea565b9250827fffffffffffffffffffffffffffffffffffffffffffffffffffffffffffffffff0382111562000402576200040162000381565b5b828201905092915050565b6120e7806200041d6000396000f3fe6080604052600436106100915760003560e01c80639a58bfee116100595780639a58bfee146101795780639f57d16e14610195578063a6afd5fd146101c0578063be8b48d0146101eb578063ecfea5d51461022857610091565b8063087d0e0b1461009657806308deb7ed146100c157806341114538146100ea578063701fd0f114610113578063999bd71614610150575b600080fd5b3480156100a257600080fd5b506100ab610253565b6040516100b89190611356565b60405180910390f35b3480156100cd57600080fd5b506100e860048036038101906100e391906113b1565b6102bd565b005b3480156100f657600080fd5b50610111600480360381019061010c9190611414565b610406565b005b34801561011f57600080fd5b5061013a60048036038101906101359190611414565b6104e5565b6040516101479190611356565b60405180910390f35b34801561015c57600080fd5b5061017760048036038101906101729190611441565b610823565b005b610193600480360381019061018e91906116bb565b610a6b565b005b3480156101a157600080fd5b506101aa611071565b6040516101b79190611713565b60405180910390f35b3480156101cc57600080fd5b506101d561107b565b6040516101e29190611887565b60405180910390f35b3480156101f757600080fd5b50610212600480360381019061020d919061195a565b611157565b60405161021f9190611713565b60405180910390f35b34801561023457600080fd5b5061023d6111a0565b60405161024a9190611713565b60405180910390f35b61025b6111d5565b600b6000600160045461026e91906119b6565b81526020019081526020016000206003806020026040519081016040528092919082600380156102b3576020028201915b81548152602001906001019080831161029f575b5050505050905090565b60008054906101000a900473ffffffffffffffffffffffffffffffffffffffff1673ffffffffffffffffffffffffffffffffffffffff163373ffffffffffffffffffffffffffffffffffffffff161461034b576040517f08c379a000000000000000000000000000000000000000000000000000000000815260040161034290611a6d565b60405180910390fd5b600760019054906101000a900460ff1661039a576040517f08c379a000000000000000000000000000000000000000000000000000000000815260040161039190611ad9565b60405180910390fd5b600160009054906101000a900473ffffffffffffffffffffffffffffffffffffffff1673ffffffffffffffffffffffffffffffffffffffff166108fc829081150290604051600060405180830381858888f19350505050158015610402573d6000803e3d6000fd5b5050565b60008054906101000a900473ffffffffffffffffffffffffffffffffffffffff1673ffffffffffffffffffffffffffffffffffffffff163373ffffffffffffffffffffffffffffffffffffffff161461045e57600080fd5b600760009054906101000a900460ff161561047857600080fd5b600760019054906101000a900460ff161561049257600080fd5b6001600760016101000a81548160ff021916908315150217905550806006819055506001436104c19190611af9565b6008819055506001600760006101000a81548160ff02191690831515021790555050565b6104ed6111d5565b60008054906101000a900473ffffffffffffffffffffffffffffffffffffffff1673ffffffffffffffffffffffffffffffffffffffff163373ffffffffffffffffffffffffffffffffffffffff161461054557600080fd5b600760009054906101000a900460ff1661055e57600080fd5b436008541061056c57600080fd5b600654821461057a57600080fd5b60006105846111aa565b905080600b600060045481526020019081526020016000209060036105aa9291906111f7565b50600460008154809291906105be90611b4f565b91905055507f782d7ce763b28c71c4396c26548d32590c3a1f9649900b813dad7d691fead901816040516105f29190611356565b60405180910390a1600060096000836040516020016106119190611c21565b6040516020818303038152906040528051906020012060001c81526020019081526020016000208054905011600760026101000a81548160ff021916908315150217905550600760029054906101000a900460ff16156107e3576000601460025461067c9190611c6b565b9050610687816102bd565b8060025461069591906119b6565b600281905550600060096000846040516020016106b29190611c21565b6040516020818303038152906040528051906020012060001c81526020019081526020016000208054905090506000816002546106ef9190611c6b565b905060005b828110156107ce5760096000866040516020016107119190611c21565b6040516020818303038152906040528051906020012060001c8152602001908152602001600020818154811061074a57610749611c9c565b5b9060005260206000200160009054906101000a900473ffffffffffffffffffffffffffffffffffffffff1673ffffffffffffffffffffffffffffffffffffffff166108fc839081150290604051600060405180830381858888f193505050501580156107ba573d6000803e3d6000fd5b5080806107c690611b4f565b9150506106f4565b5060006002819055508394505050505061081e565b6000600760006101000a81548160ff0219169083151502179055506000600760016101000a81548160ff021916908315150217905550809150505b919050565b60008054906101000a900473ffffffffffffffffffffffffffffffffffffffff1673ffffffffffffffffffffffffffffffffffffffff163373ffffffffffffffffffffffffffffffffffffffff16146108b1576040517f08c379a00000000000000000000000000000000000000000000000000000000081526004016108a890611a6d565b60405180910390fd5b600760019054906101000a900460ff16610900576040517f08c379a00000000000000000000000000000000000000000000000000000000081526004016108f790611ad9565b60405180910390fd5b60008054906101000a900473ffffffffffffffffffffffffffffffffffffffff1673ffffffffffffffffffffffffffffffffffffffff163373ffffffffffffffffffffffffffffffffffffffff161461095857600080fd5b60005b600960006001600960008681526020019081526020016000208054905061098291906119b6565b815260200190815260200160002080549050811015610a665760096000600160096000868152602001908152602001600020805490506109c291906119b6565b815260200190815260200160002081815481106109e2576109e1611c9c565b5b9060005260206000200160009054906101000a900473ffffffffffffffffffffffffffffffffffffffff1673ffffffffffffffffffffffffffffffffffffffff166108fc849081150290604051600060405180830381858888f19350505050158015610a52573d6000803e3d6000fd5b508080610a5e90611b4f565b91505061095b565b505050565b60008054906101000a900473ffffffffffffffffffffffffffffffffffffffff1673ffffffffffffffffffffffffffffffffffffffff163373ffffffffffffffffffffffffffffffffffffffff161415610afa576040517f08c379a0000000000000000000000000000000000000000000000000000000008152600401610af190611d17565b60405180910390fd5b600760019054906101000a900460ff1615610b4a576040517f08c379a0000000000000000000000000000000000000000000000000000000008152600401610b4190611d83565b60405180910390fd5b600354815134610b5a9190611c6b565b14610b9a576040517f08c379a0000000000000000000000000000000000000000000000000000000008152600401610b9190611def565b60405180910390fd5b60005b8151811015610e45576003828281518110610bbb57610bba611c9c565b5b60200260200101515114610c04576040517f08c379a0000000000000000000000000000000000000000000000000000000008152600401610bfb90611e5b565b60405180910390fd5b6064828281518110610c1957610c18611c9c565b5b6020026020010151600081518110610c3457610c33611c9c565b5b6020026020010151108015610c7f57506000828281518110610c5957610c58611c9c565b5b6020026020010151600081518110610c7457610c73611c9c565b5b602002602001015110155b610cbe576040517f08c379a0000000000000000000000000000000000000000000000000000000008152600401610cb590611eed565b60405180910390fd5b6064828281518110610cd357610cd2611c9c565b5b6020026020010151600181518110610cee57610ced611c9c565b5b6020026020010151108015610d3957506000828281518110610d1357610d12611c9c565b5b6020026020010151600181518110610d2e57610d2d611c9c565b5b602002602001015110155b610d78576040517f08c379a0000000000000000000000000000000000000000000000000000000008152600401610d6f90611f7f565b60405180910390fd5b6064828281518110610d8d57610d8c611c9c565b5b6020026020010151600281518110610da857610da7611c9c565b5b6020026020010151108015610df357506000828281518110610dcd57610dcc611c9c565b5b6020026020010151600281518110610de857610de7611c9c565b5b602002602001015110155b610e32576040517f08c379a0000000000000000000000000000000000000000000000000000000008152600401610e2990612011565b60405180910390fd5b8080610e3d90611b4f565b915050610b9d565b503460026000828254610e589190611af9565b9250508190555060005b815181101561103457600c828281518110610e8057610e7f611c9c565b5b6020026020010151604051602001610e98919061209a565b6040516020818303038152906040528051906020012060001c9080600181540180825580915050600190039060005260206000200160009091909190915055600a60003373ffffffffffffffffffffffffffffffffffffffff1673ffffffffffffffffffffffffffffffffffffffff168152602001908152602001600020828281518110610f2957610f28611c9c565b5b6020026020010151908060018154018082558091505060019003906000526020600020016000909190919091509080519060200190610f69929190611237565b5060096000838381518110610f8157610f80611c9c565b5b6020026020010151604051602001610f99919061209a565b6040516020818303038152906040528051906020012060001c8152602001908152602001600020339080600181540180825580915050600190039060005260206000200160009091909190916101000a81548173ffffffffffffffffffffffffffffffffffffffff021916908373ffffffffffffffffffffffffffffffffffffffff160217905550808061102c90611b4f565b915050610e62565b507ff9fcd8fad7415931becd04274f2d3e36e2c4a8ccea67edf7a151ac8c2ce93e536002546040516110669190611713565b60405180910390a150565b6000600254905090565b6060600a60003373ffffffffffffffffffffffffffffffffffffffff1673ffffffffffffffffffffffffffffffffffffffff168152602001908152602001600020805480602002602001604051908101604052809291908181526020016000905b8282101561114e5783829060005260206000200180548060200260200160405190810160405280929190818152602001828054801561113a57602002820191906000526020600020905b815481526020019060010190808311611126575b5050505050815260200190600101906110dc565b50505050905090565b6000600960008360405160200161116e9190611c21565b6040516020818303038152906040528051906020012060001c8152602001908152602001600020805490509050919050565b6000600554905090565b6111b26111d5565b604051806060016040528060018152602001600281526020016003815250905090565b6040518060600160405280600390602082028036833780820191505090505090565b8260038101928215611226579160200282015b8281111561122557825182559160200191906001019061120a565b5b5090506112339190611284565b5090565b828054828255906000526020600020908101928215611273579160200282015b82811115611272578251825591602001919060010190611257565b5b5090506112809190611284565b5090565b5b8082111561129d576000816000905550600101611285565b5090565b600060039050919050565b600081905092915050565b6000819050919050565b6000819050919050565b6112d4816112c1565b82525050565b60006112e683836112cb565b60208301905092915050565b6000602082019050919050565b611308816112a1565b61131281846112ac565b925061131d826112b7565b8060005b8381101561134e57815161133587826112da565b9650611340836112f2565b925050600181019050611321565b505050505050565b600060608201905061136b60008301846112ff565b92915050565b6000604051905090565b600080fd5b600080fd5b61138e816112c1565b811461139957600080fd5b50565b6000813590506113ab81611385565b92915050565b6000602082840312156113c7576113c661137b565b5b60006113d58482850161139c565b91505092915050565b6000819050919050565b6113f1816113de565b81146113fc57600080fd5b50565b60008135905061140e816113e8565b92915050565b60006020828403121561142a5761142961137b565b5b6000611438848285016113ff565b91505092915050565b600080604083850312156114585761145761137b565b5b60006114668582860161139c565b92505060206114778582860161139c565b9150509250929050565b600080fd5b6000601f19601f8301169050919050565b7f4e487b7100000000000000000000000000000000000000000000000000000000600052604160045260246000fd5b6114cf82611486565b810181811067ffffffffffffffff821117156114ee576114ed611497565b5b80604052505050565b6000611501611371565b905061150d82826114c6565b919050565b600067ffffffffffffffff82111561152d5761152c611497565b5b602082029050602081019050919050565b600080fd5b600067ffffffffffffffff82111561155e5761155d611497565b5b602082029050602081019050919050565b600061158261157d84611543565b6114f7565b905080838252602082019050602084028301858111156115a5576115a461153e565b5b835b818110156115ce57806115ba888261139c565b8452602084019350506020810190506115a7565b5050509392505050565b600082601f8301126115ed576115ec611481565b5b81356115fd84826020860161156f565b91505092915050565b600061161961161484611512565b6114f7565b9050808382526020820190506020840283018581111561163c5761163b61153e565b5b835b8181101561168357803567ffffffffffffffff81111561166157611660611481565b5b80860161166e89826115d8565b8552602085019450505060208101905061163e565b5050509392505050565b600082601f8301126116a2576116a1611481565b5b81356116b2848260208601611606565b91505092915050565b6000602082840312156116d1576116d061137b565b5b600082013567ffffffffffffffff8111156116ef576116ee611380565b5b6116fb8482850161168d565b91505092915050565b61170d816112c1565b82525050565b60006020820190506117286000830184611704565b92915050565b600081519050919050565b600082825260208201905092915050565b6000819050602082019050919050565b600081519050919050565b600082825260208201905092915050565b6000819050602082019050919050565b6000602082019050919050565b600061179e8261175a565b6117a88185611765565b93506117b383611776565b8060005b838110156117e45781516117cb88826112da565b97506117d683611786565b9250506001810190506117b7565b5085935050505092915050565b60006117fd8383611793565b905092915050565b6000602082019050919050565b600061181d8261172e565b6118278185611739565b9350836020820285016118398561174a565b8060005b85811015611875578484038952815161185685826117f1565b945061186183611805565b925060208a0199505060018101905061183d565b50829750879550505050505092915050565b600060208201905081810360008301526118a18184611812565b905092915050565b600067ffffffffffffffff8211156118c4576118c3611497565b5b602082029050919050565b60006118e26118dd846118a9565b6114f7565b905080602084028301858111156118fc576118fb61153e565b5b835b818110156119255780611911888261139c565b8452602084019350506020810190506118fe565b5050509392505050565b600082601f83011261194457611943611481565b5b60036119518482856118cf565b91505092915050565b6000606082840312156119705761196f61137b565b5b600061197e8482850161192f565b91505092915050565b7f4e487b7100000000000000000000000000000000000000000000000000000000600052601160045260246000fd5b60006119c1826112c1565b91506119cc836112c1565b9250828210156119df576119de611987565b5b828203905092915050565b600082825260208201905092915050565b7f5468697320616374696f6e2063616e206f6e6c792062652074616b656e20776860008201527f656e2074686520626574732061726520636c6f73656400000000000000000000602082015250565b6000611a576036836119ea565b9150611a62826119fb565b604082019050919050565b60006020820190508181036000830152611a8681611a4a565b9050919050565b7f4265747320617265206e6f7420636c6f73656400000000000000000000000000600082015250565b6000611ac36013836119ea565b9150611ace82611a8d565b602082019050919050565b60006020820190508181036000830152611af281611ab6565b9050919050565b6000611b04826112c1565b9150611b0f836112c1565b9250827fffffffffffffffffffffffffffffffffffffffffffffffffffffffffffffffff03821115611b4457611b43611987565b5b828201905092915050565b6000611b5a826112c1565b91507fffffffffffffffffffffffffffffffffffffffffffffffffffffffffffffffff821415611b8d57611b8c611987565b5b600182019050919050565b600081905092915050565b611bac816112c1565b82525050565b6000611bbe8383611ba3565b60208301905092915050565b611bd3816112a1565b611bdd8184611b98565b9250611be8826112b7565b8060005b83811015611c19578151611c008782611bb2565b9650611c0b836112f2565b925050600181019050611bec565b505050505050565b6000611c2d8284611bca565b60608201915081905092915050565b7f4e487b7100000000000000000000000000000000000000000000000000000000600052601260045260246000fd5b6000611c76826112c1565b9150611c81836112c1565b925082611c9157611c90611c3c565b5b828204905092915050565b7f4e487b7100000000000000000000000000000000000000000000000000000000600052603260045260246000fd5b7f547275737465642070617274792063616e277420626574000000000000000000600082015250565b6000611d016017836119ea565b9150611d0c82611ccb565b602082019050919050565b60006020820190508181036000830152611d3081611cf4565b9050919050565b7f426574732061726520636c6f7365640000000000000000000000000000000000600082015250565b6000611d6d600f836119ea565b9150611d7882611d37565b602082019050919050565b60006020820190508181036000830152611d9c81611d60565b9050919050565b7f426574206e6f74207468652072696768742076616c7565206176617800000000600082015250565b6000611dd9601c836119ea565b9150611de482611da3565b602082019050919050565b60006020820190508181036000830152611e0881611dcc565b9050919050565b7f4561636820626574206d75737420686176652033206e756d6265727300000000600082015250565b6000611e45601c836119ea565b9150611e5082611e0f565b602082019050919050565b60006020820190508181036000830152611e7481611e38565b9050919050565b7f4e756d6265722031206d757374206265206265747765656e203020616e64203960008201527f3900000000000000000000000000000000000000000000000000000000000000602082015250565b6000611ed76021836119ea565b9150611ee282611e7b565b604082019050919050565b60006020820190508181036000830152611f0681611eca565b9050919050565b7f4e756d6265722032206d757374206265206265747765656e203020616e64203960008201527f3900000000000000000000000000000000000000000000000000000000000000602082015250565b6000611f696021836119ea565b9150611f7482611f0d565b604082019050919050565b60006020820190508181036000830152611f9881611f5c565b9050919050565b7f4e756d6265722033206d757374206265206265747765656e203020616e64203960008201527f3900000000000000000000000000000000000000000000000000000000000000602082015250565b6000611ffb6021836119ea565b915061200682611f9f565b604082019050919050565b6000602082019050818103600083015261202a81611fee565b9050919050565b600081905092915050565b60006120478261175a565b6120518185612031565b935061205c83611776565b8060005b8381101561208d5781516120748882611bb2565b975061207f83611786565b925050600181019050612060565b5085935050505092915050565b60006120a6828461203c565b91508190509291505056fea264697066735822122080f5a4d63c5fe7bd51ea192b84884e8da59b2c9aec0e762069c6012d4e926b4464736f6c634300080a0033",
  "linkReferences": {},
  "deployedLinkReferences": {}
}