{
  "_format": "hh-sol-artifact-1",
  "contractName": "LottoGamebit",
  "sourceName": "contracts/LottoWinnerMock.sol",
  "abi": [
    {
      "inputs": [
        {
          "internalType": "address",
          "name": "_treasury",
          "type": "address"
        },
        {
          "internalType": "address",
          "name": "_gamitAuth",
          "type": "address"
        },
        {
          "internalType": "address",
          "name": "_gamebitInfra",
          "type": "address"
        },
        {
          "internalType": "address",
          "name": "_trustedParty",
          "type": "address"
        },
        {
          "internalType": "uint256",
          "name": "_ticketValue",
          "type": "uint256"
        },
        {
          "internalType": "uint256",
          "name": "_drawDaysInterval",
          "type": "uint256"
        }
      ],
      "stateMutability": "nonpayable",
      "type": "constructor"
    },
    {
      "anonymous": false,
      "inputs": [
        {
          "indexed": false,
          "internalType": "uint256[3]",
          "name": "numbers",
          "type": "uint256[3]"
        }
      ],
      "name": "Draw",
      "type": "event"
    },
    {
      "anonymous": false,
      "inputs": [
        {
          "indexed": false,
          "internalType": "string",
          "name": "",
          "type": "string"
        }
      ],
      "name": "RngReceived",
      "type": "event"
    },
    {
      "anonymous": false,
      "inputs": [
        {
          "indexed": false,
          "internalType": "uint256",
          "name": "",
          "type": "uint256"
        }
      ],
      "name": "RngRequested",
      "type": "event"
    },
    {
      "anonymous": false,
      "inputs": [
        {
          "indexed": false,
          "internalType": "uint256",
          "name": "jackpot",
          "type": "uint256"
        }
      ],
      "name": "jackpotUpdated",
      "type": "event"
    },
    {
      "inputs": [
        {
          "internalType": "uint256[][]",
          "name": "_bets",
          "type": "uint256[][]"
        }
      ],
      "name": "bet",
      "outputs": [],
      "stateMutability": "payable",
      "type": "function"
    },
    {
      "inputs": [
        {
          "internalType": "uint256",
          "name": "_rng",
          "type": "uint256"
        }
      ],
      "name": "consumeRng",
      "outputs": [],
      "stateMutability": "nonpayable",
      "type": "function"
    },
    {
      "inputs": [
        {
          "internalType": "uint256[3]",
          "name": "_numbers",
          "type": "uint256[3]"
        }
      ],
      "name": "getAmountOfBetForNumbers",
      "outputs": [
        {
          "internalType": "uint256",
          "name": "",
          "type": "uint256"
        }
      ],
      "stateMutability": "view",
      "type": "function"
    },
    {
      "inputs": [],
      "name": "getBets",
      "outputs": [
        {
          "internalType": "uint256[][]",
          "name": "",
          "type": "uint256[][]"
        }
      ],
      "stateMutability": "view",
      "type": "function"
    },
    {
      "inputs": [],
      "name": "getCurrentJackpot",
      "outputs": [
        {
          "internalType": "uint256",
          "name": "",
          "type": "uint256"
        }
      ],
      "stateMutability": "view",
      "type": "function"
    },
    {
      "inputs": [],
      "name": "getLastDrawNumbers",
      "outputs": [
        {
          "internalType": "uint256[3]",
          "name": "",
          "type": "uint256[3]"
        }
      ],
      "stateMutability": "view",
      "type": "function"
    },
    {
      "inputs": [],
      "name": "getNextDrawTime",
      "outputs": [
        {
          "internalType": "uint256",
          "name": "",
          "type": "uint256"
        }
      ],
      "stateMutability": "view",
      "type": "function"
    },
    {
      "inputs": [],
      "name": "getTicketPrice",
      "outputs": [
        {
          "internalType": "uint256",
          "name": "",
          "type": "uint256"
        }
      ],
      "stateMutability": "view",
      "type": "function"
    },
    {
      "inputs": [
        {
          "internalType": "uint256",
          "name": "_index",
          "type": "uint256"
        },
        {
          "internalType": "uint256",
          "name": "_rng",
          "type": "uint256"
        },
        {
          "internalType": "uint256",
          "name": "_provenance",
          "type": "uint256"
        }
      ],
      "name": "validateRng",
      "outputs": [],
      "stateMutability": "nonpayable",
      "type": "function"
    }
  ],
  "bytecode": "0x6080604052600060045560006008556000600a60006101000a81548160ff0219169083151502179055506000600a60016101000a81548160ff021916908315150217905550600067ffffffffffffffff811115620000625762000061620002cf565b5b604051908082528060200260200182016040528015620000915781602001602082028036833780820191505090505b50600e9080519060200190620000a99291906200025e565b50348015620000b757600080fd5b5060405162002184380380620021848339818101604052810190620000dd9190620003a3565b858585826000806101000a81548173ffffffffffffffffffffffffffffffffffffffff021916908373ffffffffffffffffffffffffffffffffffffffff16021790555082600360006101000a81548173ffffffffffffffffffffffffffffffffffffffff021916908373ffffffffffffffffffffffffffffffffffffffff16021790555081600160006101000a81548173ffffffffffffffffffffffffffffffffffffffff021916908373ffffffffffffffffffffffffffffffffffffffff16021790555080600260006101000a81548173ffffffffffffffffffffffffffffffffffffffff021916908373ffffffffffffffffffffffffffffffffffffffff16021790555050505082600560006101000a81548173ffffffffffffffffffffffffffffffffffffffff021916908373ffffffffffffffffffffffffffffffffffffffff1602179055508160078190555062015180816200023f91906200046e565b426200024c9190620004cf565b6009819055505050505050506200052c565b8280548282559060005260206000209081019282156200029d579160200282015b828111156200029c5782518255916020019190600101906200027f565b5b509050620002ac9190620002b0565b5090565b5b80821115620002cb576000816000905550600101620002b1565b5090565b7f4e487b7100000000000000000000000000000000000000000000000000000000600052604160045260246000fd5b600080fd5b600073ffffffffffffffffffffffffffffffffffffffff82169050919050565b6000620003308262000303565b9050919050565b620003428162000323565b81146200034e57600080fd5b50565b600081519050620003628162000337565b92915050565b6000819050919050565b6200037d8162000368565b81146200038957600080fd5b50565b6000815190506200039d8162000372565b92915050565b60008060008060008060c08789031215620003c357620003c2620002fe565b5b6000620003d389828a0162000351565b9650506020620003e689828a0162000351565b9550506040620003f989828a0162000351565b94505060606200040c89828a0162000351565b93505060806200041f89828a016200038c565b92505060a06200043289828a016200038c565b9150509295509295509295565b7f4e487b7100000000000000000000000000000000000000000000000000000000600052601160045260246000fd5b60006200047b8262000368565b9150620004888362000368565b9250817fffffffffffffffffffffffffffffffffffffffffffffffffffffffffffffffff0483118215151615620004c457620004c36200043f565b5b828202905092915050565b6000620004dc8262000368565b9150620004e98362000368565b9250827fffffffffffffffffffffffffffffffffffffffffffffffffffffffffffffffff038211156200052157620005206200043f565b5b828201905092915050565b611c48806200053c6000396000f3fe6080604052600436106100865760003560e01c80639a58bfee116100595780639a58bfee146101335780639f57d16e1461014f578063a6afd5fd1461017a578063be8b48d0146101a5578063ecfea5d5146101e257610086565b8063087d0e0b1461008b57806349553cb5146100b65780635fedd0ab146100df57806387bb7ae014610108575b600080fd5b34801561009757600080fd5b506100a061020d565b6040516100ad9190610dc3565b60405180910390f35b3480156100c257600080fd5b506100dd60048036038101906100d89190610e1e565b610277565b005b3480156100eb57600080fd5b5061010660048036038101906101019190610e4b565b61027a565b005b34801561011457600080fd5b5061011d610442565b60405161012a9190610ead565b60405180910390f35b61014d60048036038101906101489190611102565b61044c565b005b34801561015b57600080fd5b50610164610a8d565b6040516101719190610ead565b60405180910390f35b34801561018657600080fd5b5061018f610a97565b60405161019c91906112a4565b60405180910390f35b3480156101b157600080fd5b506101cc60048036038101906101c79190611377565b610b73565b6040516101d99190610ead565b60405180910390f35b3480156101ee57600080fd5b506101f7610bbc565b6040516102049190610ead565b60405180910390f35b610215610c82565b600d6000600160085461022891906113d3565b815260200190815260200160002060038060200260405190810160405280929190826003801561026d576020028201915b815481526020019060010190808311610259575b5050505050905090565b50565b600160009054906101000a900473ffffffffffffffffffffffffffffffffffffffff1673ffffffffffffffffffffffffffffffffffffffff166352c6ed30336040518263ffffffff1660e01b81526004016102d59190611448565b602060405180830381865afa1580156102f2573d6000803e3d6000fd5b505050506040513d601f19601f82011682018060405250810190610316919061149b565b610355576040517f08c379a000000000000000000000000000000000000000000000000000000000815260040161034c9061154b565b60405180910390fd5b600260009054906101000a900473ffffffffffffffffffffffffffffffffffffffff1673ffffffffffffffffffffffffffffffffffffffff16637138360584836040518363ffffffff1660e01b81526004016103b292919061156b565b6020604051808303816000875af11580156103d1573d6000803e3d6000fd5b505050506040513d601f19601f820116820180604052508101906103f5919061149b565b610434576040517f08c379a000000000000000000000000000000000000000000000000000000000815260040161042b906115e0565b60405180910390fd5b61043d82610277565b505050565b6000600754905090565b600560009054906101000a900473ffffffffffffffffffffffffffffffffffffffff1673ffffffffffffffffffffffffffffffffffffffff163373ffffffffffffffffffffffffffffffffffffffff1614156104dd576040517f08c379a00000000000000000000000000000000000000000000000000000000081526004016104d49061164c565b60405180910390fd5b600a60009054906101000a900460ff161561052d576040517f08c379a0000000000000000000000000000000000000000000000000000000008152600401610524906116b8565b60405180910390fd5b60075481513461053d9190611707565b1461057d576040517f08c379a000000000000000000000000000000000000000000000000000000000815260040161057490611784565b60405180910390fd5b60005b815181101561082857600382828151811061059e5761059d6117a4565b5b602002602001015151146105e7576040517f08c379a00000000000000000000000000000000000000000000000000000000081526004016105de9061181f565b60405180910390fd5b60648282815181106105fc576105fb6117a4565b5b6020026020010151600081518110610617576106166117a4565b5b60200260200101511080156106625750600082828151811061063c5761063b6117a4565b5b6020026020010151600081518110610657576106566117a4565b5b602002602001015110155b6106a1576040517f08c379a0000000000000000000000000000000000000000000000000000000008152600401610698906118b1565b60405180910390fd5b60648282815181106106b6576106b56117a4565b5b60200260200101516001815181106106d1576106d06117a4565b5b602002602001015110801561071c575060008282815181106106f6576106f56117a4565b5b6020026020010151600181518110610711576107106117a4565b5b602002602001015110155b61075b576040517f08c379a000000000000000000000000000000000000000000000000000000000815260040161075290611943565b60405180910390fd5b60648282815181106107705761076f6117a4565b5b602002602001015160028151811061078b5761078a6117a4565b5b60200260200101511080156107d6575060008282815181106107b0576107af6117a4565b5b60200260200101516002815181106107cb576107ca6117a4565b5b602002602001015110155b610815576040517f08c379a000000000000000000000000000000000000000000000000000000000815260040161080c906119d5565b60405180910390fd5b8080610820906119f5565b915050610580565b50600066b1a2bc2ec50000825161083f9190611a3e565b9050803461084d91906113d3565b6006600082825461085e9190611a98565b9250508190555061087a813461087491906113d3565b82610bc6565b60005b8251811015610a4f57600e83828151811061089b5761089a6117a4565b5b60200260200101516040516020016108b39190611b7e565b6040516020818303038152906040528051906020012060001c9080600181540180825580915050600190039060005260206000200160009091909190915055600c60003373ffffffffffffffffffffffffffffffffffffffff1673ffffffffffffffffffffffffffffffffffffffff168152602001908152602001600020838281518110610944576109436117a4565b5b6020026020010151908060018154018082558091505060019003906000526020600020016000909190919091509080519060200190610984929190610ca4565b50600b600084838151811061099c5761099b6117a4565b5b60200260200101516040516020016109b49190611b7e565b6040516020818303038152906040528051906020012060001c8152602001908152602001600020339080600181540180825580915050600190039060005260206000200160009091909190916101000a81548173ffffffffffffffffffffffffffffffffffffffff021916908373ffffffffffffffffffffffffffffffffffffffff1602179055508080610a47906119f5565b91505061087d565b507ff9fcd8fad7415931becd04274f2d3e36e2c4a8ccea67edf7a151ac8c2ce93e53600654604051610a819190610ead565b60405180910390a15050565b6000600654905090565b6060600c60003373ffffffffffffffffffffffffffffffffffffffff1673ffffffffffffffffffffffffffffffffffffffff168152602001908152602001600020805480602002602001604051908101604052809291908181526020016000905b82821015610b6a57838290600052602060002001805480602002602001604051908101604052809291908181526020018280548015610b5657602002820191906000526020600020905b815481526020019060010190808311610b42575b505050505081526020019060010190610af8565b50505050905090565b6000600b600083604051602001610b8a9190611bf7565b6040516020818303038152906040528051906020012060001c8152602001908152602001600020805490509050919050565b6000600954905090565b8160046000828254610bd89190611a98565b9250508190555060008054906101000a900473ffffffffffffffffffffffffffffffffffffffff1673ffffffffffffffffffffffffffffffffffffffff1663072e536b83836040518363ffffffff1660e01b8152600401610c3a92919061156b565b6020604051808303816000875af1158015610c59573d6000803e3d6000fd5b505050506040513d601f19601f82011682018060405250810190610c7d919061149b565b505050565b6040518060600160405280600390602082028036833780820191505090505090565b828054828255906000526020600020908101928215610ce0579160200282015b82811115610cdf578251825591602001919060010190610cc4565b5b509050610ced9190610cf1565b5090565b5b80821115610d0a576000816000905550600101610cf2565b5090565b600060039050919050565b600081905092915050565b6000819050919050565b6000819050919050565b610d4181610d2e565b82525050565b6000610d538383610d38565b60208301905092915050565b6000602082019050919050565b610d7581610d0e565b610d7f8184610d19565b9250610d8a82610d24565b8060005b83811015610dbb578151610da28782610d47565b9650610dad83610d5f565b925050600181019050610d8e565b505050505050565b6000606082019050610dd86000830184610d6c565b92915050565b6000604051905090565b600080fd5b600080fd5b610dfb81610d2e565b8114610e0657600080fd5b50565b600081359050610e1881610df2565b92915050565b600060208284031215610e3457610e33610de8565b5b6000610e4284828501610e09565b91505092915050565b600080600060608486031215610e6457610e63610de8565b5b6000610e7286828701610e09565b9350506020610e8386828701610e09565b9250506040610e9486828701610e09565b9150509250925092565b610ea781610d2e565b82525050565b6000602082019050610ec26000830184610e9e565b92915050565b600080fd5b6000601f19601f8301169050919050565b7f4e487b7100000000000000000000000000000000000000000000000000000000600052604160045260246000fd5b610f1682610ecd565b810181811067ffffffffffffffff82111715610f3557610f34610ede565b5b80604052505050565b6000610f48610dde565b9050610f548282610f0d565b919050565b600067ffffffffffffffff821115610f7457610f73610ede565b5b602082029050602081019050919050565b600080fd5b600067ffffffffffffffff821115610fa557610fa4610ede565b5b602082029050602081019050919050565b6000610fc9610fc484610f8a565b610f3e565b90508083825260208201905060208402830185811115610fec57610feb610f85565b5b835b8181101561101557806110018882610e09565b845260208401935050602081019050610fee565b5050509392505050565b600082601f83011261103457611033610ec8565b5b8135611044848260208601610fb6565b91505092915050565b600061106061105b84610f59565b610f3e565b9050808382526020820190506020840283018581111561108357611082610f85565b5b835b818110156110ca57803567ffffffffffffffff8111156110a8576110a7610ec8565b5b8086016110b5898261101f565b85526020850194505050602081019050611085565b5050509392505050565b600082601f8301126110e9576110e8610ec8565b5b81356110f984826020860161104d565b91505092915050565b60006020828403121561111857611117610de8565b5b600082013567ffffffffffffffff81111561113657611135610ded565b5b611142848285016110d4565b91505092915050565b600081519050919050565b600082825260208201905092915050565b6000819050602082019050919050565b600081519050919050565b600082825260208201905092915050565b6000819050602082019050919050565b6000602082019050919050565b60006111bb82611177565b6111c58185611182565b93506111d083611193565b8060005b838110156112015781516111e88882610d47565b97506111f3836111a3565b9250506001810190506111d4565b5085935050505092915050565b600061121a83836111b0565b905092915050565b6000602082019050919050565b600061123a8261114b565b6112448185611156565b93508360208202850161125685611167565b8060005b858110156112925784840389528151611273858261120e565b945061127e83611222565b925060208a0199505060018101905061125a565b50829750879550505050505092915050565b600060208201905081810360008301526112be818461122f565b905092915050565b600067ffffffffffffffff8211156112e1576112e0610ede565b5b602082029050919050565b60006112ff6112fa846112c6565b610f3e565b9050806020840283018581111561131957611318610f85565b5b835b81811015611342578061132e8882610e09565b84526020840193505060208101905061131b565b5050509392505050565b600082601f83011261136157611360610ec8565b5b600361136e8482856112ec565b91505092915050565b60006060828403121561138d5761138c610de8565b5b600061139b8482850161134c565b91505092915050565b7f4e487b7100000000000000000000000000000000000000000000000000000000600052601160045260246000fd5b60006113de82610d2e565b91506113e983610d2e565b9250828210156113fc576113fb6113a4565b5b828203905092915050565b600073ffffffffffffffffffffffffffffffffffffffff82169050919050565b600061143282611407565b9050919050565b61144281611427565b82525050565b600060208201905061145d6000830184611439565b92915050565b60008115159050919050565b61147881611463565b811461148357600080fd5b50565b6000815190506114958161146f565b92915050565b6000602082840312156114b1576114b0610de8565b5b60006114bf84828501611486565b91505092915050565b600082825260208201905092915050565b7f4f6e6c79206f6666696369616c20696e6672612063616e2063616c6c2074686960008201527f732066756e6374696f6e00000000000000000000000000000000000000000000602082015250565b6000611535602a836114c8565b9150611540826114d9565b604082019050919050565b6000602082019050818103600083015261156481611528565b9050919050565b60006040820190506115806000830185610e9e565b61158d6020830184610e9e565b9392505050565b7f496e76616c696420636f6d6d6974000000000000000000000000000000000000600082015250565b60006115ca600e836114c8565b91506115d582611594565b602082019050919050565b600060208201905081810360008301526115f9816115bd565b9050919050565b7f547275737465642070617274792063616e277420626574000000000000000000600082015250565b60006116366017836114c8565b915061164182611600565b602082019050919050565b6000602082019050818103600083015261166581611629565b9050919050565b7f426574732061726520636c6f7365640000000000000000000000000000000000600082015250565b60006116a2600f836114c8565b91506116ad8261166c565b602082019050919050565b600060208201905081810360008301526116d181611695565b9050919050565b7f4e487b7100000000000000000000000000000000000000000000000000000000600052601260045260246000fd5b600061171282610d2e565b915061171d83610d2e565b92508261172d5761172c6116d8565b5b828204905092915050565b7f426574206e6f74207468652072696768742076616c7565206176617800000000600082015250565b600061176e601c836114c8565b915061177982611738565b602082019050919050565b6000602082019050818103600083015261179d81611761565b9050919050565b7f4e487b7100000000000000000000000000000000000000000000000000000000600052603260045260246000fd5b7f4561636820626574206d75737420686176652033206e756d6265727300000000600082015250565b6000611809601c836114c8565b9150611814826117d3565b602082019050919050565b60006020820190508181036000830152611838816117fc565b9050919050565b7f4e756d6265722031206d757374206265206265747765656e203020616e64203960008201527f3900000000000000000000000000000000000000000000000000000000000000602082015250565b600061189b6021836114c8565b91506118a68261183f565b604082019050919050565b600060208201905081810360008301526118ca8161188e565b9050919050565b7f4e756d6265722032206d757374206265206265747765656e203020616e64203960008201527f3900000000000000000000000000000000000000000000000000000000000000602082015250565b600061192d6021836114c8565b9150611938826118d1565b604082019050919050565b6000602082019050818103600083015261195c81611920565b9050919050565b7f4e756d6265722033206d757374206265206265747765656e203020616e64203960008201527f3900000000000000000000000000000000000000000000000000000000000000602082015250565b60006119bf6021836114c8565b91506119ca82611963565b604082019050919050565b600060208201905081810360008301526119ee816119b2565b9050919050565b6000611a0082610d2e565b91507fffffffffffffffffffffffffffffffffffffffffffffffffffffffffffffffff821415611a3357611a326113a4565b5b600182019050919050565b6000611a4982610d2e565b9150611a5483610d2e565b9250817fffffffffffffffffffffffffffffffffffffffffffffffffffffffffffffffff0483118215151615611a8d57611a8c6113a4565b5b828202905092915050565b6000611aa382610d2e565b9150611aae83610d2e565b9250827fffffffffffffffffffffffffffffffffffffffffffffffffffffffffffffffff03821115611ae357611ae26113a4565b5b828201905092915050565b600081905092915050565b611b0281610d2e565b82525050565b6000611b148383611af9565b60208301905092915050565b6000611b2b82611177565b611b358185611aee565b9350611b4083611193565b8060005b83811015611b71578151611b588882611b08565b9750611b63836111a3565b925050600181019050611b44565b5085935050505092915050565b6000611b8a8284611b20565b915081905092915050565b600081905092915050565b611ba981610d0e565b611bb38184611b95565b9250611bbe82610d24565b8060005b83811015611bef578151611bd68782611b08565b9650611be183610d5f565b925050600181019050611bc2565b505050505050565b6000611c038284611ba0565b6060820191508190509291505056fea2646970667358221220a25ecac78f1269ee3f74432c8eb63594b0b397e15f32d7ed702435f25838a5f364736f6c634300080a0033",
  "linkReferences": {},
  "deployedLinkReferences": {}
}