{
  "_format": "hh-sol-artifact-1",
  "contractName": "LottoWinnerMock",
  "sourceName": "contracts/LottoWinnerMock.sol",
  "abi": [
    {
      "inputs": [
        {
          "internalType": "address",
          "name": "_trustedParty",
          "type": "address"
        },
        {
          "internalType": "address payable",
          "name": "_treasury",
          "type": "address"
        },
        {
          "internalType": "uint256",
          "name": "_ticketValue",
          "type": "uint256"
        }
      ],
      "stateMutability": "nonpayable",
      "type": "constructor"
    },
    {
      "anonymous": false,
      "inputs": [
        {
          "indexed": false,
          "internalType": "uint256[3]",
          "name": "numbers",
          "type": "uint256[3]"
        }
      ],
      "name": "Draw",
      "type": "event"
    },
    {
      "anonymous": false,
      "inputs": [
        {
          "indexed": false,
          "internalType": "uint256",
          "name": "jackpot",
          "type": "uint256"
        }
      ],
      "name": "jackpotUpdated",
      "type": "event"
    },
    {
      "inputs": [
        {
          "internalType": "uint256[][]",
          "name": "_bets",
          "type": "uint256[][]"
        }
      ],
      "name": "bet",
      "outputs": [],
      "stateMutability": "payable",
      "type": "function"
    },
    {
      "inputs": [
        {
          "internalType": "uint256[3]",
          "name": "_numbers",
          "type": "uint256[3]"
        }
      ],
      "name": "getAmountOfBetForNumbers",
      "outputs": [
        {
          "internalType": "uint256",
          "name": "",
          "type": "uint256"
        }
      ],
      "stateMutability": "view",
      "type": "function"
    },
    {
      "inputs": [],
      "name": "getBets",
      "outputs": [
        {
          "internalType": "uint256[][]",
          "name": "",
          "type": "uint256[][]"
        }
      ],
      "stateMutability": "view",
      "type": "function"
    },
    {
      "inputs": [],
      "name": "getCurrentJackpot",
      "outputs": [
        {
          "internalType": "uint256",
          "name": "",
          "type": "uint256"
        }
      ],
      "stateMutability": "view",
      "type": "function"
    },
    {
      "inputs": [],
      "name": "getLastDrawNumbers",
      "outputs": [
        {
          "internalType": "uint256[3]",
          "name": "",
          "type": "uint256[3]"
        }
      ],
      "stateMutability": "view",
      "type": "function"
    },
    {
      "inputs": [],
      "name": "getNextDrawTime",
      "outputs": [
        {
          "internalType": "uint256",
          "name": "",
          "type": "uint256"
        }
      ],
      "stateMutability": "view",
      "type": "function"
    },
    {
      "inputs": [],
      "name": "getTicketPrice",
      "outputs": [
        {
          "internalType": "uint256",
          "name": "",
          "type": "uint256"
        }
      ],
      "stateMutability": "view",
      "type": "function"
    },
    {
      "inputs": [
        {
          "internalType": "uint256",
          "name": "amount",
          "type": "uint256"
        }
      ],
      "name": "payTreasury",
      "outputs": [],
      "stateMutability": "nonpayable",
      "type": "function"
    },
    {
      "inputs": [
        {
          "internalType": "uint256",
          "name": "amount",
          "type": "uint256"
        },
        {
          "internalType": "uint256",
          "name": "hashedWinners",
          "type": "uint256"
        }
      ],
      "name": "payoutAllWinners",
      "outputs": [],
      "stateMutability": "nonpayable",
      "type": "function"
    },
    {
      "inputs": [
        {
          "internalType": "bytes32",
          "name": "_seed",
          "type": "bytes32"
        }
      ],
      "name": "reveal",
      "outputs": [
        {
          "internalType": "uint256[3]",
          "name": "",
          "type": "uint256[3]"
        }
      ],
      "stateMutability": "nonpayable",
      "type": "function"
    },
    {
      "inputs": [
        {
          "internalType": "bytes32",
          "name": "_sealedSeed",
          "type": "bytes32"
        }
      ],
      "name": "setSealedSeed",
      "outputs": [],
      "stateMutability": "nonpayable",
      "type": "function"
    }
  ],
  "bytecode": "0x608060405260006004556000600760006101000a81548160ff0219169083151502179055506000600760016101000a81548160ff0219169083151502179055506000600760026101000a81548160ff021916908315150217905550600067ffffffffffffffff8111156200007857620000776200020c565b5b604051908082528060200260200182016040528015620000a75781602001602082028036833780820191505090505b50600c9080519060200190620000bf9291906200019b565b50348015620000cd57600080fd5b5060405162002736380380620027368339818101604052810190620000f3919062000325565b826000806101000a81548173ffffffffffffffffffffffffffffffffffffffff021916908373ffffffffffffffffffffffffffffffffffffffff16021790555081600160006101000a81548173ffffffffffffffffffffffffffffffffffffffff021916908373ffffffffffffffffffffffffffffffffffffffff1602179055508060038190555062093a80426200018c9190620003b0565b6005819055505050506200040d565b828054828255906000526020600020908101928215620001da579160200282015b82811115620001d9578251825591602001919060010190620001bc565b5b509050620001e99190620001ed565b5090565b5b8082111562000208576000816000905550600101620001ee565b5090565b7f4e487b7100000000000000000000000000000000000000000000000000000000600052604160045260246000fd5b600080fd5b600073ffffffffffffffffffffffffffffffffffffffff82169050919050565b60006200026d8262000240565b9050919050565b6200027f8162000260565b81146200028b57600080fd5b50565b6000815190506200029f8162000274565b92915050565b6000620002b28262000240565b9050919050565b620002c481620002a5565b8114620002d057600080fd5b50565b600081519050620002e481620002b9565b92915050565b6000819050919050565b620002ff81620002ea565b81146200030b57600080fd5b50565b6000815190506200031f81620002f4565b92915050565b6000806000606084860312156200034157620003406200023b565b5b600062000351868287016200028e565b93505060206200036486828701620002d3565b925050604062000377868287016200030e565b9150509250925092565b7f4e487b7100000000000000000000000000000000000000000000000000000000600052601160045260246000fd5b6000620003bd82620002ea565b9150620003ca83620002ea565b9250827fffffffffffffffffffffffffffffffffffffffffffffffffffffffffffffffff0382111562000402576200040162000381565b5b828201905092915050565b612319806200041d6000396000f3fe60806040526004361061009c5760003560e01c8063999bd71611610064578063999bd716146101865780639a58bfee146101af5780639f57d16e146101cb578063a6afd5fd146101f6578063be8b48d014610221578063ecfea5d51461025e5761009c565b8063087d0e0b146100a157806308deb7ed146100cc57806341114538146100f5578063701fd0f11461011e57806387bb7ae01461015b575b600080fd5b3480156100ad57600080fd5b506100b6610289565b6040516100c3919061145a565b60405180910390f35b3480156100d857600080fd5b506100f360048036038101906100ee91906114b5565b6102f3565b005b34801561010157600080fd5b5061011c60048036038101906101179190611518565b61043c565b005b34801561012a57600080fd5b5061014560048036038101906101409190611518565b61051b565b604051610152919061145a565b60405180910390f35b34801561016757600080fd5b5061017061089d565b60405161017d9190611554565b60405180910390f35b34801561019257600080fd5b506101ad60048036038101906101a8919061156f565b6108a7565b005b6101c960048036038101906101c491906117e9565b610aef565b005b3480156101d757600080fd5b506101e0611175565b6040516101ed9190611554565b60405180910390f35b34801561020257600080fd5b5061020b61117f565b604051610218919061198b565b60405180910390f35b34801561022d57600080fd5b5061024860048036038101906102439190611a5e565b61125b565b6040516102559190611554565b60405180910390f35b34801561026a57600080fd5b506102736112a4565b6040516102809190611554565b60405180910390f35b6102916112d9565b600b600060016004546102a49190611aba565b81526020019081526020016000206003806020026040519081016040528092919082600380156102e9576020028201915b8154815260200190600101908083116102d5575b5050505050905090565b60008054906101000a900473ffffffffffffffffffffffffffffffffffffffff1673ffffffffffffffffffffffffffffffffffffffff163373ffffffffffffffffffffffffffffffffffffffff1614610381576040517f08c379a000000000000000000000000000000000000000000000000000000000815260040161037890611b71565b60405180910390fd5b600760019054906101000a900460ff166103d0576040517f08c379a00000000000000000000000000000000000000000000000000000000081526004016103c790611bdd565b60405180910390fd5b600160009054906101000a900473ffffffffffffffffffffffffffffffffffffffff1673ffffffffffffffffffffffffffffffffffffffff166108fc829081150290604051600060405180830381858888f19350505050158015610438573d6000803e3d6000fd5b5050565b60008054906101000a900473ffffffffffffffffffffffffffffffffffffffff1673ffffffffffffffffffffffffffffffffffffffff163373ffffffffffffffffffffffffffffffffffffffff161461049457600080fd5b600760009054906101000a900460ff16156104ae57600080fd5b600760019054906101000a900460ff16156104c857600080fd5b6001600760016101000a81548160ff021916908315150217905550806006819055506001436104f79190611bfd565b6008819055506001600760006101000a81548160ff02191690831515021790555050565b6105236112d9565b60008054906101000a900473ffffffffffffffffffffffffffffffffffffffff1673ffffffffffffffffffffffffffffffffffffffff163373ffffffffffffffffffffffffffffffffffffffff161461057b57600080fd5b600760009054906101000a900460ff1661059457600080fd5b43600854106105a257600080fd5b60065482146105b057600080fd5b60006105ba6112ae565b905080600b600060045481526020019081526020016000209060036105e09291906112fb565b50600460008154809291906105f490611c53565b91905055507f782d7ce763b28c71c4396c26548d32590c3a1f9649900b813dad7d691fead90181604051610628919061145a565b60405180910390a1600060096000836040516020016106479190611d25565b6040516020818303038152906040528051906020012060001c81526020019081526020016000208054905011600760026101000a81548160ff021916908315150217905550600760029054906101000a900460ff161561084857600060096000836040516020016106b89190611d25565b6040516020818303038152906040528051906020012060001c81526020019081526020016000208054905090506000816002546106f59190611d6f565b905060005b8281101561083457600060096000866040516020016107199190611d25565b6040516020818303038152906040528051906020012060001c8152602001908152602001600020828154811061075257610751611da0565b5b9060005260206000200160009054906101000a900473ffffffffffffffffffffffffffffffffffffffff169050600160009054906101000a900473ffffffffffffffffffffffffffffffffffffffff1673ffffffffffffffffffffffffffffffffffffffff1663a31c1d6e84836040518363ffffffff1660e01b81526004016107dc929190611e5c565b6020604051808303816000875af11580156107fb573d6000803e3d6000fd5b505050506040513d601f19601f8201168201806040525081019061081f9190611ed0565b5050808061082c90611c53565b9150506106fa565b506000600281905550829350505050610898565b6000600760006101000a81548160ff0219169083151502179055506000600760016101000a81548160ff02191690831515021790555062093a804361088d9190611bfd565b600581905550809150505b919050565b6000600354905090565b60008054906101000a900473ffffffffffffffffffffffffffffffffffffffff1673ffffffffffffffffffffffffffffffffffffffff163373ffffffffffffffffffffffffffffffffffffffff1614610935576040517f08c379a000000000000000000000000000000000000000000000000000000000815260040161092c90611b71565b60405180910390fd5b600760019054906101000a900460ff16610984576040517f08c379a000000000000000000000000000000000000000000000000000000000815260040161097b90611bdd565b60405180910390fd5b60008054906101000a900473ffffffffffffffffffffffffffffffffffffffff1673ffffffffffffffffffffffffffffffffffffffff163373ffffffffffffffffffffffffffffffffffffffff16146109dc57600080fd5b60005b6009600060016009600086815260200190815260200160002080549050610a069190611aba565b815260200190815260200160002080549050811015610aea576009600060016009600086815260200190815260200160002080549050610a469190611aba565b81526020019081526020016000208181548110610a6657610a65611da0565b5b9060005260206000200160009054906101000a900473ffffffffffffffffffffffffffffffffffffffff1673ffffffffffffffffffffffffffffffffffffffff166108fc849081150290604051600060405180830381858888f19350505050158015610ad6573d6000803e3d6000fd5b508080610ae290611c53565b9150506109df565b505050565b60008054906101000a900473ffffffffffffffffffffffffffffffffffffffff1673ffffffffffffffffffffffffffffffffffffffff163373ffffffffffffffffffffffffffffffffffffffff161415610b7e576040517f08c379a0000000000000000000000000000000000000000000000000000000008152600401610b7590611f49565b60405180910390fd5b600760019054906101000a900460ff1615610bce576040517f08c379a0000000000000000000000000000000000000000000000000000000008152600401610bc590611fb5565b60405180910390fd5b600354815134610bde9190611d6f565b14610c1e576040517f08c379a0000000000000000000000000000000000000000000000000000000008152600401610c1590612021565b60405180910390fd5b60005b8151811015610ec9576003828281518110610c3f57610c3e611da0565b5b60200260200101515114610c88576040517f08c379a0000000000000000000000000000000000000000000000000000000008152600401610c7f9061208d565b60405180910390fd5b6064828281518110610c9d57610c9c611da0565b5b6020026020010151600081518110610cb857610cb7611da0565b5b6020026020010151108015610d0357506000828281518110610cdd57610cdc611da0565b5b6020026020010151600081518110610cf857610cf7611da0565b5b602002602001015110155b610d42576040517f08c379a0000000000000000000000000000000000000000000000000000000008152600401610d399061211f565b60405180910390fd5b6064828281518110610d5757610d56611da0565b5b6020026020010151600181518110610d7257610d71611da0565b5b6020026020010151108015610dbd57506000828281518110610d9757610d96611da0565b5b6020026020010151600181518110610db257610db1611da0565b5b602002602001015110155b610dfc576040517f08c379a0000000000000000000000000000000000000000000000000000000008152600401610df3906121b1565b60405180910390fd5b6064828281518110610e1157610e10611da0565b5b6020026020010151600281518110610e2c57610e2b611da0565b5b6020026020010151108015610e7757506000828281518110610e5157610e50611da0565b5b6020026020010151600281518110610e6c57610e6b611da0565b5b602002602001015110155b610eb6576040517f08c379a0000000000000000000000000000000000000000000000000000000008152600401610ead90612243565b60405180910390fd5b8080610ec190611c53565b915050610c21565b50600160009054906101000a900473ffffffffffffffffffffffffffffffffffffffff1673ffffffffffffffffffffffffffffffffffffffff166108fc349081150290604051600060405180830381858888f19350505050158015610f32573d6000803e3d6000fd5b50601e34610f409190611d6f565b34610f4b9190611aba565b60026000828254610f5c9190611bfd565b9250508190555060005b815181101561113857600c828281518110610f8457610f83611da0565b5b6020026020010151604051602001610f9c91906122cc565b6040516020818303038152906040528051906020012060001c9080600181540180825580915050600190039060005260206000200160009091909190915055600a60003373ffffffffffffffffffffffffffffffffffffffff1673ffffffffffffffffffffffffffffffffffffffff16815260200190815260200160002082828151811061102d5761102c611da0565b5b602002602001015190806001815401808255809150506001900390600052602060002001600090919091909150908051906020019061106d92919061133b565b506009600083838151811061108557611084611da0565b5b602002602001015160405160200161109d91906122cc565b6040516020818303038152906040528051906020012060001c8152602001908152602001600020339080600181540180825580915050600190039060005260206000200160009091909190916101000a81548173ffffffffffffffffffffffffffffffffffffffff021916908373ffffffffffffffffffffffffffffffffffffffff160217905550808061113090611c53565b915050610f66565b507ff9fcd8fad7415931becd04274f2d3e36e2c4a8ccea67edf7a151ac8c2ce93e5360025460405161116a9190611554565b60405180910390a150565b6000600254905090565b6060600a60003373ffffffffffffffffffffffffffffffffffffffff1673ffffffffffffffffffffffffffffffffffffffff168152602001908152602001600020805480602002602001604051908101604052809291908181526020016000905b828210156112525783829060005260206000200180548060200260200160405190810160405280929190818152602001828054801561123e57602002820191906000526020600020905b81548152602001906001019080831161122a575b5050505050815260200190600101906111e0565b50505050905090565b600060096000836040516020016112729190611d25565b6040516020818303038152906040528051906020012060001c8152602001908152602001600020805490509050919050565b6000600554905090565b6112b66112d9565b604051806060016040528060018152602001600281526020016003815250905090565b6040518060600160405280600390602082028036833780820191505090505090565b826003810192821561132a579160200282015b8281111561132957825182559160200191906001019061130e565b5b5090506113379190611388565b5090565b828054828255906000526020600020908101928215611377579160200282015b8281111561137657825182559160200191906001019061135b565b5b5090506113849190611388565b5090565b5b808211156113a1576000816000905550600101611389565b5090565b600060039050919050565b600081905092915050565b6000819050919050565b6000819050919050565b6113d8816113c5565b82525050565b60006113ea83836113cf565b60208301905092915050565b6000602082019050919050565b61140c816113a5565b61141681846113b0565b9250611421826113bb565b8060005b8381101561145257815161143987826113de565b9650611444836113f6565b925050600181019050611425565b505050505050565b600060608201905061146f6000830184611403565b92915050565b6000604051905090565b600080fd5b600080fd5b611492816113c5565b811461149d57600080fd5b50565b6000813590506114af81611489565b92915050565b6000602082840312156114cb576114ca61147f565b5b60006114d9848285016114a0565b91505092915050565b6000819050919050565b6114f5816114e2565b811461150057600080fd5b50565b600081359050611512816114ec565b92915050565b60006020828403121561152e5761152d61147f565b5b600061153c84828501611503565b91505092915050565b61154e816113c5565b82525050565b60006020820190506115696000830184611545565b92915050565b600080604083850312156115865761158561147f565b5b6000611594858286016114a0565b92505060206115a5858286016114a0565b9150509250929050565b600080fd5b6000601f19601f8301169050919050565b7f4e487b7100000000000000000000000000000000000000000000000000000000600052604160045260246000fd5b6115fd826115b4565b810181811067ffffffffffffffff8211171561161c5761161b6115c5565b5b80604052505050565b600061162f611475565b905061163b82826115f4565b919050565b600067ffffffffffffffff82111561165b5761165a6115c5565b5b602082029050602081019050919050565b600080fd5b600067ffffffffffffffff82111561168c5761168b6115c5565b5b602082029050602081019050919050565b60006116b06116ab84611671565b611625565b905080838252602082019050602084028301858111156116d3576116d261166c565b5b835b818110156116fc57806116e888826114a0565b8452602084019350506020810190506116d5565b5050509392505050565b600082601f83011261171b5761171a6115af565b5b813561172b84826020860161169d565b91505092915050565b600061174761174284611640565b611625565b9050808382526020820190506020840283018581111561176a5761176961166c565b5b835b818110156117b157803567ffffffffffffffff81111561178f5761178e6115af565b5b80860161179c8982611706565b8552602085019450505060208101905061176c565b5050509392505050565b600082601f8301126117d0576117cf6115af565b5b81356117e0848260208601611734565b91505092915050565b6000602082840312156117ff576117fe61147f565b5b600082013567ffffffffffffffff81111561181d5761181c611484565b5b611829848285016117bb565b91505092915050565b600081519050919050565b600082825260208201905092915050565b6000819050602082019050919050565b600081519050919050565b600082825260208201905092915050565b6000819050602082019050919050565b6000602082019050919050565b60006118a28261185e565b6118ac8185611869565b93506118b78361187a565b8060005b838110156118e85781516118cf88826113de565b97506118da8361188a565b9250506001810190506118bb565b5085935050505092915050565b60006119018383611897565b905092915050565b6000602082019050919050565b600061192182611832565b61192b818561183d565b93508360208202850161193d8561184e565b8060005b85811015611979578484038952815161195a85826118f5565b945061196583611909565b925060208a01995050600181019050611941565b50829750879550505050505092915050565b600060208201905081810360008301526119a58184611916565b905092915050565b600067ffffffffffffffff8211156119c8576119c76115c5565b5b602082029050919050565b60006119e66119e1846119ad565b611625565b90508060208402830185811115611a00576119ff61166c565b5b835b81811015611a295780611a1588826114a0565b845260208401935050602081019050611a02565b5050509392505050565b600082601f830112611a4857611a476115af565b5b6003611a558482856119d3565b91505092915050565b600060608284031215611a7457611a7361147f565b5b6000611a8284828501611a33565b91505092915050565b7f4e487b7100000000000000000000000000000000000000000000000000000000600052601160045260246000fd5b6000611ac5826113c5565b9150611ad0836113c5565b925082821015611ae357611ae2611a8b565b5b828203905092915050565b600082825260208201905092915050565b7f5468697320616374696f6e2063616e206f6e6c792062652074616b656e20776860008201527f656e2074686520626574732061726520636c6f73656400000000000000000000602082015250565b6000611b5b603683611aee565b9150611b6682611aff565b604082019050919050565b60006020820190508181036000830152611b8a81611b4e565b9050919050565b7f4265747320617265206e6f7420636c6f73656400000000000000000000000000600082015250565b6000611bc7601383611aee565b9150611bd282611b91565b602082019050919050565b60006020820190508181036000830152611bf681611bba565b9050919050565b6000611c08826113c5565b9150611c13836113c5565b9250827fffffffffffffffffffffffffffffffffffffffffffffffffffffffffffffffff03821115611c4857611c47611a8b565b5b828201905092915050565b6000611c5e826113c5565b91507fffffffffffffffffffffffffffffffffffffffffffffffffffffffffffffffff821415611c9157611c90611a8b565b5b600182019050919050565b600081905092915050565b611cb0816113c5565b82525050565b6000611cc28383611ca7565b60208301905092915050565b611cd7816113a5565b611ce18184611c9c565b9250611cec826113bb565b8060005b83811015611d1d578151611d048782611cb6565b9650611d0f836113f6565b925050600181019050611cf0565b505050505050565b6000611d318284611cce565b60608201915081905092915050565b7f4e487b7100000000000000000000000000000000000000000000000000000000600052601260045260246000fd5b6000611d7a826113c5565b9150611d85836113c5565b925082611d9557611d94611d40565b5b828204905092915050565b7f4e487b7100000000000000000000000000000000000000000000000000000000600052603260045260246000fd5b600073ffffffffffffffffffffffffffffffffffffffff82169050919050565b6000611dfa82611dcf565b9050919050565b611e0a81611def565b82525050565b7f4156415800000000000000000000000000000000000000000000000000000000600082015250565b6000611e46600483611aee565b9150611e5182611e10565b602082019050919050565b6000606082019050611e716000830185611545565b611e7e6020830184611e01565b8181036040830152611e8f81611e39565b90509392505050565b60008115159050919050565b611ead81611e98565b8114611eb857600080fd5b50565b600081519050611eca81611ea4565b92915050565b600060208284031215611ee657611ee561147f565b5b6000611ef484828501611ebb565b91505092915050565b7f547275737465642070617274792063616e277420626574000000000000000000600082015250565b6000611f33601783611aee565b9150611f3e82611efd565b602082019050919050565b60006020820190508181036000830152611f6281611f26565b9050919050565b7f426574732061726520636c6f7365640000000000000000000000000000000000600082015250565b6000611f9f600f83611aee565b9150611faa82611f69565b602082019050919050565b60006020820190508181036000830152611fce81611f92565b9050919050565b7f426574206e6f74207468652072696768742076616c7565206176617800000000600082015250565b600061200b601c83611aee565b915061201682611fd5565b602082019050919050565b6000602082019050818103600083015261203a81611ffe565b9050919050565b7f4561636820626574206d75737420686176652033206e756d6265727300000000600082015250565b6000612077601c83611aee565b915061208282612041565b602082019050919050565b600060208201905081810360008301526120a68161206a565b9050919050565b7f4e756d6265722031206d757374206265206265747765656e203020616e64203960008201527f3900000000000000000000000000000000000000000000000000000000000000602082015250565b6000612109602183611aee565b9150612114826120ad565b604082019050919050565b60006020820190508181036000830152612138816120fc565b9050919050565b7f4e756d6265722032206d757374206265206265747765656e203020616e64203960008201527f3900000000000000000000000000000000000000000000000000000000000000602082015250565b600061219b602183611aee565b91506121a68261213f565b604082019050919050565b600060208201905081810360008301526121ca8161218e565b9050919050565b7f4e756d6265722033206d757374206265206265747765656e203020616e64203960008201527f3900000000000000000000000000000000000000000000000000000000000000602082015250565b600061222d602183611aee565b9150612238826121d1565b604082019050919050565b6000602082019050818103600083015261225c81612220565b9050919050565b600081905092915050565b60006122798261185e565b6122838185612263565b935061228e8361187a565b8060005b838110156122bf5781516122a68882611cb6565b97506122b18361188a565b925050600181019050612292565b5085935050505092915050565b60006122d8828461226e565b91508190509291505056fea2646970667358221220e5b97e38d8161427f264a4e1a16ec9d698c1dbbbe1ea6748669645d0b421db8c64736f6c634300080a0033",
  "linkReferences": {},
  "deployedLinkReferences": {}
}