{
  "_format": "hh-sol-artifact-1",
  "contractName": "LottoWinnerMock",
  "sourceName": "contracts/LottoWinnerMock.sol",
  "abi": [
    {
      "inputs": [
        {
          "internalType": "address",
          "name": "_trustedParty",
          "type": "address"
        },
        {
          "internalType": "address payable",
          "name": "_treasury",
          "type": "address"
        },
        {
          "internalType": "uint256",
          "name": "_ticketValue",
          "type": "uint256"
        }
      ],
      "stateMutability": "nonpayable",
      "type": "constructor"
    },
    {
      "anonymous": false,
      "inputs": [
        {
          "indexed": false,
          "internalType": "uint256[3]",
          "name": "numbers",
          "type": "uint256[3]"
        }
      ],
      "name": "Draw",
      "type": "event"
    },
    {
      "anonymous": false,
      "inputs": [
        {
          "indexed": false,
          "internalType": "uint256",
          "name": "jackpot",
          "type": "uint256"
        }
      ],
      "name": "jackpotUpdated",
      "type": "event"
    },
    {
      "inputs": [
        {
          "internalType": "uint256[][]",
          "name": "_bets",
          "type": "uint256[][]"
        }
      ],
      "name": "bet",
      "outputs": [],
      "stateMutability": "payable",
      "type": "function"
    },
    {
      "inputs": [
        {
          "internalType": "uint256[3]",
          "name": "_numbers",
          "type": "uint256[3]"
        }
      ],
      "name": "getAmountOfBetForNumbers",
      "outputs": [
        {
          "internalType": "uint256",
          "name": "",
          "type": "uint256"
        }
      ],
      "stateMutability": "view",
      "type": "function"
    },
    {
      "inputs": [],
      "name": "getBets",
      "outputs": [
        {
          "internalType": "uint256[][]",
          "name": "",
          "type": "uint256[][]"
        }
      ],
      "stateMutability": "view",
      "type": "function"
    },
    {
      "inputs": [],
      "name": "getCurrentJackpot",
      "outputs": [
        {
          "internalType": "uint256",
          "name": "",
          "type": "uint256"
        }
      ],
      "stateMutability": "view",
      "type": "function"
    },
    {
      "inputs": [],
      "name": "getLastDrawNumbers",
      "outputs": [
        {
          "internalType": "uint256[3]",
          "name": "",
          "type": "uint256[3]"
        }
      ],
      "stateMutability": "view",
      "type": "function"
    },
    {
      "inputs": [],
      "name": "getNextDrawTime",
      "outputs": [
        {
          "internalType": "uint256",
          "name": "",
          "type": "uint256"
        }
      ],
      "stateMutability": "view",
      "type": "function"
    },
    {
      "inputs": [],
      "name": "getTicketPrice",
      "outputs": [
        {
          "internalType": "uint256",
          "name": "",
          "type": "uint256"
        }
      ],
      "stateMutability": "view",
      "type": "function"
    },
    {
      "inputs": [
        {
          "internalType": "uint256",
          "name": "amount",
          "type": "uint256"
        }
      ],
      "name": "payTreasury",
      "outputs": [],
      "stateMutability": "nonpayable",
      "type": "function"
    },
    {
      "inputs": [
        {
          "internalType": "uint256",
          "name": "amount",
          "type": "uint256"
        },
        {
          "internalType": "uint256",
          "name": "hashedWinners",
          "type": "uint256"
        }
      ],
      "name": "payoutAllWinners",
      "outputs": [],
      "stateMutability": "nonpayable",
      "type": "function"
    },
    {
      "inputs": [
        {
          "internalType": "bytes32",
          "name": "_seed",
          "type": "bytes32"
        }
      ],
      "name": "reveal",
      "outputs": [
        {
          "internalType": "uint256[3]",
          "name": "",
          "type": "uint256[3]"
        }
      ],
      "stateMutability": "nonpayable",
      "type": "function"
    },
    {
      "inputs": [
        {
          "internalType": "bytes32",
          "name": "_sealedSeed",
          "type": "bytes32"
        }
      ],
      "name": "setSealedSeed",
      "outputs": [],
      "stateMutability": "nonpayable",
      "type": "function"
    }
  ],
  "bytecode": "0x608060405260006004556000600760006101000a81548160ff0219169083151502179055506000600760016101000a81548160ff0219169083151502179055506000600760026101000a81548160ff021916908315150217905550600067ffffffffffffffff8111156200007857620000776200020c565b5b604051908082528060200260200182016040528015620000a75781602001602082028036833780820191505090505b50600c9080519060200190620000bf9291906200019b565b50348015620000cd57600080fd5b5060405162002738380380620027388339818101604052810190620000f3919062000325565b826000806101000a81548173ffffffffffffffffffffffffffffffffffffffff021916908373ffffffffffffffffffffffffffffffffffffffff16021790555081600160006101000a81548173ffffffffffffffffffffffffffffffffffffffff021916908373ffffffffffffffffffffffffffffffffffffffff1602179055508060038190555062093a80426200018c9190620003b0565b6005819055505050506200040d565b828054828255906000526020600020908101928215620001da579160200282015b82811115620001d9578251825591602001919060010190620001bc565b5b509050620001e99190620001ed565b5090565b5b8082111562000208576000816000905550600101620001ee565b5090565b7f4e487b7100000000000000000000000000000000000000000000000000000000600052604160045260246000fd5b600080fd5b600073ffffffffffffffffffffffffffffffffffffffff82169050919050565b60006200026d8262000240565b9050919050565b6200027f8162000260565b81146200028b57600080fd5b50565b6000815190506200029f8162000274565b92915050565b6000620002b28262000240565b9050919050565b620002c481620002a5565b8114620002d057600080fd5b50565b600081519050620002e481620002b9565b92915050565b6000819050919050565b620002ff81620002ea565b81146200030b57600080fd5b50565b6000815190506200031f81620002f4565b92915050565b6000806000606084860312156200034157620003406200023b565b5b600062000351868287016200028e565b93505060206200036486828701620002d3565b925050604062000377868287016200030e565b9150509250925092565b7f4e487b7100000000000000000000000000000000000000000000000000000000600052601160045260246000fd5b6000620003bd82620002ea565b9150620003ca83620002ea565b9250827fffffffffffffffffffffffffffffffffffffffffffffffffffffffffffffffff0382111562000402576200040162000381565b5b828201905092915050565b61231b806200041d6000396000f3fe60806040526004361061009c5760003560e01c8063999bd71611610064578063999bd716146101865780639a58bfee146101af5780639f57d16e146101cb578063a6afd5fd146101f6578063be8b48d014610221578063ecfea5d51461025e5761009c565b8063087d0e0b146100a157806308deb7ed146100cc57806341114538146100f5578063701fd0f11461011e57806387bb7ae01461015b575b600080fd5b3480156100ad57600080fd5b506100b6610289565b6040516100c3919061140f565b60405180910390f35b3480156100d857600080fd5b506100f360048036038101906100ee919061146a565b6102f3565b005b34801561010157600080fd5b5061011c600480360381019061011791906114cd565b61043c565b005b34801561012a57600080fd5b50610145600480360381019061014091906114cd565b61051b565b604051610152919061140f565b60405180910390f35b34801561016757600080fd5b506101706108d2565b60405161017d9190611509565b60405180910390f35b34801561019257600080fd5b506101ad60048036038101906101a89190611524565b6108dc565b005b6101c960048036038101906101c4919061179e565b610b24565b005b3480156101d757600080fd5b506101e061112a565b6040516101ed9190611509565b60405180910390f35b34801561020257600080fd5b5061020b611134565b6040516102189190611940565b60405180910390f35b34801561022d57600080fd5b5061024860048036038101906102439190611a13565b611210565b6040516102559190611509565b60405180910390f35b34801561026a57600080fd5b50610273611259565b6040516102809190611509565b60405180910390f35b61029161128e565b600b600060016004546102a49190611a6f565b81526020019081526020016000206003806020026040519081016040528092919082600380156102e9576020028201915b8154815260200190600101908083116102d5575b5050505050905090565b60008054906101000a900473ffffffffffffffffffffffffffffffffffffffff1673ffffffffffffffffffffffffffffffffffffffff163373ffffffffffffffffffffffffffffffffffffffff1614610381576040517f08c379a000000000000000000000000000000000000000000000000000000000815260040161037890611b26565b60405180910390fd5b600760019054906101000a900460ff166103d0576040517f08c379a00000000000000000000000000000000000000000000000000000000081526004016103c790611b92565b60405180910390fd5b600160009054906101000a900473ffffffffffffffffffffffffffffffffffffffff1673ffffffffffffffffffffffffffffffffffffffff166108fc829081150290604051600060405180830381858888f19350505050158015610438573d6000803e3d6000fd5b5050565b60008054906101000a900473ffffffffffffffffffffffffffffffffffffffff1673ffffffffffffffffffffffffffffffffffffffff163373ffffffffffffffffffffffffffffffffffffffff161461049457600080fd5b600760009054906101000a900460ff16156104ae57600080fd5b600760019054906101000a900460ff16156104c857600080fd5b6001600760016101000a81548160ff021916908315150217905550806006819055506001436104f79190611bb2565b6008819055506001600760006101000a81548160ff02191690831515021790555050565b61052361128e565b60008054906101000a900473ffffffffffffffffffffffffffffffffffffffff1673ffffffffffffffffffffffffffffffffffffffff163373ffffffffffffffffffffffffffffffffffffffff161461057b57600080fd5b600760009054906101000a900460ff1661059457600080fd5b43600854106105a257600080fd5b60065482146105b057600080fd5b600082600854406040516020016105c8929190611c29565b6040516020818303038152906040528051906020012060001c905060006105ed611263565b905080600b600060045481526020019081526020016000209060036106139291906112b0565b506004600081548092919061062790611c55565b91905055507f782d7ce763b28c71c4396c26548d32590c3a1f9649900b813dad7d691fead9018160405161065b919061140f565b60405180910390a16000600960008360405160200161067a9190611d27565b6040516020818303038152906040528051906020012060001c81526020019081526020016000208054905011600760026101000a81548160ff021916908315150217905550600760029054906101000a900460ff161561087c57600060096000836040516020016106eb9190611d27565b6040516020818303038152906040528051906020012060001c81526020019081526020016000208054905090506000816002546107289190611d71565b905060005b82811015610867576000600960008660405160200161074c9190611d27565b6040516020818303038152906040528051906020012060001c8152602001908152602001600020828154811061078557610784611da2565b5b9060005260206000200160009054906101000a900473ffffffffffffffffffffffffffffffffffffffff169050600160009054906101000a900473ffffffffffffffffffffffffffffffffffffffff1673ffffffffffffffffffffffffffffffffffffffff1663a31c1d6e84836040518363ffffffff1660e01b815260040161080f929190611e5e565b6020604051808303816000875af115801561082e573d6000803e3d6000fd5b505050506040513d601f19601f820116820180604052508101906108529190611ed2565b5050808061085f90611c55565b91505061072d565b506000600281905550829450505050506108cd565b6000600760006101000a81548160ff0219169083151502179055506000600760016101000a81548160ff02191690831515021790555062093a80436108c19190611bb2565b60058190555080925050505b919050565b6000600354905090565b60008054906101000a900473ffffffffffffffffffffffffffffffffffffffff1673ffffffffffffffffffffffffffffffffffffffff163373ffffffffffffffffffffffffffffffffffffffff161461096a576040517f08c379a000000000000000000000000000000000000000000000000000000000815260040161096190611b26565b60405180910390fd5b600760019054906101000a900460ff166109b9576040517f08c379a00000000000000000000000000000000000000000000000000000000081526004016109b090611b92565b60405180910390fd5b60008054906101000a900473ffffffffffffffffffffffffffffffffffffffff1673ffffffffffffffffffffffffffffffffffffffff163373ffffffffffffffffffffffffffffffffffffffff1614610a1157600080fd5b60005b6009600060016009600086815260200190815260200160002080549050610a3b9190611a6f565b815260200190815260200160002080549050811015610b1f576009600060016009600086815260200190815260200160002080549050610a7b9190611a6f565b81526020019081526020016000208181548110610a9b57610a9a611da2565b5b9060005260206000200160009054906101000a900473ffffffffffffffffffffffffffffffffffffffff1673ffffffffffffffffffffffffffffffffffffffff166108fc849081150290604051600060405180830381858888f19350505050158015610b0b573d6000803e3d6000fd5b508080610b1790611c55565b915050610a14565b505050565b60008054906101000a900473ffffffffffffffffffffffffffffffffffffffff1673ffffffffffffffffffffffffffffffffffffffff163373ffffffffffffffffffffffffffffffffffffffff161415610bb3576040517f08c379a0000000000000000000000000000000000000000000000000000000008152600401610baa90611f4b565b60405180910390fd5b600760019054906101000a900460ff1615610c03576040517f08c379a0000000000000000000000000000000000000000000000000000000008152600401610bfa90611fb7565b60405180910390fd5b600354815134610c139190611d71565b14610c53576040517f08c379a0000000000000000000000000000000000000000000000000000000008152600401610c4a90612023565b60405180910390fd5b60005b8151811015610efe576003828281518110610c7457610c73611da2565b5b60200260200101515114610cbd576040517f08c379a0000000000000000000000000000000000000000000000000000000008152600401610cb49061208f565b60405180910390fd5b6064828281518110610cd257610cd1611da2565b5b6020026020010151600081518110610ced57610cec611da2565b5b6020026020010151108015610d3857506000828281518110610d1257610d11611da2565b5b6020026020010151600081518110610d2d57610d2c611da2565b5b602002602001015110155b610d77576040517f08c379a0000000000000000000000000000000000000000000000000000000008152600401610d6e90612121565b60405180910390fd5b6064828281518110610d8c57610d8b611da2565b5b6020026020010151600181518110610da757610da6611da2565b5b6020026020010151108015610df257506000828281518110610dcc57610dcb611da2565b5b6020026020010151600181518110610de757610de6611da2565b5b602002602001015110155b610e31576040517f08c379a0000000000000000000000000000000000000000000000000000000008152600401610e28906121b3565b60405180910390fd5b6064828281518110610e4657610e45611da2565b5b6020026020010151600281518110610e6157610e60611da2565b5b6020026020010151108015610eac57506000828281518110610e8657610e85611da2565b5b6020026020010151600281518110610ea157610ea0611da2565b5b602002602001015110155b610eeb576040517f08c379a0000000000000000000000000000000000000000000000000000000008152600401610ee290612245565b60405180910390fd5b8080610ef690611c55565b915050610c56565b503460026000828254610f119190611bb2565b9250508190555060005b81518110156110ed57600c828281518110610f3957610f38611da2565b5b6020026020010151604051602001610f5191906122ce565b6040516020818303038152906040528051906020012060001c9080600181540180825580915050600190039060005260206000200160009091909190915055600a60003373ffffffffffffffffffffffffffffffffffffffff1673ffffffffffffffffffffffffffffffffffffffff168152602001908152602001600020828281518110610fe257610fe1611da2565b5b60200260200101519080600181540180825580915050600190039060005260206000200160009091909190915090805190602001906110229291906112f0565b506009600083838151811061103a57611039611da2565b5b602002602001015160405160200161105291906122ce565b6040516020818303038152906040528051906020012060001c8152602001908152602001600020339080600181540180825580915050600190039060005260206000200160009091909190916101000a81548173ffffffffffffffffffffffffffffffffffffffff021916908373ffffffffffffffffffffffffffffffffffffffff16021790555080806110e590611c55565b915050610f1b565b507ff9fcd8fad7415931becd04274f2d3e36e2c4a8ccea67edf7a151ac8c2ce93e5360025460405161111f9190611509565b60405180910390a150565b6000600254905090565b6060600a60003373ffffffffffffffffffffffffffffffffffffffff1673ffffffffffffffffffffffffffffffffffffffff168152602001908152602001600020805480602002602001604051908101604052809291908181526020016000905b82821015611207578382906000526020600020018054806020026020016040519081016040528092919081815260200182805480156111f357602002820191906000526020600020905b8154815260200190600101908083116111df575b505050505081526020019060010190611195565b50505050905090565b600060096000836040516020016112279190611d27565b6040516020818303038152906040528051906020012060001c8152602001908152602001600020805490509050919050565b6000600554905090565b61126b61128e565b604051806060016040528060018152602001600281526020016003815250905090565b6040518060600160405280600390602082028036833780820191505090505090565b82600381019282156112df579160200282015b828111156112de5782518255916020019190600101906112c3565b5b5090506112ec919061133d565b5090565b82805482825590600052602060002090810192821561132c579160200282015b8281111561132b578251825591602001919060010190611310565b5b509050611339919061133d565b5090565b5b8082111561135657600081600090555060010161133e565b5090565b600060039050919050565b600081905092915050565b6000819050919050565b6000819050919050565b61138d8161137a565b82525050565b600061139f8383611384565b60208301905092915050565b6000602082019050919050565b6113c18161135a565b6113cb8184611365565b92506113d682611370565b8060005b838110156114075781516113ee8782611393565b96506113f9836113ab565b9250506001810190506113da565b505050505050565b600060608201905061142460008301846113b8565b92915050565b6000604051905090565b600080fd5b600080fd5b6114478161137a565b811461145257600080fd5b50565b6000813590506114648161143e565b92915050565b6000602082840312156114805761147f611434565b5b600061148e84828501611455565b91505092915050565b6000819050919050565b6114aa81611497565b81146114b557600080fd5b50565b6000813590506114c7816114a1565b92915050565b6000602082840312156114e3576114e2611434565b5b60006114f1848285016114b8565b91505092915050565b6115038161137a565b82525050565b600060208201905061151e60008301846114fa565b92915050565b6000806040838503121561153b5761153a611434565b5b600061154985828601611455565b925050602061155a85828601611455565b9150509250929050565b600080fd5b6000601f19601f8301169050919050565b7f4e487b7100000000000000000000000000000000000000000000000000000000600052604160045260246000fd5b6115b282611569565b810181811067ffffffffffffffff821117156115d1576115d061157a565b5b80604052505050565b60006115e461142a565b90506115f082826115a9565b919050565b600067ffffffffffffffff8211156116105761160f61157a565b5b602082029050602081019050919050565b600080fd5b600067ffffffffffffffff8211156116415761164061157a565b5b602082029050602081019050919050565b600061166561166084611626565b6115da565b9050808382526020820190506020840283018581111561168857611687611621565b5b835b818110156116b1578061169d8882611455565b84526020840193505060208101905061168a565b5050509392505050565b600082601f8301126116d0576116cf611564565b5b81356116e0848260208601611652565b91505092915050565b60006116fc6116f7846115f5565b6115da565b9050808382526020820190506020840283018581111561171f5761171e611621565b5b835b8181101561176657803567ffffffffffffffff81111561174457611743611564565b5b80860161175189826116bb565b85526020850194505050602081019050611721565b5050509392505050565b600082601f83011261178557611784611564565b5b81356117958482602086016116e9565b91505092915050565b6000602082840312156117b4576117b3611434565b5b600082013567ffffffffffffffff8111156117d2576117d1611439565b5b6117de84828501611770565b91505092915050565b600081519050919050565b600082825260208201905092915050565b6000819050602082019050919050565b600081519050919050565b600082825260208201905092915050565b6000819050602082019050919050565b6000602082019050919050565b600061185782611813565b611861818561181e565b935061186c8361182f565b8060005b8381101561189d5781516118848882611393565b975061188f8361183f565b925050600181019050611870565b5085935050505092915050565b60006118b6838361184c565b905092915050565b6000602082019050919050565b60006118d6826117e7565b6118e081856117f2565b9350836020820285016118f285611803565b8060005b8581101561192e578484038952815161190f85826118aa565b945061191a836118be565b925060208a019950506001810190506118f6565b50829750879550505050505092915050565b6000602082019050818103600083015261195a81846118cb565b905092915050565b600067ffffffffffffffff82111561197d5761197c61157a565b5b602082029050919050565b600061199b61199684611962565b6115da565b905080602084028301858111156119b5576119b4611621565b5b835b818110156119de57806119ca8882611455565b8452602084019350506020810190506119b7565b5050509392505050565b600082601f8301126119fd576119fc611564565b5b6003611a0a848285611988565b91505092915050565b600060608284031215611a2957611a28611434565b5b6000611a37848285016119e8565b91505092915050565b7f4e487b7100000000000000000000000000000000000000000000000000000000600052601160045260246000fd5b6000611a7a8261137a565b9150611a858361137a565b925082821015611a9857611a97611a40565b5b828203905092915050565b600082825260208201905092915050565b7f5468697320616374696f6e2063616e206f6e6c792062652074616b656e20776860008201527f656e2074686520626574732061726520636c6f73656400000000000000000000602082015250565b6000611b10603683611aa3565b9150611b1b82611ab4565b604082019050919050565b60006020820190508181036000830152611b3f81611b03565b9050919050565b7f4265747320617265206e6f7420636c6f73656400000000000000000000000000600082015250565b6000611b7c601383611aa3565b9150611b8782611b46565b602082019050919050565b60006020820190508181036000830152611bab81611b6f565b9050919050565b6000611bbd8261137a565b9150611bc88361137a565b9250827fffffffffffffffffffffffffffffffffffffffffffffffffffffffffffffffff03821115611bfd57611bfc611a40565b5b828201905092915050565b6000819050919050565b611c23611c1e82611497565b611c08565b82525050565b6000611c358285611c12565b602082019150611c458284611c12565b6020820191508190509392505050565b6000611c608261137a565b91507fffffffffffffffffffffffffffffffffffffffffffffffffffffffffffffffff821415611c9357611c92611a40565b5b600182019050919050565b600081905092915050565b611cb28161137a565b82525050565b6000611cc48383611ca9565b60208301905092915050565b611cd98161135a565b611ce38184611c9e565b9250611cee82611370565b8060005b83811015611d1f578151611d068782611cb8565b9650611d11836113ab565b925050600181019050611cf2565b505050505050565b6000611d338284611cd0565b60608201915081905092915050565b7f4e487b7100000000000000000000000000000000000000000000000000000000600052601260045260246000fd5b6000611d7c8261137a565b9150611d878361137a565b925082611d9757611d96611d42565b5b828204905092915050565b7f4e487b7100000000000000000000000000000000000000000000000000000000600052603260045260246000fd5b600073ffffffffffffffffffffffffffffffffffffffff82169050919050565b6000611dfc82611dd1565b9050919050565b611e0c81611df1565b82525050565b7f4156415800000000000000000000000000000000000000000000000000000000600082015250565b6000611e48600483611aa3565b9150611e5382611e12565b602082019050919050565b6000606082019050611e7360008301856114fa565b611e806020830184611e03565b8181036040830152611e9181611e3b565b90509392505050565b60008115159050919050565b611eaf81611e9a565b8114611eba57600080fd5b50565b600081519050611ecc81611ea6565b92915050565b600060208284031215611ee857611ee7611434565b5b6000611ef684828501611ebd565b91505092915050565b7f547275737465642070617274792063616e277420626574000000000000000000600082015250565b6000611f35601783611aa3565b9150611f4082611eff565b602082019050919050565b60006020820190508181036000830152611f6481611f28565b9050919050565b7f426574732061726520636c6f7365640000000000000000000000000000000000600082015250565b6000611fa1600f83611aa3565b9150611fac82611f6b565b602082019050919050565b60006020820190508181036000830152611fd081611f94565b9050919050565b7f426574206e6f74207468652072696768742076616c7565000000000000000000600082015250565b600061200d601783611aa3565b915061201882611fd7565b602082019050919050565b6000602082019050818103600083015261203c81612000565b9050919050565b7f4561636820626574206d75737420686176652033206e756d6265727300000000600082015250565b6000612079601c83611aa3565b915061208482612043565b602082019050919050565b600060208201905081810360008301526120a88161206c565b9050919050565b7f4e756d6265722031206d757374206265206265747765656e203020616e64203960008201527f3900000000000000000000000000000000000000000000000000000000000000602082015250565b600061210b602183611aa3565b9150612116826120af565b604082019050919050565b6000602082019050818103600083015261213a816120fe565b9050919050565b7f4e756d6265722032206d757374206265206265747765656e203020616e64203960008201527f3900000000000000000000000000000000000000000000000000000000000000602082015250565b600061219d602183611aa3565b91506121a882612141565b604082019050919050565b600060208201905081810360008301526121cc81612190565b9050919050565b7f4e756d6265722033206d757374206265206265747765656e203020616e64203960008201527f3900000000000000000000000000000000000000000000000000000000000000602082015250565b600061222f602183611aa3565b915061223a826121d3565b604082019050919050565b6000602082019050818103600083015261225e81612222565b9050919050565b600081905092915050565b600061227b82611813565b6122858185612265565b93506122908361182f565b8060005b838110156122c15781516122a88882611cb8565b97506122b38361183f565b925050600181019050612294565b5085935050505092915050565b60006122da8284612270565b91508190509291505056fea2646970667358221220237dd5dd1f2ea14e02ff5037da240afa38e4f0d352757709f9845237540fbf7c64736f6c634300080a0033",
  "linkReferences": {},
  "deployedLinkReferences": {}
}