{
  "_format": "hh-sol-artifact-1",
  "contractName": "LottoWinnerMock",
  "sourceName": "contracts/LottoWinnerMock.sol",
  "abi": [
    {
      "inputs": [
        {
          "internalType": "address",
          "name": "_trustedParty",
          "type": "address"
        },
        {
          "internalType": "address payable",
          "name": "_treasury",
          "type": "address"
        },
        {
          "internalType": "uint256",
          "name": "_ticketValue",
          "type": "uint256"
        },
        {
          "internalType": "uint256",
          "name": "_drawDaysInterval",
          "type": "uint256"
        },
        {
          "internalType": "uint256",
          "name": "_protocolFeePercen",
          "type": "uint256"
        }
      ],
      "stateMutability": "nonpayable",
      "type": "constructor"
    },
    {
      "anonymous": false,
      "inputs": [
        {
          "indexed": false,
          "internalType": "uint256[3]",
          "name": "numbers",
          "type": "uint256[3]"
        }
      ],
      "name": "Draw",
      "type": "event"
    },
    {
      "anonymous": false,
      "inputs": [
        {
          "indexed": false,
          "internalType": "uint256",
          "name": "jackpot",
          "type": "uint256"
        }
      ],
      "name": "jackpotUpdated",
      "type": "event"
    },
    {
      "inputs": [
        {
          "internalType": "uint256[][]",
          "name": "_bets",
          "type": "uint256[][]"
        }
      ],
      "name": "bet",
      "outputs": [],
      "stateMutability": "payable",
      "type": "function"
    },
    {
      "inputs": [
        {
          "internalType": "uint256[3]",
          "name": "_numbers",
          "type": "uint256[3]"
        }
      ],
      "name": "getAmountOfBetForNumbers",
      "outputs": [
        {
          "internalType": "uint256",
          "name": "",
          "type": "uint256"
        }
      ],
      "stateMutability": "view",
      "type": "function"
    },
    {
      "inputs": [],
      "name": "getBets",
      "outputs": [
        {
          "internalType": "uint256[][]",
          "name": "",
          "type": "uint256[][]"
        }
      ],
      "stateMutability": "view",
      "type": "function"
    },
    {
      "inputs": [],
      "name": "getCurrentJackpot",
      "outputs": [
        {
          "internalType": "uint256",
          "name": "",
          "type": "uint256"
        }
      ],
      "stateMutability": "view",
      "type": "function"
    },
    {
      "inputs": [],
      "name": "getLastDrawNumbers",
      "outputs": [
        {
          "internalType": "uint256[3]",
          "name": "",
          "type": "uint256[3]"
        }
      ],
      "stateMutability": "view",
      "type": "function"
    },
    {
      "inputs": [],
      "name": "getNextDrawTime",
      "outputs": [
        {
          "internalType": "uint256",
          "name": "",
          "type": "uint256"
        }
      ],
      "stateMutability": "view",
      "type": "function"
    },
    {
      "inputs": [],
      "name": "getTicketPrice",
      "outputs": [
        {
          "internalType": "uint256",
          "name": "",
          "type": "uint256"
        }
      ],
      "stateMutability": "view",
      "type": "function"
    },
    {
      "inputs": [
        {
          "internalType": "uint256",
          "name": "amount",
          "type": "uint256"
        }
      ],
      "name": "payTreasury",
      "outputs": [],
      "stateMutability": "nonpayable",
      "type": "function"
    },
    {
      "inputs": [
        {
          "internalType": "uint256",
          "name": "amount",
          "type": "uint256"
        },
        {
          "internalType": "uint256",
          "name": "hashedWinners",
          "type": "uint256"
        }
      ],
      "name": "payoutAllWinners",
      "outputs": [],
      "stateMutability": "nonpayable",
      "type": "function"
    },
    {
      "inputs": [
        {
          "internalType": "bytes32",
          "name": "_seed",
          "type": "bytes32"
        }
      ],
      "name": "reveal",
      "outputs": [
        {
          "internalType": "uint256[3]",
          "name": "",
          "type": "uint256[3]"
        }
      ],
      "stateMutability": "nonpayable",
      "type": "function"
    },
    {
      "inputs": [
        {
          "internalType": "uint256",
          "name": "_feePercen",
          "type": "uint256"
        }
      ],
      "name": "setProtocolFee",
      "outputs": [],
      "stateMutability": "nonpayable",
      "type": "function"
    },
    {
      "inputs": [
        {
          "internalType": "bytes32",
          "name": "_sealedSeed",
          "type": "bytes32"
        }
      ],
      "name": "setSealedSeed",
      "outputs": [],
      "stateMutability": "nonpayable",
      "type": "function"
    }
  ],
  "bytecode": "0x608060405260006004556000600860006101000a81548160ff0219169083151502179055506000600860016101000a81548160ff0219169083151502179055506000600860026101000a81548160ff021916908315150217905550600067ffffffffffffffff81111562000078576200007762000222565b5b604051908082528060200260200182016040528015620000a75781602001602082028036833780820191505090505b50600d9080519060200190620000bf929190620001b1565b50348015620000cd57600080fd5b50604051620028dc380380620028dc8339818101604052810190620000f391906200033b565b846000806101000a81548173ffffffffffffffffffffffffffffffffffffffff021916908373ffffffffffffffffffffffffffffffffffffffff16021790555083600160006101000a81548173ffffffffffffffffffffffffffffffffffffffff021916908373ffffffffffffffffffffffffffffffffffffffff1602179055508260038190555062015180826200018c9190620003f2565b4262000199919062000453565b600581905550806006819055505050505050620004b0565b828054828255906000526020600020908101928215620001f0579160200282015b82811115620001ef578251825591602001919060010190620001d2565b5b509050620001ff919062000203565b5090565b5b808211156200021e57600081600090555060010162000204565b5090565b7f4e487b7100000000000000000000000000000000000000000000000000000000600052604160045260246000fd5b600080fd5b600073ffffffffffffffffffffffffffffffffffffffff82169050919050565b6000620002838262000256565b9050919050565b620002958162000276565b8114620002a157600080fd5b50565b600081519050620002b5816200028a565b92915050565b6000620002c88262000256565b9050919050565b620002da81620002bb565b8114620002e657600080fd5b50565b600081519050620002fa81620002cf565b92915050565b6000819050919050565b620003158162000300565b81146200032157600080fd5b50565b60008151905062000335816200030a565b92915050565b600080600080600060a086880312156200035a576200035962000251565b5b60006200036a88828901620002a4565b95505060206200037d88828901620002e9565b9450506040620003908882890162000324565b9350506060620003a38882890162000324565b9250506080620003b68882890162000324565b9150509295509295909350565b7f4e487b7100000000000000000000000000000000000000000000000000000000600052601160045260246000fd5b6000620003ff8262000300565b91506200040c8362000300565b9250817fffffffffffffffffffffffffffffffffffffffffffffffffffffffffffffffff0483118215151615620004485762000447620003c3565b5b828202905092915050565b6000620004608262000300565b91506200046d8362000300565b9250827fffffffffffffffffffffffffffffffffffffffffffffffffffffffffffffffff03821115620004a557620004a4620003c3565b5b828201905092915050565b61241c80620004c06000396000f3fe6080604052600436106100a75760003560e01c8063999bd71611610064578063999bd716146101ba5780639a58bfee146101e35780639f57d16e146101ff578063a6afd5fd1461022a578063be8b48d014610255578063ecfea5d514610292576100a7565b8063087d0e0b146100ac57806308deb7ed146100d75780634111453814610100578063701fd0f114610129578063787dce3d1461016657806387bb7ae01461018f575b600080fd5b3480156100b857600080fd5b506100c16102bd565b6040516100ce9190611503565b60405180910390f35b3480156100e357600080fd5b506100fe60048036038101906100f9919061155e565b610327565b005b34801561010c57600080fd5b50610127600480360381019061012291906115c1565b610470565b005b34801561013557600080fd5b50610150600480360381019061014b91906115c1565b61054f565b60405161015d9190611503565b60405180910390f35b34801561017257600080fd5b5061018d6004803603810190610188919061155e565b6108d1565b005b34801561019b57600080fd5b506101a4610933565b6040516101b191906115fd565b60405180910390f35b3480156101c657600080fd5b506101e160048036038101906101dc9190611618565b61093d565b005b6101fd60048036038101906101f89190611892565b610b85565b005b34801561020b57600080fd5b5061021461121e565b60405161022191906115fd565b60405180910390f35b34801561023657600080fd5b5061023f611228565b60405161024c9190611a34565b60405180910390f35b34801561026157600080fd5b5061027c60048036038101906102779190611b07565b611304565b60405161028991906115fd565b60405180910390f35b34801561029e57600080fd5b506102a761134d565b6040516102b491906115fd565b60405180910390f35b6102c5611382565b600c600060016004546102d89190611b63565b815260200190815260200160002060038060200260405190810160405280929190826003801561031d576020028201915b815481526020019060010190808311610309575b5050505050905090565b60008054906101000a900473ffffffffffffffffffffffffffffffffffffffff1673ffffffffffffffffffffffffffffffffffffffff163373ffffffffffffffffffffffffffffffffffffffff16146103b5576040517f08c379a00000000000000000000000000000000000000000000000000000000081526004016103ac90611c1a565b60405180910390fd5b600860019054906101000a900460ff16610404576040517f08c379a00000000000000000000000000000000000000000000000000000000081526004016103fb90611c86565b60405180910390fd5b600160009054906101000a900473ffffffffffffffffffffffffffffffffffffffff1673ffffffffffffffffffffffffffffffffffffffff166108fc829081150290604051600060405180830381858888f1935050505015801561046c573d6000803e3d6000fd5b5050565b60008054906101000a900473ffffffffffffffffffffffffffffffffffffffff1673ffffffffffffffffffffffffffffffffffffffff163373ffffffffffffffffffffffffffffffffffffffff16146104c857600080fd5b600860009054906101000a900460ff16156104e257600080fd5b600860019054906101000a900460ff16156104fc57600080fd5b6001600860016101000a81548160ff0219169083151502179055508060078190555060014361052b9190611ca6565b6009819055506001600860006101000a81548160ff02191690831515021790555050565b610557611382565b60008054906101000a900473ffffffffffffffffffffffffffffffffffffffff1673ffffffffffffffffffffffffffffffffffffffff163373ffffffffffffffffffffffffffffffffffffffff16146105af57600080fd5b600860009054906101000a900460ff166105c857600080fd5b43600954106105d657600080fd5b60075482146105e457600080fd5b60006105ee611357565b905080600c600060045481526020019081526020016000209060036106149291906113a4565b506004600081548092919061062890611cfc565b91905055507f782d7ce763b28c71c4396c26548d32590c3a1f9649900b813dad7d691fead9018160405161065c9190611503565b60405180910390a16000600a60008360405160200161067b9190611dce565b6040516020818303038152906040528051906020012060001c81526020019081526020016000208054905011600860026101000a81548160ff021916908315150217905550600860029054906101000a900460ff161561087c576000600a6000836040516020016106ec9190611dce565b6040516020818303038152906040528051906020012060001c81526020019081526020016000208054905090506000816002546107299190611e18565b905060005b82811015610868576000600a60008660405160200161074d9190611dce565b6040516020818303038152906040528051906020012060001c8152602001908152602001600020828154811061078657610785611e49565b5b9060005260206000200160009054906101000a900473ffffffffffffffffffffffffffffffffffffffff169050600160009054906101000a900473ffffffffffffffffffffffffffffffffffffffff1673ffffffffffffffffffffffffffffffffffffffff1663a31c1d6e84836040518363ffffffff1660e01b8152600401610810929190611f05565b6020604051808303816000875af115801561082f573d6000803e3d6000fd5b505050506040513d601f19601f820116820180604052508101906108539190611f79565b5050808061086090611cfc565b91505061072e565b5060006002819055508293505050506108cc565b6000600860006101000a81548160ff0219169083151502179055506000600860016101000a81548160ff02191690831515021790555062093a80436108c19190611ca6565b600581905550809150505b919050565b60008054906101000a900473ffffffffffffffffffffffffffffffffffffffff1673ffffffffffffffffffffffffffffffffffffffff163373ffffffffffffffffffffffffffffffffffffffff161461092957600080fd5b8060068190555050565b6000600354905090565b60008054906101000a900473ffffffffffffffffffffffffffffffffffffffff1673ffffffffffffffffffffffffffffffffffffffff163373ffffffffffffffffffffffffffffffffffffffff16146109cb576040517f08c379a00000000000000000000000000000000000000000000000000000000081526004016109c290611c1a565b60405180910390fd5b600860019054906101000a900460ff16610a1a576040517f08c379a0000000000000000000000000000000000000000000000000000000008152600401610a1190611c86565b60405180910390fd5b60008054906101000a900473ffffffffffffffffffffffffffffffffffffffff1673ffffffffffffffffffffffffffffffffffffffff163373ffffffffffffffffffffffffffffffffffffffff1614610a7257600080fd5b60005b600a60006001600a600086815260200190815260200160002080549050610a9c9190611b63565b815260200190815260200160002080549050811015610b8057600a60006001600a600086815260200190815260200160002080549050610adc9190611b63565b81526020019081526020016000208181548110610afc57610afb611e49565b5b9060005260206000200160009054906101000a900473ffffffffffffffffffffffffffffffffffffffff1673ffffffffffffffffffffffffffffffffffffffff166108fc849081150290604051600060405180830381858888f19350505050158015610b6c573d6000803e3d6000fd5b508080610b7890611cfc565b915050610a75565b505050565b60008054906101000a900473ffffffffffffffffffffffffffffffffffffffff1673ffffffffffffffffffffffffffffffffffffffff163373ffffffffffffffffffffffffffffffffffffffff161415610c14576040517f08c379a0000000000000000000000000000000000000000000000000000000008152600401610c0b90611ff2565b60405180910390fd5b600860019054906101000a900460ff1615610c64576040517f08c379a0000000000000000000000000000000000000000000000000000000008152600401610c5b9061205e565b60405180910390fd5b600354815134610c749190611e18565b14610cb4576040517f08c379a0000000000000000000000000000000000000000000000000000000008152600401610cab906120ca565b60405180910390fd5b60005b8151811015610f5f576003828281518110610cd557610cd4611e49565b5b60200260200101515114610d1e576040517f08c379a0000000000000000000000000000000000000000000000000000000008152600401610d1590612136565b60405180910390fd5b6064828281518110610d3357610d32611e49565b5b6020026020010151600081518110610d4e57610d4d611e49565b5b6020026020010151108015610d9957506000828281518110610d7357610d72611e49565b5b6020026020010151600081518110610d8e57610d8d611e49565b5b602002602001015110155b610dd8576040517f08c379a0000000000000000000000000000000000000000000000000000000008152600401610dcf906121c8565b60405180910390fd5b6064828281518110610ded57610dec611e49565b5b6020026020010151600181518110610e0857610e07611e49565b5b6020026020010151108015610e5357506000828281518110610e2d57610e2c611e49565b5b6020026020010151600181518110610e4857610e47611e49565b5b602002602001015110155b610e92576040517f08c379a0000000000000000000000000000000000000000000000000000000008152600401610e899061225a565b60405180910390fd5b6064828281518110610ea757610ea6611e49565b5b6020026020010151600281518110610ec257610ec1611e49565b5b6020026020010151108015610f0d57506000828281518110610ee757610ee6611e49565b5b6020026020010151600281518110610f0257610f01611e49565b5b602002602001015110155b610f4c576040517f08c379a0000000000000000000000000000000000000000000000000000000008152600401610f43906122ec565b60405180910390fd5b8080610f5790611cfc565b915050610cb7565b50600160009054906101000a900473ffffffffffffffffffffffffffffffffffffffff1673ffffffffffffffffffffffffffffffffffffffff166108fc349081150290604051600060405180830381858888f19350505050158015610fc8573d6000803e3d6000fd5b506000606460065434610fdb919061230c565b610fe59190611e18565b90508034610ff39190611b63565b600260008282546110049190611ca6565b9250508190555060005b82518110156111e057600d83828151811061102c5761102b611e49565b5b602002602001015160405160200161104491906123cf565b6040516020818303038152906040528051906020012060001c9080600181540180825580915050600190039060005260206000200160009091909190915055600b60003373ffffffffffffffffffffffffffffffffffffffff1673ffffffffffffffffffffffffffffffffffffffff1681526020019081526020016000208382815181106110d5576110d4611e49565b5b60200260200101519080600181540180825580915050600190039060005260206000200160009091909190915090805190602001906111159291906113e4565b50600a600084838151811061112d5761112c611e49565b5b602002602001015160405160200161114591906123cf565b6040516020818303038152906040528051906020012060001c8152602001908152602001600020339080600181540180825580915050600190039060005260206000200160009091909190916101000a81548173ffffffffffffffffffffffffffffffffffffffff021916908373ffffffffffffffffffffffffffffffffffffffff16021790555080806111d890611cfc565b91505061100e565b507ff9fcd8fad7415931becd04274f2d3e36e2c4a8ccea67edf7a151ac8c2ce93e5360025460405161121291906115fd565b60405180910390a15050565b6000600254905090565b6060600b60003373ffffffffffffffffffffffffffffffffffffffff1673ffffffffffffffffffffffffffffffffffffffff168152602001908152602001600020805480602002602001604051908101604052809291908181526020016000905b828210156112fb578382906000526020600020018054806020026020016040519081016040528092919081815260200182805480156112e757602002820191906000526020600020905b8154815260200190600101908083116112d3575b505050505081526020019060010190611289565b50505050905090565b6000600a60008360405160200161131b9190611dce565b6040516020818303038152906040528051906020012060001c8152602001908152602001600020805490509050919050565b6000600554905090565b61135f611382565b604051806060016040528060018152602001600281526020016003815250905090565b6040518060600160405280600390602082028036833780820191505090505090565b82600381019282156113d3579160200282015b828111156113d25782518255916020019190600101906113b7565b5b5090506113e09190611431565b5090565b828054828255906000526020600020908101928215611420579160200282015b8281111561141f578251825591602001919060010190611404565b5b50905061142d9190611431565b5090565b5b8082111561144a576000816000905550600101611432565b5090565b600060039050919050565b600081905092915050565b6000819050919050565b6000819050919050565b6114818161146e565b82525050565b60006114938383611478565b60208301905092915050565b6000602082019050919050565b6114b58161144e565b6114bf8184611459565b92506114ca82611464565b8060005b838110156114fb5781516114e28782611487565b96506114ed8361149f565b9250506001810190506114ce565b505050505050565b600060608201905061151860008301846114ac565b92915050565b6000604051905090565b600080fd5b600080fd5b61153b8161146e565b811461154657600080fd5b50565b60008135905061155881611532565b92915050565b60006020828403121561157457611573611528565b5b600061158284828501611549565b91505092915050565b6000819050919050565b61159e8161158b565b81146115a957600080fd5b50565b6000813590506115bb81611595565b92915050565b6000602082840312156115d7576115d6611528565b5b60006115e5848285016115ac565b91505092915050565b6115f78161146e565b82525050565b600060208201905061161260008301846115ee565b92915050565b6000806040838503121561162f5761162e611528565b5b600061163d85828601611549565b925050602061164e85828601611549565b9150509250929050565b600080fd5b6000601f19601f8301169050919050565b7f4e487b7100000000000000000000000000000000000000000000000000000000600052604160045260246000fd5b6116a68261165d565b810181811067ffffffffffffffff821117156116c5576116c461166e565b5b80604052505050565b60006116d861151e565b90506116e4828261169d565b919050565b600067ffffffffffffffff8211156117045761170361166e565b5b602082029050602081019050919050565b600080fd5b600067ffffffffffffffff8211156117355761173461166e565b5b602082029050602081019050919050565b60006117596117548461171a565b6116ce565b9050808382526020820190506020840283018581111561177c5761177b611715565b5b835b818110156117a557806117918882611549565b84526020840193505060208101905061177e565b5050509392505050565b600082601f8301126117c4576117c3611658565b5b81356117d4848260208601611746565b91505092915050565b60006117f06117eb846116e9565b6116ce565b9050808382526020820190506020840283018581111561181357611812611715565b5b835b8181101561185a57803567ffffffffffffffff81111561183857611837611658565b5b80860161184589826117af565b85526020850194505050602081019050611815565b5050509392505050565b600082601f83011261187957611878611658565b5b81356118898482602086016117dd565b91505092915050565b6000602082840312156118a8576118a7611528565b5b600082013567ffffffffffffffff8111156118c6576118c561152d565b5b6118d284828501611864565b91505092915050565b600081519050919050565b600082825260208201905092915050565b6000819050602082019050919050565b600081519050919050565b600082825260208201905092915050565b6000819050602082019050919050565b6000602082019050919050565b600061194b82611907565b6119558185611912565b935061196083611923565b8060005b838110156119915781516119788882611487565b975061198383611933565b925050600181019050611964565b5085935050505092915050565b60006119aa8383611940565b905092915050565b6000602082019050919050565b60006119ca826118db565b6119d481856118e6565b9350836020820285016119e6856118f7565b8060005b85811015611a225784840389528151611a03858261199e565b9450611a0e836119b2565b925060208a019950506001810190506119ea565b50829750879550505050505092915050565b60006020820190508181036000830152611a4e81846119bf565b905092915050565b600067ffffffffffffffff821115611a7157611a7061166e565b5b602082029050919050565b6000611a8f611a8a84611a56565b6116ce565b90508060208402830185811115611aa957611aa8611715565b5b835b81811015611ad25780611abe8882611549565b845260208401935050602081019050611aab565b5050509392505050565b600082601f830112611af157611af0611658565b5b6003611afe848285611a7c565b91505092915050565b600060608284031215611b1d57611b1c611528565b5b6000611b2b84828501611adc565b91505092915050565b7f4e487b7100000000000000000000000000000000000000000000000000000000600052601160045260246000fd5b6000611b6e8261146e565b9150611b798361146e565b925082821015611b8c57611b8b611b34565b5b828203905092915050565b600082825260208201905092915050565b7f5468697320616374696f6e2063616e206f6e6c792062652074616b656e20776860008201527f656e2074686520626574732061726520636c6f73656400000000000000000000602082015250565b6000611c04603683611b97565b9150611c0f82611ba8565b604082019050919050565b60006020820190508181036000830152611c3381611bf7565b9050919050565b7f4265747320617265206e6f7420636c6f73656400000000000000000000000000600082015250565b6000611c70601383611b97565b9150611c7b82611c3a565b602082019050919050565b60006020820190508181036000830152611c9f81611c63565b9050919050565b6000611cb18261146e565b9150611cbc8361146e565b9250827fffffffffffffffffffffffffffffffffffffffffffffffffffffffffffffffff03821115611cf157611cf0611b34565b5b828201905092915050565b6000611d078261146e565b91507fffffffffffffffffffffffffffffffffffffffffffffffffffffffffffffffff821415611d3a57611d39611b34565b5b600182019050919050565b600081905092915050565b611d598161146e565b82525050565b6000611d6b8383611d50565b60208301905092915050565b611d808161144e565b611d8a8184611d45565b9250611d9582611464565b8060005b83811015611dc6578151611dad8782611d5f565b9650611db88361149f565b925050600181019050611d99565b505050505050565b6000611dda8284611d77565b60608201915081905092915050565b7f4e487b7100000000000000000000000000000000000000000000000000000000600052601260045260246000fd5b6000611e238261146e565b9150611e2e8361146e565b925082611e3e57611e3d611de9565b5b828204905092915050565b7f4e487b7100000000000000000000000000000000000000000000000000000000600052603260045260246000fd5b600073ffffffffffffffffffffffffffffffffffffffff82169050919050565b6000611ea382611e78565b9050919050565b611eb381611e98565b82525050565b7f4156415800000000000000000000000000000000000000000000000000000000600082015250565b6000611eef600483611b97565b9150611efa82611eb9565b602082019050919050565b6000606082019050611f1a60008301856115ee565b611f276020830184611eaa565b8181036040830152611f3881611ee2565b90509392505050565b60008115159050919050565b611f5681611f41565b8114611f6157600080fd5b50565b600081519050611f7381611f4d565b92915050565b600060208284031215611f8f57611f8e611528565b5b6000611f9d84828501611f64565b91505092915050565b7f547275737465642070617274792063616e277420626574000000000000000000600082015250565b6000611fdc601783611b97565b9150611fe782611fa6565b602082019050919050565b6000602082019050818103600083015261200b81611fcf565b9050919050565b7f426574732061726520636c6f7365640000000000000000000000000000000000600082015250565b6000612048600f83611b97565b915061205382612012565b602082019050919050565b600060208201905081810360008301526120778161203b565b9050919050565b7f426574206e6f74207468652072696768742076616c7565206176617800000000600082015250565b60006120b4601c83611b97565b91506120bf8261207e565b602082019050919050565b600060208201905081810360008301526120e3816120a7565b9050919050565b7f4561636820626574206d75737420686176652033206e756d6265727300000000600082015250565b6000612120601c83611b97565b915061212b826120ea565b602082019050919050565b6000602082019050818103600083015261214f81612113565b9050919050565b7f4e756d6265722031206d757374206265206265747765656e203020616e64203960008201527f3900000000000000000000000000000000000000000000000000000000000000602082015250565b60006121b2602183611b97565b91506121bd82612156565b604082019050919050565b600060208201905081810360008301526121e1816121a5565b9050919050565b7f4e756d6265722032206d757374206265206265747765656e203020616e64203960008201527f3900000000000000000000000000000000000000000000000000000000000000602082015250565b6000612244602183611b97565b915061224f826121e8565b604082019050919050565b6000602082019050818103600083015261227381612237565b9050919050565b7f4e756d6265722033206d757374206265206265747765656e203020616e64203960008201527f3900000000000000000000000000000000000000000000000000000000000000602082015250565b60006122d6602183611b97565b91506122e18261227a565b604082019050919050565b60006020820190508181036000830152612305816122c9565b9050919050565b60006123178261146e565b91506123228361146e565b9250817fffffffffffffffffffffffffffffffffffffffffffffffffffffffffffffffff048311821515161561235b5761235a611b34565b5b828202905092915050565b600081905092915050565b600061237c82611907565b6123868185612366565b935061239183611923565b8060005b838110156123c25781516123a98882611d5f565b97506123b483611933565b925050600181019050612395565b5085935050505092915050565b60006123db8284612371565b91508190509291505056fea26469706673582212201d09c6d884c989acc0e1abf185ef0f93d482947011c5ec74e94d6de59447adb364736f6c634300080a0033",
  "linkReferences": {},
  "deployedLinkReferences": {}
}