{
  "_format": "hh-sol-artifact-1",
  "contractName": "LottoWinnerMock",
  "sourceName": "contracts/LottoWinnerMock.sol",
  "abi": [
    {
      "inputs": [
        {
          "internalType": "address",
          "name": "_trustedParty",
          "type": "address"
        },
        {
          "internalType": "address payable",
          "name": "_treasury",
          "type": "address"
        },
        {
          "internalType": "uint256",
          "name": "_ticketValue",
          "type": "uint256"
        }
      ],
      "stateMutability": "nonpayable",
      "type": "constructor"
    },
    {
      "anonymous": false,
      "inputs": [
        {
          "indexed": false,
          "internalType": "uint256[3]",
          "name": "numbers",
          "type": "uint256[3]"
        }
      ],
      "name": "Draw",
      "type": "event"
    },
    {
      "anonymous": false,
      "inputs": [
        {
          "indexed": false,
          "internalType": "uint256",
          "name": "jackpot",
          "type": "uint256"
        }
      ],
      "name": "jackpotUpdated",
      "type": "event"
    },
    {
      "inputs": [
        {
          "internalType": "uint256[3]",
          "name": "_numbers",
          "type": "uint256[3]"
        }
      ],
      "name": "bet",
      "outputs": [],
      "stateMutability": "payable",
      "type": "function"
    },
    {
      "inputs": [
        {
          "internalType": "uint256[3]",
          "name": "_numbers",
          "type": "uint256[3]"
        }
      ],
      "name": "getAmountOfBetForNumbers",
      "outputs": [
        {
          "internalType": "uint256",
          "name": "",
          "type": "uint256"
        }
      ],
      "stateMutability": "view",
      "type": "function"
    },
    {
      "inputs": [],
      "name": "getBets",
      "outputs": [
        {
          "internalType": "uint256[][]",
          "name": "",
          "type": "uint256[][]"
        }
      ],
      "stateMutability": "view",
      "type": "function"
    },
    {
      "inputs": [],
      "name": "getCurrentJackpot",
      "outputs": [
        {
          "internalType": "uint256",
          "name": "",
          "type": "uint256"
        }
      ],
      "stateMutability": "view",
      "type": "function"
    },
    {
      "inputs": [],
      "name": "getLastDrawNumbers",
      "outputs": [
        {
          "internalType": "uint256[3]",
          "name": "",
          "type": "uint256[3]"
        }
      ],
      "stateMutability": "view",
      "type": "function"
    },
    {
      "inputs": [
        {
          "internalType": "uint256",
          "name": "amount",
          "type": "uint256"
        }
      ],
      "name": "payTreasury",
      "outputs": [],
      "stateMutability": "nonpayable",
      "type": "function"
    },
    {
      "inputs": [
        {
          "internalType": "uint256",
          "name": "amount",
          "type": "uint256"
        },
        {
          "internalType": "uint256",
          "name": "hashedWinners",
          "type": "uint256"
        }
      ],
      "name": "payoutAllWinners",
      "outputs": [],
      "stateMutability": "nonpayable",
      "type": "function"
    },
    {
      "inputs": [
        {
          "internalType": "bytes32",
          "name": "_seed",
          "type": "bytes32"
        }
      ],
      "name": "reveal",
      "outputs": [
        {
          "internalType": "uint256[3]",
          "name": "",
          "type": "uint256[3]"
        }
      ],
      "stateMutability": "nonpayable",
      "type": "function"
    },
    {
      "inputs": [
        {
          "internalType": "bytes32",
          "name": "_sealedSeed",
          "type": "bytes32"
        }
      ],
      "name": "setSealedSeed",
      "outputs": [],
      "stateMutability": "nonpayable",
      "type": "function"
    }
  ],
  "bytecode": "0x608060405260006004556000600760006101000a81548160ff0219169083151502179055506000600760016101000a81548160ff0219169083151502179055506000600760026101000a81548160ff021916908315150217905550600067ffffffffffffffff8111156200007857620000776200020c565b5b604051908082528060200260200182016040528015620000a75781602001602082028036833780820191505090505b50600c9080519060200190620000bf9291906200019b565b50348015620000cd57600080fd5b5060405162002195380380620021958339818101604052810190620000f3919062000325565b826000806101000a81548173ffffffffffffffffffffffffffffffffffffffff021916908373ffffffffffffffffffffffffffffffffffffffff16021790555081600160006101000a81548173ffffffffffffffffffffffffffffffffffffffff021916908373ffffffffffffffffffffffffffffffffffffffff1602179055508060038190555062093a80426200018c9190620003b0565b6005819055505050506200040d565b828054828255906000526020600020908101928215620001da579160200282015b82811115620001d9578251825591602001919060010190620001bc565b5b509050620001e99190620001ed565b5090565b5b8082111562000208576000816000905550600101620001ee565b5090565b7f4e487b7100000000000000000000000000000000000000000000000000000000600052604160045260246000fd5b600080fd5b600073ffffffffffffffffffffffffffffffffffffffff82169050919050565b60006200026d8262000240565b9050919050565b6200027f8162000260565b81146200028b57600080fd5b50565b6000815190506200029f8162000274565b92915050565b6000620002b28262000240565b9050919050565b620002c481620002a5565b8114620002d057600080fd5b50565b600081519050620002e481620002b9565b92915050565b6000819050919050565b620002ff81620002ea565b81146200030b57600080fd5b50565b6000815190506200031f81620002f4565b92915050565b6000806000606084860312156200034157620003406200023b565b5b600062000351868287016200028e565b93505060206200036486828701620002d3565b925050604062000377868287016200030e565b9150509250925092565b7f4e487b7100000000000000000000000000000000000000000000000000000000600052601160045260246000fd5b6000620003bd82620002ea565b9150620003ca83620002ea565b9250827fffffffffffffffffffffffffffffffffffffffffffffffffffffffffffffffff0382111562000402576200040162000381565b5b828201905092915050565b611d78806200041d6000396000f3fe6080604052600436106100865760003560e01c8063999bd71611610059578063999bd716146101455780639f57d16e1461016e578063a6afd5fd14610199578063be8b48d0146101c4578063e4c9806f1461020157610086565b8063087d0e0b1461008b57806308deb7ed146100b657806341114538146100df578063701fd0f114610108575b600080fd5b34801561009757600080fd5b506100a061021d565b6040516100ad9190611259565b60405180910390f35b3480156100c257600080fd5b506100dd60048036038101906100d891906112af565b610287565b005b3480156100eb57600080fd5b5061010660048036038101906101019190611312565b6103d0565b005b34801561011457600080fd5b5061012f600480360381019061012a9190611312565b6104af565b60405161013c9190611259565b60405180910390f35b34801561015157600080fd5b5061016c6004803603810190610167919061133f565b6107ed565b005b34801561017a57600080fd5b50610183610a35565b604051610190919061138e565b60405180910390f35b3480156101a557600080fd5b506101ae610a3f565b6040516101bb9190611502565b60405180910390f35b3480156101d057600080fd5b506101eb60048036038101906101e6919061166b565b610b1b565b6040516101f8919061138e565b60405180910390f35b61021b6004803603810190610216919061166b565b610b64565b005b6102256110d8565b600b6000600160045461023891906116c7565b815260200190815260200160002060038060200260405190810160405280929190826003801561027d576020028201915b815481526020019060010190808311610269575b5050505050905090565b60008054906101000a900473ffffffffffffffffffffffffffffffffffffffff1673ffffffffffffffffffffffffffffffffffffffff163373ffffffffffffffffffffffffffffffffffffffff1614610315576040517f08c379a000000000000000000000000000000000000000000000000000000000815260040161030c9061177e565b60405180910390fd5b600760019054906101000a900460ff16610364576040517f08c379a000000000000000000000000000000000000000000000000000000000815260040161035b906117ea565b60405180910390fd5b600160009054906101000a900473ffffffffffffffffffffffffffffffffffffffff1673ffffffffffffffffffffffffffffffffffffffff166108fc829081150290604051600060405180830381858888f193505050501580156103cc573d6000803e3d6000fd5b5050565b60008054906101000a900473ffffffffffffffffffffffffffffffffffffffff1673ffffffffffffffffffffffffffffffffffffffff163373ffffffffffffffffffffffffffffffffffffffff161461042857600080fd5b600760009054906101000a900460ff161561044257600080fd5b600760019054906101000a900460ff161561045c57600080fd5b6001600760016101000a81548160ff0219169083151502179055508060068190555060014361048b919061180a565b6008819055506001600760006101000a81548160ff02191690831515021790555050565b6104b76110d8565b60008054906101000a900473ffffffffffffffffffffffffffffffffffffffff1673ffffffffffffffffffffffffffffffffffffffff163373ffffffffffffffffffffffffffffffffffffffff161461050f57600080fd5b600760009054906101000a900460ff1661052857600080fd5b436008541061053657600080fd5b600654821461054457600080fd5b600061054e6110ad565b905080600b600060045481526020019081526020016000209060036105749291906110fa565b506004600081548092919061058890611860565b91905055507f782d7ce763b28c71c4396c26548d32590c3a1f9649900b813dad7d691fead901816040516105bc9190611259565b60405180910390a1600060096000836040516020016105db9190611932565b6040516020818303038152906040528051906020012060001c81526020019081526020016000208054905011600760026101000a81548160ff021916908315150217905550600760029054906101000a900460ff16156107ad5760006014600254610646919061197c565b905061065181610287565b8060025461065f91906116c7565b6002819055506000600960008460405160200161067c9190611932565b6040516020818303038152906040528051906020012060001c81526020019081526020016000208054905090506000816002546106b9919061197c565b905060005b828110156107985760096000866040516020016106db9190611932565b6040516020818303038152906040528051906020012060001c81526020019081526020016000208181548110610714576107136119ad565b5b9060005260206000200160009054906101000a900473ffffffffffffffffffffffffffffffffffffffff1673ffffffffffffffffffffffffffffffffffffffff166108fc839081150290604051600060405180830381858888f19350505050158015610784573d6000803e3d6000fd5b50808061079090611860565b9150506106be565b506000600281905550839450505050506107e8565b6000600760006101000a81548160ff0219169083151502179055506000600760016101000a81548160ff021916908315150217905550809150505b919050565b60008054906101000a900473ffffffffffffffffffffffffffffffffffffffff1673ffffffffffffffffffffffffffffffffffffffff163373ffffffffffffffffffffffffffffffffffffffff161461087b576040517f08c379a00000000000000000000000000000000000000000000000000000000081526004016108729061177e565b60405180910390fd5b600760019054906101000a900460ff166108ca576040517f08c379a00000000000000000000000000000000000000000000000000000000081526004016108c1906117ea565b60405180910390fd5b60008054906101000a900473ffffffffffffffffffffffffffffffffffffffff1673ffffffffffffffffffffffffffffffffffffffff163373ffffffffffffffffffffffffffffffffffffffff161461092257600080fd5b60005b600960006001600960008681526020019081526020016000208054905061094c91906116c7565b815260200190815260200160002080549050811015610a3057600960006001600960008681526020019081526020016000208054905061098c91906116c7565b815260200190815260200160002081815481106109ac576109ab6119ad565b5b9060005260206000200160009054906101000a900473ffffffffffffffffffffffffffffffffffffffff1673ffffffffffffffffffffffffffffffffffffffff166108fc849081150290604051600060405180830381858888f19350505050158015610a1c573d6000803e3d6000fd5b508080610a2890611860565b915050610925565b505050565b6000600254905090565b6060600a60003373ffffffffffffffffffffffffffffffffffffffff1673ffffffffffffffffffffffffffffffffffffffff168152602001908152602001600020805480602002602001604051908101604052809291908181526020016000905b82821015610b1257838290600052602060002001805480602002602001604051908101604052809291908181526020018280548015610afe57602002820191906000526020600020905b815481526020019060010190808311610aea575b505050505081526020019060010190610aa0565b50505050905090565b60006009600083604051602001610b329190611932565b6040516020818303038152906040528051906020012060001c8152602001908152602001600020805490509050919050565b60008054906101000a900473ffffffffffffffffffffffffffffffffffffffff1673ffffffffffffffffffffffffffffffffffffffff163373ffffffffffffffffffffffffffffffffffffffff161415610bf3576040517f08c379a0000000000000000000000000000000000000000000000000000000008152600401610bea90611a28565b60405180910390fd5b600760019054906101000a900460ff1615610c43576040517f08c379a0000000000000000000000000000000000000000000000000000000008152600401610c3a90611a94565b60405180910390fd5b6003543414610c87576040517f08c379a0000000000000000000000000000000000000000000000000000000008152600401610c7e90611b00565b60405180910390fd5b80600160038110610c9b57610c9a6119ad565b5b602002015181600060038110610cb457610cb36119ad565b5b602002015114158015610cf7575080600260038110610cd657610cd56119ad565b5b602002015181600060038110610cef57610cee6119ad565b5b602002015114155b8015610d33575080600260038110610d1257610d116119ad565b5b602002015181600160038110610d2b57610d2a6119ad565b5b602002015114155b610d72576040517f08c379a0000000000000000000000000000000000000000000000000000000008152600401610d6990611b6c565b60405180910390fd5b600081600060038110610d8857610d876119ad565b5b602002015110158015610db45750606381600060038110610dac57610dab6119ad565b5b602002015111155b610df3576040517f08c379a0000000000000000000000000000000000000000000000000000000008152600401610dea90611bfe565b60405180910390fd5b600081600160038110610e0957610e086119ad565b5b602002015110158015610e355750606381600160038110610e2d57610e2c6119ad565b5b602002015111155b610e74576040517f08c379a0000000000000000000000000000000000000000000000000000000008152600401610e6b90611c90565b60405180910390fd5b600081600260038110610e8a57610e896119ad565b5b602002015110158015610eb65750606381600260038110610eae57610ead6119ad565b5b602002015111155b610ef5576040517f08c379a0000000000000000000000000000000000000000000000000000000008152600401610eec90611d22565b60405180910390fd5b3460026000828254610f07919061180a565b92505081905550600c81604051602001610f219190611932565b6040516020818303038152906040528051906020012060001c9080600181540180825580915050600190039060005260206000200160009091909190915055600a60003373ffffffffffffffffffffffffffffffffffffffff1673ffffffffffffffffffffffffffffffffffffffff1681526020019081526020016000208190806001815401808255809150506001900390600052602060002001600090919091909150906003610fd392919061113a565b506009600082604051602001610fe99190611932565b6040516020818303038152906040528051906020012060001c8152602001908152602001600020339080600181540180825580915050600190039060005260206000200160009091909190916101000a81548173ffffffffffffffffffffffffffffffffffffffff021916908373ffffffffffffffffffffffffffffffffffffffff1602179055507ff9fcd8fad7415931becd04274f2d3e36e2c4a8ccea67edf7a151ac8c2ce93e536002546040516110a2919061138e565b60405180910390a150565b6110b56110d8565b604051806060016040528060018152602001600281526020016003815250905090565b6040518060600160405280600390602082028036833780820191505090505090565b8260038101928215611129579160200282015b8281111561112857825182559160200191906001019061110d565b5b5090506111369190611187565b5090565b828054828255906000526020600020908101928215611176579160200282015b8281111561117557825182559160200191906001019061115a565b5b5090506111839190611187565b5090565b5b808211156111a0576000816000905550600101611188565b5090565b600060039050919050565b600081905092915050565b6000819050919050565b6000819050919050565b6111d7816111c4565b82525050565b60006111e983836111ce565b60208301905092915050565b6000602082019050919050565b61120b816111a4565b61121581846111af565b9250611220826111ba565b8060005b8381101561125157815161123887826111dd565b9650611243836111f5565b925050600181019050611224565b505050505050565b600060608201905061126e6000830184611202565b92915050565b6000604051905090565b600080fd5b61128c816111c4565b811461129757600080fd5b50565b6000813590506112a981611283565b92915050565b6000602082840312156112c5576112c461127e565b5b60006112d38482850161129a565b91505092915050565b6000819050919050565b6112ef816112dc565b81146112fa57600080fd5b50565b60008135905061130c816112e6565b92915050565b6000602082840312156113285761132761127e565b5b6000611336848285016112fd565b91505092915050565b600080604083850312156113565761135561127e565b5b60006113648582860161129a565b92505060206113758582860161129a565b9150509250929050565b611388816111c4565b82525050565b60006020820190506113a3600083018461137f565b92915050565b600081519050919050565b600082825260208201905092915050565b6000819050602082019050919050565b600081519050919050565b600082825260208201905092915050565b6000819050602082019050919050565b6000602082019050919050565b6000611419826113d5565b61142381856113e0565b935061142e836113f1565b8060005b8381101561145f57815161144688826111dd565b975061145183611401565b925050600181019050611432565b5085935050505092915050565b6000611478838361140e565b905092915050565b6000602082019050919050565b6000611498826113a9565b6114a281856113b4565b9350836020820285016114b4856113c5565b8060005b858110156114f057848403895281516114d1858261146c565b94506114dc83611480565b925060208a019950506001810190506114b8565b50829750879550505050505092915050565b6000602082019050818103600083015261151c818461148d565b905092915050565b600080fd5b6000601f19601f8301169050919050565b7f4e487b7100000000000000000000000000000000000000000000000000000000600052604160045260246000fd5b61157282611529565b810181811067ffffffffffffffff821117156115915761159061153a565b5b80604052505050565b60006115a4611274565b90506115b08282611569565b919050565b600067ffffffffffffffff8211156115d0576115cf61153a565b5b602082029050919050565b600080fd5b60006115f36115ee846115b5565b61159a565b9050806020840283018581111561160d5761160c6115db565b5b835b818110156116365780611622888261129a565b84526020840193505060208101905061160f565b5050509392505050565b600082601f83011261165557611654611524565b5b60036116628482856115e0565b91505092915050565b6000606082840312156116815761168061127e565b5b600061168f84828501611640565b91505092915050565b7f4e487b7100000000000000000000000000000000000000000000000000000000600052601160045260246000fd5b60006116d2826111c4565b91506116dd836111c4565b9250828210156116f0576116ef611698565b5b828203905092915050565b600082825260208201905092915050565b7f5468697320616374696f6e2063616e206f6e6c792062652074616b656e20776860008201527f656e2074686520626574732061726520636c6f73656400000000000000000000602082015250565b60006117686036836116fb565b91506117738261170c565b604082019050919050565b600060208201905081810360008301526117978161175b565b9050919050565b7f4265747320617265206e6f7420636c6f73656400000000000000000000000000600082015250565b60006117d46013836116fb565b91506117df8261179e565b602082019050919050565b60006020820190508181036000830152611803816117c7565b9050919050565b6000611815826111c4565b9150611820836111c4565b9250827fffffffffffffffffffffffffffffffffffffffffffffffffffffffffffffffff0382111561185557611854611698565b5b828201905092915050565b600061186b826111c4565b91507fffffffffffffffffffffffffffffffffffffffffffffffffffffffffffffffff82141561189e5761189d611698565b5b600182019050919050565b600081905092915050565b6118bd816111c4565b82525050565b60006118cf83836118b4565b60208301905092915050565b6118e4816111a4565b6118ee81846118a9565b92506118f9826111ba565b8060005b8381101561192a57815161191187826118c3565b965061191c836111f5565b9250506001810190506118fd565b505050505050565b600061193e82846118db565b60608201915081905092915050565b7f4e487b7100000000000000000000000000000000000000000000000000000000600052601260045260246000fd5b6000611987826111c4565b9150611992836111c4565b9250826119a2576119a161194d565b5b828204905092915050565b7f4e487b7100000000000000000000000000000000000000000000000000000000600052603260045260246000fd5b7f547275737465642070617274792063616e277420626574000000000000000000600082015250565b6000611a126017836116fb565b9150611a1d826119dc565b602082019050919050565b60006020820190508181036000830152611a4181611a05565b9050919050565b7f426574732061726520636c6f7365640000000000000000000000000000000000600082015250565b6000611a7e600f836116fb565b9150611a8982611a48565b602082019050919050565b60006020820190508181036000830152611aad81611a71565b9050919050565b7f426574206e6f74207468652072696768742076616c7565206176617800000000600082015250565b6000611aea601c836116fb565b9150611af582611ab4565b602082019050919050565b60006020820190508181036000830152611b1981611add565b9050919050565b7f45616368206e756d626572206d75737420626520756e69717565000000000000600082015250565b6000611b56601a836116fb565b9150611b6182611b20565b602082019050919050565b60006020820190508181036000830152611b8581611b49565b9050919050565b7f4e756d6265722031206d757374206265206265747765656e203020616e64203960008201527f3900000000000000000000000000000000000000000000000000000000000000602082015250565b6000611be86021836116fb565b9150611bf382611b8c565b604082019050919050565b60006020820190508181036000830152611c1781611bdb565b9050919050565b7f4e756d6265722032206d757374206265206265747765656e203020616e64203960008201527f3900000000000000000000000000000000000000000000000000000000000000602082015250565b6000611c7a6021836116fb565b9150611c8582611c1e565b604082019050919050565b60006020820190508181036000830152611ca981611c6d565b9050919050565b7f4e756d6265722033206d757374206265206265747765656e203020616e64203960008201527f3900000000000000000000000000000000000000000000000000000000000000602082015250565b6000611d0c6021836116fb565b9150611d1782611cb0565b604082019050919050565b60006020820190508181036000830152611d3b81611cff565b905091905056fea26469706673582212203a9df0a2b70dad73fcdc6a36195c990622152076ef8d960f1448a6a243a6cfd764736f6c634300080a0033",
  "linkReferences": {},
  "deployedLinkReferences": {}
}