{
  "_format": "hh-sol-artifact-1",
  "contractName": "LottoWinnerMock",
  "sourceName": "contracts/LottoWinnerMock.sol",
  "abi": [
    {
      "inputs": [
        {
          "internalType": "address",
          "name": "_trustedParty",
          "type": "address"
        },
        {
          "internalType": "address payable",
          "name": "_treasury",
          "type": "address"
        },
        {
          "internalType": "uint256",
          "name": "_ticketValue",
          "type": "uint256"
        }
      ],
      "stateMutability": "nonpayable",
      "type": "constructor"
    },
    {
      "anonymous": false,
      "inputs": [
        {
          "indexed": false,
          "internalType": "uint256[3]",
          "name": "numbers",
          "type": "uint256[3]"
        }
      ],
      "name": "Draw",
      "type": "event"
    },
    {
      "anonymous": false,
      "inputs": [
        {
          "indexed": false,
          "internalType": "uint256",
          "name": "jackpot",
          "type": "uint256"
        }
      ],
      "name": "jackpotUpdated",
      "type": "event"
    },
    {
      "inputs": [
        {
          "internalType": "uint256[3]",
          "name": "_numbers",
          "type": "uint256[3]"
        }
      ],
      "name": "bet",
      "outputs": [],
      "stateMutability": "payable",
      "type": "function"
    },
    {
      "inputs": [
        {
          "internalType": "uint256[3]",
          "name": "_numbers",
          "type": "uint256[3]"
        }
      ],
      "name": "getAmountOfBetForNumbers",
      "outputs": [
        {
          "internalType": "uint256",
          "name": "",
          "type": "uint256"
        }
      ],
      "stateMutability": "view",
      "type": "function"
    },
    {
      "inputs": [],
      "name": "getBets",
      "outputs": [
        {
          "internalType": "uint256[][]",
          "name": "",
          "type": "uint256[][]"
        }
      ],
      "stateMutability": "view",
      "type": "function"
    },
    {
      "inputs": [],
      "name": "getCurrentJackpot",
      "outputs": [
        {
          "internalType": "uint256",
          "name": "",
          "type": "uint256"
        }
      ],
      "stateMutability": "view",
      "type": "function"
    },
    {
      "inputs": [],
      "name": "getLastDrawNumbers",
      "outputs": [
        {
          "internalType": "uint256[3]",
          "name": "",
          "type": "uint256[3]"
        }
      ],
      "stateMutability": "view",
      "type": "function"
    },
    {
      "inputs": [],
      "name": "getNextDrawTime",
      "outputs": [
        {
          "internalType": "uint256",
          "name": "",
          "type": "uint256"
        }
      ],
      "stateMutability": "view",
      "type": "function"
    },
    {
      "inputs": [
        {
          "internalType": "uint256",
          "name": "amount",
          "type": "uint256"
        }
      ],
      "name": "payTreasury",
      "outputs": [],
      "stateMutability": "nonpayable",
      "type": "function"
    },
    {
      "inputs": [
        {
          "internalType": "uint256",
          "name": "amount",
          "type": "uint256"
        },
        {
          "internalType": "uint256",
          "name": "hashedWinners",
          "type": "uint256"
        }
      ],
      "name": "payoutAllWinners",
      "outputs": [],
      "stateMutability": "nonpayable",
      "type": "function"
    },
    {
      "inputs": [
        {
          "internalType": "bytes32",
          "name": "_seed",
          "type": "bytes32"
        }
      ],
      "name": "reveal",
      "outputs": [
        {
          "internalType": "uint256[3]",
          "name": "",
          "type": "uint256[3]"
        }
      ],
      "stateMutability": "nonpayable",
      "type": "function"
    },
    {
      "inputs": [
        {
          "internalType": "bytes32",
          "name": "_sealedSeed",
          "type": "bytes32"
        }
      ],
      "name": "setSealedSeed",
      "outputs": [],
      "stateMutability": "nonpayable",
      "type": "function"
    }
  ],
  "bytecode": "0x608060405260006004556000600760006101000a81548160ff0219169083151502179055506000600760016101000a81548160ff0219169083151502179055506000600760026101000a81548160ff021916908315150217905550600067ffffffffffffffff8111156200007857620000776200020c565b5b604051908082528060200260200182016040528015620000a75781602001602082028036833780820191505090505b50600c9080519060200190620000bf9291906200019b565b50348015620000cd57600080fd5b50604051620021d5380380620021d58339818101604052810190620000f3919062000325565b826000806101000a81548173ffffffffffffffffffffffffffffffffffffffff021916908373ffffffffffffffffffffffffffffffffffffffff16021790555081600160006101000a81548173ffffffffffffffffffffffffffffffffffffffff021916908373ffffffffffffffffffffffffffffffffffffffff1602179055508060038190555062093a80426200018c9190620003b0565b6005819055505050506200040d565b828054828255906000526020600020908101928215620001da579160200282015b82811115620001d9578251825591602001919060010190620001bc565b5b509050620001e99190620001ed565b5090565b5b8082111562000208576000816000905550600101620001ee565b5090565b7f4e487b7100000000000000000000000000000000000000000000000000000000600052604160045260246000fd5b600080fd5b600073ffffffffffffffffffffffffffffffffffffffff82169050919050565b60006200026d8262000240565b9050919050565b6200027f8162000260565b81146200028b57600080fd5b50565b6000815190506200029f8162000274565b92915050565b6000620002b28262000240565b9050919050565b620002c481620002a5565b8114620002d057600080fd5b50565b600081519050620002e481620002b9565b92915050565b6000819050919050565b620002ff81620002ea565b81146200030b57600080fd5b50565b6000815190506200031f81620002f4565b92915050565b6000806000606084860312156200034157620003406200023b565b5b600062000351868287016200028e565b93505060206200036486828701620002d3565b925050604062000377868287016200030e565b9150509250925092565b7f4e487b7100000000000000000000000000000000000000000000000000000000600052601160045260246000fd5b6000620003bd82620002ea565b9150620003ca83620002ea565b9250827fffffffffffffffffffffffffffffffffffffffffffffffffffffffffffffffff0382111562000402576200040162000381565b5b828201905092915050565b611db8806200041d6000396000f3fe6080604052600436106100915760003560e01c80639f57d16e116100595780639f57d16e14610179578063a6afd5fd146101a4578063be8b48d0146101cf578063e4c9806f1461020c578063ecfea5d51461022857610091565b8063087d0e0b1461009657806308deb7ed146100c157806341114538146100ea578063701fd0f114610113578063999bd71614610150575b600080fd5b3480156100a257600080fd5b506100ab610253565b6040516100b89190611299565b60405180910390f35b3480156100cd57600080fd5b506100e860048036038101906100e391906112ef565b6102bd565b005b3480156100f657600080fd5b50610111600480360381019061010c9190611352565b610406565b005b34801561011f57600080fd5b5061013a60048036038101906101359190611352565b6104e5565b6040516101479190611299565b60405180910390f35b34801561015c57600080fd5b506101776004803603810190610172919061137f565b610823565b005b34801561018557600080fd5b5061018e610a6b565b60405161019b91906113ce565b60405180910390f35b3480156101b057600080fd5b506101b9610a75565b6040516101c69190611542565b60405180910390f35b3480156101db57600080fd5b506101f660048036038101906101f191906116ab565b610b51565b60405161020391906113ce565b60405180910390f35b610226600480360381019061022191906116ab565b610b9a565b005b34801561023457600080fd5b5061023d6110e3565b60405161024a91906113ce565b60405180910390f35b61025b611118565b600b6000600160045461026e9190611707565b81526020019081526020016000206003806020026040519081016040528092919082600380156102b3576020028201915b81548152602001906001019080831161029f575b5050505050905090565b60008054906101000a900473ffffffffffffffffffffffffffffffffffffffff1673ffffffffffffffffffffffffffffffffffffffff163373ffffffffffffffffffffffffffffffffffffffff161461034b576040517f08c379a0000000000000000000000000000000000000000000000000000000008152600401610342906117be565b60405180910390fd5b600760019054906101000a900460ff1661039a576040517f08c379a00000000000000000000000000000000000000000000000000000000081526004016103919061182a565b60405180910390fd5b600160009054906101000a900473ffffffffffffffffffffffffffffffffffffffff1673ffffffffffffffffffffffffffffffffffffffff166108fc829081150290604051600060405180830381858888f19350505050158015610402573d6000803e3d6000fd5b5050565b60008054906101000a900473ffffffffffffffffffffffffffffffffffffffff1673ffffffffffffffffffffffffffffffffffffffff163373ffffffffffffffffffffffffffffffffffffffff161461045e57600080fd5b600760009054906101000a900460ff161561047857600080fd5b600760019054906101000a900460ff161561049257600080fd5b6001600760016101000a81548160ff021916908315150217905550806006819055506001436104c1919061184a565b6008819055506001600760006101000a81548160ff02191690831515021790555050565b6104ed611118565b60008054906101000a900473ffffffffffffffffffffffffffffffffffffffff1673ffffffffffffffffffffffffffffffffffffffff163373ffffffffffffffffffffffffffffffffffffffff161461054557600080fd5b600760009054906101000a900460ff1661055e57600080fd5b436008541061056c57600080fd5b600654821461057a57600080fd5b60006105846110ed565b905080600b600060045481526020019081526020016000209060036105aa92919061113a565b50600460008154809291906105be906118a0565b91905055507f782d7ce763b28c71c4396c26548d32590c3a1f9649900b813dad7d691fead901816040516105f29190611299565b60405180910390a1600060096000836040516020016106119190611972565b6040516020818303038152906040528051906020012060001c81526020019081526020016000208054905011600760026101000a81548160ff021916908315150217905550600760029054906101000a900460ff16156107e3576000601460025461067c91906119bc565b9050610687816102bd565b806002546106959190611707565b600281905550600060096000846040516020016106b29190611972565b6040516020818303038152906040528051906020012060001c81526020019081526020016000208054905090506000816002546106ef91906119bc565b905060005b828110156107ce5760096000866040516020016107119190611972565b6040516020818303038152906040528051906020012060001c8152602001908152602001600020818154811061074a576107496119ed565b5b9060005260206000200160009054906101000a900473ffffffffffffffffffffffffffffffffffffffff1673ffffffffffffffffffffffffffffffffffffffff166108fc839081150290604051600060405180830381858888f193505050501580156107ba573d6000803e3d6000fd5b5080806107c6906118a0565b9150506106f4565b5060006002819055508394505050505061081e565b6000600760006101000a81548160ff0219169083151502179055506000600760016101000a81548160ff021916908315150217905550809150505b919050565b60008054906101000a900473ffffffffffffffffffffffffffffffffffffffff1673ffffffffffffffffffffffffffffffffffffffff163373ffffffffffffffffffffffffffffffffffffffff16146108b1576040517f08c379a00000000000000000000000000000000000000000000000000000000081526004016108a8906117be565b60405180910390fd5b600760019054906101000a900460ff16610900576040517f08c379a00000000000000000000000000000000000000000000000000000000081526004016108f79061182a565b60405180910390fd5b60008054906101000a900473ffffffffffffffffffffffffffffffffffffffff1673ffffffffffffffffffffffffffffffffffffffff163373ffffffffffffffffffffffffffffffffffffffff161461095857600080fd5b60005b60096000600160096000868152602001908152602001600020805490506109829190611707565b815260200190815260200160002080549050811015610a665760096000600160096000868152602001908152602001600020805490506109c29190611707565b815260200190815260200160002081815481106109e2576109e16119ed565b5b9060005260206000200160009054906101000a900473ffffffffffffffffffffffffffffffffffffffff1673ffffffffffffffffffffffffffffffffffffffff166108fc849081150290604051600060405180830381858888f19350505050158015610a52573d6000803e3d6000fd5b508080610a5e906118a0565b91505061095b565b505050565b6000600254905090565b6060600a60003373ffffffffffffffffffffffffffffffffffffffff1673ffffffffffffffffffffffffffffffffffffffff168152602001908152602001600020805480602002602001604051908101604052809291908181526020016000905b82821015610b4857838290600052602060002001805480602002602001604051908101604052809291908181526020018280548015610b3457602002820191906000526020600020905b815481526020019060010190808311610b20575b505050505081526020019060010190610ad6565b50505050905090565b60006009600083604051602001610b689190611972565b6040516020818303038152906040528051906020012060001c8152602001908152602001600020805490509050919050565b60008054906101000a900473ffffffffffffffffffffffffffffffffffffffff1673ffffffffffffffffffffffffffffffffffffffff163373ffffffffffffffffffffffffffffffffffffffff161415610c29576040517f08c379a0000000000000000000000000000000000000000000000000000000008152600401610c2090611a68565b60405180910390fd5b600760019054906101000a900460ff1615610c79576040517f08c379a0000000000000000000000000000000000000000000000000000000008152600401610c7090611ad4565b60405180910390fd5b6003543414610cbd576040517f08c379a0000000000000000000000000000000000000000000000000000000008152600401610cb490611b40565b60405180910390fd5b80600160038110610cd157610cd06119ed565b5b602002015181600060038110610cea57610ce96119ed565b5b602002015114158015610d2d575080600260038110610d0c57610d0b6119ed565b5b602002015181600060038110610d2557610d246119ed565b5b602002015114155b8015610d69575080600260038110610d4857610d476119ed565b5b602002015181600160038110610d6157610d606119ed565b5b602002015114155b610da8576040517f08c379a0000000000000000000000000000000000000000000000000000000008152600401610d9f90611bac565b60405180910390fd5b600081600060038110610dbe57610dbd6119ed565b5b602002015110158015610dea5750606381600060038110610de257610de16119ed565b5b602002015111155b610e29576040517f08c379a0000000000000000000000000000000000000000000000000000000008152600401610e2090611c3e565b60405180910390fd5b600081600160038110610e3f57610e3e6119ed565b5b602002015110158015610e6b5750606381600160038110610e6357610e626119ed565b5b602002015111155b610eaa576040517f08c379a0000000000000000000000000000000000000000000000000000000008152600401610ea190611cd0565b60405180910390fd5b600081600260038110610ec057610ebf6119ed565b5b602002015110158015610eec5750606381600260038110610ee457610ee36119ed565b5b602002015111155b610f2b576040517f08c379a0000000000000000000000000000000000000000000000000000000008152600401610f2290611d62565b60405180910390fd5b3460026000828254610f3d919061184a565b92505081905550600c81604051602001610f579190611972565b6040516020818303038152906040528051906020012060001c9080600181540180825580915050600190039060005260206000200160009091909190915055600a60003373ffffffffffffffffffffffffffffffffffffffff1673ffffffffffffffffffffffffffffffffffffffff168152602001908152602001600020819080600181540180825580915050600190039060005260206000200160009091909190915090600361100992919061117a565b50600960008260405160200161101f9190611972565b6040516020818303038152906040528051906020012060001c8152602001908152602001600020339080600181540180825580915050600190039060005260206000200160009091909190916101000a81548173ffffffffffffffffffffffffffffffffffffffff021916908373ffffffffffffffffffffffffffffffffffffffff1602179055507ff9fcd8fad7415931becd04274f2d3e36e2c4a8ccea67edf7a151ac8c2ce93e536002546040516110d891906113ce565b60405180910390a150565b6000600554905090565b6110f5611118565b604051806060016040528060018152602001600281526020016003815250905090565b6040518060600160405280600390602082028036833780820191505090505090565b8260038101928215611169579160200282015b8281111561116857825182559160200191906001019061114d565b5b50905061117691906111c7565b5090565b8280548282559060005260206000209081019282156111b6579160200282015b828111156111b557825182559160200191906001019061119a565b5b5090506111c391906111c7565b5090565b5b808211156111e05760008160009055506001016111c8565b5090565b600060039050919050565b600081905092915050565b6000819050919050565b6000819050919050565b61121781611204565b82525050565b6000611229838361120e565b60208301905092915050565b6000602082019050919050565b61124b816111e4565b61125581846111ef565b9250611260826111fa565b8060005b83811015611291578151611278878261121d565b965061128383611235565b925050600181019050611264565b505050505050565b60006060820190506112ae6000830184611242565b92915050565b6000604051905090565b600080fd5b6112cc81611204565b81146112d757600080fd5b50565b6000813590506112e9816112c3565b92915050565b600060208284031215611305576113046112be565b5b6000611313848285016112da565b91505092915050565b6000819050919050565b61132f8161131c565b811461133a57600080fd5b50565b60008135905061134c81611326565b92915050565b600060208284031215611368576113676112be565b5b60006113768482850161133d565b91505092915050565b60008060408385031215611396576113956112be565b5b60006113a4858286016112da565b92505060206113b5858286016112da565b9150509250929050565b6113c881611204565b82525050565b60006020820190506113e360008301846113bf565b92915050565b600081519050919050565b600082825260208201905092915050565b6000819050602082019050919050565b600081519050919050565b600082825260208201905092915050565b6000819050602082019050919050565b6000602082019050919050565b600061145982611415565b6114638185611420565b935061146e83611431565b8060005b8381101561149f578151611486888261121d565b975061149183611441565b925050600181019050611472565b5085935050505092915050565b60006114b8838361144e565b905092915050565b6000602082019050919050565b60006114d8826113e9565b6114e281856113f4565b9350836020820285016114f485611405565b8060005b85811015611530578484038952815161151185826114ac565b945061151c836114c0565b925060208a019950506001810190506114f8565b50829750879550505050505092915050565b6000602082019050818103600083015261155c81846114cd565b905092915050565b600080fd5b6000601f19601f8301169050919050565b7f4e487b7100000000000000000000000000000000000000000000000000000000600052604160045260246000fd5b6115b282611569565b810181811067ffffffffffffffff821117156115d1576115d061157a565b5b80604052505050565b60006115e46112b4565b90506115f082826115a9565b919050565b600067ffffffffffffffff8211156116105761160f61157a565b5b602082029050919050565b600080fd5b600061163361162e846115f5565b6115da565b9050806020840283018581111561164d5761164c61161b565b5b835b81811015611676578061166288826112da565b84526020840193505060208101905061164f565b5050509392505050565b600082601f83011261169557611694611564565b5b60036116a2848285611620565b91505092915050565b6000606082840312156116c1576116c06112be565b5b60006116cf84828501611680565b91505092915050565b7f4e487b7100000000000000000000000000000000000000000000000000000000600052601160045260246000fd5b600061171282611204565b915061171d83611204565b9250828210156117305761172f6116d8565b5b828203905092915050565b600082825260208201905092915050565b7f5468697320616374696f6e2063616e206f6e6c792062652074616b656e20776860008201527f656e2074686520626574732061726520636c6f73656400000000000000000000602082015250565b60006117a860368361173b565b91506117b38261174c565b604082019050919050565b600060208201905081810360008301526117d78161179b565b9050919050565b7f4265747320617265206e6f7420636c6f73656400000000000000000000000000600082015250565b600061181460138361173b565b915061181f826117de565b602082019050919050565b6000602082019050818103600083015261184381611807565b9050919050565b600061185582611204565b915061186083611204565b9250827fffffffffffffffffffffffffffffffffffffffffffffffffffffffffffffffff03821115611895576118946116d8565b5b828201905092915050565b60006118ab82611204565b91507fffffffffffffffffffffffffffffffffffffffffffffffffffffffffffffffff8214156118de576118dd6116d8565b5b600182019050919050565b600081905092915050565b6118fd81611204565b82525050565b600061190f83836118f4565b60208301905092915050565b611924816111e4565b61192e81846118e9565b9250611939826111fa565b8060005b8381101561196a5781516119518782611903565b965061195c83611235565b92505060018101905061193d565b505050505050565b600061197e828461191b565b60608201915081905092915050565b7f4e487b7100000000000000000000000000000000000000000000000000000000600052601260045260246000fd5b60006119c782611204565b91506119d283611204565b9250826119e2576119e161198d565b5b828204905092915050565b7f4e487b7100000000000000000000000000000000000000000000000000000000600052603260045260246000fd5b7f547275737465642070617274792063616e277420626574000000000000000000600082015250565b6000611a5260178361173b565b9150611a5d82611a1c565b602082019050919050565b60006020820190508181036000830152611a8181611a45565b9050919050565b7f426574732061726520636c6f7365640000000000000000000000000000000000600082015250565b6000611abe600f8361173b565b9150611ac982611a88565b602082019050919050565b60006020820190508181036000830152611aed81611ab1565b9050919050565b7f426574206e6f74207468652072696768742076616c7565206176617800000000600082015250565b6000611b2a601c8361173b565b9150611b3582611af4565b602082019050919050565b60006020820190508181036000830152611b5981611b1d565b9050919050565b7f45616368206e756d626572206d75737420626520756e69717565000000000000600082015250565b6000611b96601a8361173b565b9150611ba182611b60565b602082019050919050565b60006020820190508181036000830152611bc581611b89565b9050919050565b7f4e756d6265722031206d757374206265206265747765656e203020616e64203960008201527f3900000000000000000000000000000000000000000000000000000000000000602082015250565b6000611c2860218361173b565b9150611c3382611bcc565b604082019050919050565b60006020820190508181036000830152611c5781611c1b565b9050919050565b7f4e756d6265722032206d757374206265206265747765656e203020616e64203960008201527f3900000000000000000000000000000000000000000000000000000000000000602082015250565b6000611cba60218361173b565b9150611cc582611c5e565b604082019050919050565b60006020820190508181036000830152611ce981611cad565b9050919050565b7f4e756d6265722033206d757374206265206265747765656e203020616e64203960008201527f3900000000000000000000000000000000000000000000000000000000000000602082015250565b6000611d4c60218361173b565b9150611d5782611cf0565b604082019050919050565b60006020820190508181036000830152611d7b81611d3f565b905091905056fea2646970667358221220d2b8ae9fe9a7bd60689b7c17eb51dcd7b5c93288f7578b223239398140d2bb1364736f6c634300080a0033",
  "linkReferences": {},
  "deployedLinkReferences": {}
}