{
  "_format": "hh-sol-artifact-1",
  "contractName": "LottoWinnerMock",
  "sourceName": "contracts/LottoWinnerMock.sol",
  "abi": [
    {
      "inputs": [
        {
          "internalType": "address",
          "name": "_trustedParty",
          "type": "address"
        },
        {
          "internalType": "address payable",
          "name": "_treasury",
          "type": "address"
        }
      ],
      "stateMutability": "nonpayable",
      "type": "constructor"
    },
    {
      "anonymous": false,
      "inputs": [
        {
          "indexed": false,
          "internalType": "uint256[3]",
          "name": "numbers",
          "type": "uint256[3]"
        }
      ],
      "name": "Draw",
      "type": "event"
    },
    {
      "anonymous": false,
      "inputs": [
        {
          "indexed": false,
          "internalType": "uint256",
          "name": "jackpot",
          "type": "uint256"
        }
      ],
      "name": "jackpotUpdated",
      "type": "event"
    },
    {
      "inputs": [],
      "name": "_executePayment",
      "outputs": [],
      "stateMutability": "nonpayable",
      "type": "function"
    },
    {
      "inputs": [
        {
          "internalType": "uint256[3]",
          "name": "_numbers",
          "type": "uint256[3]"
        }
      ],
      "name": "bet",
      "outputs": [],
      "stateMutability": "payable",
      "type": "function"
    },
    {
      "inputs": [
        {
          "internalType": "uint256[3]",
          "name": "_numbers",
          "type": "uint256[3]"
        }
      ],
      "name": "getAmountOfBetForNumbers",
      "outputs": [
        {
          "internalType": "uint256",
          "name": "",
          "type": "uint256"
        }
      ],
      "stateMutability": "view",
      "type": "function"
    },
    {
      "inputs": [],
      "name": "getBets",
      "outputs": [
        {
          "internalType": "uint256[][]",
          "name": "",
          "type": "uint256[][]"
        }
      ],
      "stateMutability": "view",
      "type": "function"
    },
    {
      "inputs": [],
      "name": "getCurrentJackpot",
      "outputs": [
        {
          "internalType": "uint256",
          "name": "",
          "type": "uint256"
        }
      ],
      "stateMutability": "view",
      "type": "function"
    },
    {
      "inputs": [],
      "name": "getLastDraw",
      "outputs": [
        {
          "components": [
            {
              "internalType": "address[]",
              "name": "winners",
              "type": "address[]"
            },
            {
              "internalType": "uint256",
              "name": "jackpot",
              "type": "uint256"
            },
            {
              "internalType": "uint256",
              "name": "drawTime",
              "type": "uint256"
            },
            {
              "internalType": "uint256[3]",
              "name": "numbers",
              "type": "uint256[3]"
            },
            {
              "internalType": "bytes32",
              "name": "sealedSeed",
              "type": "bytes32"
            }
          ],
          "internalType": "struct LottoWinnerMock.LastDraw",
          "name": "",
          "type": "tuple"
        }
      ],
      "stateMutability": "view",
      "type": "function"
    },
    {
      "inputs": [],
      "name": "getLastDrawNumbers",
      "outputs": [
        {
          "internalType": "uint256[3]",
          "name": "",
          "type": "uint256[3]"
        }
      ],
      "stateMutability": "view",
      "type": "function"
    },
    {
      "inputs": [
        {
          "internalType": "uint256",
          "name": "amount",
          "type": "uint256"
        }
      ],
      "name": "payTreasury",
      "outputs": [],
      "stateMutability": "nonpayable",
      "type": "function"
    },
    {
      "inputs": [
        {
          "internalType": "uint256",
          "name": "amount",
          "type": "uint256"
        }
      ],
      "name": "payoutAllWinners",
      "outputs": [],
      "stateMutability": "nonpayable",
      "type": "function"
    },
    {
      "inputs": [
        {
          "internalType": "bytes32",
          "name": "_seed",
          "type": "bytes32"
        }
      ],
      "name": "reveal",
      "outputs": [
        {
          "internalType": "uint256[3]",
          "name": "",
          "type": "uint256[3]"
        }
      ],
      "stateMutability": "nonpayable",
      "type": "function"
    },
    {
      "inputs": [
        {
          "internalType": "bytes32",
          "name": "_sealedSeed",
          "type": "bytes32"
        }
      ],
      "name": "setSealedSeed",
      "outputs": [],
      "stateMutability": "nonpayable",
      "type": "function"
    }
  ],
  "bytecode": "0x60806040526000600460006101000a81548160ff0219169083151502179055506000600460016101000a81548160ff021916908315150217905550600067ffffffffffffffff811115620000585762000057620001cd565b5b604051908082528060200260200182016040528015620000875781602001602082028036833780820191505090505b50600f90805190602001906200009f9291906200015c565b50348015620000ad57600080fd5b50604051620025ef380380620025ef8339818101604052810190620000d39190620002ab565b816000806101000a81548173ffffffffffffffffffffffffffffffffffffffff021916908373ffffffffffffffffffffffffffffffffffffffff16021790555080600160006101000a81548173ffffffffffffffffffffffffffffffffffffffff021916908373ffffffffffffffffffffffffffffffffffffffff1602179055505050620002f2565b8280548282559060005260206000209081019282156200019b579160200282015b828111156200019a5782518255916020019190600101906200017d565b5b509050620001aa9190620001ae565b5090565b5b80821115620001c9576000816000905550600101620001af565b5090565b7f4e487b7100000000000000000000000000000000000000000000000000000000600052604160045260246000fd5b600080fd5b600073ffffffffffffffffffffffffffffffffffffffff82169050919050565b60006200022e8262000201565b9050919050565b620002408162000221565b81146200024c57600080fd5b50565b600081519050620002608162000235565b92915050565b6000620002738262000201565b9050919050565b620002858162000266565b81146200029157600080fd5b50565b600081519050620002a5816200027a565b92915050565b60008060408385031215620002c557620002c4620001fc565b5b6000620002d5858286016200024f565b9250506020620002e88582860162000294565b9150509250929050565b6122ed80620003026000396000f3fe60806040526004361061009c5760003560e01c80639f57d16e116100645780639f57d16e14610172578063a6afd5fd1461019d578063be8b48d0146101c8578063c7f698f914610205578063d9684a7a14610230578063e4c9806f146102595761009c565b8063087d0e0b146100a157806308deb7ed146100cc57806341114538146100f55780634534904a1461011e578063701fd0f114610135575b600080fd5b3480156100ad57600080fd5b506100b6610275565b6040516100c39190611470565b60405180910390f35b3480156100d857600080fd5b506100f360048036038101906100ee91906114c6565b6102c3565b005b34801561010157600080fd5b5061011c60048036038101906101179190611529565b61040c565b005b34801561012a57600080fd5b506101336104eb565b005b34801561014157600080fd5b5061015c60048036038101906101579190611529565b6105dd565b6040516101699190611470565b60405180910390f35b34801561017e57600080fd5b50610187610868565b6040516101949190611565565b60405180910390f35b3480156101a957600080fd5b506101b2610872565b6040516101bf91906116d9565b60405180910390f35b3480156101d457600080fd5b506101ef60048036038101906101ea9190611842565b61094e565b6040516101fc9190611565565b60405180910390f35b34801561021157600080fd5b5061021a610997565b6040516102279190611a46565b60405180910390f35b34801561023c57600080fd5b50610257600480360381019061025291906114c6565b610aa2565b005b610273600480360381019061026e9190611842565b610ca7565b005b61027d611223565b60066003016003806020026040519081016040528092919082600380156102b9576020028201915b8154815260200190600101908083116102a5575b5050505050905090565b60008054906101000a900473ffffffffffffffffffffffffffffffffffffffff1673ffffffffffffffffffffffffffffffffffffffff163373ffffffffffffffffffffffffffffffffffffffff1614610351576040517f08c379a000000000000000000000000000000000000000000000000000000000815260040161034890611aeb565b60405180910390fd5b600460019054906101000a900460ff166103a0576040517f08c379a000000000000000000000000000000000000000000000000000000000815260040161039790611b57565b60405180910390fd5b600160009054906101000a900473ffffffffffffffffffffffffffffffffffffffff1673ffffffffffffffffffffffffffffffffffffffff166108fc829081150290604051600060405180830381858888f19350505050158015610408573d6000803e3d6000fd5b5050565b60008054906101000a900473ffffffffffffffffffffffffffffffffffffffff1673ffffffffffffffffffffffffffffffffffffffff163373ffffffffffffffffffffffffffffffffffffffff161461046457600080fd5b600460009054906101000a900460ff161561047e57600080fd5b600460019054906101000a900460ff161561049857600080fd5b6001600460016101000a81548160ff021916908315150217905550806003819055506001436104c79190611ba6565b6005819055506001600460006101000a81548160ff02191690831515021790555050565b60008054906101000a900473ffffffffffffffffffffffffffffffffffffffff1673ffffffffffffffffffffffffffffffffffffffff163373ffffffffffffffffffffffffffffffffffffffff161461054357600080fd5b600060146002546105549190611c2b565b905061055f816102c3565b8060025461056d9190611c5c565b6002819055506000600d6000600660030160405160200161058e9190611d86565b6040516020818303038152906040528051906020012060001c8152602001908152602001600020805490506002546105c69190611c2b565b90506105d181610aa2565b60006002819055505050565b6105e5611223565b60008054906101000a900473ffffffffffffffffffffffffffffffffffffffff1673ffffffffffffffffffffffffffffffffffffffff163373ffffffffffffffffffffffffffffffffffffffff161461063d57600080fd5b600460009054906101000a900460ff1661065657600080fd5b436005541061066457600080fd5b600354821461067257600080fd5b6000826005544060405160200161068a929190611dc2565b6040516020818303038152906040528051906020012060001c90506106ae816111f6565b60066003019060036106c1929190611245565b50826006800181905550600254600660010181905550600d600060066003016040516020016106f09190611d86565b6040516020818303038152906040528051906020012060001c8152602001908152602001600020600660000190805461072a929190611285565b506000600254111561073f5761073e6104eb565b5b60005b600f8054905081101561079f57600d6000600f838154811061076757610766611dee565b5b90600052602060002001548152602001908152602001600020600061078c91906112d7565b808061079790611e1d565b915050610742565b50600f60006107ae91906112f8565b7f782d7ce763b28c71c4396c26548d32590c3a1f9649900b813dad7d691fead90160066003016040516107e19190611ec4565b60405180910390a16000600460006101000a81548160ff0219169083151502179055506000600460016101000a81548160ff021916908315150217905550600660030160038060200260405190810160405280929190826003801561085b576020028201915b815481526020019060010190808311610847575b5050505050915050919050565b6000600254905090565b6060600e60003373ffffffffffffffffffffffffffffffffffffffff1673ffffffffffffffffffffffffffffffffffffffff168152602001908152602001600020805480602002602001604051908101604052809291908181526020016000905b828210156109455783829060005260206000200180548060200260200160405190810160405280929190818152602001828054801561093157602002820191906000526020600020905b81548152602001906001019080831161091d575b5050505050815260200190600101906108d3565b50505050905090565b6000600d6000836040516020016109659190611f36565b6040516020818303038152906040528051906020012060001c8152602001908152602001600020805490509050919050565b61099f611319565b60066040518060a001604052908160008201805480602002602001604051908101604052809291908181526020018280548015610a3157602002820191906000526020600020905b8160009054906101000a900473ffffffffffffffffffffffffffffffffffffffff1673ffffffffffffffffffffffffffffffffffffffff16815260200190600101908083116109e7575b50505050508152602001600182015481526020016002820154815260200160038201600380602002604051908101604052809291908260038015610a8a576020028201915b815481526020019060010190808311610a76575b50505050508152602001600682015481525050905090565b60008054906101000a900473ffffffffffffffffffffffffffffffffffffffff1673ffffffffffffffffffffffffffffffffffffffff163373ffffffffffffffffffffffffffffffffffffffff1614610b30576040517f08c379a0000000000000000000000000000000000000000000000000000000008152600401610b2790611aeb565b60405180910390fd5b600460019054906101000a900460ff16610b7f576040517f08c379a0000000000000000000000000000000000000000000000000000000008152600401610b7690611b57565b60405180910390fd5b60005b600d60006006600301604051602001610b9b9190611d86565b6040516020818303038152906040528051906020012060001c815260200190815260200160002080549050811015610ca357600d60006006600301604051602001610be69190611d86565b6040516020818303038152906040528051906020012060001c81526020019081526020016000208181548110610c1f57610c1e611dee565b5b9060005260206000200160009054906101000a900473ffffffffffffffffffffffffffffffffffffffff1673ffffffffffffffffffffffffffffffffffffffff166108fc839081150290604051600060405180830381858888f19350505050158015610c8f573d6000803e3d6000fd5b508080610c9b90611e1d565b915050610b82565b5050565b60008054906101000a900473ffffffffffffffffffffffffffffffffffffffff1673ffffffffffffffffffffffffffffffffffffffff163373ffffffffffffffffffffffffffffffffffffffff161415610d36576040517f08c379a0000000000000000000000000000000000000000000000000000000008152600401610d2d90611f9d565b60405180910390fd5b600460019054906101000a900460ff1615610d86576040517f08c379a0000000000000000000000000000000000000000000000000000000008152600401610d7d90612009565b60405180910390fd5b670de0b6b3a76400003414610dd0576040517f08c379a0000000000000000000000000000000000000000000000000000000008152600401610dc790612075565b60405180910390fd5b80600160038110610de457610de3611dee565b5b602002015181600060038110610dfd57610dfc611dee565b5b602002015114158015610e40575080600260038110610e1f57610e1e611dee565b5b602002015181600060038110610e3857610e37611dee565b5b602002015114155b8015610e7c575080600260038110610e5b57610e5a611dee565b5b602002015181600160038110610e7457610e73611dee565b5b602002015114155b610ebb576040517f08c379a0000000000000000000000000000000000000000000000000000000008152600401610eb2906120e1565b60405180910390fd5b600081600060038110610ed157610ed0611dee565b5b602002015110158015610efd5750606381600060038110610ef557610ef4611dee565b5b602002015111155b610f3c576040517f08c379a0000000000000000000000000000000000000000000000000000000008152600401610f3390612173565b60405180910390fd5b600081600160038110610f5257610f51611dee565b5b602002015110158015610f7e5750606381600160038110610f7657610f75611dee565b5b602002015111155b610fbd576040517f08c379a0000000000000000000000000000000000000000000000000000000008152600401610fb490612205565b60405180910390fd5b600081600260038110610fd357610fd2611dee565b5b602002015110158015610fff5750606381600260038110610ff757610ff6611dee565b5b602002015111155b61103e576040517f08c379a000000000000000000000000000000000000000000000000000000000815260040161103590612297565b60405180910390fd5b34600260008282546110509190611ba6565b92505081905550600f8160405160200161106a9190611f36565b6040516020818303038152906040528051906020012060001c9080600181540180825580915050600190039060005260206000200160009091909190915055600e60003373ffffffffffffffffffffffffffffffffffffffff1673ffffffffffffffffffffffffffffffffffffffff168152602001908152602001600020819080600181540180825580915050600190039060005260206000200160009091909190915090600361111c929190611351565b50600d6000826040516020016111329190611f36565b6040516020818303038152906040528051906020012060001c8152602001908152602001600020339080600181540180825580915050600190039060005260206000200160009091909190916101000a81548173ffffffffffffffffffffffffffffffffffffffff021916908373ffffffffffffffffffffffffffffffffffffffff1602179055507ff9fcd8fad7415931becd04274f2d3e36e2c4a8ccea67edf7a151ac8c2ce93e536002546040516111eb9190611565565b60405180910390a150565b6111fe611223565b6040518060600160405280600181526020016002815260200160038152509050919050565b6040518060600160405280600390602082028036833780820191505090505090565b8260038101928215611274579160200282015b82811115611273578251825591602001919060010190611258565b5b509050611281919061139e565b5090565b8280548282559060005260206000209081019282156112c65760005260206000209182015b828111156112c55782548255916001019190600101906112aa565b5b5090506112d3919061139e565b5090565b50805460008255906000526020600020908101906112f5919061139e565b50565b5080546000825590600052602060002090810190611316919061139e565b50565b6040518060a00160405280606081526020016000815260200160008152602001611341611223565b8152602001600080191681525090565b82805482825590600052602060002090810192821561138d579160200282015b8281111561138c578251825591602001919060010190611371565b5b50905061139a919061139e565b5090565b5b808211156113b757600081600090555060010161139f565b5090565b600060039050919050565b600081905092915050565b6000819050919050565b6000819050919050565b6113ee816113db565b82525050565b600061140083836113e5565b60208301905092915050565b6000602082019050919050565b611422816113bb565b61142c81846113c6565b9250611437826113d1565b8060005b8381101561146857815161144f87826113f4565b965061145a8361140c565b92505060018101905061143b565b505050505050565b60006060820190506114856000830184611419565b92915050565b6000604051905090565b600080fd5b6114a3816113db565b81146114ae57600080fd5b50565b6000813590506114c08161149a565b92915050565b6000602082840312156114dc576114db611495565b5b60006114ea848285016114b1565b91505092915050565b6000819050919050565b611506816114f3565b811461151157600080fd5b50565b600081359050611523816114fd565b92915050565b60006020828403121561153f5761153e611495565b5b600061154d84828501611514565b91505092915050565b61155f816113db565b82525050565b600060208201905061157a6000830184611556565b92915050565b600081519050919050565b600082825260208201905092915050565b6000819050602082019050919050565b600081519050919050565b600082825260208201905092915050565b6000819050602082019050919050565b6000602082019050919050565b60006115f0826115ac565b6115fa81856115b7565b9350611605836115c8565b8060005b8381101561163657815161161d88826113f4565b9750611628836115d8565b925050600181019050611609565b5085935050505092915050565b600061164f83836115e5565b905092915050565b6000602082019050919050565b600061166f82611580565b611679818561158b565b93508360208202850161168b8561159c565b8060005b858110156116c757848403895281516116a88582611643565b94506116b383611657565b925060208a0199505060018101905061168f565b50829750879550505050505092915050565b600060208201905081810360008301526116f38184611664565b905092915050565b600080fd5b6000601f19601f8301169050919050565b7f4e487b7100000000000000000000000000000000000000000000000000000000600052604160045260246000fd5b61174982611700565b810181811067ffffffffffffffff8211171561176857611767611711565b5b80604052505050565b600061177b61148b565b90506117878282611740565b919050565b600067ffffffffffffffff8211156117a7576117a6611711565b5b602082029050919050565b600080fd5b60006117ca6117c58461178c565b611771565b905080602084028301858111156117e4576117e36117b2565b5b835b8181101561180d57806117f988826114b1565b8452602084019350506020810190506117e6565b5050509392505050565b600082601f83011261182c5761182b6116fb565b5b60036118398482856117b7565b91505092915050565b60006060828403121561185857611857611495565b5b600061186684828501611817565b91505092915050565b600081519050919050565b600082825260208201905092915050565b6000819050602082019050919050565b600073ffffffffffffffffffffffffffffffffffffffff82169050919050565b60006118c68261189b565b9050919050565b6118d6816118bb565b82525050565b60006118e883836118cd565b60208301905092915050565b6000602082019050919050565b600061190c8261186f565b611916818561187a565b93506119218361188b565b8060005b8381101561195257815161193988826118dc565b9750611944836118f4565b925050600181019050611925565b5085935050505092915050565b600081905092915050565b611973816113bb565b61197d818461195f565b9250611988826113d1565b8060005b838110156119b95781516119a087826113f4565b96506119ab8361140c565b92505060018101905061198c565b505050505050565b6119ca816114f3565b82525050565b600060e08301600083015184820360008601526119ed8282611901565b9150506020830151611a0260208601826113e5565b506040830151611a1560408601826113e5565b506060830151611a28606086018261196a565b506080830151611a3b60c08601826119c1565b508091505092915050565b60006020820190508181036000830152611a6081846119d0565b905092915050565b600082825260208201905092915050565b7f5468697320616374696f6e2063616e206f6e6c792062652074616b656e20776860008201527f656e2074686520626574732061726520636c6f73656400000000000000000000602082015250565b6000611ad5603683611a68565b9150611ae082611a79565b604082019050919050565b60006020820190508181036000830152611b0481611ac8565b9050919050565b7f4265747320617265206e6f7420636c6f73656400000000000000000000000000600082015250565b6000611b41601383611a68565b9150611b4c82611b0b565b602082019050919050565b60006020820190508181036000830152611b7081611b34565b9050919050565b7f4e487b7100000000000000000000000000000000000000000000000000000000600052601160045260246000fd5b6000611bb1826113db565b9150611bbc836113db565b9250827fffffffffffffffffffffffffffffffffffffffffffffffffffffffffffffffff03821115611bf157611bf0611b77565b5b828201905092915050565b7f4e487b7100000000000000000000000000000000000000000000000000000000600052601260045260246000fd5b6000611c36826113db565b9150611c41836113db565b925082611c5157611c50611bfc565b5b828204905092915050565b6000611c67826113db565b9150611c72836113db565b925082821015611c8557611c84611b77565b5b828203905092915050565b600060039050919050565b600081905092915050565b6000819050919050565b611cb9816113db565b82525050565b6000611ccb8383611cb0565b60208301905092915050565b60008160001c9050919050565b6000819050919050565b6000611d01611cfc83611cd7565b611ce4565b9050919050565b6000611d148254611cee565b9050919050565b6000600182019050919050565b611d3181611c90565b611d3b8184611c9b565b9250611d4682611ca6565b8060005b83811015611d7e57611d5b82611d08565b611d658782611cbf565b9650611d7083611d1b565b925050600181019050611d4a565b505050505050565b6000611d928284611d28565b60608201915081905092915050565b6000819050919050565b611dbc611db7826114f3565b611da1565b82525050565b6000611dce8285611dab565b602082019150611dde8284611dab565b6020820191508190509392505050565b7f4e487b7100000000000000000000000000000000000000000000000000000000600052603260045260246000fd5b6000611e28826113db565b91507fffffffffffffffffffffffffffffffffffffffffffffffffffffffffffffffff821415611e5b57611e5a611b77565b5b600182019050919050565b611e6f81611c90565b611e7981846113c6565b9250611e8482611ca6565b8060005b83811015611ebc57611e9982611d08565b611ea387826113f4565b9650611eae83611d1b565b925050600181019050611e88565b505050505050565b6000606082019050611ed96000830184611e66565b92915050565b611ee8816113bb565b611ef28184611c9b565b9250611efd826113d1565b8060005b83811015611f2e578151611f158782611cbf565b9650611f208361140c565b925050600181019050611f01565b505050505050565b6000611f428284611edf565b60608201915081905092915050565b7f547275737465642070617274792063616e277420626574000000000000000000600082015250565b6000611f87601783611a68565b9150611f9282611f51565b602082019050919050565b60006020820190508181036000830152611fb681611f7a565b9050919050565b7f426574732061726520636c6f7365640000000000000000000000000000000000600082015250565b6000611ff3600f83611a68565b9150611ffe82611fbd565b602082019050919050565b6000602082019050818103600083015261202281611fe6565b9050919050565b7f426574206d757374206265203120617661780000000000000000000000000000600082015250565b600061205f601283611a68565b915061206a82612029565b602082019050919050565b6000602082019050818103600083015261208e81612052565b9050919050565b7f45616368206e756d626572206d75737420626520756e69717565000000000000600082015250565b60006120cb601a83611a68565b91506120d682612095565b602082019050919050565b600060208201905081810360008301526120fa816120be565b9050919050565b7f4e756d6265722031206d757374206265206265747765656e203020616e64203960008201527f3900000000000000000000000000000000000000000000000000000000000000602082015250565b600061215d602183611a68565b915061216882612101565b604082019050919050565b6000602082019050818103600083015261218c81612150565b9050919050565b7f4e756d6265722032206d757374206265206265747765656e203020616e64203960008201527f3900000000000000000000000000000000000000000000000000000000000000602082015250565b60006121ef602183611a68565b91506121fa82612193565b604082019050919050565b6000602082019050818103600083015261221e816121e2565b9050919050565b7f4e756d6265722033206d757374206265206265747765656e203020616e64203960008201527f3900000000000000000000000000000000000000000000000000000000000000602082015250565b6000612281602183611a68565b915061228c82612225565b604082019050919050565b600060208201905081810360008301526122b081612274565b905091905056fea2646970667358221220ed1148d59e8fb1167876ace77b2bb29b443f3debfd6a8c42276d9294705c61d564736f6c634300080a0033",
  "linkReferences": {},
  "deployedLinkReferences": {}
}