{
  "_format": "hh-sol-artifact-1",
  "contractName": "LottoMockWinner",
  "sourceName": "contracts/LottoMockWinner.sol",
  "abi": [
    {
      "inputs": [
        {
          "internalType": "address",
          "name": "_treasury",
          "type": "address"
        },
        {
          "internalType": "address",
          "name": "_gamitAuth",
          "type": "address"
        },
        {
          "internalType": "address",
          "name": "_gamebitInfra",
          "type": "address"
        },
        {
          "internalType": "address",
          "name": "_trustedParty",
          "type": "address"
        },
        {
          "internalType": "uint256",
          "name": "_ticketValue",
          "type": "uint256"
        },
        {
          "internalType": "uint256",
          "name": "_drawDaysInterval",
          "type": "uint256"
        }
      ],
      "stateMutability": "nonpayable",
      "type": "constructor"
    },
    {
      "anonymous": false,
      "inputs": [
        {
          "indexed": false,
          "internalType": "uint256[3]",
          "name": "numbers",
          "type": "uint256[3]"
        }
      ],
      "name": "Draw",
      "type": "event"
    },
    {
      "anonymous": false,
      "inputs": [
        {
          "indexed": false,
          "internalType": "string",
          "name": "",
          "type": "string"
        }
      ],
      "name": "RngReceived",
      "type": "event"
    },
    {
      "anonymous": false,
      "inputs": [
        {
          "indexed": false,
          "internalType": "uint256",
          "name": "",
          "type": "uint256"
        }
      ],
      "name": "RngRequested",
      "type": "event"
    },
    {
      "anonymous": false,
      "inputs": [
        {
          "indexed": false,
          "internalType": "uint256",
          "name": "jackpot",
          "type": "uint256"
        }
      ],
      "name": "jackpotUpdated",
      "type": "event"
    },
    {
      "inputs": [
        {
          "internalType": "uint256[][]",
          "name": "_bets",
          "type": "uint256[][]"
        }
      ],
      "name": "bet",
      "outputs": [],
      "stateMutability": "payable",
      "type": "function"
    },
    {
      "inputs": [
        {
          "internalType": "uint256[3]",
          "name": "_numbers",
          "type": "uint256[3]"
        }
      ],
      "name": "getAmountOfBetForNumbers",
      "outputs": [
        {
          "internalType": "uint256",
          "name": "",
          "type": "uint256"
        }
      ],
      "stateMutability": "view",
      "type": "function"
    },
    {
      "inputs": [],
      "name": "getBets",
      "outputs": [
        {
          "internalType": "uint256[][]",
          "name": "",
          "type": "uint256[][]"
        }
      ],
      "stateMutability": "view",
      "type": "function"
    },
    {
      "inputs": [],
      "name": "getCurrentJackpot",
      "outputs": [
        {
          "internalType": "uint256",
          "name": "",
          "type": "uint256"
        }
      ],
      "stateMutability": "view",
      "type": "function"
    },
    {
      "inputs": [],
      "name": "getLastDrawNumbers",
      "outputs": [
        {
          "internalType": "uint256[3]",
          "name": "",
          "type": "uint256[3]"
        }
      ],
      "stateMutability": "view",
      "type": "function"
    },
    {
      "inputs": [],
      "name": "getNextDrawTime",
      "outputs": [
        {
          "internalType": "uint256",
          "name": "",
          "type": "uint256"
        }
      ],
      "stateMutability": "view",
      "type": "function"
    },
    {
      "inputs": [],
      "name": "getTicketPrice",
      "outputs": [
        {
          "internalType": "uint256",
          "name": "",
          "type": "uint256"
        }
      ],
      "stateMutability": "view",
      "type": "function"
    },
    {
      "inputs": [
        {
          "internalType": "uint256",
          "name": "_requestId",
          "type": "uint256"
        },
        {
          "internalType": "uint256",
          "name": "_rng",
          "type": "uint256"
        },
        {
          "internalType": "uint256",
          "name": "_provenance",
          "type": "uint256"
        }
      ],
      "name": "validateRng",
      "outputs": [],
      "stateMutability": "nonpayable",
      "type": "function"
    },
    {
      "inputs": [],
      "name": "weeklyDraw",
      "outputs": [],
      "stateMutability": "nonpayable",
      "type": "function"
    }
  ],
  "bytecode": "0x6080604052600060045560006009556000600b60006101000a81548160ff0219169083151502179055506000600b60016101000a81548160ff021916908315150217905550600067ffffffffffffffff811115620000625762000061620002db565b5b604051908082528060200260200182016040528015620000915781602001602082028036833780820191505090505b50600f9080519060200190620000a99291906200026a565b50348015620000b757600080fd5b50604051620029f9380380620029f98339818101604052810190620000dd9190620003af565b858585858585858585826000806101000a81548173ffffffffffffffffffffffffffffffffffffffff021916908373ffffffffffffffffffffffffffffffffffffffff16021790555082600360006101000a81548173ffffffffffffffffffffffffffffffffffffffff021916908373ffffffffffffffffffffffffffffffffffffffff16021790555081600160006101000a81548173ffffffffffffffffffffffffffffffffffffffff021916908373ffffffffffffffffffffffffffffffffffffffff16021790555080600260006101000a81548173ffffffffffffffffffffffffffffffffffffffff021916908373ffffffffffffffffffffffffffffffffffffffff16021790555050505082600660006101000a81548173ffffffffffffffffffffffffffffffffffffffff021916908373ffffffffffffffffffffffffffffffffffffffff1602179055508160088190555062015180816200024591906200047a565b42620002529190620004db565b600a8190555050505050505050505050505062000538565b828054828255906000526020600020908101928215620002a9579160200282015b82811115620002a85782518255916020019190600101906200028b565b5b509050620002b89190620002bc565b5090565b5b80821115620002d7576000816000905550600101620002bd565b5090565b7f4e487b7100000000000000000000000000000000000000000000000000000000600052604160045260246000fd5b600080fd5b600073ffffffffffffffffffffffffffffffffffffffff82169050919050565b60006200033c826200030f565b9050919050565b6200034e816200032f565b81146200035a57600080fd5b50565b6000815190506200036e8162000343565b92915050565b6000819050919050565b620003898162000374565b81146200039557600080fd5b50565b600081519050620003a9816200037e565b92915050565b60008060008060008060c08789031215620003cf57620003ce6200030a565b5b6000620003df89828a016200035d565b9650506020620003f289828a016200035d565b95505060406200040589828a016200035d565b94505060606200041889828a016200035d565b93505060806200042b89828a0162000398565b92505060a06200043e89828a0162000398565b9150509295509295509295565b7f4e487b7100000000000000000000000000000000000000000000000000000000600052601160045260246000fd5b6000620004878262000374565b9150620004948362000374565b9250817fffffffffffffffffffffffffffffffffffffffffffffffffffffffffffffffff0483118215151615620004d057620004cf6200044b565b5b828202905092915050565b6000620004e88262000374565b9150620004f58362000374565b9250827fffffffffffffffffffffffffffffffffffffffffffffffffffffffffffffffff038211156200052d576200052c6200044b565b5b828201905092915050565b6124b180620005486000396000f3fe6080604052600436106100865760003560e01c80639a58bfee116100595780639a58bfee146101215780639f57d16e1461013d578063a6afd5fd14610168578063be8b48d014610193578063ecfea5d5146101d057610086565b8063087d0e0b1461008b5780635fedd0ab146100b657806363bba9b7146100df57806387bb7ae0146100f6575b600080fd5b34801561009757600080fd5b506100a06101fb565b6040516100ad919061143d565b60405180910390f35b3480156100c257600080fd5b506100dd60048036038101906100d89190611498565b610265565b005b3480156100eb57600080fd5b506100f46104ba565b005b34801561010257600080fd5b5061010b610611565b60405161011891906114fa565b60405180910390f35b61013b6004803603810190610136919061174f565b61061b565b005b34801561014957600080fd5b50610152610c5d565b60405161015f91906114fa565b60405180910390f35b34801561017457600080fd5b5061017d610c67565b60405161018a91906118f1565b60405180910390f35b34801561019f57600080fd5b506101ba60048036038101906101b591906119c4565b610d43565b6040516101c791906114fa565b60405180910390f35b3480156101dc57600080fd5b506101e5610d8c565b6040516101f291906114fa565b60405180910390f35b6102036112bc565b600e600060016009546102169190611a20565b815260200190815260200160002060038060200260405190810160405280929190826003801561025b576020028201915b815481526020019060010190808311610247575b5050505050905090565b600160009054906101000a900473ffffffffffffffffffffffffffffffffffffffff1673ffffffffffffffffffffffffffffffffffffffff166352c6ed30336040518263ffffffff1660e01b81526004016102c09190611a95565b602060405180830381865afa1580156102dd573d6000803e3d6000fd5b505050506040513d601f19601f820116820180604052508101906103019190611ae8565b610340576040517f08c379a000000000000000000000000000000000000000000000000000000000815260040161033790611b98565b60405180910390fd5b6005600084815260200190815260200160002060009054906101000a900460ff166103a0576040517f08c379a000000000000000000000000000000000000000000000000000000000815260040161039790611c04565b60405180910390fd5b600260009054906101000a900473ffffffffffffffffffffffffffffffffffffffff1673ffffffffffffffffffffffffffffffffffffffff16637138360584836040518363ffffffff1660e01b81526004016103fd929190611c24565b6020604051808303816000875af115801561041c573d6000803e3d6000fd5b505050506040513d601f19601f820116820180604052508101906104409190611ae8565b61047f576040517f08c379a000000000000000000000000000000000000000000000000000000000815260040161047690611c99565b60405180910390fd5b60006005600085815260200190815260200160002060006101000a81548160ff0219169083151502179055506104b58284610d96565b505050565b600160009054906101000a900473ffffffffffffffffffffffffffffffffffffffff1673ffffffffffffffffffffffffffffffffffffffff16637acc2901336040518263ffffffff1660e01b81526004016105159190611a95565b602060405180830381865afa158015610532573d6000803e3d6000fd5b505050506040513d601f19601f820116820180604052508101906105569190611ae8565b610595576040517f08c379a000000000000000000000000000000000000000000000000000000000815260040161058c90611d2b565b60405180910390fd5b60001515600b60009054906101000a900460ff161515146105eb576040517f08c379a00000000000000000000000000000000000000000000000000000000081526004016105e290611dbd565b60405180910390fd5b6001600b60006101000a81548160ff02191690831515021790555061060e610fc4565b50565b6000600854905090565b600660009054906101000a900473ffffffffffffffffffffffffffffffffffffffff1673ffffffffffffffffffffffffffffffffffffffff163373ffffffffffffffffffffffffffffffffffffffff1614156106ac576040517f08c379a00000000000000000000000000000000000000000000000000000000081526004016106a390611e29565b60405180910390fd5b600b60009054906101000a900460ff16156106fc576040517f08c379a00000000000000000000000000000000000000000000000000000000081526004016106f390611e95565b60405180910390fd5b60085481513461070c9190611ee4565b1461074c576040517f08c379a000000000000000000000000000000000000000000000000000000000815260040161074390611f61565b60405180910390fd5b60005b81518110156109f757600382828151811061076d5761076c611f81565b5b602002602001015151146107b6576040517f08c379a00000000000000000000000000000000000000000000000000000000081526004016107ad90611ffc565b60405180910390fd5b60648282815181106107cb576107ca611f81565b5b60200260200101516000815181106107e6576107e5611f81565b5b60200260200101511080156108315750600082828151811061080b5761080a611f81565b5b602002602001015160008151811061082657610825611f81565b5b602002602001015110155b610870576040517f08c379a00000000000000000000000000000000000000000000000000000000081526004016108679061208e565b60405180910390fd5b606482828151811061088557610884611f81565b5b60200260200101516001815181106108a05761089f611f81565b5b60200260200101511080156108eb575060008282815181106108c5576108c4611f81565b5b60200260200101516001815181106108e0576108df611f81565b5b602002602001015110155b61092a576040517f08c379a000000000000000000000000000000000000000000000000000000000815260040161092190612120565b60405180910390fd5b606482828151811061093f5761093e611f81565b5b602002602001015160028151811061095a57610959611f81565b5b60200260200101511080156109a55750600082828151811061097f5761097e611f81565b5b602002602001015160028151811061099a57610999611f81565b5b602002602001015110155b6109e4576040517f08c379a00000000000000000000000000000000000000000000000000000000081526004016109db906121b2565b60405180910390fd5b80806109ef906121d2565b91505061074f565b50600066b1a2bc2ec500008251610a0e919061221b565b90508034610a1c9190611a20565b60076000828254610a2d9190612275565b92505081905550610a498134610a439190611a20565b82611111565b5060005b8251811015610c1f57600f838281518110610a6b57610a6a611f81565b5b6020026020010151604051602001610a83919061235b565b6040516020818303038152906040528051906020012060001c9080600181540180825580915050600190039060005260206000200160009091909190915055600d60003373ffffffffffffffffffffffffffffffffffffffff1673ffffffffffffffffffffffffffffffffffffffff168152602001908152602001600020838281518110610b1457610b13611f81565b5b6020026020010151908060018154018082558091505060019003906000526020600020016000909190919091509080519060200190610b549291906112de565b50600c6000848381518110610b6c57610b6b611f81565b5b6020026020010151604051602001610b84919061235b565b6040516020818303038152906040528051906020012060001c8152602001908152602001600020339080600181540180825580915050600190039060005260206000200160009091909190916101000a81548173ffffffffffffffffffffffffffffffffffffffff021916908373ffffffffffffffffffffffffffffffffffffffff1602179055508080610c17906121d2565b915050610a4d565b507ff9fcd8fad7415931becd04274f2d3e36e2c4a8ccea67edf7a151ac8c2ce93e53600754604051610c5191906114fa565b60405180910390a15050565b6000600754905090565b6060600d60003373ffffffffffffffffffffffffffffffffffffffff1673ffffffffffffffffffffffffffffffffffffffff168152602001908152602001600020805480602002602001604051908101604052809291908181526020016000905b82821015610d3a57838290600052602060002001805480602002602001604051908101604052809291908181526020018280548015610d2657602002820191906000526020600020905b815481526020019060010190808311610d12575b505050505081526020019060010190610cc8565b50505050905090565b6000600c600083604051602001610d5a91906123d4565b6040516020818303038152906040528051906020012060001c8152602001908152602001600020805490509050919050565b6000600a54905090565b6000610da06111d5565b905080600e60006009548152602001908152602001600020906003610dc692919061132b565b5060096000815480929190610dda906121d2565b91905055507f782d7ce763b28c71c4396c26548d32590c3a1f9649900b813dad7d691fead90181604051610e0e919061143d565b60405180910390a16000600c600083604051602001610e2d91906123d4565b6040516020818303038152906040528051906020012060001c81526020019081526020016000208054905011600b60016101000a81548160ff021916908315150217905550600b60019054906101000a900460ff1615610f8f576000600c600083604051602001610e9e91906123d4565b6040516020818303038152906040528051906020012060001c8152602001908152602001600020805490509050600081600754610edb9190611ee4565b905060005b82811015610f83576000600c600086604051602001610eff91906123d4565b6040516020818303038152906040528051906020012060001c81526020019081526020016000208281548110610f3857610f37611f81565b5b9060005260206000200160009054906101000a900473ffffffffffffffffffffffffffffffffffffffff169050610f6f8382611200565b508080610f7b906121d2565b915050610ee0565b50600060078190555050505b6000600b60006101000a81548160ff02191690831515021790555062093a8043610fb99190612275565b600a81905550505050565b60008060009054906101000a900473ffffffffffffffffffffffffffffffffffffffff1673ffffffffffffffffffffffffffffffffffffffff16635685a8bd6040518163ffffffff1660e01b8152600401600060405180830381600087803b15801561102f57600080fd5b505af1158015611043573d6000803e3d6000fd5b505050506000600260009054906101000a900473ffffffffffffffffffffffffffffffffffffffff1673ffffffffffffffffffffffffffffffffffffffff166379663e496040518163ffffffff1660e01b81526004016020604051808303816000875af11580156110b8573d6000803e3d6000fd5b505050506040513d601f19601f820116820180604052508101906110dc9190612404565b905060016005600083815260200190815260200160002060006101000a81548160ff0219169083151502179055508091505090565b600082600460008282546111259190612275565b9250508190555060008054906101000a900473ffffffffffffffffffffffffffffffffffffffff1673ffffffffffffffffffffffffffffffffffffffff1663072e536b84846040518363ffffffff1660e01b8152600401611187929190611c24565b6020604051808303816000875af11580156111a6573d6000803e3d6000fd5b505050506040513d601f19601f820116820180604052508101906111ca9190611ae8565b506001905092915050565b6111dd6112bc565b604051806060016040528060018152602001600281526020016003815250905090565b81600460008282546112129190611a20565b9250508190555060008054906101000a900473ffffffffffffffffffffffffffffffffffffffff1673ffffffffffffffffffffffffffffffffffffffff166316f5de9983836040518363ffffffff1660e01b8152600401611274929190612452565b6020604051808303816000875af1158015611293573d6000803e3d6000fd5b505050506040513d601f19601f820116820180604052508101906112b79190611ae8565b505050565b6040518060600160405280600390602082028036833780820191505090505090565b82805482825590600052602060002090810192821561131a579160200282015b828111156113195782518255916020019190600101906112fe565b5b509050611327919061136b565b5090565b826003810192821561135a579160200282015b8281111561135957825182559160200191906001019061133e565b5b509050611367919061136b565b5090565b5b8082111561138457600081600090555060010161136c565b5090565b600060039050919050565b600081905092915050565b6000819050919050565b6000819050919050565b6113bb816113a8565b82525050565b60006113cd83836113b2565b60208301905092915050565b6000602082019050919050565b6113ef81611388565b6113f98184611393565b92506114048261139e565b8060005b8381101561143557815161141c87826113c1565b9650611427836113d9565b925050600181019050611408565b505050505050565b600060608201905061145260008301846113e6565b92915050565b6000604051905090565b600080fd5b600080fd5b611475816113a8565b811461148057600080fd5b50565b6000813590506114928161146c565b92915050565b6000806000606084860312156114b1576114b0611462565b5b60006114bf86828701611483565b93505060206114d086828701611483565b92505060406114e186828701611483565b9150509250925092565b6114f4816113a8565b82525050565b600060208201905061150f60008301846114eb565b92915050565b600080fd5b6000601f19601f8301169050919050565b7f4e487b7100000000000000000000000000000000000000000000000000000000600052604160045260246000fd5b6115638261151a565b810181811067ffffffffffffffff821117156115825761158161152b565b5b80604052505050565b6000611595611458565b90506115a1828261155a565b919050565b600067ffffffffffffffff8211156115c1576115c061152b565b5b602082029050602081019050919050565b600080fd5b600067ffffffffffffffff8211156115f2576115f161152b565b5b602082029050602081019050919050565b6000611616611611846115d7565b61158b565b90508083825260208201905060208402830185811115611639576116386115d2565b5b835b81811015611662578061164e8882611483565b84526020840193505060208101905061163b565b5050509392505050565b600082601f83011261168157611680611515565b5b8135611691848260208601611603565b91505092915050565b60006116ad6116a8846115a6565b61158b565b905080838252602082019050602084028301858111156116d0576116cf6115d2565b5b835b8181101561171757803567ffffffffffffffff8111156116f5576116f4611515565b5b808601611702898261166c565b855260208501945050506020810190506116d2565b5050509392505050565b600082601f83011261173657611735611515565b5b813561174684826020860161169a565b91505092915050565b60006020828403121561176557611764611462565b5b600082013567ffffffffffffffff81111561178357611782611467565b5b61178f84828501611721565b91505092915050565b600081519050919050565b600082825260208201905092915050565b6000819050602082019050919050565b600081519050919050565b600082825260208201905092915050565b6000819050602082019050919050565b6000602082019050919050565b6000611808826117c4565b61181281856117cf565b935061181d836117e0565b8060005b8381101561184e57815161183588826113c1565b9750611840836117f0565b925050600181019050611821565b5085935050505092915050565b600061186783836117fd565b905092915050565b6000602082019050919050565b600061188782611798565b61189181856117a3565b9350836020820285016118a3856117b4565b8060005b858110156118df57848403895281516118c0858261185b565b94506118cb8361186f565b925060208a019950506001810190506118a7565b50829750879550505050505092915050565b6000602082019050818103600083015261190b818461187c565b905092915050565b600067ffffffffffffffff82111561192e5761192d61152b565b5b602082029050919050565b600061194c61194784611913565b61158b565b90508060208402830185811115611966576119656115d2565b5b835b8181101561198f578061197b8882611483565b845260208401935050602081019050611968565b5050509392505050565b600082601f8301126119ae576119ad611515565b5b60036119bb848285611939565b91505092915050565b6000606082840312156119da576119d9611462565b5b60006119e884828501611999565b91505092915050565b7f4e487b7100000000000000000000000000000000000000000000000000000000600052601160045260246000fd5b6000611a2b826113a8565b9150611a36836113a8565b925082821015611a4957611a486119f1565b5b828203905092915050565b600073ffffffffffffffffffffffffffffffffffffffff82169050919050565b6000611a7f82611a54565b9050919050565b611a8f81611a74565b82525050565b6000602082019050611aaa6000830184611a86565b92915050565b60008115159050919050565b611ac581611ab0565b8114611ad057600080fd5b50565b600081519050611ae281611abc565b92915050565b600060208284031215611afe57611afd611462565b5b6000611b0c84828501611ad3565b91505092915050565b600082825260208201905092915050565b7f4f6e6c79206f6666696369616c20696e6672612063616e2063616c6c2074686960008201527f732066756e6374696f6e00000000000000000000000000000000000000000000602082015250565b6000611b82602a83611b15565b9150611b8d82611b26565b604082019050919050565b60006020820190508181036000830152611bb181611b75565b9050919050565b7f496e76616c696420726571756573742049440000000000000000000000000000600082015250565b6000611bee601283611b15565b9150611bf982611bb8565b602082019050919050565b60006020820190508181036000830152611c1d81611be1565b9050919050565b6000604082019050611c3960008301856114eb565b611c4660208301846114eb565b9392505050565b7f496e76616c696420636f6d6d6974000000000000000000000000000000000000600082015250565b6000611c83600e83611b15565b9150611c8e82611c4d565b602082019050919050565b60006020820190508181036000830152611cb281611c76565b9050919050565b7f4f6e6c79206f6666696369616c207374616666206f7220676f7665726e616e6360008201527f652063616e2063616c6c20746869732066756e6374696f6e0000000000000000602082015250565b6000611d15603883611b15565b9150611d2082611cb9565b604082019050919050565b60006020820190508181036000830152611d4481611d08565b9050919050565b7f43616e206f6e6c79207069636b2061206472617720696620626574732061726560008201527f206f70656e000000000000000000000000000000000000000000000000000000602082015250565b6000611da7602583611b15565b9150611db282611d4b565b604082019050919050565b60006020820190508181036000830152611dd681611d9a565b9050919050565b7f547275737465642070617274792063616e277420626574000000000000000000600082015250565b6000611e13601783611b15565b9150611e1e82611ddd565b602082019050919050565b60006020820190508181036000830152611e4281611e06565b9050919050565b7f426574732061726520636c6f7365640000000000000000000000000000000000600082015250565b6000611e7f600f83611b15565b9150611e8a82611e49565b602082019050919050565b60006020820190508181036000830152611eae81611e72565b9050919050565b7f4e487b7100000000000000000000000000000000000000000000000000000000600052601260045260246000fd5b6000611eef826113a8565b9150611efa836113a8565b925082611f0a57611f09611eb5565b5b828204905092915050565b7f426574206e6f74207468652072696768742076616c7565206176617800000000600082015250565b6000611f4b601c83611b15565b9150611f5682611f15565b602082019050919050565b60006020820190508181036000830152611f7a81611f3e565b9050919050565b7f4e487b7100000000000000000000000000000000000000000000000000000000600052603260045260246000fd5b7f4561636820626574206d75737420686176652033206e756d6265727300000000600082015250565b6000611fe6601c83611b15565b9150611ff182611fb0565b602082019050919050565b6000602082019050818103600083015261201581611fd9565b9050919050565b7f4e756d6265722031206d757374206265206265747765656e203020616e64203960008201527f3900000000000000000000000000000000000000000000000000000000000000602082015250565b6000612078602183611b15565b91506120838261201c565b604082019050919050565b600060208201905081810360008301526120a78161206b565b9050919050565b7f4e756d6265722032206d757374206265206265747765656e203020616e64203960008201527f3900000000000000000000000000000000000000000000000000000000000000602082015250565b600061210a602183611b15565b9150612115826120ae565b604082019050919050565b60006020820190508181036000830152612139816120fd565b9050919050565b7f4e756d6265722033206d757374206265206265747765656e203020616e64203960008201527f3900000000000000000000000000000000000000000000000000000000000000602082015250565b600061219c602183611b15565b91506121a782612140565b604082019050919050565b600060208201905081810360008301526121cb8161218f565b9050919050565b60006121dd826113a8565b91507fffffffffffffffffffffffffffffffffffffffffffffffffffffffffffffffff8214156122105761220f6119f1565b5b600182019050919050565b6000612226826113a8565b9150612231836113a8565b9250817fffffffffffffffffffffffffffffffffffffffffffffffffffffffffffffffff048311821515161561226a576122696119f1565b5b828202905092915050565b6000612280826113a8565b915061228b836113a8565b9250827fffffffffffffffffffffffffffffffffffffffffffffffffffffffffffffffff038211156122c0576122bf6119f1565b5b828201905092915050565b600081905092915050565b6122df816113a8565b82525050565b60006122f183836122d6565b60208301905092915050565b6000612308826117c4565b61231281856122cb565b935061231d836117e0565b8060005b8381101561234e57815161233588826122e5565b9750612340836117f0565b925050600181019050612321565b5085935050505092915050565b600061236782846122fd565b915081905092915050565b600081905092915050565b61238681611388565b6123908184612372565b925061239b8261139e565b8060005b838110156123cc5781516123b387826122e5565b96506123be836113d9565b92505060018101905061239f565b505050505050565b60006123e0828461237d565b60608201915081905092915050565b6000815190506123fe8161146c565b92915050565b60006020828403121561241a57612419611462565b5b6000612428848285016123ef565b91505092915050565b600061243c82611a54565b9050919050565b61244c81612431565b82525050565b600060408201905061246760008301856114eb565b6124746020830184612443565b939250505056fea26469706673582212201358c8dfba462899262460151fb17fadd9fec723a07d780b9d6203a57d78b36f64736f6c634300080a0033",
  "linkReferences": {},
  "deployedLinkReferences": {}
}