{
  "_format": "hh-sol-artifact-1",
  "contractName": "GamebitTreasury",
  "sourceName": "contracts/Treasury.sol",
  "abi": [
    {
      "inputs": [
        {
          "internalType": "address",
          "name": "_gamebitAuthorizations",
          "type": "address"
        },
        {
          "internalType": "uint256",
          "name": "_rngFee",
          "type": "uint256"
        }
      ],
      "stateMutability": "nonpayable",
      "type": "constructor"
    },
    {
      "anonymous": false,
      "inputs": [
        {
          "indexed": false,
          "internalType": "address",
          "name": "_game",
          "type": "address"
        },
        {
          "indexed": false,
          "internalType": "uint256",
          "name": "_amount",
          "type": "uint256"
        }
      ],
      "name": "GameBalanceChanged",
      "type": "event"
    },
    {
      "anonymous": false,
      "inputs": [
        {
          "indexed": false,
          "internalType": "address",
          "name": "_game",
          "type": "address"
        },
        {
          "indexed": false,
          "internalType": "uint256",
          "name": "_amount",
          "type": "uint256"
        }
      ],
      "name": "GameFundsReceived",
      "type": "event"
    },
    {
      "anonymous": false,
      "inputs": [
        {
          "indexed": false,
          "internalType": "enum GamebitTreasury.ProfitType",
          "name": "_type",
          "type": "uint8"
        },
        {
          "indexed": false,
          "internalType": "uint256",
          "name": "_amount",
          "type": "uint256"
        },
        {
          "indexed": false,
          "internalType": "address",
          "name": "_game",
          "type": "address"
        }
      ],
      "name": "ProfitTaken",
      "type": "event"
    },
    {
      "inputs": [
        {
          "internalType": "uint256",
          "name": "_amount",
          "type": "uint256"
        },
        {
          "internalType": "uint256",
          "name": "_profits",
          "type": "uint256"
        }
      ],
      "name": "acceptPlay",
      "outputs": [],
      "stateMutability": "payable",
      "type": "function"
    },
    {
      "inputs": [
        {
          "internalType": "uint256",
          "name": "_winning",
          "type": "uint256"
        },
        {
          "internalType": "address payable",
          "name": "_winner",
          "type": "address"
        }
      ],
      "name": "distributePlayWinnings",
      "outputs": [],
      "stateMutability": "nonpayable",
      "type": "function"
    },
    {
      "inputs": [],
      "name": "getFunds",
      "outputs": [
        {
          "internalType": "uint256",
          "name": "",
          "type": "uint256"
        }
      ],
      "stateMutability": "view",
      "type": "function"
    },
    {
      "inputs": [
        {
          "internalType": "uint256",
          "name": "_amount",
          "type": "uint256"
        },
        {
          "internalType": "address payable",
          "name": "_sendTo",
          "type": "address"
        }
      ],
      "name": "pay",
      "outputs": [
        {
          "internalType": "bool",
          "name": "",
          "type": "bool"
        }
      ],
      "stateMutability": "nonpayable",
      "type": "function"
    },
    {
      "inputs": [
        {
          "internalType": "uint256",
          "name": "_winning",
          "type": "uint256"
        },
        {
          "internalType": "uint256",
          "name": "_profits",
          "type": "uint256"
        },
        {
          "internalType": "address payable",
          "name": "_winner",
          "type": "address"
        }
      ],
      "name": "payGameSessionWinnings",
      "outputs": [],
      "stateMutability": "payable",
      "type": "function"
    },
    {
      "inputs": [
        {
          "internalType": "address",
          "name": "_game",
          "type": "address"
        }
      ],
      "name": "receiveOraclePayment",
      "outputs": [],
      "stateMutability": "payable",
      "type": "function"
    },
    {
      "inputs": [],
      "name": "receiveRngPayment",
      "outputs": [],
      "stateMutability": "payable",
      "type": "function"
    },
    {
      "inputs": [
        {
          "internalType": "uint256",
          "name": "_bet",
          "type": "uint256"
        }
      ],
      "name": "takeGameSessionBet",
      "outputs": [],
      "stateMutability": "payable",
      "type": "function"
    }
  ],
  "bytecode": "0x60806040523480156200001157600080fd5b5060405162001c4838038062001c4883398181016040528101906200003791906200012c565b8060008190555081600260006101000a81548173ffffffffffffffffffffffffffffffffffffffff021916908373ffffffffffffffffffffffffffffffffffffffff160217905550505062000173565b600080fd5b600073ffffffffffffffffffffffffffffffffffffffff82169050919050565b6000620000b9826200008c565b9050919050565b620000cb81620000ac565b8114620000d757600080fd5b50565b600081519050620000eb81620000c0565b92915050565b6000819050919050565b6200010681620000f1565b81146200011257600080fd5b50565b6000815190506200012681620000fb565b92915050565b6000806040838503121562000146576200014562000087565b5b60006200015685828601620000da565b9250506020620001698582860162000115565b9150509250929050565b611ac580620001836000396000f3fe60806040526004361061007b5760003560e01c806331cbf5e31161004e57806331cbf5e3146100fd5780634d9b37351461013a5780635685a8bd14610165578063b9ab67aa1461016f5761007b565b8063072e536b146100805780631589279b1461009c57806316f5de99146100b85780631b6daed0146100e1575b600080fd5b61009a600480360381019061009591906111fe565b61018b565b005b6100b660048036038101906100b1919061129c565b610514565b005b3480156100c457600080fd5b506100df60048036038101906100da91906112ef565b61098a565b005b6100fb60048036038101906100f6919061132f565b610c65565b005b34801561010957600080fd5b50610124600480360381019061011f91906112ef565b610eb9565b6040516101319190611377565b60405180910390f35b34801561014657600080fd5b5061014f61102a565b60405161015c91906113a1565b60405180910390f35b61016d611032565b005b610189600480360381019061018491906113fa565b611167565b005b600260009054906101000a900473ffffffffffffffffffffffffffffffffffffffff1673ffffffffffffffffffffffffffffffffffffffff16634d0ba48f336040518263ffffffff1660e01b81526004016101e69190611436565b602060405180830381865afa158015610203573d6000803e3d6000fd5b505050506040513d601f19601f82011682018060405250810190610227919061147d565b610266576040517f08c379a000000000000000000000000000000000000000000000000000000000815260040161025d9061152d565b60405180910390fd5b600260009054906101000a900473ffffffffffffffffffffffffffffffffffffffff1673ffffffffffffffffffffffffffffffffffffffff1663087103f3336040518263ffffffff1660e01b81526004016102c19190611436565b602060405180830381865afa1580156102de573d6000803e3d6000fd5b505050506040513d601f19601f82011682018060405250810190610302919061147d565b610341576040517f08c379a0000000000000000000000000000000000000000000000000000000008152600401610338906115bf565b60405180910390fd5b81600260009054906101000a900473ffffffffffffffffffffffffffffffffffffffff1673ffffffffffffffffffffffffffffffffffffffff1663aff5745533836040518363ffffffff1660e01b815260040161039f9291906115df565b602060405180830381865afa1580156103bc573d6000803e3d6000fd5b505050506040513d601f19601f820116820180604052508101906103e0919061147d565b61041f576040517f08c379a00000000000000000000000000000000000000000000000000000000081526004016104169061167a565b60405180910390fd5b8280341015610463576040517f08c379a000000000000000000000000000000000000000000000000000000000815260040161045a906116e6565b60405180910390fd5b82600160008282546104759190611735565b9250508190555083600460003373ffffffffffffffffffffffffffffffffffffffff1673ffffffffffffffffffffffffffffffffffffffff16815260200190815260200160002060008282546104cb9190611735565b925050819055507f716cd1e45a7c2eef2f53a58de65d38f596c9e79815b8f1abaca2006b81841c016003843360405161050693929190611802565b60405180910390a150505050565b600260009054906101000a900473ffffffffffffffffffffffffffffffffffffffff1673ffffffffffffffffffffffffffffffffffffffff1663cb5b7e06336040518263ffffffff1660e01b815260040161056f9190611436565b602060405180830381865afa15801561058c573d6000803e3d6000fd5b505050506040513d601f19601f820116820180604052508101906105b0919061147d565b6105ef576040517f08c379a00000000000000000000000000000000000000000000000000000000081526004016105e6906118ab565b60405180910390fd5b600260009054906101000a900473ffffffffffffffffffffffffffffffffffffffff1673ffffffffffffffffffffffffffffffffffffffff1663087103f3336040518263ffffffff1660e01b815260040161064a9190611436565b602060405180830381865afa158015610667573d6000803e3d6000fd5b505050506040513d601f19601f8201168201806040525081019061068b919061147d565b6106ca576040517f08c379a00000000000000000000000000000000000000000000000000000000081526004016106c1906115bf565b60405180910390fd5b81836106d69190611735565b80600460003373ffffffffffffffffffffffffffffffffffffffff1673ffffffffffffffffffffffffffffffffffffffff168152602001908152602001600020541015610758576040517f08c379a000000000000000000000000000000000000000000000000000000000815260040161074f9061193d565b60405180910390fd5b82600260009054906101000a900473ffffffffffffffffffffffffffffffffffffffff1673ffffffffffffffffffffffffffffffffffffffff1663aff5745533836040518363ffffffff1660e01b81526004016107b69291906115df565b602060405180830381865afa1580156107d3573d6000803e3d6000fd5b505050506040513d601f19601f820116820180604052508101906107f7919061147d565b610836576040517f08c379a000000000000000000000000000000000000000000000000000000000815260040161082d9061167a565b60405180910390fd5b83856108429190611735565b80341015610885576040517f08c379a000000000000000000000000000000000000000000000000000000000815260040161087c906116e6565b60405180910390fd5b84600160008282546108979190611735565b925050819055508373ffffffffffffffffffffffffffffffffffffffff166108fc879081150290604051600060405180830381858888f193505050501580156108e4573d6000803e3d6000fd5b5084866108f19190611735565b600460003373ffffffffffffffffffffffffffffffffffffffff1673ffffffffffffffffffffffffffffffffffffffff168152602001908152602001600020600082825461093f919061195d565b925050819055507f716cd1e45a7c2eef2f53a58de65d38f596c9e79815b8f1abaca2006b81841c016002863360405161097a93929190611802565b60405180910390a1505050505050565b600260009054906101000a900473ffffffffffffffffffffffffffffffffffffffff1673ffffffffffffffffffffffffffffffffffffffff16634d0ba48f336040518263ffffffff1660e01b81526004016109e59190611436565b602060405180830381865afa158015610a02573d6000803e3d6000fd5b505050506040513d601f19601f82011682018060405250810190610a26919061147d565b610a65576040517f08c379a0000000000000000000000000000000000000000000000000000000008152600401610a5c9061152d565b60405180910390fd5b600260009054906101000a900473ffffffffffffffffffffffffffffffffffffffff1673ffffffffffffffffffffffffffffffffffffffff1663087103f3336040518263ffffffff1660e01b8152600401610ac09190611436565b602060405180830381865afa158015610add573d6000803e3d6000fd5b505050506040513d601f19601f82011682018060405250810190610b01919061147d565b610b40576040517f08c379a0000000000000000000000000000000000000000000000000000000008152600401610b37906115bf565b60405180910390fd5b8180600460003373ffffffffffffffffffffffffffffffffffffffff1673ffffffffffffffffffffffffffffffffffffffff168152602001908152602001600020541015610bc3576040517f08c379a0000000000000000000000000000000000000000000000000000000008152600401610bba9061193d565b60405180910390fd5b8173ffffffffffffffffffffffffffffffffffffffff166108fc849081150290604051600060405180830381858888f19350505050158015610c09573d6000803e3d6000fd5b5082600460003373ffffffffffffffffffffffffffffffffffffffff1673ffffffffffffffffffffffffffffffffffffffff1681526020019081526020016000206000828254610c59919061195d565b92505081905550505050565b600260009054906101000a900473ffffffffffffffffffffffffffffffffffffffff1673ffffffffffffffffffffffffffffffffffffffff1663cb5b7e06336040518263ffffffff1660e01b8152600401610cc09190611436565b602060405180830381865afa158015610cdd573d6000803e3d6000fd5b505050506040513d601f19601f82011682018060405250810190610d01919061147d565b610d40576040517f08c379a0000000000000000000000000000000000000000000000000000000008152600401610d37906118ab565b60405180910390fd5b600260009054906101000a900473ffffffffffffffffffffffffffffffffffffffff1673ffffffffffffffffffffffffffffffffffffffff1663087103f3336040518263ffffffff1660e01b8152600401610d9b9190611436565b602060405180830381865afa158015610db8573d6000803e3d6000fd5b505050506040513d601f19601f82011682018060405250810190610ddc919061147d565b610e1b576040517f08c379a0000000000000000000000000000000000000000000000000000000008152600401610e12906115bf565b60405180910390fd5b8080341015610e5f576040517f08c379a0000000000000000000000000000000000000000000000000000000008152600401610e56906116e6565b60405180910390fd5b81600460003373ffffffffffffffffffffffffffffffffffffffff1673ffffffffffffffffffffffffffffffffffffffff1681526020019081526020016000206000828254610eae9190611735565b925050819055505050565b6000600260009054906101000a900473ffffffffffffffffffffffffffffffffffffffff1673ffffffffffffffffffffffffffffffffffffffff16637acc2901336040518263ffffffff1660e01b8152600401610f169190611436565b602060405180830381865afa158015610f33573d6000803e3d6000fd5b505050506040513d601f19601f82011682018060405250810190610f57919061147d565b610f96576040517f08c379a0000000000000000000000000000000000000000000000000000000008152600401610f8d90611a03565b60405180910390fd5b60008311610fd9576040517f08c379a0000000000000000000000000000000000000000000000000000000008152600401610fd090611a6f565b60405180910390fd5b8173ffffffffffffffffffffffffffffffffffffffff166108fc849081150290604051600060405180830381858888f1935050505015801561101f573d6000803e3d6000fd5b506001905092915050565b600047905090565b600260009054906101000a900473ffffffffffffffffffffffffffffffffffffffff1673ffffffffffffffffffffffffffffffffffffffff1663087103f3336040518263ffffffff1660e01b815260040161108d9190611436565b602060405180830381865afa1580156110aa573d6000803e3d6000fd5b505050506040513d601f19601f820116820180604052508101906110ce919061147d565b61110d576040517f08c379a0000000000000000000000000000000000000000000000000000000008152600401611104906115bf565b60405180910390fd5b600054600160008282546111219190611735565b925050819055507f716cd1e45a7c2eef2f53a58de65d38f596c9e79815b8f1abaca2006b81841c01600080543360405161115d93929190611802565b60405180910390a1565b6000546001600082825461117b9190611735565b925050819055507f716cd1e45a7c2eef2f53a58de65d38f596c9e79815b8f1abaca2006b81841c016001600054836040516111b893929190611802565b60405180910390a150565b600080fd5b6000819050919050565b6111db816111c8565b81146111e657600080fd5b50565b6000813590506111f8816111d2565b92915050565b60008060408385031215611215576112146111c3565b5b6000611223858286016111e9565b9250506020611234858286016111e9565b9150509250929050565b600073ffffffffffffffffffffffffffffffffffffffff82169050919050565b60006112698261123e565b9050919050565b6112798161125e565b811461128457600080fd5b50565b60008135905061129681611270565b92915050565b6000806000606084860312156112b5576112b46111c3565b5b60006112c3868287016111e9565b93505060206112d4868287016111e9565b92505060406112e586828701611287565b9150509250925092565b60008060408385031215611306576113056111c3565b5b6000611314858286016111e9565b925050602061132585828601611287565b9150509250929050565b600060208284031215611345576113446111c3565b5b6000611353848285016111e9565b91505092915050565b60008115159050919050565b6113718161135c565b82525050565b600060208201905061138c6000830184611368565b92915050565b61139b816111c8565b82525050565b60006020820190506113b66000830184611392565b92915050565b60006113c78261123e565b9050919050565b6113d7816113bc565b81146113e257600080fd5b50565b6000813590506113f4816113ce565b92915050565b6000602082840312156114105761140f6111c3565b5b600061141e848285016113e5565b91505092915050565b611430816113bc565b82525050565b600060208201905061144b6000830184611427565b92915050565b61145a8161135c565b811461146557600080fd5b50565b60008151905061147781611451565b92915050565b600060208284031215611493576114926111c3565b5b60006114a184828501611468565b91505092915050565b600082825260208201905092915050565b7f5468697320636f6e7472616374206973206e6f7420617574686f72697a65642060008201527f746f2061636365707420706c6179730000000000000000000000000000000000602082015250565b6000611517602f836114aa565b9150611522826114bb565b604082019050919050565b600060208201905081810360008301526115468161150a565b9050919050565b7f4f6e6c792047616d6562697420617070726f76656420636f6e7472616374206360008201527f616e20757365207468697320616374696f6e0000000000000000000000000000602082015250565b60006115a96032836114aa565b91506115b48261154d565b604082019050919050565b600060208201905081810360008301526115d88161159c565b9050919050565b60006040820190506115f46000830185611427565b6116016020830184611392565b9392505050565b7f546869732070726f66697420646f6573206e6f74206d6565742074686520746860008201527f726573686f6c64206167726565642075706f6e00000000000000000000000000602082015250565b60006116646033836114aa565b915061166f82611608565b604082019050919050565b6000602082019050818103600083015261169381611657565b9050919050565b7f4e6f7420656e6f7567682066756e647300000000000000000000000000000000600082015250565b60006116d06010836114aa565b91506116db8261169a565b602082019050919050565b600060208201905081810360008301526116ff816116c3565b9050919050565b7f4e487b7100000000000000000000000000000000000000000000000000000000600052601160045260246000fd5b6000611740826111c8565b915061174b836111c8565b9250827fffffffffffffffffffffffffffffffffffffffffffffffffffffffffffffffff038211156117805761177f611706565b5b828201905092915050565b7f4e487b7100000000000000000000000000000000000000000000000000000000600052602160045260246000fd5b600581106117cb576117ca61178b565b5b50565b60008190506117dc826117ba565b919050565b60006117ec826117ce565b9050919050565b6117fc816117e1565b82525050565b600060608201905061181760008301866117f3565b6118246020830185611392565b6118316040830184611427565b949350505050565b7f5468697320636f6e7472616374206973206e6f7420617574686f72697a65642060008201527f746f2073746172742067616d652073657373696f6e7300000000000000000000602082015250565b60006118956036836114aa565b91506118a082611839565b604082019050919050565b600060208201905081810360008301526118c481611888565b9050919050565b7f546869732067616d6520646f6573206e6f74206861766520656e6f756768206660008201527f756e647300000000000000000000000000000000000000000000000000000000602082015250565b60006119276024836114aa565b9150611932826118cb565b604082019050919050565b600060208201905081810360008301526119568161191a565b9050919050565b6000611968826111c8565b9150611973836111c8565b92508282101561198657611985611706565b5b828203905092915050565b7f4f6e6c79207374616666206f7220676f7665726e616e63652063616e2075736560008201527f207468697320616374696f6e0000000000000000000000000000000000000000602082015250565b60006119ed602c836114aa565b91506119f882611991565b604082019050919050565b60006020820190508181036000830152611a1c816119e0565b9050919050565b7f616d6f756e74206d757374206265206f76657220300000000000000000000000600082015250565b6000611a596015836114aa565b9150611a6482611a23565b602082019050919050565b60006020820190508181036000830152611a8881611a4c565b905091905056fea2646970667358221220317068057c78011bf7aca8ff32bf9be00b8163127bbdd9899681b2fe4ee4d77364736f6c634300080a0033",
  "linkReferences": {},
  "deployedLinkReferences": {}
}