{
  "_format": "hh-sol-artifact-1",
  "contractName": "GamebitTreasury",
  "sourceName": "contracts/Treasury.sol",
  "abi": [
    {
      "inputs": [
        {
          "internalType": "address",
          "name": "_gamebitAuthorizations",
          "type": "address"
        },
        {
          "internalType": "uint256",
          "name": "_rngFee",
          "type": "uint256"
        }
      ],
      "stateMutability": "nonpayable",
      "type": "constructor"
    },
    {
      "anonymous": false,
      "inputs": [
        {
          "indexed": false,
          "internalType": "address",
          "name": "_game",
          "type": "address"
        },
        {
          "indexed": false,
          "internalType": "uint256",
          "name": "_amount",
          "type": "uint256"
        }
      ],
      "name": "GameBalanceChanged",
      "type": "event"
    },
    {
      "anonymous": false,
      "inputs": [
        {
          "indexed": false,
          "internalType": "address",
          "name": "_game",
          "type": "address"
        },
        {
          "indexed": false,
          "internalType": "uint256",
          "name": "_amount",
          "type": "uint256"
        }
      ],
      "name": "GameFundsReceived",
      "type": "event"
    },
    {
      "anonymous": false,
      "inputs": [
        {
          "indexed": false,
          "internalType": "enum GamebitTreasury.ProfitType",
          "name": "_type",
          "type": "uint8"
        },
        {
          "indexed": false,
          "internalType": "uint256",
          "name": "_amount",
          "type": "uint256"
        },
        {
          "indexed": false,
          "internalType": "address",
          "name": "_game",
          "type": "address"
        }
      ],
      "name": "ProfitTaken",
      "type": "event"
    },
    {
      "inputs": [
        {
          "internalType": "uint256",
          "name": "_amount",
          "type": "uint256"
        },
        {
          "internalType": "uint256",
          "name": "_profits",
          "type": "uint256"
        }
      ],
      "name": "acceptPlay",
      "outputs": [
        {
          "internalType": "bool",
          "name": "",
          "type": "bool"
        }
      ],
      "stateMutability": "payable",
      "type": "function"
    },
    {
      "inputs": [
        {
          "internalType": "uint256",
          "name": "_winning",
          "type": "uint256"
        },
        {
          "internalType": "address payable",
          "name": "_winner",
          "type": "address"
        }
      ],
      "name": "distributePlayWinnings",
      "outputs": [],
      "stateMutability": "nonpayable",
      "type": "function"
    },
    {
      "inputs": [],
      "name": "getFunds",
      "outputs": [
        {
          "internalType": "uint256",
          "name": "",
          "type": "uint256"
        }
      ],
      "stateMutability": "view",
      "type": "function"
    },
    {
      "inputs": [
        {
          "internalType": "uint256",
          "name": "_amount",
          "type": "uint256"
        },
        {
          "internalType": "address payable",
          "name": "_sendTo",
          "type": "address"
        }
      ],
      "name": "pay",
      "outputs": [
        {
          "internalType": "bool",
          "name": "",
          "type": "bool"
        }
      ],
      "stateMutability": "nonpayable",
      "type": "function"
    },
    {
      "inputs": [
        {
          "internalType": "uint256",
          "name": "_winning",
          "type": "uint256"
        },
        {
          "internalType": "uint256",
          "name": "_profits",
          "type": "uint256"
        },
        {
          "internalType": "address payable",
          "name": "_winner",
          "type": "address"
        }
      ],
      "name": "payGameSessionWinnings",
      "outputs": [],
      "stateMutability": "payable",
      "type": "function"
    },
    {
      "inputs": [
        {
          "internalType": "address",
          "name": "_game",
          "type": "address"
        }
      ],
      "name": "receiveOraclePayment",
      "outputs": [],
      "stateMutability": "payable",
      "type": "function"
    },
    {
      "inputs": [],
      "name": "receiveRngPayment",
      "outputs": [],
      "stateMutability": "payable",
      "type": "function"
    },
    {
      "inputs": [
        {
          "internalType": "uint256",
          "name": "_bet",
          "type": "uint256"
        }
      ],
      "name": "takeGameSessionBet",
      "outputs": [],
      "stateMutability": "payable",
      "type": "function"
    }
  ],
  "bytecode": "0x60806040523480156200001157600080fd5b5060405162001d1c38038062001d1c83398181016040528101906200003791906200012c565b8060008190555081600260006101000a81548173ffffffffffffffffffffffffffffffffffffffff021916908373ffffffffffffffffffffffffffffffffffffffff160217905550505062000173565b600080fd5b600073ffffffffffffffffffffffffffffffffffffffff82169050919050565b6000620000b9826200008c565b9050919050565b620000cb81620000ac565b8114620000d757600080fd5b50565b600081519050620000eb81620000c0565b92915050565b6000819050919050565b6200010681620000f1565b81146200011257600080fd5b50565b6000815190506200012681620000fb565b92915050565b6000806040838503121562000146576200014562000087565b5b60006200015685828601620000da565b9250506020620001698582860162000115565b9150509250929050565b611b9980620001836000396000f3fe60806040526004361061007b5760003560e01c806331cbf5e31161004e57806331cbf5e3146101115780634d9b37351461014e5780635685a8bd14610179578063b9ab67aa146101835761007b565b8063072e536b146100805780631589279b146100b057806316f5de99146100cc5780631b6daed0146100f5575b600080fd5b61009a600480360381019061009591906112d2565b61019f565b6040516100a7919061132d565b60405180910390f35b6100ca60048036038101906100c591906113a6565b61053a565b005b3480156100d857600080fd5b506100f360048036038101906100ee91906113f9565b6109af565b005b61010f600480360381019061010a9190611439565b610c8a565b005b34801561011d57600080fd5b50610138600480360381019061013391906113f9565b610edd565b604051610145919061132d565b60405180910390f35b34801561015a57600080fd5b5061016361104e565b6040516101709190611475565b60405180910390f35b610181611056565b005b61019d600480360381019061019891906114ce565b6111e3565b005b6000600260009054906101000a900473ffffffffffffffffffffffffffffffffffffffff1673ffffffffffffffffffffffffffffffffffffffff16634d0ba48f336040518263ffffffff1660e01b81526004016101fc919061150a565b602060405180830381865afa158015610219573d6000803e3d6000fd5b505050506040513d601f19601f8201168201806040525081019061023d9190611551565b61027c576040517f08c379a000000000000000000000000000000000000000000000000000000000815260040161027390611601565b60405180910390fd5b600260009054906101000a900473ffffffffffffffffffffffffffffffffffffffff1673ffffffffffffffffffffffffffffffffffffffff166307979736336040518263ffffffff1660e01b81526004016102d7919061150a565b602060405180830381865afa1580156102f4573d6000803e3d6000fd5b505050506040513d601f19601f820116820180604052508101906103189190611551565b610357576040517f08c379a000000000000000000000000000000000000000000000000000000000815260040161034e90611693565b60405180910390fd5b82600260009054906101000a900473ffffffffffffffffffffffffffffffffffffffff1673ffffffffffffffffffffffffffffffffffffffff1663aff5745533836040518363ffffffff1660e01b81526004016103b59291906116b3565b602060405180830381865afa1580156103d2573d6000803e3d6000fd5b505050506040513d601f19601f820116820180604052508101906103f69190611551565b610435576040517f08c379a000000000000000000000000000000000000000000000000000000000815260040161042c9061174e565b60405180910390fd5b8284610441919061179d565b803410610483576040517f08c379a000000000000000000000000000000000000000000000000000000000815260040161047a9061183f565b60405180910390fd5b8360016000828254610495919061179d565b9250508190555084600460003373ffffffffffffffffffffffffffffffffffffffff1673ffffffffffffffffffffffffffffffffffffffff16815260200190815260200160002060008282546104eb919061179d565b925050819055507f716cd1e45a7c2eef2f53a58de65d38f596c9e79815b8f1abaca2006b81841c0160038533604051610526939291906118d6565b60405180910390a160019250505092915050565b600260009054906101000a900473ffffffffffffffffffffffffffffffffffffffff1673ffffffffffffffffffffffffffffffffffffffff1663cb5b7e06336040518263ffffffff1660e01b8152600401610595919061150a565b602060405180830381865afa1580156105b2573d6000803e3d6000fd5b505050506040513d601f19601f820116820180604052508101906105d69190611551565b610615576040517f08c379a000000000000000000000000000000000000000000000000000000000815260040161060c9061197f565b60405180910390fd5b600260009054906101000a900473ffffffffffffffffffffffffffffffffffffffff1673ffffffffffffffffffffffffffffffffffffffff166307979736336040518263ffffffff1660e01b8152600401610670919061150a565b602060405180830381865afa15801561068d573d6000803e3d6000fd5b505050506040513d601f19601f820116820180604052508101906106b19190611551565b6106f0576040517f08c379a00000000000000000000000000000000000000000000000000000000081526004016106e790611693565b60405180910390fd5b81836106fc919061179d565b80600460003373ffffffffffffffffffffffffffffffffffffffff1673ffffffffffffffffffffffffffffffffffffffff16815260200190815260200160002054101561077e576040517f08c379a000000000000000000000000000000000000000000000000000000000815260040161077590611a11565b60405180910390fd5b82600260009054906101000a900473ffffffffffffffffffffffffffffffffffffffff1673ffffffffffffffffffffffffffffffffffffffff1663aff5745533836040518363ffffffff1660e01b81526004016107dc9291906116b3565b602060405180830381865afa1580156107f9573d6000803e3d6000fd5b505050506040513d601f19601f8201168201806040525081019061081d9190611551565b61085c576040517f08c379a00000000000000000000000000000000000000000000000000000000081526004016108539061174e565b60405180910390fd5b8385610868919061179d565b8034106108aa576040517f08c379a00000000000000000000000000000000000000000000000000000000081526004016108a19061183f565b60405180910390fd5b84600160008282546108bc919061179d565b925050819055508373ffffffffffffffffffffffffffffffffffffffff166108fc879081150290604051600060405180830381858888f19350505050158015610909573d6000803e3d6000fd5b508486610916919061179d565b600460003373ffffffffffffffffffffffffffffffffffffffff1673ffffffffffffffffffffffffffffffffffffffff16815260200190815260200160002060008282546109649190611a31565b925050819055507f716cd1e45a7c2eef2f53a58de65d38f596c9e79815b8f1abaca2006b81841c016002863360405161099f939291906118d6565b60405180910390a1505050505050565b600260009054906101000a900473ffffffffffffffffffffffffffffffffffffffff1673ffffffffffffffffffffffffffffffffffffffff16634d0ba48f336040518263ffffffff1660e01b8152600401610a0a919061150a565b602060405180830381865afa158015610a27573d6000803e3d6000fd5b505050506040513d601f19601f82011682018060405250810190610a4b9190611551565b610a8a576040517f08c379a0000000000000000000000000000000000000000000000000000000008152600401610a8190611601565b60405180910390fd5b600260009054906101000a900473ffffffffffffffffffffffffffffffffffffffff1673ffffffffffffffffffffffffffffffffffffffff166307979736336040518263ffffffff1660e01b8152600401610ae5919061150a565b602060405180830381865afa158015610b02573d6000803e3d6000fd5b505050506040513d601f19601f82011682018060405250810190610b269190611551565b610b65576040517f08c379a0000000000000000000000000000000000000000000000000000000008152600401610b5c90611693565b60405180910390fd5b8180600460003373ffffffffffffffffffffffffffffffffffffffff1673ffffffffffffffffffffffffffffffffffffffff168152602001908152602001600020541015610be8576040517f08c379a0000000000000000000000000000000000000000000000000000000008152600401610bdf90611a11565b60405180910390fd5b8173ffffffffffffffffffffffffffffffffffffffff166108fc849081150290604051600060405180830381858888f19350505050158015610c2e573d6000803e3d6000fd5b5082600460003373ffffffffffffffffffffffffffffffffffffffff1673ffffffffffffffffffffffffffffffffffffffff1681526020019081526020016000206000828254610c7e9190611a31565b92505081905550505050565b600260009054906101000a900473ffffffffffffffffffffffffffffffffffffffff1673ffffffffffffffffffffffffffffffffffffffff1663cb5b7e06336040518263ffffffff1660e01b8152600401610ce5919061150a565b602060405180830381865afa158015610d02573d6000803e3d6000fd5b505050506040513d601f19601f82011682018060405250810190610d269190611551565b610d65576040517f08c379a0000000000000000000000000000000000000000000000000000000008152600401610d5c9061197f565b60405180910390fd5b600260009054906101000a900473ffffffffffffffffffffffffffffffffffffffff1673ffffffffffffffffffffffffffffffffffffffff166307979736336040518263ffffffff1660e01b8152600401610dc0919061150a565b602060405180830381865afa158015610ddd573d6000803e3d6000fd5b505050506040513d601f19601f82011682018060405250810190610e019190611551565b610e40576040517f08c379a0000000000000000000000000000000000000000000000000000000008152600401610e3790611693565b60405180910390fd5b80803410610e83576040517f08c379a0000000000000000000000000000000000000000000000000000000008152600401610e7a9061183f565b60405180910390fd5b81600460003373ffffffffffffffffffffffffffffffffffffffff1673ffffffffffffffffffffffffffffffffffffffff1681526020019081526020016000206000828254610ed2919061179d565b925050819055505050565b6000600260009054906101000a900473ffffffffffffffffffffffffffffffffffffffff1673ffffffffffffffffffffffffffffffffffffffff16637acc2901336040518263ffffffff1660e01b8152600401610f3a919061150a565b602060405180830381865afa158015610f57573d6000803e3d6000fd5b505050506040513d601f19601f82011682018060405250810190610f7b9190611551565b610fba576040517f08c379a0000000000000000000000000000000000000000000000000000000008152600401610fb190611ad7565b60405180910390fd5b60008311610ffd576040517f08c379a0000000000000000000000000000000000000000000000000000000008152600401610ff490611b43565b60405180910390fd5b8173ffffffffffffffffffffffffffffffffffffffff166108fc849081150290604051600060405180830381858888f19350505050158015611043573d6000803e3d6000fd5b506001905092915050565b600047905090565b600260009054906101000a900473ffffffffffffffffffffffffffffffffffffffff1673ffffffffffffffffffffffffffffffffffffffff166307979736336040518263ffffffff1660e01b81526004016110b1919061150a565b602060405180830381865afa1580156110ce573d6000803e3d6000fd5b505050506040513d601f19601f820116820180604052508101906110f29190611551565b611131576040517f08c379a000000000000000000000000000000000000000000000000000000000815260040161112890611693565b60405180910390fd5b60005460016000828254611145919061179d565b92505081905550600054600460003373ffffffffffffffffffffffffffffffffffffffff1673ffffffffffffffffffffffffffffffffffffffff168152602001908152602001600020600082825461119d9190611a31565b925050819055507f716cd1e45a7c2eef2f53a58de65d38f596c9e79815b8f1abaca2006b81841c0160008054336040516111d9939291906118d6565b60405180910390a1565b600054600160008282546111f7919061179d565b92505081905550600054600460003373ffffffffffffffffffffffffffffffffffffffff1673ffffffffffffffffffffffffffffffffffffffff168152602001908152602001600020600082825461124f9190611a31565b925050819055507f716cd1e45a7c2eef2f53a58de65d38f596c9e79815b8f1abaca2006b81841c0160016000548360405161128c939291906118d6565b60405180910390a150565b600080fd5b6000819050919050565b6112af8161129c565b81146112ba57600080fd5b50565b6000813590506112cc816112a6565b92915050565b600080604083850312156112e9576112e8611297565b5b60006112f7858286016112bd565b9250506020611308858286016112bd565b9150509250929050565b60008115159050919050565b61132781611312565b82525050565b6000602082019050611342600083018461131e565b92915050565b600073ffffffffffffffffffffffffffffffffffffffff82169050919050565b600061137382611348565b9050919050565b61138381611368565b811461138e57600080fd5b50565b6000813590506113a08161137a565b92915050565b6000806000606084860312156113bf576113be611297565b5b60006113cd868287016112bd565b93505060206113de868287016112bd565b92505060406113ef86828701611391565b9150509250925092565b600080604083850312156114105761140f611297565b5b600061141e858286016112bd565b925050602061142f85828601611391565b9150509250929050565b60006020828403121561144f5761144e611297565b5b600061145d848285016112bd565b91505092915050565b61146f8161129c565b82525050565b600060208201905061148a6000830184611466565b92915050565b600061149b82611348565b9050919050565b6114ab81611490565b81146114b657600080fd5b50565b6000813590506114c8816114a2565b92915050565b6000602082840312156114e4576114e3611297565b5b60006114f2848285016114b9565b91505092915050565b61150481611490565b82525050565b600060208201905061151f60008301846114fb565b92915050565b61152e81611312565b811461153957600080fd5b50565b60008151905061154b81611525565b92915050565b60006020828403121561156757611566611297565b5b60006115758482850161153c565b91505092915050565b600082825260208201905092915050565b7f5468697320636f6e7472616374206973206e6f7420617574686f72697a65642060008201527f746f2061636365707420706c6179730000000000000000000000000000000000602082015250565b60006115eb602f8361157e565b91506115f68261158f565b604082019050919050565b6000602082019050818103600083015261161a816115de565b9050919050565b7f4f6e6c792047616d6562697420617070726f76656420636f6e7472616374206360008201527f616e20757365207468697320616374696f6e0000000000000000000000000000602082015250565b600061167d60328361157e565b915061168882611621565b604082019050919050565b600060208201905081810360008301526116ac81611670565b9050919050565b60006040820190506116c860008301856114fb565b6116d56020830184611466565b9392505050565b7f546869732070726f66697420646f6573206e6f74206d6565742074686520746860008201527f726573686f6c64206167726565642075706f6e00000000000000000000000000602082015250565b600061173860338361157e565b9150611743826116dc565b604082019050919050565b600060208201905081810360008301526117678161172b565b9050919050565b7f4e487b7100000000000000000000000000000000000000000000000000000000600052601160045260246000fd5b60006117a88261129c565b91506117b38361129c565b9250827fffffffffffffffffffffffffffffffffffffffffffffffffffffffffffffffff038211156117e8576117e761176e565b5b828201905092915050565b7f4e6f7420656e6f7567682066756e647300000000000000000000000000000000600082015250565b600061182960108361157e565b9150611834826117f3565b602082019050919050565b600060208201905081810360008301526118588161181c565b9050919050565b7f4e487b7100000000000000000000000000000000000000000000000000000000600052602160045260246000fd5b6005811061189f5761189e61185f565b5b50565b60008190506118b08261188e565b919050565b60006118c0826118a2565b9050919050565b6118d0816118b5565b82525050565b60006060820190506118eb60008301866118c7565b6118f86020830185611466565b61190560408301846114fb565b949350505050565b7f5468697320636f6e7472616374206973206e6f7420617574686f72697a65642060008201527f746f2073746172742067616d652073657373696f6e7300000000000000000000602082015250565b600061196960368361157e565b91506119748261190d565b604082019050919050565b600060208201905081810360008301526119988161195c565b9050919050565b7f546869732067616d6520646f6573206e6f74206861766520656e6f756768206660008201527f756e647300000000000000000000000000000000000000000000000000000000602082015250565b60006119fb60248361157e565b9150611a068261199f565b604082019050919050565b60006020820190508181036000830152611a2a816119ee565b9050919050565b6000611a3c8261129c565b9150611a478361129c565b925082821015611a5a57611a5961176e565b5b828203905092915050565b7f4f6e6c79207374616666206f7220676f7665726e616e63652063616e2075736560008201527f207468697320616374696f6e0000000000000000000000000000000000000000602082015250565b6000611ac1602c8361157e565b9150611acc82611a65565b604082019050919050565b60006020820190508181036000830152611af081611ab4565b9050919050565b7f616d6f756e74206d757374206265206f76657220300000000000000000000000600082015250565b6000611b2d60158361157e565b9150611b3882611af7565b602082019050919050565b60006020820190508181036000830152611b5c81611b20565b905091905056fea26469706673582212207705cd7421dd14cdd0b99a681607314b85db7b774f2dda80445af52e9de76d7064736f6c634300080a0033",
  "linkReferences": {},
  "deployedLinkReferences": {}
}