{
  "_format": "hh-sol-artifact-1",
  "contractName": "Treasury",
  "sourceName": "contracts/Treasury.sol",
  "abi": [
    {
      "inputs": [
        {
          "internalType": "address[]",
          "name": "_cashiers",
          "type": "address[]"
        },
        {
          "internalType": "address",
          "name": "_governance",
          "type": "address"
        }
      ],
      "stateMutability": "nonpayable",
      "type": "constructor"
    },
    {
      "anonymous": false,
      "inputs": [
        {
          "indexed": false,
          "internalType": "address",
          "name": "previousAdmin",
          "type": "address"
        },
        {
          "indexed": false,
          "internalType": "address",
          "name": "newAdmin",
          "type": "address"
        }
      ],
      "name": "AdminChanged",
      "type": "event"
    },
    {
      "anonymous": false,
      "inputs": [
        {
          "indexed": true,
          "internalType": "address",
          "name": "beacon",
          "type": "address"
        }
      ],
      "name": "BeaconUpgraded",
      "type": "event"
    },
    {
      "anonymous": false,
      "inputs": [
        {
          "indexed": true,
          "internalType": "address",
          "name": "previousOwner",
          "type": "address"
        },
        {
          "indexed": true,
          "internalType": "address",
          "name": "newOwner",
          "type": "address"
        }
      ],
      "name": "OwnershipTransferred",
      "type": "event"
    },
    {
      "anonymous": false,
      "inputs": [
        {
          "indexed": true,
          "internalType": "address",
          "name": "implementation",
          "type": "address"
        }
      ],
      "name": "Upgraded",
      "type": "event"
    },
    {
      "inputs": [
        {
          "internalType": "address",
          "name": "_newCashier",
          "type": "address"
        }
      ],
      "name": "addCashier",
      "outputs": [],
      "stateMutability": "nonpayable",
      "type": "function"
    },
    {
      "inputs": [],
      "name": "approveTransfer",
      "outputs": [],
      "stateMutability": "nonpayable",
      "type": "function"
    },
    {
      "inputs": [
        {
          "internalType": "address",
          "name": "_shittyCashier",
          "type": "address"
        }
      ],
      "name": "flagCashier",
      "outputs": [],
      "stateMutability": "nonpayable",
      "type": "function"
    },
    {
      "inputs": [],
      "name": "governance",
      "outputs": [
        {
          "internalType": "address",
          "name": "",
          "type": "address"
        }
      ],
      "stateMutability": "view",
      "type": "function"
    },
    {
      "inputs": [
        {
          "internalType": "uint256",
          "name": "_amount",
          "type": "uint256"
        },
        {
          "internalType": "address payable",
          "name": "_sendTo",
          "type": "address"
        },
        {
          "internalType": "string",
          "name": "_assetType",
          "type": "string"
        }
      ],
      "name": "governanceSendAvax",
      "outputs": [
        {
          "internalType": "bool",
          "name": "",
          "type": "bool"
        }
      ],
      "stateMutability": "nonpayable",
      "type": "function"
    },
    {
      "inputs": [
        {
          "internalType": "address[]",
          "name": "_cashiers",
          "type": "address[]"
        },
        {
          "internalType": "address",
          "name": "_governance",
          "type": "address"
        }
      ],
      "name": "initialize",
      "outputs": [],
      "stateMutability": "nonpayable",
      "type": "function"
    },
    {
      "inputs": [],
      "name": "owner",
      "outputs": [
        {
          "internalType": "address",
          "name": "",
          "type": "address"
        }
      ],
      "stateMutability": "view",
      "type": "function"
    },
    {
      "inputs": [
        {
          "internalType": "uint256",
          "name": "_amount",
          "type": "uint256"
        },
        {
          "internalType": "address payable",
          "name": "_winner",
          "type": "address"
        },
        {
          "internalType": "string",
          "name": "_assetType",
          "type": "string"
        }
      ],
      "name": "payWinnings",
      "outputs": [
        {
          "internalType": "bool",
          "name": "",
          "type": "bool"
        }
      ],
      "stateMutability": "nonpayable",
      "type": "function"
    },
    {
      "inputs": [
        {
          "internalType": "uint256",
          "name": "_amount",
          "type": "uint256"
        },
        {
          "internalType": "address payable",
          "name": "_sendTo",
          "type": "address"
        }
      ],
      "name": "proposeTransfer",
      "outputs": [],
      "stateMutability": "nonpayable",
      "type": "function"
    },
    {
      "inputs": [],
      "name": "rejectTransfer",
      "outputs": [],
      "stateMutability": "nonpayable",
      "type": "function"
    },
    {
      "inputs": [],
      "name": "renounceOwnership",
      "outputs": [],
      "stateMutability": "nonpayable",
      "type": "function"
    },
    {
      "inputs": [
        {
          "internalType": "address",
          "name": "_newHouse",
          "type": "address"
        }
      ],
      "name": "setTheHouse",
      "outputs": [],
      "stateMutability": "nonpayable",
      "type": "function"
    },
    {
      "inputs": [],
      "name": "theHouse",
      "outputs": [
        {
          "internalType": "address",
          "name": "",
          "type": "address"
        }
      ],
      "stateMutability": "view",
      "type": "function"
    },
    {
      "inputs": [
        {
          "internalType": "address",
          "name": "newOwner",
          "type": "address"
        }
      ],
      "name": "transferOwnership",
      "outputs": [],
      "stateMutability": "nonpayable",
      "type": "function"
    },
    {
      "inputs": [
        {
          "internalType": "address",
          "name": "_shittyCashier",
          "type": "address"
        }
      ],
      "name": "unFlagCashier",
      "outputs": [],
      "stateMutability": "nonpayable",
      "type": "function"
    },
    {
      "inputs": [
        {
          "internalType": "address",
          "name": "newImplementation",
          "type": "address"
        }
      ],
      "name": "upgradeTo",
      "outputs": [],
      "stateMutability": "nonpayable",
      "type": "function"
    },
    {
      "inputs": [
        {
          "internalType": "address",
          "name": "newImplementation",
          "type": "address"
        },
        {
          "internalType": "bytes",
          "name": "data",
          "type": "bytes"
        }
      ],
      "name": "upgradeToAndCall",
      "outputs": [],
      "stateMutability": "payable",
      "type": "function"
    }
  ],
  "bytecode": "0x60a06040523073ffffffffffffffffffffffffffffffffffffffff1660809073ffffffffffffffffffffffffffffffffffffffff168152503480156200004457600080fd5b50604051620035463803806200354683398181016040528101906200006a9190620003ca565b600160d46040516200007c906200048b565b908152602001604051809103902060006101000a81548160ff0219169083151502179055508060ca60006101000a81548173ffffffffffffffffffffffffffffffffffffffff021916908373ffffffffffffffffffffffffffffffffffffffff1602179055503360c960006101000a81548173ffffffffffffffffffffffffffffffffffffffff021916908373ffffffffffffffffffffffffffffffffffffffff16021790555060005b8251811015620001bb57600160d060008584815181106200014c576200014b620004a2565b5b602002602001015173ffffffffffffffffffffffffffffffffffffffff1673ffffffffffffffffffffffffffffffffffffffff16815260200190815260200160002060006101000a81548160ff0219169083151502179055508080620001b2906200050a565b91505062000126565b50815160cb81905550600060cc81905550600060cd81905550505062000558565b6000604051905090565b600080fd5b600080fd5b600080fd5b6000601f19601f8301169050919050565b7f4e487b7100000000000000000000000000000000000000000000000000000000600052604160045260246000fd5b6200024082620001f5565b810181811067ffffffffffffffff8211171562000262576200026162000206565b5b80604052505050565b600062000277620001dc565b905062000285828262000235565b919050565b600067ffffffffffffffff821115620002a857620002a762000206565b5b602082029050602081019050919050565b600080fd5b600073ffffffffffffffffffffffffffffffffffffffff82169050919050565b6000620002eb82620002be565b9050919050565b620002fd81620002de565b81146200030957600080fd5b50565b6000815190506200031d81620002f2565b92915050565b60006200033a62000334846200028a565b6200026b565b9050808382526020820190506020840283018581111562000360576200035f620002b9565b5b835b818110156200038d57806200037888826200030c565b84526020840193505060208101905062000362565b5050509392505050565b600082601f830112620003af57620003ae620001f0565b5b8151620003c184826020860162000323565b91505092915050565b60008060408385031215620003e457620003e3620001e6565b5b600083015167ffffffffffffffff811115620004055762000404620001eb565b5b620004138582860162000397565b925050602062000426858286016200030c565b9150509250929050565b600081905092915050565b7f4156415800000000000000000000000000000000000000000000000000000000600082015250565b60006200047360048362000430565b915062000480826200043b565b600482019050919050565b6000620004988262000464565b9150819050919050565b7f4e487b7100000000000000000000000000000000000000000000000000000000600052603260045260246000fd5b7f4e487b7100000000000000000000000000000000000000000000000000000000600052601160045260246000fd5b6000819050919050565b6000620005178262000500565b91507fffffffffffffffffffffffffffffffffffffffffffffffffffffffffffffffff8214156200054d576200054c620004d1565b5b600182019050919050565b608051612fbd6200058960003960008181610b5f01528181610bee01528181610fcd015261105c0152612fbd6000f3fe6080604052600436106100fe5760003560e01c80635aa6e675116100955780638da5cb5b116100645780638da5cb5b146102c2578063a31c1d6e146102ed578063b75afeff1461032a578063e2cb39bf14610353578063f2fde38b1461037e576100fe565b80635aa6e6751461022e578063619c3b9914610259578063715018a61461028257806386bde3d114610299576100fe565b8063387121fa116100d1578063387121fa14610197578063462d0b2e146101c05780634f1ef286146101e95780634f73e5d514610205576100fe565b80630d71f24d146101035780632728bb911461011a5780632a8d26e8146101575780633659cfe61461016e575b600080fd5b34801561010f57600080fd5b506101186103a7565b005b34801561012657600080fd5b50610141600480360381019061013c91906120ba565b6105a0565b60405161014e9190612149565b60405180910390f35b34801561016357600080fd5b5061016c610726565b005b34801561017a57600080fd5b50610195600480360381019061019091906121a2565b610b5d565b005b3480156101a357600080fd5b506101be60048036038101906101b991906121a2565b610ce6565b005b3480156101cc57600080fd5b506101e760048036038101906101e2919061231e565b610d84565b005b61020360048036038101906101fe919061242f565b610fcb565b005b34801561021157600080fd5b5061022c600480360381019061022791906121a2565b611108565b005b34801561023a57600080fd5b506102436111bd565b604051610250919061249a565b60405180910390f35b34801561026557600080fd5b50610280600480360381019061027b91906121a2565b6111e3565b005b34801561028e57600080fd5b506102976112f0565b005b3480156102a557600080fd5b506102c060048036038101906102bb91906124b5565b611378565b005b3480156102ce57600080fd5b506102d76115dc565b6040516102e4919061249a565b60405180910390f35b3480156102f957600080fd5b50610314600480360381019061030f91906120ba565b611606565b6040516103219190612149565b60405180910390f35b34801561033657600080fd5b50610351600480360381019061034c91906121a2565b61178e565b005b34801561035f57600080fd5b50610368611843565b604051610375919061249a565b60405180910390f35b34801561038a57600080fd5b506103a560048036038101906103a091906121a2565b611869565b005b6001151560d060003373ffffffffffffffffffffffffffffffffffffffff1673ffffffffffffffffffffffffffffffffffffffff16815260200190815260200160002060009054906101000a900460ff1615151461040457600080fd5b6000151560d160003373ffffffffffffffffffffffffffffffffffffffff1673ffffffffffffffffffffffffffffffffffffffff16815260200190815260200160002060009054906101000a900460ff1615151461046157600080fd5b3373ffffffffffffffffffffffffffffffffffffffff1660d2600060cc54815260200190815260200160002060020160009054906101000a900473ffffffffffffffffffffffffffffffffffffffff1673ffffffffffffffffffffffffffffffffffffffff161415610508576040517f08c379a00000000000000000000000000000000000000000000000000000000081526004016104ff90612578565b60405180910390fd5b60d2600060cc5481526020019081526020016000206000808201600090556001820160006101000a81549073ffffffffffffffffffffffffffffffffffffffff02191690556002820160006101000a81549073ffffffffffffffffffffffffffffffffffffffff02191690556003820160006105849190611ee5565b505060cc6000815480929190610599906125c7565b9190505550565b600060ca60009054906101000a900473ffffffffffffffffffffffffffffffffffffffff1673ffffffffffffffffffffffffffffffffffffffff163373ffffffffffffffffffffffffffffffffffffffff1614610632576040517f08c379a000000000000000000000000000000000000000000000000000000000815260040161062990612682565b60405180910390fd5b60008511610675576040517f08c379a000000000000000000000000000000000000000000000000000000000815260040161066c906126ee565b60405180910390fd5b6040516020016106849061275a565b6040516020818303038152906040528051906020012083836040516020016106ad9291906127a7565b604051602081830303815290604052805190602001201415610719578373ffffffffffffffffffffffffffffffffffffffff166108fc869081150290604051600060405180830381858888f1935050505015801561070f573d6000803e3d6000fd5b506001905061071e565b600090505b949350505050565b6001151560d060003373ffffffffffffffffffffffffffffffffffffffff1673ffffffffffffffffffffffffffffffffffffffff16815260200190815260200160002060009054906101000a900460ff1615151461078357600080fd5b6000151560d160003373ffffffffffffffffffffffffffffffffffffffff1673ffffffffffffffffffffffffffffffffffffffff16815260200190815260200160002060009054906101000a900460ff161515146107e057600080fd5b3373ffffffffffffffffffffffffffffffffffffffff1660d2600060cc54815260200190815260200160002060020160009054906101000a900473ffffffffffffffffffffffffffffffffffffffff1673ffffffffffffffffffffffffffffffffffffffff161415610887576040517f08c379a000000000000000000000000000000000000000000000000000000000815260040161087e90612578565b60405180910390fd5b60005b60d2600060cc54815260200190815260200160002060030180549050811015610983573373ffffffffffffffffffffffffffffffffffffffff1660d2600060cc54815260200190815260200160002060030182815481106108ee576108ed6127cb565b5b9060005260206000200160009054906101000a900473ffffffffffffffffffffffffffffffffffffffff1673ffffffffffffffffffffffffffffffffffffffff161415610970576040517f08c379a00000000000000000000000000000000000000000000000000000000081526004016109679061286c565b60405180910390fd5b808061097b906125c7565b91505061088a565b5060d2600060cc548152602001908152602001600020600301339080600181540180825580915050600190039060005260206000200160009091909190916101000a81548173ffffffffffffffffffffffffffffffffffffffff021916908373ffffffffffffffffffffffffffffffffffffffff160217905550600260cb54610a0c91906128bb565b60d2600060cc5481526020019081526020016000206003018054905010610b5b5760d2600060cc54815260200190815260200160002060010160009054906101000a900473ffffffffffffffffffffffffffffffffffffffff1673ffffffffffffffffffffffffffffffffffffffff166108fc60d2600060cc548152602001908152602001600020600001549081150290604051600060405180830381858888f19350505050158015610ac3573d6000803e3d6000fd5b5060d2600060cc5481526020019081526020016000206000808201600090556001820160006101000a81549073ffffffffffffffffffffffffffffffffffffffff02191690556002820160006101000a81549073ffffffffffffffffffffffffffffffffffffffff0219169055600382016000610b409190611ee5565b505060cc6000815480929190610b55906125c7565b91905055505b565b7f000000000000000000000000000000000000000000000000000000000000000073ffffffffffffffffffffffffffffffffffffffff163073ffffffffffffffffffffffffffffffffffffffff161415610bec576040517f08c379a0000000000000000000000000000000000000000000000000000000008152600401610be39061295e565b60405180910390fd5b7f000000000000000000000000000000000000000000000000000000000000000073ffffffffffffffffffffffffffffffffffffffff16610c2b611961565b73ffffffffffffffffffffffffffffffffffffffff1614610c81576040517f08c379a0000000000000000000000000000000000000000000000000000000008152600401610c78906129f0565b60405180910390fd5b610c8a816119b8565b610ce381600067ffffffffffffffff811115610ca957610ca86121e0565b5b6040519080825280601f01601f191660200182016040528015610cdb5781602001600182028036833780820191505090505b5060006119bb565b50565b60c960009054906101000a900473ffffffffffffffffffffffffffffffffffffffff1673ffffffffffffffffffffffffffffffffffffffff163373ffffffffffffffffffffffffffffffffffffffff1614610d4057600080fd5b8060c960006101000a81548173ffffffffffffffffffffffffffffffffffffffff021916908373ffffffffffffffffffffffffffffffffffffffff16021790555050565b600060019054906101000a900460ff16610dac5760008054906101000a900460ff1615610db5565b610db4611b8c565b5b610df4576040517f08c379a0000000000000000000000000000000000000000000000000000000008152600401610deb90612a82565b60405180910390fd5b60008060019054906101000a900460ff161590508015610e44576001600060016101000a81548160ff02191690831515021790555060016000806101000a81548160ff0219169083151502179055505b600160d4604051610e5490612ad0565b908152602001604051809103902060006101000a81548160ff0219169083151502179055508160ca60006101000a81548173ffffffffffffffffffffffffffffffffffffffff021916908373ffffffffffffffffffffffffffffffffffffffff1602179055503360c960006101000a81548173ffffffffffffffffffffffffffffffffffffffff021916908373ffffffffffffffffffffffffffffffffffffffff16021790555060005b8351811015610f8c57600160d06000868481518110610f2057610f1f6127cb565b5b602002602001015173ffffffffffffffffffffffffffffffffffffffff1673ffffffffffffffffffffffffffffffffffffffff16815260200190815260200160002060006101000a81548160ff0219169083151502179055508080610f84906125c7565b915050610efe565b50825160cb81905550600060cc81905550600060cd819055508015610fc65760008060016101000a81548160ff0219169083151502179055505b505050565b7f000000000000000000000000000000000000000000000000000000000000000073ffffffffffffffffffffffffffffffffffffffff163073ffffffffffffffffffffffffffffffffffffffff16141561105a576040517f08c379a00000000000000000000000000000000000000000000000000000000081526004016110519061295e565b60405180910390fd5b7f000000000000000000000000000000000000000000000000000000000000000073ffffffffffffffffffffffffffffffffffffffff16611099611961565b73ffffffffffffffffffffffffffffffffffffffff16146110ef576040517f08c379a00000000000000000000000000000000000000000000000000000000081526004016110e6906129f0565b60405180910390fd5b6110f8826119b8565b611104828260016119bb565b5050565b60c960009054906101000a900473ffffffffffffffffffffffffffffffffffffffff1673ffffffffffffffffffffffffffffffffffffffff163373ffffffffffffffffffffffffffffffffffffffff161461116257600080fd5b600160d160008373ffffffffffffffffffffffffffffffffffffffff1673ffffffffffffffffffffffffffffffffffffffff16815260200190815260200160002060006101000a81548160ff02191690831515021790555050565b60ca60009054906101000a900473ffffffffffffffffffffffffffffffffffffffff1681565b60c960009054906101000a900473ffffffffffffffffffffffffffffffffffffffff1673ffffffffffffffffffffffffffffffffffffffff163373ffffffffffffffffffffffffffffffffffffffff161461123d57600080fd5b600160d060008373ffffffffffffffffffffffffffffffffffffffff1673ffffffffffffffffffffffffffffffffffffffff16815260200190815260200160002060006101000a81548160ff021916908315150217905550600060d160008373ffffffffffffffffffffffffffffffffffffffff1673ffffffffffffffffffffffffffffffffffffffff16815260200190815260200160002060006101000a81548160ff02191690831515021790555050565b6112f8611b9d565b73ffffffffffffffffffffffffffffffffffffffff166113166115dc565b73ffffffffffffffffffffffffffffffffffffffff161461136c576040517f08c379a000000000000000000000000000000000000000000000000000000000815260040161136390612b31565b60405180910390fd5b6113766000611ba5565b565b6001151560d060003373ffffffffffffffffffffffffffffffffffffffff1673ffffffffffffffffffffffffffffffffffffffff16815260200190815260200160002060009054906101000a900460ff161515146113d557600080fd5b6000151560d160003373ffffffffffffffffffffffffffffffffffffffff1673ffffffffffffffffffffffffffffffffffffffff16815260200190815260200160002060009054906101000a900460ff1615151461143257600080fd5b60008211611475576040517f08c379a000000000000000000000000000000000000000000000000000000000815260040161146c906126ee565b60405180910390fd5b60405180608001604052808381526020018273ffffffffffffffffffffffffffffffffffffffff1681526020013373ffffffffffffffffffffffffffffffffffffffff168152602001600067ffffffffffffffff8111156114d9576114d86121e0565b5b6040519080825280602002602001820160405280156115075781602001602082028036833780820191505090505b5081525060d2600060cc5481526020019081526020016000206000820151816000015560208201518160010160006101000a81548173ffffffffffffffffffffffffffffffffffffffff021916908373ffffffffffffffffffffffffffffffffffffffff16021790555060408201518160020160006101000a81548173ffffffffffffffffffffffffffffffffffffffff021916908373ffffffffffffffffffffffffffffffffffffffff16021790555060608201518160030190805190602001906115d4929190611f06565b509050505050565b6000603360009054906101000a900473ffffffffffffffffffffffffffffffffffffffff16905090565b60006001151560d560003373ffffffffffffffffffffffffffffffffffffffff1673ffffffffffffffffffffffffffffffffffffffff16815260200190815260200160002060009054906101000a900460ff1615151461169b576040517f08c379a000000000000000000000000000000000000000000000000000000000815260040161169290612bc3565b60405180910390fd5b82826001151560d483836040516116b3929190612c08565b908152602001604051809103902060009054906101000a900460ff161515146116db57600080fd5b6040516020016116ea9061275a565b6040516020818303038152906040528051906020012085856040516020016117139291906127a7565b60405160208183030381529060405280519060200120141561177f578573ffffffffffffffffffffffffffffffffffffffff166108fc889081150290604051600060405180830381858888f19350505050158015611775573d6000803e3d6000fd5b5060019250611784565b600092505b5050949350505050565b60c960009054906101000a900473ffffffffffffffffffffffffffffffffffffffff1673ffffffffffffffffffffffffffffffffffffffff163373ffffffffffffffffffffffffffffffffffffffff16146117e857600080fd5b600060d160008373ffffffffffffffffffffffffffffffffffffffff1673ffffffffffffffffffffffffffffffffffffffff16815260200190815260200160002060006101000a81548160ff02191690831515021790555050565b60c960009054906101000a900473ffffffffffffffffffffffffffffffffffffffff1681565b611871611b9d565b73ffffffffffffffffffffffffffffffffffffffff1661188f6115dc565b73ffffffffffffffffffffffffffffffffffffffff16146118e5576040517f08c379a00000000000000000000000000000000000000000000000000000000081526004016118dc90612b31565b60405180910390fd5b600073ffffffffffffffffffffffffffffffffffffffff168173ffffffffffffffffffffffffffffffffffffffff161415611955576040517f08c379a000000000000000000000000000000000000000000000000000000000815260040161194c90612c93565b60405180910390fd5b61195e81611ba5565b50565b600061198f7f360894a13ba1a3210667c828492db98dca3e2076cc3735a920a3ca505d382bbc60001b611c6b565b60000160009054906101000a900473ffffffffffffffffffffffffffffffffffffffff16905090565b50565b60006119c5611961565b90506119d084611c75565b6000835111806119dd5750815b156119ee576119ec8484611d2e565b505b6000611a1c7f4910fdfa16fed3260ed0e7147f7cc6da11a60208b5b9406d12a635614ffd914360001b611e12565b90508060000160009054906101000a900460ff16611b855760018160000160006101000a81548160ff021916908315150217905550611ae88583604051602401611a66919061249a565b6040516020818303038152906040527f3659cfe6000000000000000000000000000000000000000000000000000000007bffffffffffffffffffffffffffffffffffffffffffffffffffffffff19166020820180517bffffffffffffffffffffffffffffffffffffffffffffffffffffffff8381831617835250505050611d2e565b5060008160000160006101000a81548160ff021916908315150217905550611b0e611961565b73ffffffffffffffffffffffffffffffffffffffff168273ffffffffffffffffffffffffffffffffffffffff1614611b7b576040517f08c379a0000000000000000000000000000000000000000000000000000000008152600401611b7290612d25565b60405180910390fd5b611b8485611e1c565b5b5050505050565b6000611b9730611e6b565b15905090565b600033905090565b6000603360009054906101000a900473ffffffffffffffffffffffffffffffffffffffff16905081603360006101000a81548173ffffffffffffffffffffffffffffffffffffffff021916908373ffffffffffffffffffffffffffffffffffffffff1602179055508173ffffffffffffffffffffffffffffffffffffffff168173ffffffffffffffffffffffffffffffffffffffff167f8be0079c531659141344cd1fd0a4f28419497f9722a3daafe3b4186f6b6457e060405160405180910390a35050565b6000819050919050565b611c7e81611e6b565b611cbd576040517f08c379a0000000000000000000000000000000000000000000000000000000008152600401611cb490612db7565b60405180910390fd5b80611cea7f360894a13ba1a3210667c828492db98dca3e2076cc3735a920a3ca505d382bbc60001b611c6b565b60000160006101000a81548173ffffffffffffffffffffffffffffffffffffffff021916908373ffffffffffffffffffffffffffffffffffffffff16021790555050565b6060611d3983611e6b565b611d78576040517f08c379a0000000000000000000000000000000000000000000000000000000008152600401611d6f90612e49565b60405180910390fd5b6000808473ffffffffffffffffffffffffffffffffffffffff1684604051611da09190612ee3565b600060405180830381855af49150503d8060008114611ddb576040519150601f19603f3d011682016040523d82523d6000602084013e611de0565b606091505b5091509150611e088282604051806060016040528060278152602001612f6160279139611e7e565b9250505092915050565b6000819050919050565b611e2581611c75565b8073ffffffffffffffffffffffffffffffffffffffff167fbc7cd75a20ee27fd9adebab32041f755214dbc6bffa90cc0225b39da2e5c2d3b60405160405180910390a250565b600080823b905060008111915050919050565b60608315611e8e57829050611ede565b600083511115611ea15782518084602001fd5b816040517f08c379a0000000000000000000000000000000000000000000000000000000008152600401611ed59190612f3e565b60405180910390fd5b9392505050565b5080546000825590600052602060002090810190611f039190611f90565b50565b828054828255906000526020600020908101928215611f7f579160200282015b82811115611f7e5782518260006101000a81548173ffffffffffffffffffffffffffffffffffffffff021916908373ffffffffffffffffffffffffffffffffffffffff16021790555091602001919060010190611f26565b5b509050611f8c9190611f90565b5090565b5b80821115611fa9576000816000905550600101611f91565b5090565b6000604051905090565b600080fd5b600080fd5b6000819050919050565b611fd481611fc1565b8114611fdf57600080fd5b50565b600081359050611ff181611fcb565b92915050565b600073ffffffffffffffffffffffffffffffffffffffff82169050919050565b600061202282611ff7565b9050919050565b61203281612017565b811461203d57600080fd5b50565b60008135905061204f81612029565b92915050565b600080fd5b600080fd5b600080fd5b60008083601f84011261207a57612079612055565b5b8235905067ffffffffffffffff8111156120975761209661205a565b5b6020830191508360018202830111156120b3576120b261205f565b5b9250929050565b600080600080606085870312156120d4576120d3611fb7565b5b60006120e287828801611fe2565b94505060206120f387828801612040565b935050604085013567ffffffffffffffff81111561211457612113611fbc565b5b61212087828801612064565b925092505092959194509250565b60008115159050919050565b6121438161212e565b82525050565b600060208201905061215e600083018461213a565b92915050565b600061216f82611ff7565b9050919050565b61217f81612164565b811461218a57600080fd5b50565b60008135905061219c81612176565b92915050565b6000602082840312156121b8576121b7611fb7565b5b60006121c68482850161218d565b91505092915050565b6000601f19601f8301169050919050565b7f4e487b7100000000000000000000000000000000000000000000000000000000600052604160045260246000fd5b612218826121cf565b810181811067ffffffffffffffff82111715612237576122366121e0565b5b80604052505050565b600061224a611fad565b9050612256828261220f565b919050565b600067ffffffffffffffff821115612276576122756121e0565b5b602082029050602081019050919050565b600061229a6122958461225b565b612240565b905080838252602082019050602084028301858111156122bd576122bc61205f565b5b835b818110156122e657806122d2888261218d565b8452602084019350506020810190506122bf565b5050509392505050565b600082601f83011261230557612304612055565b5b8135612315848260208601612287565b91505092915050565b6000806040838503121561233557612334611fb7565b5b600083013567ffffffffffffffff81111561235357612352611fbc565b5b61235f858286016122f0565b92505060206123708582860161218d565b9150509250929050565b600080fd5b600067ffffffffffffffff82111561239a576123996121e0565b5b6123a3826121cf565b9050602081019050919050565b82818337600083830152505050565b60006123d26123cd8461237f565b612240565b9050828152602081018484840111156123ee576123ed61237a565b5b6123f98482856123b0565b509392505050565b600082601f83011261241657612415612055565b5b81356124268482602086016123bf565b91505092915050565b6000806040838503121561244657612445611fb7565b5b60006124548582860161218d565b925050602083013567ffffffffffffffff81111561247557612474611fbc565b5b61248185828601612401565b9150509250929050565b61249481612164565b82525050565b60006020820190506124af600083018461248b565b92915050565b600080604083850312156124cc576124cb611fb7565b5b60006124da85828601611fe2565b92505060206124eb85828601612040565b9150509250929050565b600082825260208201905092915050565b7f596f752063616e277420617070726f76652061207472616e7366657220796f7560008201527f2070726f706f7365640000000000000000000000000000000000000000000000602082015250565b60006125626029836124f5565b915061256d82612506565b604082019050919050565b6000602082019050818103600083015261259181612555565b9050919050565b7f4e487b7100000000000000000000000000000000000000000000000000000000600052601160045260246000fd5b60006125d282611fc1565b91507fffffffffffffffffffffffffffffffffffffffffffffffffffffffffffffffff82141561260557612604612598565b5b600182019050919050565b7f4f6e6c792074686520676f7665726e616e63652063616e20657865637574652060008201527f7468697320616374696f6e000000000000000000000000000000000000000000602082015250565b600061266c602b836124f5565b915061267782612610565b604082019050919050565b6000602082019050818103600083015261269b8161265f565b9050919050565b7f50726f706f73656420616d6f756e74206d757374206265206f76657220300000600082015250565b60006126d8601e836124f5565b91506126e3826126a2565b602082019050919050565b60006020820190508181036000830152612707816126cb565b9050919050565b7f4156415800000000000000000000000000000000000000000000000000000000600082015250565b60006127446004836124f5565b915061274f8261270e565b602082019050919050565b6000602082019050818103600083015261277381612737565b9050919050565b600061278683856124f5565b93506127938385846123b0565b61279c836121cf565b840190509392505050565b600060208201905081810360008301526127c281848661277a565b90509392505050565b7f4e487b7100000000000000000000000000000000000000000000000000000000600052603260045260246000fd5b7f596f75206861766520616c726561647920617070726f7665642074686973207460008201527f72616e7366657200000000000000000000000000000000000000000000000000602082015250565b60006128566027836124f5565b9150612861826127fa565b604082019050919050565b6000602082019050818103600083015261288581612849565b9050919050565b7f4e487b7100000000000000000000000000000000000000000000000000000000600052601260045260246000fd5b60006128c682611fc1565b91506128d183611fc1565b9250826128e1576128e061288c565b5b828204905092915050565b7f46756e6374696f6e206d7573742062652063616c6c6564207468726f7567682060008201527f64656c656761746563616c6c0000000000000000000000000000000000000000602082015250565b6000612948602c836124f5565b9150612953826128ec565b604082019050919050565b600060208201905081810360008301526129778161293b565b9050919050565b7f46756e6374696f6e206d7573742062652063616c6c6564207468726f7567682060008201527f6163746976652070726f78790000000000000000000000000000000000000000602082015250565b60006129da602c836124f5565b91506129e58261297e565b604082019050919050565b60006020820190508181036000830152612a09816129cd565b9050919050565b7f496e697469616c697a61626c653a20636f6e747261637420697320616c72656160008201527f647920696e697469616c697a6564000000000000000000000000000000000000602082015250565b6000612a6c602e836124f5565b9150612a7782612a10565b604082019050919050565b60006020820190508181036000830152612a9b81612a5f565b9050919050565b600081905092915050565b6000612aba600483612aa2565b9150612ac58261270e565b600482019050919050565b6000612adb82612aad565b9150819050919050565b7f4f776e61626c653a2063616c6c6572206973206e6f7420746865206f776e6572600082015250565b6000612b1b6020836124f5565b9150612b2682612ae5565b602082019050919050565b60006020820190508181036000830152612b4a81612b0e565b9050919050565b7f4f6e6c792067616d626c65666920617070726f7665642067616d65732063616e60008201527f20757365207468697320616374696f6e00000000000000000000000000000000602082015250565b6000612bad6030836124f5565b9150612bb882612b51565b604082019050919050565b60006020820190508181036000830152612bdc81612ba0565b9050919050565b6000612bef8385612aa2565b9350612bfc8385846123b0565b82840190509392505050565b6000612c15828486612be3565b91508190509392505050565b7f4f776e61626c653a206e6577206f776e657220697320746865207a65726f206160008201527f6464726573730000000000000000000000000000000000000000000000000000602082015250565b6000612c7d6026836124f5565b9150612c8882612c21565b604082019050919050565b60006020820190508181036000830152612cac81612c70565b9050919050565b7f45524331393637557067726164653a207570677261646520627265616b73206660008201527f7572746865722075706772616465730000000000000000000000000000000000602082015250565b6000612d0f602f836124f5565b9150612d1a82612cb3565b604082019050919050565b60006020820190508181036000830152612d3e81612d02565b9050919050565b7f455243313936373a206e657720696d706c656d656e746174696f6e206973206e60008201527f6f74206120636f6e747261637400000000000000000000000000000000000000602082015250565b6000612da1602d836124f5565b9150612dac82612d45565b604082019050919050565b60006020820190508181036000830152612dd081612d94565b9050919050565b7f416464726573733a2064656c65676174652063616c6c20746f206e6f6e2d636f60008201527f6e74726163740000000000000000000000000000000000000000000000000000602082015250565b6000612e336026836124f5565b9150612e3e82612dd7565b604082019050919050565b60006020820190508181036000830152612e6281612e26565b9050919050565b600081519050919050565b600081905092915050565b60005b83811015612e9d578082015181840152602081019050612e82565b83811115612eac576000848401525b50505050565b6000612ebd82612e69565b612ec78185612e74565b9350612ed7818560208601612e7f565b80840191505092915050565b6000612eef8284612eb2565b915081905092915050565b600081519050919050565b6000612f1082612efa565b612f1a81856124f5565b9350612f2a818560208601612e7f565b612f33816121cf565b840191505092915050565b60006020820190508181036000830152612f588184612f05565b90509291505056fe416464726573733a206c6f772d6c6576656c2064656c65676174652063616c6c206661696c6564a26469706673582212204d747ca96f058c1252b294c5b6026cb656cf8b2efbc103133519f6687f05462b64736f6c634300080a0033",
  "linkReferences": {},
  "deployedLinkReferences": {}
}