{
  "_format": "hh-sol-artifact-1",
  "contractName": "Treasury",
  "sourceName": "contracts/Treasury.sol",
  "abi": [
    {
      "anonymous": false,
      "inputs": [
        {
          "indexed": false,
          "internalType": "address",
          "name": "previousAdmin",
          "type": "address"
        },
        {
          "indexed": false,
          "internalType": "address",
          "name": "newAdmin",
          "type": "address"
        }
      ],
      "name": "AdminChanged",
      "type": "event"
    },
    {
      "anonymous": false,
      "inputs": [
        {
          "indexed": true,
          "internalType": "address",
          "name": "beacon",
          "type": "address"
        }
      ],
      "name": "BeaconUpgraded",
      "type": "event"
    },
    {
      "anonymous": false,
      "inputs": [
        {
          "indexed": true,
          "internalType": "address",
          "name": "previousOwner",
          "type": "address"
        },
        {
          "indexed": true,
          "internalType": "address",
          "name": "newOwner",
          "type": "address"
        }
      ],
      "name": "OwnershipTransferred",
      "type": "event"
    },
    {
      "anonymous": false,
      "inputs": [
        {
          "indexed": true,
          "internalType": "address",
          "name": "implementation",
          "type": "address"
        }
      ],
      "name": "Upgraded",
      "type": "event"
    },
    {
      "inputs": [
        {
          "internalType": "address",
          "name": "_newCashier",
          "type": "address"
        }
      ],
      "name": "addCashier",
      "outputs": [],
      "stateMutability": "nonpayable",
      "type": "function"
    },
    {
      "inputs": [],
      "name": "approveTransfer",
      "outputs": [],
      "stateMutability": "nonpayable",
      "type": "function"
    },
    {
      "inputs": [
        {
          "internalType": "address",
          "name": "_shittyCashier",
          "type": "address"
        }
      ],
      "name": "flagCashier",
      "outputs": [],
      "stateMutability": "nonpayable",
      "type": "function"
    },
    {
      "inputs": [],
      "name": "governance",
      "outputs": [
        {
          "internalType": "address",
          "name": "",
          "type": "address"
        }
      ],
      "stateMutability": "view",
      "type": "function"
    },
    {
      "inputs": [
        {
          "internalType": "uint256",
          "name": "_amount",
          "type": "uint256"
        },
        {
          "internalType": "address",
          "name": "sendTo",
          "type": "address"
        },
        {
          "internalType": "string",
          "name": "_assetType",
          "type": "string"
        }
      ],
      "name": "governanceSendAvax",
      "outputs": [],
      "stateMutability": "nonpayable",
      "type": "function"
    },
    {
      "inputs": [
        {
          "internalType": "address[]",
          "name": "_cashiers",
          "type": "address[]"
        },
        {
          "internalType": "address",
          "name": "_governance",
          "type": "address"
        }
      ],
      "name": "initialize",
      "outputs": [],
      "stateMutability": "nonpayable",
      "type": "function"
    },
    {
      "inputs": [],
      "name": "owner",
      "outputs": [
        {
          "internalType": "address",
          "name": "",
          "type": "address"
        }
      ],
      "stateMutability": "view",
      "type": "function"
    },
    {
      "inputs": [
        {
          "internalType": "uint256",
          "name": "_amount",
          "type": "uint256"
        },
        {
          "internalType": "address payable",
          "name": "_sendTo",
          "type": "address"
        }
      ],
      "name": "proposeTransfer",
      "outputs": [],
      "stateMutability": "nonpayable",
      "type": "function"
    },
    {
      "inputs": [],
      "name": "rejectTransfer",
      "outputs": [],
      "stateMutability": "nonpayable",
      "type": "function"
    },
    {
      "inputs": [],
      "name": "renounceOwnership",
      "outputs": [],
      "stateMutability": "nonpayable",
      "type": "function"
    },
    {
      "inputs": [
        {
          "internalType": "address",
          "name": "_newHouse",
          "type": "address"
        }
      ],
      "name": "setTheHouse",
      "outputs": [],
      "stateMutability": "nonpayable",
      "type": "function"
    },
    {
      "inputs": [],
      "name": "theHouse",
      "outputs": [
        {
          "internalType": "address",
          "name": "",
          "type": "address"
        }
      ],
      "stateMutability": "view",
      "type": "function"
    },
    {
      "inputs": [
        {
          "internalType": "address",
          "name": "newOwner",
          "type": "address"
        }
      ],
      "name": "transferOwnership",
      "outputs": [],
      "stateMutability": "nonpayable",
      "type": "function"
    },
    {
      "inputs": [
        {
          "internalType": "address",
          "name": "_shittyCashier",
          "type": "address"
        }
      ],
      "name": "unFlagCashier",
      "outputs": [],
      "stateMutability": "nonpayable",
      "type": "function"
    },
    {
      "inputs": [
        {
          "internalType": "address",
          "name": "newImplementation",
          "type": "address"
        }
      ],
      "name": "upgradeTo",
      "outputs": [],
      "stateMutability": "nonpayable",
      "type": "function"
    },
    {
      "inputs": [
        {
          "internalType": "address",
          "name": "newImplementation",
          "type": "address"
        },
        {
          "internalType": "bytes",
          "name": "data",
          "type": "bytes"
        }
      ],
      "name": "upgradeToAndCall",
      "outputs": [],
      "stateMutability": "payable",
      "type": "function"
    }
  ],
  "bytecode": "0x60a06040523073ffffffffffffffffffffffffffffffffffffffff1660809073ffffffffffffffffffffffffffffffffffffffff1681525034801561004357600080fd5b50608051612ca961007460003960008181610ac301528181610b5201528181610f310152610fc00152612ca96000f3fe6080604052600436106100f35760003560e01c80635aa6e6751161008a5780638da5cb5b116100595780638da5cb5b146102a3578063b75afeff146102ce578063e2cb39bf146102f7578063f2fde38b14610322576100f3565b80635aa6e6751461020f578063619c3b991461023a578063715018a61461026357806386bde3d11461027a576100f3565b8063387121fa116100c6578063387121fa14610178578063462d0b2e146101a15780634f1ef286146101ca5780634f73e5d5146101e6576100f3565b80630d71f24d146100f85780632728bb911461010f5780632a8d26e8146101385780633659cfe61461014f575b600080fd5b34801561010457600080fd5b5061010d61034b565b005b34801561011b57600080fd5b5061013660048036038101906101319190611e96565b610544565b005b34801561014457600080fd5b5061014d61068a565b005b34801561015b57600080fd5b5061017660048036038101906101719190611f0a565b610ac1565b005b34801561018457600080fd5b5061019f600480360381019061019a9190611f0a565b610c4a565b005b3480156101ad57600080fd5b506101c860048036038101906101c39190612086565b610ce8565b005b6101e460048036038101906101df9190612197565b610f2f565b005b3480156101f257600080fd5b5061020d60048036038101906102089190611f0a565b61106c565b005b34801561021b57600080fd5b50610224611121565b6040516102319190612202565b60405180910390f35b34801561024657600080fd5b50610261600480360381019061025c9190611f0a565b611147565b005b34801561026f57600080fd5b50610278611254565b005b34801561028657600080fd5b506102a1600480360381019061029c919061225b565b6112dc565b005b3480156102af57600080fd5b506102b8611540565b6040516102c59190612202565b60405180910390f35b3480156102da57600080fd5b506102f560048036038101906102f09190611f0a565b61156a565b005b34801561030357600080fd5b5061030c61161f565b6040516103199190612202565b60405180910390f35b34801561032e57600080fd5b5061034960048036038101906103449190611f0a565b611645565b005b6001151560d060003373ffffffffffffffffffffffffffffffffffffffff1673ffffffffffffffffffffffffffffffffffffffff16815260200190815260200160002060009054906101000a900460ff161515146103a857600080fd5b6000151560d160003373ffffffffffffffffffffffffffffffffffffffff1673ffffffffffffffffffffffffffffffffffffffff16815260200190815260200160002060009054906101000a900460ff1615151461040557600080fd5b3373ffffffffffffffffffffffffffffffffffffffff1660d2600060cc54815260200190815260200160002060020160009054906101000a900473ffffffffffffffffffffffffffffffffffffffff1673ffffffffffffffffffffffffffffffffffffffff1614156104ac576040517f08c379a00000000000000000000000000000000000000000000000000000000081526004016104a39061231e565b60405180910390fd5b60d2600060cc5481526020019081526020016000206000808201600090556001820160006101000a81549073ffffffffffffffffffffffffffffffffffffffff02191690556002820160006101000a81549073ffffffffffffffffffffffffffffffffffffffff02191690556003820160006105289190611cc1565b505060cc600081548092919061053d9061236d565b9190505550565b60ca60009054906101000a900473ffffffffffffffffffffffffffffffffffffffff1673ffffffffffffffffffffffffffffffffffffffff163373ffffffffffffffffffffffffffffffffffffffff16146105d4576040517f08c379a00000000000000000000000000000000000000000000000000000000081526004016105cb90612428565b60405180910390fd5b60008411610617576040517f08c379a000000000000000000000000000000000000000000000000000000000815260040161060e90612494565b60405180910390fd5b60d482826040516106299291906124e4565b908152602001604051809103902060009054906101000a900460ff16610684576040517f08c379a000000000000000000000000000000000000000000000000000000000815260040161067b90612549565b60405180910390fd5b50505050565b6001151560d060003373ffffffffffffffffffffffffffffffffffffffff1673ffffffffffffffffffffffffffffffffffffffff16815260200190815260200160002060009054906101000a900460ff161515146106e757600080fd5b6000151560d160003373ffffffffffffffffffffffffffffffffffffffff1673ffffffffffffffffffffffffffffffffffffffff16815260200190815260200160002060009054906101000a900460ff1615151461074457600080fd5b3373ffffffffffffffffffffffffffffffffffffffff1660d2600060cc54815260200190815260200160002060020160009054906101000a900473ffffffffffffffffffffffffffffffffffffffff1673ffffffffffffffffffffffffffffffffffffffff1614156107eb576040517f08c379a00000000000000000000000000000000000000000000000000000000081526004016107e29061231e565b60405180910390fd5b60005b60d2600060cc548152602001908152602001600020600301805490508110156108e7573373ffffffffffffffffffffffffffffffffffffffff1660d2600060cc548152602001908152602001600020600301828154811061085257610851612569565b5b9060005260206000200160009054906101000a900473ffffffffffffffffffffffffffffffffffffffff1673ffffffffffffffffffffffffffffffffffffffff1614156108d4576040517f08c379a00000000000000000000000000000000000000000000000000000000081526004016108cb9061260a565b60405180910390fd5b80806108df9061236d565b9150506107ee565b5060d2600060cc548152602001908152602001600020600301339080600181540180825580915050600190039060005260206000200160009091909190916101000a81548173ffffffffffffffffffffffffffffffffffffffff021916908373ffffffffffffffffffffffffffffffffffffffff160217905550600260cb546109709190612659565b60d2600060cc5481526020019081526020016000206003018054905010610abf5760d2600060cc54815260200190815260200160002060010160009054906101000a900473ffffffffffffffffffffffffffffffffffffffff1673ffffffffffffffffffffffffffffffffffffffff166108fc60d2600060cc548152602001908152602001600020600001549081150290604051600060405180830381858888f19350505050158015610a27573d6000803e3d6000fd5b5060d2600060cc5481526020019081526020016000206000808201600090556001820160006101000a81549073ffffffffffffffffffffffffffffffffffffffff02191690556002820160006101000a81549073ffffffffffffffffffffffffffffffffffffffff0219169055600382016000610aa49190611cc1565b505060cc6000815480929190610ab99061236d565b91905055505b565b7f000000000000000000000000000000000000000000000000000000000000000073ffffffffffffffffffffffffffffffffffffffff163073ffffffffffffffffffffffffffffffffffffffff161415610b50576040517f08c379a0000000000000000000000000000000000000000000000000000000008152600401610b47906126fc565b60405180910390fd5b7f000000000000000000000000000000000000000000000000000000000000000073ffffffffffffffffffffffffffffffffffffffff16610b8f61173d565b73ffffffffffffffffffffffffffffffffffffffff1614610be5576040517f08c379a0000000000000000000000000000000000000000000000000000000008152600401610bdc9061278e565b60405180910390fd5b610bee81611794565b610c4781600067ffffffffffffffff811115610c0d57610c0c611f48565b5b6040519080825280601f01601f191660200182016040528015610c3f5781602001600182028036833780820191505090505b506000611797565b50565b60c960009054906101000a900473ffffffffffffffffffffffffffffffffffffffff1673ffffffffffffffffffffffffffffffffffffffff163373ffffffffffffffffffffffffffffffffffffffff1614610ca457600080fd5b8060c960006101000a81548173ffffffffffffffffffffffffffffffffffffffff021916908373ffffffffffffffffffffffffffffffffffffffff16021790555050565b600060019054906101000a900460ff16610d105760008054906101000a900460ff1615610d19565b610d18611968565b5b610d58576040517f08c379a0000000000000000000000000000000000000000000000000000000008152600401610d4f90612820565b60405180910390fd5b60008060019054906101000a900460ff161590508015610da8576001600060016101000a81548160ff02191690831515021790555060016000806101000a81548160ff0219169083151502179055505b600160d4604051610db89061288c565b908152602001604051809103902060006101000a81548160ff0219169083151502179055508160ca60006101000a81548173ffffffffffffffffffffffffffffffffffffffff021916908373ffffffffffffffffffffffffffffffffffffffff1602179055503360c960006101000a81548173ffffffffffffffffffffffffffffffffffffffff021916908373ffffffffffffffffffffffffffffffffffffffff16021790555060005b8351811015610ef057600160d06000868481518110610e8457610e83612569565b5b602002602001015173ffffffffffffffffffffffffffffffffffffffff1673ffffffffffffffffffffffffffffffffffffffff16815260200190815260200160002060006101000a81548160ff0219169083151502179055508080610ee89061236d565b915050610e62565b50825160cb81905550600060cc81905550600060cd819055508015610f2a5760008060016101000a81548160ff0219169083151502179055505b505050565b7f000000000000000000000000000000000000000000000000000000000000000073ffffffffffffffffffffffffffffffffffffffff163073ffffffffffffffffffffffffffffffffffffffff161415610fbe576040517f08c379a0000000000000000000000000000000000000000000000000000000008152600401610fb5906126fc565b60405180910390fd5b7f000000000000000000000000000000000000000000000000000000000000000073ffffffffffffffffffffffffffffffffffffffff16610ffd61173d565b73ffffffffffffffffffffffffffffffffffffffff1614611053576040517f08c379a000000000000000000000000000000000000000000000000000000000815260040161104a9061278e565b60405180910390fd5b61105c82611794565b61106882826001611797565b5050565b60c960009054906101000a900473ffffffffffffffffffffffffffffffffffffffff1673ffffffffffffffffffffffffffffffffffffffff163373ffffffffffffffffffffffffffffffffffffffff16146110c657600080fd5b600160d160008373ffffffffffffffffffffffffffffffffffffffff1673ffffffffffffffffffffffffffffffffffffffff16815260200190815260200160002060006101000a81548160ff02191690831515021790555050565b60ca60009054906101000a900473ffffffffffffffffffffffffffffffffffffffff1681565b60c960009054906101000a900473ffffffffffffffffffffffffffffffffffffffff1673ffffffffffffffffffffffffffffffffffffffff163373ffffffffffffffffffffffffffffffffffffffff16146111a157600080fd5b600160d060008373ffffffffffffffffffffffffffffffffffffffff1673ffffffffffffffffffffffffffffffffffffffff16815260200190815260200160002060006101000a81548160ff021916908315150217905550600060d160008373ffffffffffffffffffffffffffffffffffffffff1673ffffffffffffffffffffffffffffffffffffffff16815260200190815260200160002060006101000a81548160ff02191690831515021790555050565b61125c611979565b73ffffffffffffffffffffffffffffffffffffffff1661127a611540565b73ffffffffffffffffffffffffffffffffffffffff16146112d0576040517f08c379a00000000000000000000000000000000000000000000000000000000081526004016112c7906128ed565b60405180910390fd5b6112da6000611981565b565b6001151560d060003373ffffffffffffffffffffffffffffffffffffffff1673ffffffffffffffffffffffffffffffffffffffff16815260200190815260200160002060009054906101000a900460ff1615151461133957600080fd5b6000151560d160003373ffffffffffffffffffffffffffffffffffffffff1673ffffffffffffffffffffffffffffffffffffffff16815260200190815260200160002060009054906101000a900460ff1615151461139657600080fd5b600082116113d9576040517f08c379a00000000000000000000000000000000000000000000000000000000081526004016113d090612494565b60405180910390fd5b60405180608001604052808381526020018273ffffffffffffffffffffffffffffffffffffffff1681526020013373ffffffffffffffffffffffffffffffffffffffff168152602001600067ffffffffffffffff81111561143d5761143c611f48565b5b60405190808252806020026020018201604052801561146b5781602001602082028036833780820191505090505b5081525060d2600060cc5481526020019081526020016000206000820151816000015560208201518160010160006101000a81548173ffffffffffffffffffffffffffffffffffffffff021916908373ffffffffffffffffffffffffffffffffffffffff16021790555060408201518160020160006101000a81548173ffffffffffffffffffffffffffffffffffffffff021916908373ffffffffffffffffffffffffffffffffffffffff1602179055506060820151816003019080519060200190611538929190611ce2565b509050505050565b6000603360009054906101000a900473ffffffffffffffffffffffffffffffffffffffff16905090565b60c960009054906101000a900473ffffffffffffffffffffffffffffffffffffffff1673ffffffffffffffffffffffffffffffffffffffff163373ffffffffffffffffffffffffffffffffffffffff16146115c457600080fd5b600060d160008373ffffffffffffffffffffffffffffffffffffffff1673ffffffffffffffffffffffffffffffffffffffff16815260200190815260200160002060006101000a81548160ff02191690831515021790555050565b60c960009054906101000a900473ffffffffffffffffffffffffffffffffffffffff1681565b61164d611979565b73ffffffffffffffffffffffffffffffffffffffff1661166b611540565b73ffffffffffffffffffffffffffffffffffffffff16146116c1576040517f08c379a00000000000000000000000000000000000000000000000000000000081526004016116b8906128ed565b60405180910390fd5b600073ffffffffffffffffffffffffffffffffffffffff168173ffffffffffffffffffffffffffffffffffffffff161415611731576040517f08c379a00000000000000000000000000000000000000000000000000000000081526004016117289061297f565b60405180910390fd5b61173a81611981565b50565b600061176b7f360894a13ba1a3210667c828492db98dca3e2076cc3735a920a3ca505d382bbc60001b611a47565b60000160009054906101000a900473ffffffffffffffffffffffffffffffffffffffff16905090565b50565b60006117a161173d565b90506117ac84611a51565b6000835111806117b95750815b156117ca576117c88484611b0a565b505b60006117f87f4910fdfa16fed3260ed0e7147f7cc6da11a60208b5b9406d12a635614ffd914360001b611bee565b90508060000160009054906101000a900460ff166119615760018160000160006101000a81548160ff0219169083151502179055506118c485836040516024016118429190612202565b6040516020818303038152906040527f3659cfe6000000000000000000000000000000000000000000000000000000007bffffffffffffffffffffffffffffffffffffffffffffffffffffffff19166020820180517bffffffffffffffffffffffffffffffffffffffffffffffffffffffff8381831617835250505050611b0a565b5060008160000160006101000a81548160ff0219169083151502179055506118ea61173d565b73ffffffffffffffffffffffffffffffffffffffff168273ffffffffffffffffffffffffffffffffffffffff1614611957576040517f08c379a000000000000000000000000000000000000000000000000000000000815260040161194e90612a11565b60405180910390fd5b61196085611bf8565b5b5050505050565b600061197330611c47565b15905090565b600033905090565b6000603360009054906101000a900473ffffffffffffffffffffffffffffffffffffffff16905081603360006101000a81548173ffffffffffffffffffffffffffffffffffffffff021916908373ffffffffffffffffffffffffffffffffffffffff1602179055508173ffffffffffffffffffffffffffffffffffffffff168173ffffffffffffffffffffffffffffffffffffffff167f8be0079c531659141344cd1fd0a4f28419497f9722a3daafe3b4186f6b6457e060405160405180910390a35050565b6000819050919050565b611a5a81611c47565b611a99576040517f08c379a0000000000000000000000000000000000000000000000000000000008152600401611a9090612aa3565b60405180910390fd5b80611ac67f360894a13ba1a3210667c828492db98dca3e2076cc3735a920a3ca505d382bbc60001b611a47565b60000160006101000a81548173ffffffffffffffffffffffffffffffffffffffff021916908373ffffffffffffffffffffffffffffffffffffffff16021790555050565b6060611b1583611c47565b611b54576040517f08c379a0000000000000000000000000000000000000000000000000000000008152600401611b4b90612b35565b60405180910390fd5b6000808473ffffffffffffffffffffffffffffffffffffffff1684604051611b7c9190612bcf565b600060405180830381855af49150503d8060008114611bb7576040519150601f19603f3d011682016040523d82523d6000602084013e611bbc565b606091505b5091509150611be48282604051806060016040528060278152602001612c4d60279139611c5a565b9250505092915050565b6000819050919050565b611c0181611a51565b8073ffffffffffffffffffffffffffffffffffffffff167fbc7cd75a20ee27fd9adebab32041f755214dbc6bffa90cc0225b39da2e5c2d3b60405160405180910390a250565b600080823b905060008111915050919050565b60608315611c6a57829050611cba565b600083511115611c7d5782518084602001fd5b816040517f08c379a0000000000000000000000000000000000000000000000000000000008152600401611cb19190612c2a565b60405180910390fd5b9392505050565b5080546000825590600052602060002090810190611cdf9190611d6c565b50565b828054828255906000526020600020908101928215611d5b579160200282015b82811115611d5a5782518260006101000a81548173ffffffffffffffffffffffffffffffffffffffff021916908373ffffffffffffffffffffffffffffffffffffffff16021790555091602001919060010190611d02565b5b509050611d689190611d6c565b5090565b5b80821115611d85576000816000905550600101611d6d565b5090565b6000604051905090565b600080fd5b600080fd5b6000819050919050565b611db081611d9d565b8114611dbb57600080fd5b50565b600081359050611dcd81611da7565b92915050565b600073ffffffffffffffffffffffffffffffffffffffff82169050919050565b6000611dfe82611dd3565b9050919050565b611e0e81611df3565b8114611e1957600080fd5b50565b600081359050611e2b81611e05565b92915050565b600080fd5b600080fd5b600080fd5b60008083601f840112611e5657611e55611e31565b5b8235905067ffffffffffffffff811115611e7357611e72611e36565b5b602083019150836001820283011115611e8f57611e8e611e3b565b5b9250929050565b60008060008060608587031215611eb057611eaf611d93565b5b6000611ebe87828801611dbe565b9450506020611ecf87828801611e1c565b935050604085013567ffffffffffffffff811115611ef057611eef611d98565b5b611efc87828801611e40565b925092505092959194509250565b600060208284031215611f2057611f1f611d93565b5b6000611f2e84828501611e1c565b91505092915050565b6000601f19601f8301169050919050565b7f4e487b7100000000000000000000000000000000000000000000000000000000600052604160045260246000fd5b611f8082611f37565b810181811067ffffffffffffffff82111715611f9f57611f9e611f48565b5b80604052505050565b6000611fb2611d89565b9050611fbe8282611f77565b919050565b600067ffffffffffffffff821115611fde57611fdd611f48565b5b602082029050602081019050919050565b6000612002611ffd84611fc3565b611fa8565b9050808382526020820190506020840283018581111561202557612024611e3b565b5b835b8181101561204e578061203a8882611e1c565b845260208401935050602081019050612027565b5050509392505050565b600082601f83011261206d5761206c611e31565b5b813561207d848260208601611fef565b91505092915050565b6000806040838503121561209d5761209c611d93565b5b600083013567ffffffffffffffff8111156120bb576120ba611d98565b5b6120c785828601612058565b92505060206120d885828601611e1c565b9150509250929050565b600080fd5b600067ffffffffffffffff82111561210257612101611f48565b5b61210b82611f37565b9050602081019050919050565b82818337600083830152505050565b600061213a612135846120e7565b611fa8565b905082815260208101848484011115612156576121556120e2565b5b612161848285612118565b509392505050565b600082601f83011261217e5761217d611e31565b5b813561218e848260208601612127565b91505092915050565b600080604083850312156121ae576121ad611d93565b5b60006121bc85828601611e1c565b925050602083013567ffffffffffffffff8111156121dd576121dc611d98565b5b6121e985828601612169565b9150509250929050565b6121fc81611df3565b82525050565b600060208201905061221760008301846121f3565b92915050565b600061222882611dd3565b9050919050565b6122388161221d565b811461224357600080fd5b50565b6000813590506122558161222f565b92915050565b6000806040838503121561227257612271611d93565b5b600061228085828601611dbe565b925050602061229185828601612246565b9150509250929050565b600082825260208201905092915050565b7f596f752063616e277420617070726f76652061207472616e7366657220796f7560008201527f2070726f706f7365640000000000000000000000000000000000000000000000602082015250565b600061230860298361229b565b9150612313826122ac565b604082019050919050565b60006020820190508181036000830152612337816122fb565b9050919050565b7f4e487b7100000000000000000000000000000000000000000000000000000000600052601160045260246000fd5b600061237882611d9d565b91507fffffffffffffffffffffffffffffffffffffffffffffffffffffffffffffffff8214156123ab576123aa61233e565b5b600182019050919050565b7f4f6e6c792074686520676f7665726e616e63652063616e20657865637574652060008201527f7468697320616374696f6e000000000000000000000000000000000000000000602082015250565b6000612412602b8361229b565b915061241d826123b6565b604082019050919050565b6000602082019050818103600083015261244181612405565b9050919050565b7f50726f706f73656420616d6f756e74206d757374206265206f76657220300000600082015250565b600061247e601e8361229b565b915061248982612448565b602082019050919050565b600060208201905081810360008301526124ad81612471565b9050919050565b600081905092915050565b60006124cb83856124b4565b93506124d8838584612118565b82840190509392505050565b60006124f18284866124bf565b91508190509392505050565b7f41737365742074797065206e6f7420617070726f766564000000000000000000600082015250565b600061253360178361229b565b915061253e826124fd565b602082019050919050565b6000602082019050818103600083015261256281612526565b9050919050565b7f4e487b7100000000000000000000000000000000000000000000000000000000600052603260045260246000fd5b7f596f75206861766520616c726561647920617070726f7665642074686973207460008201527f72616e7366657200000000000000000000000000000000000000000000000000602082015250565b60006125f460278361229b565b91506125ff82612598565b604082019050919050565b60006020820190508181036000830152612623816125e7565b9050919050565b7f4e487b7100000000000000000000000000000000000000000000000000000000600052601260045260246000fd5b600061266482611d9d565b915061266f83611d9d565b92508261267f5761267e61262a565b5b828204905092915050565b7f46756e6374696f6e206d7573742062652063616c6c6564207468726f7567682060008201527f64656c656761746563616c6c0000000000000000000000000000000000000000602082015250565b60006126e6602c8361229b565b91506126f18261268a565b604082019050919050565b60006020820190508181036000830152612715816126d9565b9050919050565b7f46756e6374696f6e206d7573742062652063616c6c6564207468726f7567682060008201527f6163746976652070726f78790000000000000000000000000000000000000000602082015250565b6000612778602c8361229b565b91506127838261271c565b604082019050919050565b600060208201905081810360008301526127a78161276b565b9050919050565b7f496e697469616c697a61626c653a20636f6e747261637420697320616c72656160008201527f647920696e697469616c697a6564000000000000000000000000000000000000602082015250565b600061280a602e8361229b565b9150612815826127ae565b604082019050919050565b60006020820190508181036000830152612839816127fd565b9050919050565b7f4156415800000000000000000000000000000000000000000000000000000000600082015250565b60006128766004836124b4565b915061288182612840565b600482019050919050565b600061289782612869565b9150819050919050565b7f4f776e61626c653a2063616c6c6572206973206e6f7420746865206f776e6572600082015250565b60006128d760208361229b565b91506128e2826128a1565b602082019050919050565b60006020820190508181036000830152612906816128ca565b9050919050565b7f4f776e61626c653a206e6577206f776e657220697320746865207a65726f206160008201527f6464726573730000000000000000000000000000000000000000000000000000602082015250565b600061296960268361229b565b91506129748261290d565b604082019050919050565b600060208201905081810360008301526129988161295c565b9050919050565b7f45524331393637557067726164653a207570677261646520627265616b73206660008201527f7572746865722075706772616465730000000000000000000000000000000000602082015250565b60006129fb602f8361229b565b9150612a068261299f565b604082019050919050565b60006020820190508181036000830152612a2a816129ee565b9050919050565b7f455243313936373a206e657720696d706c656d656e746174696f6e206973206e60008201527f6f74206120636f6e747261637400000000000000000000000000000000000000602082015250565b6000612a8d602d8361229b565b9150612a9882612a31565b604082019050919050565b60006020820190508181036000830152612abc81612a80565b9050919050565b7f416464726573733a2064656c65676174652063616c6c20746f206e6f6e2d636f60008201527f6e74726163740000000000000000000000000000000000000000000000000000602082015250565b6000612b1f60268361229b565b9150612b2a82612ac3565b604082019050919050565b60006020820190508181036000830152612b4e81612b12565b9050919050565b600081519050919050565b600081905092915050565b60005b83811015612b89578082015181840152602081019050612b6e565b83811115612b98576000848401525b50505050565b6000612ba982612b55565b612bb38185612b60565b9350612bc3818560208601612b6b565b80840191505092915050565b6000612bdb8284612b9e565b915081905092915050565b600081519050919050565b6000612bfc82612be6565b612c06818561229b565b9350612c16818560208601612b6b565b612c1f81611f37565b840191505092915050565b60006020820190508181036000830152612c448184612bf1565b90509291505056fe416464726573733a206c6f772d6c6576656c2064656c65676174652063616c6c206661696c6564a26469706673582212202d558624c7d4f7135b0d7c55818599e4be015c267fdb296b4b1cc7c6ca4bebb464736f6c634300080a0033",
  "linkReferences": {},
  "deployedLinkReferences": {}
}