{
  "_format": "hh-sol-artifact-1",
  "contractName": "Treasury",
  "sourceName": "contracts/Treasury.sol",
  "abi": [
    {
      "inputs": [
        {
          "internalType": "address[]",
          "name": "_cashiers",
          "type": "address[]"
        },
        {
          "internalType": "address",
          "name": "_governance",
          "type": "address"
        }
      ],
      "stateMutability": "nonpayable",
      "type": "constructor"
    },
    {
      "inputs": [
        {
          "internalType": "address",
          "name": "_newCashier",
          "type": "address"
        }
      ],
      "name": "addCashier",
      "outputs": [],
      "stateMutability": "nonpayable",
      "type": "function"
    },
    {
      "inputs": [],
      "name": "approveTransfer",
      "outputs": [],
      "stateMutability": "nonpayable",
      "type": "function"
    },
    {
      "inputs": [
        {
          "internalType": "address",
          "name": "_shittyCashier",
          "type": "address"
        }
      ],
      "name": "flagCashier",
      "outputs": [],
      "stateMutability": "nonpayable",
      "type": "function"
    },
    {
      "inputs": [],
      "name": "governance",
      "outputs": [
        {
          "internalType": "address",
          "name": "",
          "type": "address"
        }
      ],
      "stateMutability": "view",
      "type": "function"
    },
    {
      "inputs": [
        {
          "internalType": "uint256",
          "name": "_amount",
          "type": "uint256"
        },
        {
          "internalType": "address payable",
          "name": "_sendTo",
          "type": "address"
        },
        {
          "internalType": "string",
          "name": "_assetType",
          "type": "string"
        }
      ],
      "name": "governanceSendAvax",
      "outputs": [
        {
          "internalType": "bool",
          "name": "",
          "type": "bool"
        }
      ],
      "stateMutability": "nonpayable",
      "type": "function"
    },
    {
      "inputs": [
        {
          "internalType": "uint256",
          "name": "_amount",
          "type": "uint256"
        },
        {
          "internalType": "address payable",
          "name": "_winner",
          "type": "address"
        },
        {
          "internalType": "string",
          "name": "_assetType",
          "type": "string"
        }
      ],
      "name": "payWinnings",
      "outputs": [
        {
          "internalType": "bool",
          "name": "",
          "type": "bool"
        }
      ],
      "stateMutability": "nonpayable",
      "type": "function"
    },
    {
      "inputs": [
        {
          "internalType": "uint256",
          "name": "_amount",
          "type": "uint256"
        },
        {
          "internalType": "address payable",
          "name": "_sendTo",
          "type": "address"
        }
      ],
      "name": "proposeTransfer",
      "outputs": [],
      "stateMutability": "nonpayable",
      "type": "function"
    },
    {
      "inputs": [],
      "name": "rejectTransfer",
      "outputs": [],
      "stateMutability": "nonpayable",
      "type": "function"
    },
    {
      "inputs": [
        {
          "internalType": "address",
          "name": "_newHouse",
          "type": "address"
        }
      ],
      "name": "setTheHouse",
      "outputs": [],
      "stateMutability": "nonpayable",
      "type": "function"
    },
    {
      "inputs": [],
      "name": "theHouse",
      "outputs": [
        {
          "internalType": "address",
          "name": "",
          "type": "address"
        }
      ],
      "stateMutability": "view",
      "type": "function"
    },
    {
      "inputs": [
        {
          "internalType": "address",
          "name": "_shittyCashier",
          "type": "address"
        }
      ],
      "name": "unFlagCashier",
      "outputs": [],
      "stateMutability": "nonpayable",
      "type": "function"
    }
  ],
  "bytecode": "0x60806040523480156200001157600080fd5b5060405162001eb638038062001eb6833981810160405281019062000037919062000396565b6001600b604051620000499062000457565b908152602001604051809103902060006101000a81548160ff02191690831515021790555080600160006101000a81548173ffffffffffffffffffffffffffffffffffffffff021916908373ffffffffffffffffffffffffffffffffffffffff160217905550336000806101000a81548173ffffffffffffffffffffffffffffffffffffffff021916908373ffffffffffffffffffffffffffffffffffffffff16021790555060005b825181101562000187576001600760008584815181106200011857620001176200046e565b5b602002602001015173ffffffffffffffffffffffffffffffffffffffff1673ffffffffffffffffffffffffffffffffffffffff16815260200190815260200160002060006101000a81548160ff02191690831515021790555080806200017e90620004d6565b915050620000f2565b50815160028190555060006003819055506000600481905550505062000524565b6000604051905090565b600080fd5b600080fd5b600080fd5b6000601f19601f8301169050919050565b7f4e487b7100000000000000000000000000000000000000000000000000000000600052604160045260246000fd5b6200020c82620001c1565b810181811067ffffffffffffffff821117156200022e576200022d620001d2565b5b80604052505050565b600062000243620001a8565b905062000251828262000201565b919050565b600067ffffffffffffffff821115620002745762000273620001d2565b5b602082029050602081019050919050565b600080fd5b600073ffffffffffffffffffffffffffffffffffffffff82169050919050565b6000620002b7826200028a565b9050919050565b620002c981620002aa565b8114620002d557600080fd5b50565b600081519050620002e981620002be565b92915050565b600062000306620003008462000256565b62000237565b905080838252602082019050602084028301858111156200032c576200032b62000285565b5b835b81811015620003595780620003448882620002d8565b8452602084019350506020810190506200032e565b5050509392505050565b600082601f8301126200037b576200037a620001bc565b5b81516200038d848260208601620002ef565b91505092915050565b60008060408385031215620003b057620003af620001b2565b5b600083015167ffffffffffffffff811115620003d157620003d0620001b7565b5b620003df8582860162000363565b9250506020620003f285828601620002d8565b9150509250929050565b600081905092915050565b7f4156415800000000000000000000000000000000000000000000000000000000600082015250565b60006200043f600483620003fc565b91506200044c8262000407565b600482019050919050565b6000620004648262000430565b9150819050919050565b7f4e487b7100000000000000000000000000000000000000000000000000000000600052603260045260246000fd5b7f4e487b7100000000000000000000000000000000000000000000000000000000600052601160045260246000fd5b6000819050919050565b6000620004e382620004cc565b91507fffffffffffffffffffffffffffffffffffffffffffffffffffffffffffffffff8214156200051957620005186200049d565b5b600182019050919050565b61198280620005346000396000f3fe608060405234801561001057600080fd5b50600436106100a95760003560e01c80635aa6e675116100715780635aa6e6751461012a578063619c3b991461014857806386bde3d114610164578063a31c1d6e14610180578063b75afeff146101b0578063e2cb39bf146101cc576100a9565b80630d71f24d146100ae5780632728bb91146100b85780632a8d26e8146100e8578063387121fa146100f25780634f73e5d51461010e575b600080fd5b6100b66101ea565b005b6100d260048036038101906100cd91906112ac565b6103e3565b6040516100df919061133b565b60405180910390f35b6100f0610569565b005b61010c60048036038101906101079190611394565b61099f565b005b61012860048036038101906101239190611394565b610a3a565b005b610132610aed565b60405161013f91906113d0565b60405180910390f35b610162600480360381019061015d9190611394565b610b13565b005b61017e600480360381019061017991906113eb565b610c1e565b005b61019a600480360381019061019591906112ac565b610e82565b6040516101a7919061133b565b60405180910390f35b6101ca60048036038101906101c59190611394565b61100a565b005b6101d46110bd565b6040516101e191906113d0565b60405180910390f35b60011515600760003373ffffffffffffffffffffffffffffffffffffffff1673ffffffffffffffffffffffffffffffffffffffff16815260200190815260200160002060009054906101000a900460ff1615151461024757600080fd5b60001515600860003373ffffffffffffffffffffffffffffffffffffffff1673ffffffffffffffffffffffffffffffffffffffff16815260200190815260200160002060009054906101000a900460ff161515146102a457600080fd5b3373ffffffffffffffffffffffffffffffffffffffff1660096000600354815260200190815260200160002060020160009054906101000a900473ffffffffffffffffffffffffffffffffffffffff1673ffffffffffffffffffffffffffffffffffffffff16141561034b576040517f08c379a0000000000000000000000000000000000000000000000000000000008152600401610342906114ae565b60405180910390fd5b6009600060035481526020019081526020016000206000808201600090556001820160006101000a81549073ffffffffffffffffffffffffffffffffffffffff02191690556002820160006101000a81549073ffffffffffffffffffffffffffffffffffffffff02191690556003820160006103c791906110e1565b5050600360008154809291906103dc906114fd565b9190505550565b6000600160009054906101000a900473ffffffffffffffffffffffffffffffffffffffff1673ffffffffffffffffffffffffffffffffffffffff163373ffffffffffffffffffffffffffffffffffffffff1614610475576040517f08c379a000000000000000000000000000000000000000000000000000000000815260040161046c906115b8565b60405180910390fd5b600085116104b8576040517f08c379a00000000000000000000000000000000000000000000000000000000081526004016104af90611624565b60405180910390fd5b6040516020016104c790611690565b6040516020818303038152906040528051906020012083836040516020016104f09291906116fd565b60405160208183030381529060405280519060200120141561055c578373ffffffffffffffffffffffffffffffffffffffff166108fc869081150290604051600060405180830381858888f19350505050158015610552573d6000803e3d6000fd5b5060019050610561565b600090505b949350505050565b60011515600760003373ffffffffffffffffffffffffffffffffffffffff1673ffffffffffffffffffffffffffffffffffffffff16815260200190815260200160002060009054906101000a900460ff161515146105c657600080fd5b60001515600860003373ffffffffffffffffffffffffffffffffffffffff1673ffffffffffffffffffffffffffffffffffffffff16815260200190815260200160002060009054906101000a900460ff1615151461062357600080fd5b3373ffffffffffffffffffffffffffffffffffffffff1660096000600354815260200190815260200160002060020160009054906101000a900473ffffffffffffffffffffffffffffffffffffffff1673ffffffffffffffffffffffffffffffffffffffff1614156106ca576040517f08c379a00000000000000000000000000000000000000000000000000000000081526004016106c1906114ae565b60405180910390fd5b60005b600960006003548152602001908152602001600020600301805490508110156107c6573373ffffffffffffffffffffffffffffffffffffffff16600960006003548152602001908152602001600020600301828154811061073157610730611721565b5b9060005260206000200160009054906101000a900473ffffffffffffffffffffffffffffffffffffffff1673ffffffffffffffffffffffffffffffffffffffff1614156107b3576040517f08c379a00000000000000000000000000000000000000000000000000000000081526004016107aa906117c2565b60405180910390fd5b80806107be906114fd565b9150506106cd565b50600960006003548152602001908152602001600020600301339080600181540180825580915050600190039060005260206000200160009091909190916101000a81548173ffffffffffffffffffffffffffffffffffffffff021916908373ffffffffffffffffffffffffffffffffffffffff1602179055506002805461084e9190611811565b600960006003548152602001908152602001600020600301805490501061099d5760096000600354815260200190815260200160002060010160009054906101000a900473ffffffffffffffffffffffffffffffffffffffff1673ffffffffffffffffffffffffffffffffffffffff166108fc600960006003548152602001908152602001600020600001549081150290604051600060405180830381858888f19350505050158015610905573d6000803e3d6000fd5b506009600060035481526020019081526020016000206000808201600090556001820160006101000a81549073ffffffffffffffffffffffffffffffffffffffff02191690556002820160006101000a81549073ffffffffffffffffffffffffffffffffffffffff021916905560038201600061098291906110e1565b505060036000815480929190610997906114fd565b91905055505b565b60008054906101000a900473ffffffffffffffffffffffffffffffffffffffff1673ffffffffffffffffffffffffffffffffffffffff163373ffffffffffffffffffffffffffffffffffffffff16146109f757600080fd5b806000806101000a81548173ffffffffffffffffffffffffffffffffffffffff021916908373ffffffffffffffffffffffffffffffffffffffff16021790555050565b60008054906101000a900473ffffffffffffffffffffffffffffffffffffffff1673ffffffffffffffffffffffffffffffffffffffff163373ffffffffffffffffffffffffffffffffffffffff1614610a9257600080fd5b6001600860008373ffffffffffffffffffffffffffffffffffffffff1673ffffffffffffffffffffffffffffffffffffffff16815260200190815260200160002060006101000a81548160ff02191690831515021790555050565b600160009054906101000a900473ffffffffffffffffffffffffffffffffffffffff1681565b60008054906101000a900473ffffffffffffffffffffffffffffffffffffffff1673ffffffffffffffffffffffffffffffffffffffff163373ffffffffffffffffffffffffffffffffffffffff1614610b6b57600080fd5b6001600760008373ffffffffffffffffffffffffffffffffffffffff1673ffffffffffffffffffffffffffffffffffffffff16815260200190815260200160002060006101000a81548160ff0219169083151502179055506000600860008373ffffffffffffffffffffffffffffffffffffffff1673ffffffffffffffffffffffffffffffffffffffff16815260200190815260200160002060006101000a81548160ff02191690831515021790555050565b60011515600760003373ffffffffffffffffffffffffffffffffffffffff1673ffffffffffffffffffffffffffffffffffffffff16815260200190815260200160002060009054906101000a900460ff16151514610c7b57600080fd5b60001515600860003373ffffffffffffffffffffffffffffffffffffffff1673ffffffffffffffffffffffffffffffffffffffff16815260200190815260200160002060009054906101000a900460ff16151514610cd857600080fd5b60008211610d1b576040517f08c379a0000000000000000000000000000000000000000000000000000000008152600401610d1290611624565b60405180910390fd5b60405180608001604052808381526020018273ffffffffffffffffffffffffffffffffffffffff1681526020013373ffffffffffffffffffffffffffffffffffffffff168152602001600067ffffffffffffffff811115610d7f57610d7e611842565b5b604051908082528060200260200182016040528015610dad5781602001602082028036833780820191505090505b508152506009600060035481526020019081526020016000206000820151816000015560208201518160010160006101000a81548173ffffffffffffffffffffffffffffffffffffffff021916908373ffffffffffffffffffffffffffffffffffffffff16021790555060408201518160020160006101000a81548173ffffffffffffffffffffffffffffffffffffffff021916908373ffffffffffffffffffffffffffffffffffffffff1602179055506060820151816003019080519060200190610e7a929190611102565b509050505050565b600060011515600c60003373ffffffffffffffffffffffffffffffffffffffff1673ffffffffffffffffffffffffffffffffffffffff16815260200190815260200160002060009054906101000a900460ff16151514610f17576040517f08c379a0000000000000000000000000000000000000000000000000000000008152600401610f0e906118e3565b60405180910390fd5b828260011515600b8383604051610f2f929190611933565b908152602001604051809103902060009054906101000a900460ff16151514610f5757600080fd5b604051602001610f6690611690565b604051602081830303815290604052805190602001208585604051602001610f8f9291906116fd565b604051602081830303815290604052805190602001201415610ffb578573ffffffffffffffffffffffffffffffffffffffff166108fc889081150290604051600060405180830381858888f19350505050158015610ff1573d6000803e3d6000fd5b5060019250611000565b600092505b5050949350505050565b60008054906101000a900473ffffffffffffffffffffffffffffffffffffffff1673ffffffffffffffffffffffffffffffffffffffff163373ffffffffffffffffffffffffffffffffffffffff161461106257600080fd5b6000600860008373ffffffffffffffffffffffffffffffffffffffff1673ffffffffffffffffffffffffffffffffffffffff16815260200190815260200160002060006101000a81548160ff02191690831515021790555050565b60008054906101000a900473ffffffffffffffffffffffffffffffffffffffff1681565b50805460008255906000526020600020908101906110ff919061118c565b50565b82805482825590600052602060002090810192821561117b579160200282015b8281111561117a5782518260006101000a81548173ffffffffffffffffffffffffffffffffffffffff021916908373ffffffffffffffffffffffffffffffffffffffff16021790555091602001919060010190611122565b5b509050611188919061118c565b5090565b5b808211156111a557600081600090555060010161118d565b5090565b600080fd5b600080fd5b6000819050919050565b6111c6816111b3565b81146111d157600080fd5b50565b6000813590506111e3816111bd565b92915050565b600073ffffffffffffffffffffffffffffffffffffffff82169050919050565b6000611214826111e9565b9050919050565b61122481611209565b811461122f57600080fd5b50565b6000813590506112418161121b565b92915050565b600080fd5b600080fd5b600080fd5b60008083601f84011261126c5761126b611247565b5b8235905067ffffffffffffffff8111156112895761128861124c565b5b6020830191508360018202830111156112a5576112a4611251565b5b9250929050565b600080600080606085870312156112c6576112c56111a9565b5b60006112d4878288016111d4565b94505060206112e587828801611232565b935050604085013567ffffffffffffffff811115611306576113056111ae565b5b61131287828801611256565b925092505092959194509250565b60008115159050919050565b61133581611320565b82525050565b6000602082019050611350600083018461132c565b92915050565b6000611361826111e9565b9050919050565b61137181611356565b811461137c57600080fd5b50565b60008135905061138e81611368565b92915050565b6000602082840312156113aa576113a96111a9565b5b60006113b88482850161137f565b91505092915050565b6113ca81611356565b82525050565b60006020820190506113e560008301846113c1565b92915050565b60008060408385031215611402576114016111a9565b5b6000611410858286016111d4565b925050602061142185828601611232565b9150509250929050565b600082825260208201905092915050565b7f596f752063616e277420617070726f76652061207472616e7366657220796f7560008201527f2070726f706f7365640000000000000000000000000000000000000000000000602082015250565b600061149860298361142b565b91506114a38261143c565b604082019050919050565b600060208201905081810360008301526114c78161148b565b9050919050565b7f4e487b7100000000000000000000000000000000000000000000000000000000600052601160045260246000fd5b6000611508826111b3565b91507fffffffffffffffffffffffffffffffffffffffffffffffffffffffffffffffff82141561153b5761153a6114ce565b5b600182019050919050565b7f4f6e6c792074686520676f7665726e616e63652063616e20657865637574652060008201527f7468697320616374696f6e000000000000000000000000000000000000000000602082015250565b60006115a2602b8361142b565b91506115ad82611546565b604082019050919050565b600060208201905081810360008301526115d181611595565b9050919050565b7f50726f706f73656420616d6f756e74206d757374206265206f76657220300000600082015250565b600061160e601e8361142b565b9150611619826115d8565b602082019050919050565b6000602082019050818103600083015261163d81611601565b9050919050565b7f4156415800000000000000000000000000000000000000000000000000000000600082015250565b600061167a60048361142b565b915061168582611644565b602082019050919050565b600060208201905081810360008301526116a98161166d565b9050919050565b82818337600083830152505050565b6000601f19601f8301169050919050565b60006116dc838561142b565b93506116e98385846116b0565b6116f2836116bf565b840190509392505050565b600060208201905081810360008301526117188184866116d0565b90509392505050565b7f4e487b7100000000000000000000000000000000000000000000000000000000600052603260045260246000fd5b7f596f75206861766520616c726561647920617070726f7665642074686973207460008201527f72616e7366657200000000000000000000000000000000000000000000000000602082015250565b60006117ac60278361142b565b91506117b782611750565b604082019050919050565b600060208201905081810360008301526117db8161179f565b9050919050565b7f4e487b7100000000000000000000000000000000000000000000000000000000600052601260045260246000fd5b600061181c826111b3565b9150611827836111b3565b925082611837576118366117e2565b5b828204905092915050565b7f4e487b7100000000000000000000000000000000000000000000000000000000600052604160045260246000fd5b7f4f6e6c792067616d626c65666920617070726f7665642067616d65732063616e60008201527f20757365207468697320616374696f6e00000000000000000000000000000000602082015250565b60006118cd60308361142b565b91506118d882611871565b604082019050919050565b600060208201905081810360008301526118fc816118c0565b9050919050565b600081905092915050565b600061191a8385611903565b93506119278385846116b0565b82840190509392505050565b600061194082848661190e565b9150819050939250505056fea2646970667358221220ae514c6fae4d5110896f4cdd83d4f85b970120fa8d22ca02262130258bd0e0be64736f6c634300080a0033",
  "linkReferences": {},
  "deployedLinkReferences": {}
}