{
  "_format": "hh-sol-artifact-1",
  "contractName": "Lotto",
  "sourceName": "contracts/Lotto.sol",
  "abi": [
    {
      "inputs": [
        {
          "internalType": "address",
          "name": "_trustedParty",
          "type": "address"
        },
        {
          "internalType": "address payable",
          "name": "_treasury",
          "type": "address"
        },
        {
          "internalType": "uint256",
          "name": "_ticketValue",
          "type": "uint256"
        }
      ],
      "stateMutability": "nonpayable",
      "type": "constructor"
    },
    {
      "anonymous": false,
      "inputs": [
        {
          "indexed": false,
          "internalType": "uint256[3]",
          "name": "numbers",
          "type": "uint256[3]"
        }
      ],
      "name": "Draw",
      "type": "event"
    },
    {
      "anonymous": false,
      "inputs": [
        {
          "indexed": false,
          "internalType": "uint256",
          "name": "jackpot",
          "type": "uint256"
        }
      ],
      "name": "jackpotUpdated",
      "type": "event"
    },
    {
      "inputs": [
        {
          "internalType": "uint256[][]",
          "name": "_bets",
          "type": "uint256[][]"
        }
      ],
      "name": "bet",
      "outputs": [],
      "stateMutability": "payable",
      "type": "function"
    },
    {
      "inputs": [
        {
          "internalType": "uint256[3]",
          "name": "_numbers",
          "type": "uint256[3]"
        }
      ],
      "name": "getAmountOfBetForNumbers",
      "outputs": [
        {
          "internalType": "uint256",
          "name": "",
          "type": "uint256"
        }
      ],
      "stateMutability": "view",
      "type": "function"
    },
    {
      "inputs": [],
      "name": "getBets",
      "outputs": [
        {
          "internalType": "uint256[][]",
          "name": "",
          "type": "uint256[][]"
        }
      ],
      "stateMutability": "view",
      "type": "function"
    },
    {
      "inputs": [],
      "name": "getCurrentJackpot",
      "outputs": [
        {
          "internalType": "uint256",
          "name": "",
          "type": "uint256"
        }
      ],
      "stateMutability": "view",
      "type": "function"
    },
    {
      "inputs": [],
      "name": "getLastDrawNumbers",
      "outputs": [
        {
          "internalType": "uint256[3]",
          "name": "",
          "type": "uint256[3]"
        }
      ],
      "stateMutability": "view",
      "type": "function"
    },
    {
      "inputs": [],
      "name": "getNextDrawTime",
      "outputs": [
        {
          "internalType": "uint256",
          "name": "",
          "type": "uint256"
        }
      ],
      "stateMutability": "view",
      "type": "function"
    },
    {
      "inputs": [],
      "name": "getTicketPrice",
      "outputs": [
        {
          "internalType": "uint256",
          "name": "",
          "type": "uint256"
        }
      ],
      "stateMutability": "view",
      "type": "function"
    },
    {
      "inputs": [
        {
          "internalType": "bytes32",
          "name": "_seed",
          "type": "bytes32"
        }
      ],
      "name": "reveal",
      "outputs": [
        {
          "internalType": "uint256[3]",
          "name": "",
          "type": "uint256[3]"
        }
      ],
      "stateMutability": "nonpayable",
      "type": "function"
    },
    {
      "inputs": [
        {
          "internalType": "bytes32",
          "name": "_sealedSeed",
          "type": "bytes32"
        }
      ],
      "name": "setSealedSeed",
      "outputs": [],
      "stateMutability": "nonpayable",
      "type": "function"
    }
  ],
  "bytecode": "0x608060405260006004556000600760006101000a81548160ff0219169083151502179055506000600760016101000a81548160ff0219169083151502179055506000600760026101000a81548160ff021916908315150217905550600067ffffffffffffffff81111562000078576200007762000221565b5b604051908082528060200260200182016040528015620000a75781602001602082028036833780820191505090505b50600c9080519060200190620000bf929190620001b0565b50348015620000cd57600080fd5b5060405162002531380380620025318339818101604052810190620000f391906200033a565b826000806101000a81548173ffffffffffffffffffffffffffffffffffffffff021916908373ffffffffffffffffffffffffffffffffffffffff16021790555081600160006101000a81548173ffffffffffffffffffffffffffffffffffffffff021916908373ffffffffffffffffffffffffffffffffffffffff160217905550670de0b6b3a7640000816200018a9190620003c5565b60038190555062093a8042620001a1919062000426565b60058190555050505062000483565b828054828255906000526020600020908101928215620001ef579160200282015b82811115620001ee578251825591602001919060010190620001d1565b5b509050620001fe919062000202565b5090565b5b808211156200021d57600081600090555060010162000203565b5090565b7f4e487b7100000000000000000000000000000000000000000000000000000000600052604160045260246000fd5b600080fd5b600073ffffffffffffffffffffffffffffffffffffffff82169050919050565b6000620002828262000255565b9050919050565b620002948162000275565b8114620002a057600080fd5b50565b600081519050620002b48162000289565b92915050565b6000620002c78262000255565b9050919050565b620002d981620002ba565b8114620002e557600080fd5b50565b600081519050620002f981620002ce565b92915050565b6000819050919050565b6200031481620002ff565b81146200032057600080fd5b50565b600081519050620003348162000309565b92915050565b60008060006060848603121562000356576200035562000250565b5b60006200036686828701620002a3565b93505060206200037986828701620002e8565b92505060406200038c8682870162000323565b9150509250925092565b7f4e487b7100000000000000000000000000000000000000000000000000000000600052601160045260246000fd5b6000620003d282620002ff565b9150620003df83620002ff565b9250817fffffffffffffffffffffffffffffffffffffffffffffffffffffffffffffffff04831182151516156200041b576200041a62000396565b5b828202905092915050565b60006200043382620002ff565b91506200044083620002ff565b9250827fffffffffffffffffffffffffffffffffffffffffffffffffffffffffffffffff0382111562000478576200047762000396565b5b828201905092915050565b61209e80620004936000396000f3fe6080604052600436106100865760003560e01c80639a58bfee116100595780639a58bfee146101475780639f57d16e14610163578063a6afd5fd1461018e578063be8b48d0146101b9578063ecfea5d5146101f657610086565b8063087d0e0b1461008b57806341114538146100b6578063701fd0f1146100df57806387bb7ae01461011c575b600080fd5b34801561009757600080fd5b506100a0610221565b6040516100ad9190611222565b60405180910390f35b3480156100c257600080fd5b506100dd60048036038101906100d89190611287565b61028b565b005b3480156100eb57600080fd5b5061010660048036038101906101019190611287565b61036a565b6040516101139190611222565b60405180910390f35b34801561012857600080fd5b50610131610753565b60405161013e91906112c3565b60405180910390f35b610161600480360381019061015c9190611544565b61075d565b005b34801561016f57600080fd5b50610178610d63565b60405161018591906112c3565b60405180910390f35b34801561019a57600080fd5b506101a3610d6d565b6040516101b091906116e6565b60405180910390f35b3480156101c557600080fd5b506101e060048036038101906101db91906117b9565b610e49565b6040516101ed91906112c3565b60405180910390f35b34801561020257600080fd5b5061020b610e92565b60405161021891906112c3565b60405180910390f35b6102296110a1565b600b6000600160045461023c9190611815565b8152602001908152602001600020600380602002604051908101604052809291908260038015610281576020028201915b81548152602001906001019080831161026d575b5050505050905090565b60008054906101000a900473ffffffffffffffffffffffffffffffffffffffff1673ffffffffffffffffffffffffffffffffffffffff163373ffffffffffffffffffffffffffffffffffffffff16146102e357600080fd5b600760009054906101000a900460ff16156102fd57600080fd5b600760019054906101000a900460ff161561031757600080fd5b6001600760016101000a81548160ff021916908315150217905550806006819055506001436103469190611849565b6008819055506001600760006101000a81548160ff02191690831515021790555050565b6103726110a1565b60008054906101000a900473ffffffffffffffffffffffffffffffffffffffff1673ffffffffffffffffffffffffffffffffffffffff163373ffffffffffffffffffffffffffffffffffffffff16146103ca57600080fd5b600760009054906101000a900460ff166103e357600080fd5b43600854106103f157600080fd5b60065482146103ff57600080fd5b600082600854406040516020016104179291906118c0565b6040516020818303038152906040528051906020012060001c9050600061043d82610e9c565b905080600b600060045481526020019081526020016000209060036104639291906110c3565b5060046000815480929190610477906118ec565b91905055507f782d7ce763b28c71c4396c26548d32590c3a1f9649900b813dad7d691fead901816040516104ab9190611222565b60405180910390a1600060096000836040516020016104ca91906119be565b6040516020818303038152906040528051906020012060001c81526020019081526020016000208054905011600760026101000a81548160ff021916908315150217905550600760029054906101000a900460ff16156106fd57600060146002546105359190611a08565b9050600160009054906101000a900473ffffffffffffffffffffffffffffffffffffffff1673ffffffffffffffffffffffffffffffffffffffff166108fc829081150290604051600060405180830381858888f1935050505015801561059f573d6000803e3d6000fd5b50806002546105ae9190611815565b600281905550600060096000846040516020016105cb91906119be565b6040516020818303038152906040528051906020012060001c81526020019081526020016000208054905090506000816002546106089190611a08565b905060005b828110156106e757600960008660405160200161062a91906119be565b6040516020818303038152906040528051906020012060001c8152602001908152602001600020818154811061066357610662611a39565b5b9060005260206000200160009054906101000a900473ffffffffffffffffffffffffffffffffffffffff1673ffffffffffffffffffffffffffffffffffffffff166108fc839081150290604051600060405180830381858888f193505050501580156106d3573d6000803e3d6000fd5b5080806106df906118ec565b91505061060d565b506000600281905550839550505050505061074e565b6000600760006101000a81548160ff0219169083151502179055506000600760016101000a81548160ff02191690831515021790555062093a80436107429190611849565b60058190555080925050505b919050565b6000600354905090565b60008054906101000a900473ffffffffffffffffffffffffffffffffffffffff1673ffffffffffffffffffffffffffffffffffffffff163373ffffffffffffffffffffffffffffffffffffffff1614156107ec576040517f08c379a00000000000000000000000000000000000000000000000000000000081526004016107e390611ac5565b60405180910390fd5b600760019054906101000a900460ff161561083c576040517f08c379a000000000000000000000000000000000000000000000000000000000815260040161083390611b31565b60405180910390fd5b60035481513461084c9190611a08565b1461088c576040517f08c379a000000000000000000000000000000000000000000000000000000000815260040161088390611b9d565b60405180910390fd5b60005b8151811015610b375760038282815181106108ad576108ac611a39565b5b602002602001015151146108f6576040517f08c379a00000000000000000000000000000000000000000000000000000000081526004016108ed90611c09565b60405180910390fd5b606482828151811061090b5761090a611a39565b5b602002602001015160008151811061092657610925611a39565b5b60200260200101511080156109715750600082828151811061094b5761094a611a39565b5b602002602001015160008151811061096657610965611a39565b5b602002602001015110155b6109b0576040517f08c379a00000000000000000000000000000000000000000000000000000000081526004016109a790611c9b565b60405180910390fd5b60648282815181106109c5576109c4611a39565b5b60200260200101516001815181106109e0576109df611a39565b5b6020026020010151108015610a2b57506000828281518110610a0557610a04611a39565b5b6020026020010151600181518110610a2057610a1f611a39565b5b602002602001015110155b610a6a576040517f08c379a0000000000000000000000000000000000000000000000000000000008152600401610a6190611d2d565b60405180910390fd5b6064828281518110610a7f57610a7e611a39565b5b6020026020010151600281518110610a9a57610a99611a39565b5b6020026020010151108015610ae557506000828281518110610abf57610abe611a39565b5b6020026020010151600281518110610ada57610ad9611a39565b5b602002602001015110155b610b24576040517f08c379a0000000000000000000000000000000000000000000000000000000008152600401610b1b90611dbf565b60405180910390fd5b8080610b2f906118ec565b91505061088f565b503460026000828254610b4a9190611849565b9250508190555060005b8151811015610d2657600c828281518110610b7257610b71611a39565b5b6020026020010151604051602001610b8a9190611e48565b6040516020818303038152906040528051906020012060001c9080600181540180825580915050600190039060005260206000200160009091909190915055600a60003373ffffffffffffffffffffffffffffffffffffffff1673ffffffffffffffffffffffffffffffffffffffff168152602001908152602001600020828281518110610c1b57610c1a611a39565b5b6020026020010151908060018154018082558091505060019003906000526020600020016000909190919091509080519060200190610c5b929190611103565b5060096000838381518110610c7357610c72611a39565b5b6020026020010151604051602001610c8b9190611e48565b6040516020818303038152906040528051906020012060001c8152602001908152602001600020339080600181540180825580915050600190039060005260206000200160009091909190916101000a81548173ffffffffffffffffffffffffffffffffffffffff021916908373ffffffffffffffffffffffffffffffffffffffff1602179055508080610d1e906118ec565b915050610b54565b507ff9fcd8fad7415931becd04274f2d3e36e2c4a8ccea67edf7a151ac8c2ce93e53600254604051610d5891906112c3565b60405180910390a150565b6000600254905090565b6060600a60003373ffffffffffffffffffffffffffffffffffffffff1673ffffffffffffffffffffffffffffffffffffffff168152602001908152602001600020805480602002602001604051908101604052809291908181526020016000905b82821015610e4057838290600052602060002001805480602002602001604051908101604052809291908181526020018280548015610e2c57602002820191906000526020600020905b815481526020019060010190808311610e18575b505050505081526020019060010190610dce565b50505050905090565b60006009600083604051602001610e6091906119be565b6040516020818303038152906040528051906020012060001c8152602001908152602001600020805490509050919050565b6000600554905090565b610ea46110a1565b600080610ebd84600184610eb89190611849565b61103c565b600a610ec9868561103c565b610ed39190611e5f565b610edd9190611849565b9050600282610eec9190611849565b91506000610f0685600185610f019190611849565b61103c565b600a610f12878661103c565b610f1c9190611e5f565b610f269190611849565b9050600283610f359190611849565b92505b80821415610f8c57610f5685600185610f519190611849565b61103c565b600a610f62878661103c565b610f6c9190611e5f565b610f769190611849565b9050600283610f859190611849565b9250610f38565b6000610fa486600186610f9f9190611849565b61103c565b600a610fb0888761103c565b610fba9190611e5f565b610fc49190611849565b90505b82811480610fd457508181145b1561101657610fef86600186610fea9190611849565b61103c565b600a610ffb888761103c565b6110059190611e5f565b61100f9190611849565b9050610fc7565b604051806060016040528084815260200183815260200182815250945050505050919050565b60008082141561105a57600a836110539190611eb9565b905061109b565b600082600a611069919061201d565b6001846110769190611849565b600a611082919061201d565b8561108d9190611eb9565b6110979190611a08565b1790505b92915050565b6040518060600160405280600390602082028036833780820191505090505090565b82600381019282156110f2579160200282015b828111156110f15782518255916020019190600101906110d6565b5b5090506110ff9190611150565b5090565b82805482825590600052602060002090810192821561113f579160200282015b8281111561113e578251825591602001919060010190611123565b5b50905061114c9190611150565b5090565b5b80821115611169576000816000905550600101611151565b5090565b600060039050919050565b600081905092915050565b6000819050919050565b6000819050919050565b6111a08161118d565b82525050565b60006111b28383611197565b60208301905092915050565b6000602082019050919050565b6111d48161116d565b6111de8184611178565b92506111e982611183565b8060005b8381101561121a57815161120187826111a6565b965061120c836111be565b9250506001810190506111ed565b505050505050565b600060608201905061123760008301846111cb565b92915050565b6000604051905090565b600080fd5b600080fd5b6000819050919050565b61126481611251565b811461126f57600080fd5b50565b6000813590506112818161125b565b92915050565b60006020828403121561129d5761129c611247565b5b60006112ab84828501611272565b91505092915050565b6112bd8161118d565b82525050565b60006020820190506112d860008301846112b4565b92915050565b600080fd5b6000601f19601f8301169050919050565b7f4e487b7100000000000000000000000000000000000000000000000000000000600052604160045260246000fd5b61132c826112e3565b810181811067ffffffffffffffff8211171561134b5761134a6112f4565b5b80604052505050565b600061135e61123d565b905061136a8282611323565b919050565b600067ffffffffffffffff82111561138a576113896112f4565b5b602082029050602081019050919050565b600080fd5b600067ffffffffffffffff8211156113bb576113ba6112f4565b5b602082029050602081019050919050565b6113d58161118d565b81146113e057600080fd5b50565b6000813590506113f2816113cc565b92915050565b600061140b611406846113a0565b611354565b9050808382526020820190506020840283018581111561142e5761142d61139b565b5b835b81811015611457578061144388826113e3565b845260208401935050602081019050611430565b5050509392505050565b600082601f830112611476576114756112de565b5b81356114868482602086016113f8565b91505092915050565b60006114a261149d8461136f565b611354565b905080838252602082019050602084028301858111156114c5576114c461139b565b5b835b8181101561150c57803567ffffffffffffffff8111156114ea576114e96112de565b5b8086016114f78982611461565b855260208501945050506020810190506114c7565b5050509392505050565b600082601f83011261152b5761152a6112de565b5b813561153b84826020860161148f565b91505092915050565b60006020828403121561155a57611559611247565b5b600082013567ffffffffffffffff8111156115785761157761124c565b5b61158484828501611516565b91505092915050565b600081519050919050565b600082825260208201905092915050565b6000819050602082019050919050565b600081519050919050565b600082825260208201905092915050565b6000819050602082019050919050565b6000602082019050919050565b60006115fd826115b9565b61160781856115c4565b9350611612836115d5565b8060005b8381101561164357815161162a88826111a6565b9750611635836115e5565b925050600181019050611616565b5085935050505092915050565b600061165c83836115f2565b905092915050565b6000602082019050919050565b600061167c8261158d565b6116868185611598565b935083602082028501611698856115a9565b8060005b858110156116d457848403895281516116b58582611650565b94506116c083611664565b925060208a0199505060018101905061169c565b50829750879550505050505092915050565b600060208201905081810360008301526117008184611671565b905092915050565b600067ffffffffffffffff821115611723576117226112f4565b5b602082029050919050565b600061174161173c84611708565b611354565b9050806020840283018581111561175b5761175a61139b565b5b835b81811015611784578061177088826113e3565b84526020840193505060208101905061175d565b5050509392505050565b600082601f8301126117a3576117a26112de565b5b60036117b084828561172e565b91505092915050565b6000606082840312156117cf576117ce611247565b5b60006117dd8482850161178e565b91505092915050565b7f4e487b7100000000000000000000000000000000000000000000000000000000600052601160045260246000fd5b60006118208261118d565b915061182b8361118d565b92508282101561183e5761183d6117e6565b5b828203905092915050565b60006118548261118d565b915061185f8361118d565b9250827fffffffffffffffffffffffffffffffffffffffffffffffffffffffffffffffff03821115611894576118936117e6565b5b828201905092915050565b6000819050919050565b6118ba6118b582611251565b61189f565b82525050565b60006118cc82856118a9565b6020820191506118dc82846118a9565b6020820191508190509392505050565b60006118f78261118d565b91507fffffffffffffffffffffffffffffffffffffffffffffffffffffffffffffffff82141561192a576119296117e6565b5b600182019050919050565b600081905092915050565b6119498161118d565b82525050565b600061195b8383611940565b60208301905092915050565b6119708161116d565b61197a8184611935565b925061198582611183565b8060005b838110156119b657815161199d878261194f565b96506119a8836111be565b925050600181019050611989565b505050505050565b60006119ca8284611967565b60608201915081905092915050565b7f4e487b7100000000000000000000000000000000000000000000000000000000600052601260045260246000fd5b6000611a138261118d565b9150611a1e8361118d565b925082611a2e57611a2d6119d9565b5b828204905092915050565b7f4e487b7100000000000000000000000000000000000000000000000000000000600052603260045260246000fd5b600082825260208201905092915050565b7f547275737465642070617274792063616e277420626574000000000000000000600082015250565b6000611aaf601783611a68565b9150611aba82611a79565b602082019050919050565b60006020820190508181036000830152611ade81611aa2565b9050919050565b7f426574732061726520636c6f7365640000000000000000000000000000000000600082015250565b6000611b1b600f83611a68565b9150611b2682611ae5565b602082019050919050565b60006020820190508181036000830152611b4a81611b0e565b9050919050565b7f426574206e6f74207468652072696768742076616c7565206176617800000000600082015250565b6000611b87601c83611a68565b9150611b9282611b51565b602082019050919050565b60006020820190508181036000830152611bb681611b7a565b9050919050565b7f4561636820626574206d75737420686176652033206e756d6265727300000000600082015250565b6000611bf3601c83611a68565b9150611bfe82611bbd565b602082019050919050565b60006020820190508181036000830152611c2281611be6565b9050919050565b7f4e756d6265722031206d757374206265206265747765656e203020616e64203960008201527f3900000000000000000000000000000000000000000000000000000000000000602082015250565b6000611c85602183611a68565b9150611c9082611c29565b604082019050919050565b60006020820190508181036000830152611cb481611c78565b9050919050565b7f4e756d6265722032206d757374206265206265747765656e203020616e64203960008201527f3900000000000000000000000000000000000000000000000000000000000000602082015250565b6000611d17602183611a68565b9150611d2282611cbb565b604082019050919050565b60006020820190508181036000830152611d4681611d0a565b9050919050565b7f4e756d6265722033206d757374206265206265747765656e203020616e64203960008201527f3900000000000000000000000000000000000000000000000000000000000000602082015250565b6000611da9602183611a68565b9150611db482611d4d565b604082019050919050565b60006020820190508181036000830152611dd881611d9c565b9050919050565b600081905092915050565b6000611df5826115b9565b611dff8185611ddf565b9350611e0a836115d5565b8060005b83811015611e3b578151611e22888261194f565b9750611e2d836115e5565b925050600181019050611e0e565b5085935050505092915050565b6000611e548284611dea565b915081905092915050565b6000611e6a8261118d565b9150611e758361118d565b9250817fffffffffffffffffffffffffffffffffffffffffffffffffffffffffffffffff0483118215151615611eae57611ead6117e6565b5b828202905092915050565b6000611ec48261118d565b9150611ecf8361118d565b925082611edf57611ede6119d9565b5b828206905092915050565b60008160011c9050919050565b6000808291508390505b6001851115611f4157808604811115611f1d57611f1c6117e6565b5b6001851615611f2c5780820291505b8081029050611f3a85611eea565b9450611f01565b94509492505050565b600082611f5a5760019050612016565b81611f685760009050612016565b8160018114611f7e5760028114611f8857611fb7565b6001915050612016565b60ff841115611f9a57611f996117e6565b5b8360020a915084821115611fb157611fb06117e6565b5b50612016565b5060208310610133831016604e8410600b8410161715611fec5782820a905083811115611fe757611fe66117e6565b5b612016565b611ff98484846001611ef7565b925090508184048111156120105761200f6117e6565b5b81810290505b9392505050565b60006120288261118d565b91506120338361118d565b92506120607fffffffffffffffffffffffffffffffffffffffffffffffffffffffffffffffff8484611f4a565b90509291505056fea2646970667358221220137536619ec9864a5077f64a6cb3b1c2034e5ba90e30ea0f187ca797b0a7a71964736f6c634300080a0033",
  "linkReferences": {},
  "deployedLinkReferences": {}
}