{
  "_format": "hh-sol-artifact-1",
  "contractName": "Lotto",
  "sourceName": "contracts/Lotto.sol",
  "abi": [
    {
      "inputs": [
        {
          "internalType": "address",
          "name": "_trustedParty",
          "type": "address"
        },
        {
          "internalType": "address payable",
          "name": "_treasury",
          "type": "address"
        }
      ],
      "stateMutability": "nonpayable",
      "type": "constructor"
    },
    {
      "anonymous": false,
      "inputs": [
        {
          "indexed": false,
          "internalType": "uint256[3]",
          "name": "numbers",
          "type": "uint256[3]"
        }
      ],
      "name": "Draw",
      "type": "event"
    },
    {
      "inputs": [],
      "name": "_executePayment",
      "outputs": [],
      "stateMutability": "nonpayable",
      "type": "function"
    },
    {
      "inputs": [
        {
          "internalType": "uint256[3]",
          "name": "_numbers",
          "type": "uint256[3]"
        }
      ],
      "name": "bet",
      "outputs": [],
      "stateMutability": "payable",
      "type": "function"
    },
    {
      "inputs": [
        {
          "internalType": "uint256[3]",
          "name": "_numbers",
          "type": "uint256[3]"
        }
      ],
      "name": "getAmountOfBetForNumbers",
      "outputs": [
        {
          "internalType": "uint256",
          "name": "",
          "type": "uint256"
        }
      ],
      "stateMutability": "view",
      "type": "function"
    },
    {
      "inputs": [],
      "name": "getLastDraw",
      "outputs": [
        {
          "components": [
            {
              "internalType": "address[]",
              "name": "winners",
              "type": "address[]"
            },
            {
              "internalType": "uint256",
              "name": "jackpot",
              "type": "uint256"
            },
            {
              "internalType": "uint256",
              "name": "drawTime",
              "type": "uint256"
            },
            {
              "internalType": "uint256[3]",
              "name": "numbers",
              "type": "uint256[3]"
            },
            {
              "internalType": "bytes32",
              "name": "sealedSeed",
              "type": "bytes32"
            }
          ],
          "internalType": "struct Lotto.LastDraw",
          "name": "",
          "type": "tuple"
        }
      ],
      "stateMutability": "view",
      "type": "function"
    },
    {
      "inputs": [],
      "name": "getLastDrawNumbers",
      "outputs": [
        {
          "internalType": "uint256[3]",
          "name": "",
          "type": "uint256[3]"
        }
      ],
      "stateMutability": "view",
      "type": "function"
    },
    {
      "inputs": [
        {
          "internalType": "uint256",
          "name": "amount",
          "type": "uint256"
        }
      ],
      "name": "payTreasury",
      "outputs": [],
      "stateMutability": "nonpayable",
      "type": "function"
    },
    {
      "inputs": [
        {
          "internalType": "uint256",
          "name": "amount",
          "type": "uint256"
        }
      ],
      "name": "payoutAllWinners",
      "outputs": [],
      "stateMutability": "nonpayable",
      "type": "function"
    },
    {
      "inputs": [
        {
          "internalType": "bytes32",
          "name": "_seed",
          "type": "bytes32"
        }
      ],
      "name": "reveal",
      "outputs": [
        {
          "internalType": "uint256[3]",
          "name": "",
          "type": "uint256[3]"
        }
      ],
      "stateMutability": "nonpayable",
      "type": "function"
    },
    {
      "inputs": [
        {
          "internalType": "bytes32",
          "name": "_sealedSeed",
          "type": "bytes32"
        }
      ],
      "name": "setSealedSeed",
      "outputs": [],
      "stateMutability": "nonpayable",
      "type": "function"
    }
  ],
  "bytecode": "0x60806040526000600460006101000a81548160ff0219169083151502179055506000600460016101000a81548160ff021916908315150217905550600067ffffffffffffffff811115620000585762000057620001cd565b5b604051908082528060200260200182016040528015620000875781602001602082028036833780820191505090505b50600e90805190602001906200009f9291906200015c565b50348015620000ad57600080fd5b5060405162002609380380620026098339818101604052810190620000d39190620002ab565b816000806101000a81548173ffffffffffffffffffffffffffffffffffffffff021916908373ffffffffffffffffffffffffffffffffffffffff16021790555080600160006101000a81548173ffffffffffffffffffffffffffffffffffffffff021916908373ffffffffffffffffffffffffffffffffffffffff1602179055505050620002f2565b8280548282559060005260206000209081019282156200019b579160200282015b828111156200019a5782518255916020019190600101906200017d565b5b509050620001aa9190620001ae565b5090565b5b80821115620001c9576000816000905550600101620001af565b5090565b7f4e487b7100000000000000000000000000000000000000000000000000000000600052604160045260246000fd5b600080fd5b600073ffffffffffffffffffffffffffffffffffffffff82169050919050565b60006200022e8262000201565b9050919050565b620002408162000221565b81146200024c57600080fd5b50565b600081519050620002608162000235565b92915050565b6000620002738262000201565b9050919050565b620002858162000266565b81146200029157600080fd5b50565b600081519050620002a5816200027a565b92915050565b60008060408385031215620002c557620002c4620001fc565b5b6000620002d5858286016200024f565b9250506020620002e88582860162000294565b9150509250929050565b61230780620003026000396000f3fe6080604052600436106100865760003560e01c8063701fd0f111610059578063701fd0f11461011f578063be8b48d01461015c578063c7f698f914610199578063d9684a7a146101c4578063e4c9806f146101ed57610086565b8063087d0e0b1461008b57806308deb7ed146100b657806341114538146100df5780634534904a14610108575b600080fd5b34801561009757600080fd5b506100a0610209565b6040516100ad91906113fc565b60405180910390f35b3480156100c257600080fd5b506100dd60048036038101906100d89190611452565b610257565b005b3480156100eb57600080fd5b50610106600480360381019061010191906114b5565b6103a0565b005b34801561011457600080fd5b5061011d61047f565b005b34801561012b57600080fd5b50610146600480360381019061014191906114b5565b610571565b60405161015391906113fc565b60405180910390f35b34801561016857600080fd5b50610183600480360381019061017e9190611629565b6107fc565b6040516101909190611665565b60405180910390f35b3480156101a557600080fd5b506101ae610845565b6040516101bb9190611857565b60405180910390f35b3480156101d057600080fd5b506101eb60048036038101906101e69190611452565b610950565b005b61020760048036038101906102029190611629565b610b55565b005b6102116111fc565b600660030160038060200260405190810160405280929190826003801561024d576020028201915b815481526020019060010190808311610239575b5050505050905090565b60008054906101000a900473ffffffffffffffffffffffffffffffffffffffff1673ffffffffffffffffffffffffffffffffffffffff163373ffffffffffffffffffffffffffffffffffffffff16146102e5576040517f08c379a00000000000000000000000000000000000000000000000000000000081526004016102dc906118fc565b60405180910390fd5b600460019054906101000a900460ff16610334576040517f08c379a000000000000000000000000000000000000000000000000000000000815260040161032b90611968565b60405180910390fd5b600160009054906101000a900473ffffffffffffffffffffffffffffffffffffffff1673ffffffffffffffffffffffffffffffffffffffff166108fc829081150290604051600060405180830381858888f1935050505015801561039c573d6000803e3d6000fd5b5050565b60008054906101000a900473ffffffffffffffffffffffffffffffffffffffff1673ffffffffffffffffffffffffffffffffffffffff163373ffffffffffffffffffffffffffffffffffffffff16146103f857600080fd5b600460009054906101000a900460ff161561041257600080fd5b600460019054906101000a900460ff161561042c57600080fd5b6001600460016101000a81548160ff0219169083151502179055508060038190555060014361045b91906119b7565b6005819055506001600460006101000a81548160ff02191690831515021790555050565b60008054906101000a900473ffffffffffffffffffffffffffffffffffffffff1673ffffffffffffffffffffffffffffffffffffffff163373ffffffffffffffffffffffffffffffffffffffff16146104d757600080fd5b600060146002546104e89190611a3c565b90506104f381610257565b806002546105019190611a6d565b6002819055506000600d600060066003016040516020016105229190611b97565b6040516020818303038152906040528051906020012060001c81526020019081526020016000208054905060025461055a9190611a3c565b905061056581610950565b60006002819055505050565b6105796111fc565b60008054906101000a900473ffffffffffffffffffffffffffffffffffffffff1673ffffffffffffffffffffffffffffffffffffffff163373ffffffffffffffffffffffffffffffffffffffff16146105d157600080fd5b600460009054906101000a900460ff166105ea57600080fd5b43600554106105f857600080fd5b600354821461060657600080fd5b6000826005544060405160200161061e929190611bd3565b6040516020818303038152906040528051906020012060001c905061064281610ff7565b600660030190600361065592919061121e565b50826006800181905550600254600660010181905550600d600060066003016040516020016106849190611b97565b6040516020818303038152906040528051906020012060001c815260200190815260200160002060066000019080546106be92919061125e565b50600060025411156106d3576106d261047f565b5b60005b600e8054905081101561073357600d6000600e83815481106106fb576106fa611bff565b5b90600052602060002001548152602001908152602001600020600061072091906112b0565b808061072b90611c2e565b9150506106d6565b50600e600061074291906112d1565b7f782d7ce763b28c71c4396c26548d32590c3a1f9649900b813dad7d691fead90160066003016040516107759190611cd5565b60405180910390a16000600460006101000a81548160ff0219169083151502179055506000600460016101000a81548160ff02191690831515021790555060066003016003806020026040519081016040528092919082600380156107ef576020028201915b8154815260200190600101908083116107db575b5050505050915050919050565b6000600d6000836040516020016108139190611d47565b6040516020818303038152906040528051906020012060001c8152602001908152602001600020805490509050919050565b61084d6112f2565b60066040518060a0016040529081600082018054806020026020016040519081016040528092919081815260200182805480156108df57602002820191906000526020600020905b8160009054906101000a900473ffffffffffffffffffffffffffffffffffffffff1673ffffffffffffffffffffffffffffffffffffffff1681526020019060010190808311610895575b50505050508152602001600182015481526020016002820154815260200160038201600380602002604051908101604052809291908260038015610938576020028201915b815481526020019060010190808311610924575b50505050508152602001600682015481525050905090565b60008054906101000a900473ffffffffffffffffffffffffffffffffffffffff1673ffffffffffffffffffffffffffffffffffffffff163373ffffffffffffffffffffffffffffffffffffffff16146109de576040517f08c379a00000000000000000000000000000000000000000000000000000000081526004016109d5906118fc565b60405180910390fd5b600460019054906101000a900460ff16610a2d576040517f08c379a0000000000000000000000000000000000000000000000000000000008152600401610a2490611968565b60405180910390fd5b60005b600d60006006600301604051602001610a499190611b97565b6040516020818303038152906040528051906020012060001c815260200190815260200160002080549050811015610b5157600d60006006600301604051602001610a949190611b97565b6040516020818303038152906040528051906020012060001c81526020019081526020016000208181548110610acd57610acc611bff565b5b9060005260206000200160009054906101000a900473ffffffffffffffffffffffffffffffffffffffff1673ffffffffffffffffffffffffffffffffffffffff166108fc839081150290604051600060405180830381858888f19350505050158015610b3d573d6000803e3d6000fd5b508080610b4990611c2e565b915050610a30565b5050565b60008054906101000a900473ffffffffffffffffffffffffffffffffffffffff1673ffffffffffffffffffffffffffffffffffffffff163373ffffffffffffffffffffffffffffffffffffffff161415610be4576040517f08c379a0000000000000000000000000000000000000000000000000000000008152600401610bdb90611dae565b60405180910390fd5b600460019054906101000a900460ff1615610c34576040517f08c379a0000000000000000000000000000000000000000000000000000000008152600401610c2b90611e1a565b60405180910390fd5b670de0b6b3a76400003414610c7e576040517f08c379a0000000000000000000000000000000000000000000000000000000008152600401610c7590611e86565b60405180910390fd5b80600160038110610c9257610c91611bff565b5b602002015181600060038110610cab57610caa611bff565b5b602002015114158015610cee575080600260038110610ccd57610ccc611bff565b5b602002015181600060038110610ce657610ce5611bff565b5b602002015114155b8015610d2a575080600260038110610d0957610d08611bff565b5b602002015181600160038110610d2257610d21611bff565b5b602002015114155b610d69576040517f08c379a0000000000000000000000000000000000000000000000000000000008152600401610d6090611ef2565b60405180910390fd5b600081600060038110610d7f57610d7e611bff565b5b602002015110158015610dab5750606381600060038110610da357610da2611bff565b5b602002015111155b610dea576040517f08c379a0000000000000000000000000000000000000000000000000000000008152600401610de190611f84565b60405180910390fd5b600081600160038110610e0057610dff611bff565b5b602002015110158015610e2c5750606381600160038110610e2457610e23611bff565b5b602002015111155b610e6b576040517f08c379a0000000000000000000000000000000000000000000000000000000008152600401610e6290612016565b60405180910390fd5b600081600260038110610e8157610e80611bff565b5b602002015110158015610ead5750606381600260038110610ea557610ea4611bff565b5b602002015111155b610eec576040517f08c379a0000000000000000000000000000000000000000000000000000000008152600401610ee3906120a8565b60405180910390fd5b3460026000828254610efe91906119b7565b92505081905550600e81604051602001610f189190611d47565b6040516020818303038152906040528051906020012060001c9080600181540180825580915050600190039060005260206000200160009091909190915055600d600082604051602001610f6c9190611d47565b6040516020818303038152906040528051906020012060001c8152602001908152602001600020339080600181540180825580915050600190039060005260206000200160009091909190916101000a81548173ffffffffffffffffffffffffffffffffffffffff021916908373ffffffffffffffffffffffffffffffffffffffff16021790555050565b610fff6111fc565b6000806110188460018461101391906119b7565b611197565b600a6110248685611197565b61102e91906120c8565b61103891906119b7565b905060028261104791906119b7565b915060006110618560018561105c91906119b7565b611197565b600a61106d8786611197565b61107791906120c8565b61108191906119b7565b905060028361109091906119b7565b92505b808214156110e7576110b1856001856110ac91906119b7565b611197565b600a6110bd8786611197565b6110c791906120c8565b6110d191906119b7565b90506002836110e091906119b7565b9250611093565b60006110ff866001866110fa91906119b7565b611197565b600a61110b8887611197565b61111591906120c8565b61111f91906119b7565b90505b8281148061112f57508181145b156111715761114a8660018661114591906119b7565b611197565b600a6111568887611197565b61116091906120c8565b61116a91906119b7565b9050611122565b604051806060016040528084815260200183815260200182815250945050505050919050565b6000808214156111b557600a836111ae9190612122565b90506111f6565b600082600a6111c49190612286565b6001846111d191906119b7565b600a6111dd9190612286565b856111e89190612122565b6111f29190611a3c565b1790505b92915050565b6040518060600160405280600390602082028036833780820191505090505090565b826003810192821561124d579160200282015b8281111561124c578251825591602001919060010190611231565b5b50905061125a919061132a565b5090565b82805482825590600052602060002090810192821561129f5760005260206000209182015b8281111561129e578254825591600101919060010190611283565b5b5090506112ac919061132a565b5090565b50805460008255906000526020600020908101906112ce919061132a565b50565b50805460008255906000526020600020908101906112ef919061132a565b50565b6040518060a0016040528060608152602001600081526020016000815260200161131a6111fc565b8152602001600080191681525090565b5b8082111561134357600081600090555060010161132b565b5090565b600060039050919050565b600081905092915050565b6000819050919050565b6000819050919050565b61137a81611367565b82525050565b600061138c8383611371565b60208301905092915050565b6000602082019050919050565b6113ae81611347565b6113b88184611352565b92506113c38261135d565b8060005b838110156113f45781516113db8782611380565b96506113e683611398565b9250506001810190506113c7565b505050505050565b600060608201905061141160008301846113a5565b92915050565b6000604051905090565b600080fd5b61142f81611367565b811461143a57600080fd5b50565b60008135905061144c81611426565b92915050565b60006020828403121561146857611467611421565b5b60006114768482850161143d565b91505092915050565b6000819050919050565b6114928161147f565b811461149d57600080fd5b50565b6000813590506114af81611489565b92915050565b6000602082840312156114cb576114ca611421565b5b60006114d9848285016114a0565b91505092915050565b600080fd5b6000601f19601f8301169050919050565b7f4e487b7100000000000000000000000000000000000000000000000000000000600052604160045260246000fd5b611530826114e7565b810181811067ffffffffffffffff8211171561154f5761154e6114f8565b5b80604052505050565b6000611562611417565b905061156e8282611527565b919050565b600067ffffffffffffffff82111561158e5761158d6114f8565b5b602082029050919050565b600080fd5b60006115b16115ac84611573565b611558565b905080602084028301858111156115cb576115ca611599565b5b835b818110156115f457806115e0888261143d565b8452602084019350506020810190506115cd565b5050509392505050565b600082601f830112611613576116126114e2565b5b600361162084828561159e565b91505092915050565b60006060828403121561163f5761163e611421565b5b600061164d848285016115fe565b91505092915050565b61165f81611367565b82525050565b600060208201905061167a6000830184611656565b92915050565b600081519050919050565b600082825260208201905092915050565b6000819050602082019050919050565b600073ffffffffffffffffffffffffffffffffffffffff82169050919050565b60006116d7826116ac565b9050919050565b6116e7816116cc565b82525050565b60006116f983836116de565b60208301905092915050565b6000602082019050919050565b600061171d82611680565b611727818561168b565b93506117328361169c565b8060005b8381101561176357815161174a88826116ed565b975061175583611705565b925050600181019050611736565b5085935050505092915050565b600081905092915050565b61178481611347565b61178e8184611770565b92506117998261135d565b8060005b838110156117ca5781516117b18782611380565b96506117bc83611398565b92505060018101905061179d565b505050505050565b6117db8161147f565b82525050565b600060e08301600083015184820360008601526117fe8282611712565b91505060208301516118136020860182611371565b5060408301516118266040860182611371565b506060830151611839606086018261177b565b50608083015161184c60c08601826117d2565b508091505092915050565b6000602082019050818103600083015261187181846117e1565b905092915050565b600082825260208201905092915050565b7f5468697320616374696f6e2063616e206f6e6c792062652074616b656e20776860008201527f656e2074686520626574732061726520636c6f73656400000000000000000000602082015250565b60006118e6603683611879565b91506118f18261188a565b604082019050919050565b60006020820190508181036000830152611915816118d9565b9050919050565b7f4265747320617265206e6f7420636c6f73656400000000000000000000000000600082015250565b6000611952601383611879565b915061195d8261191c565b602082019050919050565b6000602082019050818103600083015261198181611945565b9050919050565b7f4e487b7100000000000000000000000000000000000000000000000000000000600052601160045260246000fd5b60006119c282611367565b91506119cd83611367565b9250827fffffffffffffffffffffffffffffffffffffffffffffffffffffffffffffffff03821115611a0257611a01611988565b5b828201905092915050565b7f4e487b7100000000000000000000000000000000000000000000000000000000600052601260045260246000fd5b6000611a4782611367565b9150611a5283611367565b925082611a6257611a61611a0d565b5b828204905092915050565b6000611a7882611367565b9150611a8383611367565b925082821015611a9657611a95611988565b5b828203905092915050565b600060039050919050565b600081905092915050565b6000819050919050565b611aca81611367565b82525050565b6000611adc8383611ac1565b60208301905092915050565b60008160001c9050919050565b6000819050919050565b6000611b12611b0d83611ae8565b611af5565b9050919050565b6000611b258254611aff565b9050919050565b6000600182019050919050565b611b4281611aa1565b611b4c8184611aac565b9250611b5782611ab7565b8060005b83811015611b8f57611b6c82611b19565b611b768782611ad0565b9650611b8183611b2c565b925050600181019050611b5b565b505050505050565b6000611ba38284611b39565b60608201915081905092915050565b6000819050919050565b611bcd611bc88261147f565b611bb2565b82525050565b6000611bdf8285611bbc565b602082019150611bef8284611bbc565b6020820191508190509392505050565b7f4e487b7100000000000000000000000000000000000000000000000000000000600052603260045260246000fd5b6000611c3982611367565b91507fffffffffffffffffffffffffffffffffffffffffffffffffffffffffffffffff821415611c6c57611c6b611988565b5b600182019050919050565b611c8081611aa1565b611c8a8184611352565b9250611c9582611ab7565b8060005b83811015611ccd57611caa82611b19565b611cb48782611380565b9650611cbf83611b2c565b925050600181019050611c99565b505050505050565b6000606082019050611cea6000830184611c77565b92915050565b611cf981611347565b611d038184611aac565b9250611d0e8261135d565b8060005b83811015611d3f578151611d268782611ad0565b9650611d3183611398565b925050600181019050611d12565b505050505050565b6000611d538284611cf0565b60608201915081905092915050565b7f547275737465642070617274792063616e277420626574000000000000000000600082015250565b6000611d98601783611879565b9150611da382611d62565b602082019050919050565b60006020820190508181036000830152611dc781611d8b565b9050919050565b7f426574732061726520636c6f7365640000000000000000000000000000000000600082015250565b6000611e04600f83611879565b9150611e0f82611dce565b602082019050919050565b60006020820190508181036000830152611e3381611df7565b9050919050565b7f426574206d757374206265203120617661780000000000000000000000000000600082015250565b6000611e70601283611879565b9150611e7b82611e3a565b602082019050919050565b60006020820190508181036000830152611e9f81611e63565b9050919050565b7f45616368206e756d626572206d75737420626520756e69717565000000000000600082015250565b6000611edc601a83611879565b9150611ee782611ea6565b602082019050919050565b60006020820190508181036000830152611f0b81611ecf565b9050919050565b7f4e756d6265722031206d757374206265206265747765656e203020616e64203960008201527f3900000000000000000000000000000000000000000000000000000000000000602082015250565b6000611f6e602183611879565b9150611f7982611f12565b604082019050919050565b60006020820190508181036000830152611f9d81611f61565b9050919050565b7f4e756d6265722032206d757374206265206265747765656e203020616e64203960008201527f3900000000000000000000000000000000000000000000000000000000000000602082015250565b6000612000602183611879565b915061200b82611fa4565b604082019050919050565b6000602082019050818103600083015261202f81611ff3565b9050919050565b7f4e756d6265722033206d757374206265206265747765656e203020616e64203960008201527f3900000000000000000000000000000000000000000000000000000000000000602082015250565b6000612092602183611879565b915061209d82612036565b604082019050919050565b600060208201905081810360008301526120c181612085565b9050919050565b60006120d382611367565b91506120de83611367565b9250817fffffffffffffffffffffffffffffffffffffffffffffffffffffffffffffffff048311821515161561211757612116611988565b5b828202905092915050565b600061212d82611367565b915061213883611367565b92508261214857612147611a0d565b5b828206905092915050565b60008160011c9050919050565b6000808291508390505b60018511156121aa5780860481111561218657612185611988565b5b60018516156121955780820291505b80810290506121a385612153565b945061216a565b94509492505050565b6000826121c3576001905061227f565b816121d1576000905061227f565b81600181146121e757600281146121f157612220565b600191505061227f565b60ff84111561220357612202611988565b5b8360020a91508482111561221a57612219611988565b5b5061227f565b5060208310610133831016604e8410600b84101617156122555782820a9050838111156122505761224f611988565b5b61227f565b6122628484846001612160565b9250905081840481111561227957612278611988565b5b81810290505b9392505050565b600061229182611367565b915061229c83611367565b92506122c97fffffffffffffffffffffffffffffffffffffffffffffffffffffffffffffffff84846121b3565b90509291505056fea26469706673582212208a7bca307a6ef3908fd3d7f8fc18e6f88145fb3b8e42da21c22fa80a7879792064736f6c634300080a0033",
  "linkReferences": {},
  "deployedLinkReferences": {}
}