{
  "_format": "hh-sol-artifact-1",
  "contractName": "Lotto",
  "sourceName": "contracts/Lotto.sol",
  "abi": [
    {
      "inputs": [
        {
          "internalType": "address",
          "name": "_trustedParty",
          "type": "address"
        },
        {
          "internalType": "address payable",
          "name": "_treasury",
          "type": "address"
        },
        {
          "internalType": "uint256",
          "name": "_ticketValue",
          "type": "uint256"
        },
        {
          "internalType": "uint256",
          "name": "_drawDaysInterval",
          "type": "uint256"
        },
        {
          "internalType": "uint256",
          "name": "_protocolFeePercen",
          "type": "uint256"
        }
      ],
      "stateMutability": "nonpayable",
      "type": "constructor"
    },
    {
      "anonymous": false,
      "inputs": [
        {
          "indexed": false,
          "internalType": "uint256[3]",
          "name": "numbers",
          "type": "uint256[3]"
        }
      ],
      "name": "Draw",
      "type": "event"
    },
    {
      "anonymous": false,
      "inputs": [
        {
          "indexed": false,
          "internalType": "uint256",
          "name": "jackpot",
          "type": "uint256"
        }
      ],
      "name": "jackpotUpdated",
      "type": "event"
    },
    {
      "inputs": [
        {
          "internalType": "uint256[][]",
          "name": "_bets",
          "type": "uint256[][]"
        }
      ],
      "name": "bet",
      "outputs": [],
      "stateMutability": "payable",
      "type": "function"
    },
    {
      "inputs": [
        {
          "internalType": "uint256[3]",
          "name": "_numbers",
          "type": "uint256[3]"
        }
      ],
      "name": "getAmountOfBetForNumbers",
      "outputs": [
        {
          "internalType": "uint256",
          "name": "",
          "type": "uint256"
        }
      ],
      "stateMutability": "view",
      "type": "function"
    },
    {
      "inputs": [],
      "name": "getBets",
      "outputs": [
        {
          "internalType": "uint256[][]",
          "name": "",
          "type": "uint256[][]"
        }
      ],
      "stateMutability": "view",
      "type": "function"
    },
    {
      "inputs": [],
      "name": "getCurrentJackpot",
      "outputs": [
        {
          "internalType": "uint256",
          "name": "",
          "type": "uint256"
        }
      ],
      "stateMutability": "view",
      "type": "function"
    },
    {
      "inputs": [],
      "name": "getLastDrawNumbers",
      "outputs": [
        {
          "internalType": "uint256[3]",
          "name": "",
          "type": "uint256[3]"
        }
      ],
      "stateMutability": "view",
      "type": "function"
    },
    {
      "inputs": [],
      "name": "getNextDrawTime",
      "outputs": [
        {
          "internalType": "uint256",
          "name": "",
          "type": "uint256"
        }
      ],
      "stateMutability": "view",
      "type": "function"
    },
    {
      "inputs": [],
      "name": "getTicketPrice",
      "outputs": [
        {
          "internalType": "uint256",
          "name": "",
          "type": "uint256"
        }
      ],
      "stateMutability": "view",
      "type": "function"
    },
    {
      "inputs": [
        {
          "internalType": "bytes32",
          "name": "_seed",
          "type": "bytes32"
        }
      ],
      "name": "reveal",
      "outputs": [
        {
          "internalType": "uint256[3]",
          "name": "",
          "type": "uint256[3]"
        }
      ],
      "stateMutability": "nonpayable",
      "type": "function"
    },
    {
      "inputs": [
        {
          "internalType": "uint256",
          "name": "_feePercen",
          "type": "uint256"
        }
      ],
      "name": "setProtocolFee",
      "outputs": [],
      "stateMutability": "nonpayable",
      "type": "function"
    },
    {
      "inputs": [
        {
          "internalType": "bytes32",
          "name": "_sealedSeed",
          "type": "bytes32"
        }
      ],
      "name": "setSealedSeed",
      "outputs": [],
      "stateMutability": "nonpayable",
      "type": "function"
    }
  ],
  "bytecode": "0x608060405260006004556000600860006101000a81548160ff0219169083151502179055506000600860016101000a81548160ff0219169083151502179055506000600860026101000a81548160ff021916908315150217905550600067ffffffffffffffff81111562000078576200007762000222565b5b604051908082528060200260200182016040528015620000a75781602001602082028036833780820191505090505b50600d9080519060200190620000bf929190620001b1565b50348015620000cd57600080fd5b50604051620027b1380380620027b18339818101604052810190620000f391906200033b565b846000806101000a81548173ffffffffffffffffffffffffffffffffffffffff021916908373ffffffffffffffffffffffffffffffffffffffff16021790555083600160006101000a81548173ffffffffffffffffffffffffffffffffffffffff021916908373ffffffffffffffffffffffffffffffffffffffff1602179055508260038190555062015180826200018c9190620003f2565b4262000199919062000453565b600581905550806006819055505050505050620004b0565b828054828255906000526020600020908101928215620001f0579160200282015b82811115620001ef578251825591602001919060010190620001d2565b5b509050620001ff919062000203565b5090565b5b808211156200021e57600081600090555060010162000204565b5090565b7f4e487b7100000000000000000000000000000000000000000000000000000000600052604160045260246000fd5b600080fd5b600073ffffffffffffffffffffffffffffffffffffffff82169050919050565b6000620002838262000256565b9050919050565b620002958162000276565b8114620002a157600080fd5b50565b600081519050620002b5816200028a565b92915050565b6000620002c88262000256565b9050919050565b620002da81620002bb565b8114620002e657600080fd5b50565b600081519050620002fa81620002cf565b92915050565b6000819050919050565b620003158162000300565b81146200032157600080fd5b50565b60008151905062000335816200030a565b92915050565b600080600080600060a086880312156200035a576200035962000251565b5b60006200036a88828901620002a4565b95505060206200037d88828901620002e9565b9450506040620003908882890162000324565b9350506060620003a38882890162000324565b9250506080620003b68882890162000324565b9150509295509295909350565b7f4e487b7100000000000000000000000000000000000000000000000000000000600052601160045260246000fd5b6000620003ff8262000300565b91506200040c8362000300565b9250817fffffffffffffffffffffffffffffffffffffffffffffffffffffffffffffffff0483118215151615620004485762000447620003c3565b5b828202905092915050565b6000620004608262000300565b91506200046d8362000300565b9250827fffffffffffffffffffffffffffffffffffffffffffffffffffffffffffffffff03821115620004a557620004a4620003c3565b5b828201905092915050565b6122f180620004c06000396000f3fe6080604052600436106100915760003560e01c80639a58bfee116100595780639a58bfee1461017b5780639f57d16e14610197578063a6afd5fd146101c2578063be8b48d0146101ed578063ecfea5d51461022a57610091565b8063087d0e0b1461009657806341114538146100c1578063701fd0f1146100ea578063787dce3d1461012757806387bb7ae014610150575b600080fd5b3480156100a257600080fd5b506100ab610255565b6040516100b8919061131a565b60405180910390f35b3480156100cd57600080fd5b506100e860048036038101906100e3919061137f565b6102bf565b005b3480156100f657600080fd5b50610111600480360381019061010c919061137f565b61039e565b60405161011e919061131a565b60405180910390f35b34801561013357600080fd5b5061014e600480360381019061014991906113d8565b610756565b005b34801561015c57600080fd5b506101656107b8565b6040516101729190611414565b60405180910390f35b61019560048036038101906101909190611669565b6107c2565b005b3480156101a357600080fd5b506101ac610e5b565b6040516101b99190611414565b60405180910390f35b3480156101ce57600080fd5b506101d7610e65565b6040516101e4919061180b565b60405180910390f35b3480156101f957600080fd5b50610214600480360381019061020f91906118de565b610f41565b6040516102219190611414565b60405180910390f35b34801561023657600080fd5b5061023f610f8a565b60405161024c9190611414565b60405180910390f35b61025d611199565b600c60006001600454610270919061193a565b81526020019081526020016000206003806020026040519081016040528092919082600380156102b5576020028201915b8154815260200190600101908083116102a1575b5050505050905090565b60008054906101000a900473ffffffffffffffffffffffffffffffffffffffff1673ffffffffffffffffffffffffffffffffffffffff163373ffffffffffffffffffffffffffffffffffffffff161461031757600080fd5b600860009054906101000a900460ff161561033157600080fd5b600860019054906101000a900460ff161561034b57600080fd5b6001600860016101000a81548160ff0219169083151502179055508060078190555060014361037a919061196e565b6009819055506001600860006101000a81548160ff02191690831515021790555050565b6103a6611199565b60008054906101000a900473ffffffffffffffffffffffffffffffffffffffff1673ffffffffffffffffffffffffffffffffffffffff163373ffffffffffffffffffffffffffffffffffffffff16146103fe57600080fd5b600860009054906101000a900460ff1661041757600080fd5b436009541061042557600080fd5b600754821461043357600080fd5b6000826009544060405160200161044b9291906119e5565b6040516020818303038152906040528051906020012060001c9050600061047182610f94565b905080600c600060045481526020019081526020016000209060036104979291906111bb565b50600460008154809291906104ab90611a11565b91905055507f782d7ce763b28c71c4396c26548d32590c3a1f9649900b813dad7d691fead901816040516104df919061131a565b60405180910390a16000600a6000836040516020016104fe9190611ae3565b6040516020818303038152906040528051906020012060001c81526020019081526020016000208054905011600860026101000a81548160ff021916908315150217905550600860029054906101000a900460ff1615610700576000600a60008360405160200161056f9190611ae3565b6040516020818303038152906040528051906020012060001c81526020019081526020016000208054905090506000816002546105ac9190611b2d565b905060005b828110156106eb576000600a6000866040516020016105d09190611ae3565b6040516020818303038152906040528051906020012060001c8152602001908152602001600020828154811061060957610608611b5e565b5b9060005260206000200160009054906101000a900473ffffffffffffffffffffffffffffffffffffffff169050600160009054906101000a900473ffffffffffffffffffffffffffffffffffffffff1673ffffffffffffffffffffffffffffffffffffffff1663a31c1d6e84836040518363ffffffff1660e01b8152600401610693929190611c2b565b6020604051808303816000875af11580156106b2573d6000803e3d6000fd5b505050506040513d601f19601f820116820180604052508101906106d69190611c9f565b505080806106e390611a11565b9150506105b1565b50600060028190555082945050505050610751565b6000600860006101000a81548160ff0219169083151502179055506000600860016101000a81548160ff02191690831515021790555062093a8043610745919061196e565b60058190555080925050505b919050565b60008054906101000a900473ffffffffffffffffffffffffffffffffffffffff1673ffffffffffffffffffffffffffffffffffffffff163373ffffffffffffffffffffffffffffffffffffffff16146107ae57600080fd5b8060068190555050565b6000600354905090565b60008054906101000a900473ffffffffffffffffffffffffffffffffffffffff1673ffffffffffffffffffffffffffffffffffffffff163373ffffffffffffffffffffffffffffffffffffffff161415610851576040517f08c379a000000000000000000000000000000000000000000000000000000000815260040161084890611d18565b60405180910390fd5b600860019054906101000a900460ff16156108a1576040517f08c379a000000000000000000000000000000000000000000000000000000000815260040161089890611d84565b60405180910390fd5b6003548151346108b19190611b2d565b146108f1576040517f08c379a00000000000000000000000000000000000000000000000000000000081526004016108e890611df0565b60405180910390fd5b60005b8151811015610b9c57600382828151811061091257610911611b5e565b5b6020026020010151511461095b576040517f08c379a000000000000000000000000000000000000000000000000000000000815260040161095290611e5c565b60405180910390fd5b60648282815181106109705761096f611b5e565b5b602002602001015160008151811061098b5761098a611b5e565b5b60200260200101511080156109d6575060008282815181106109b0576109af611b5e565b5b60200260200101516000815181106109cb576109ca611b5e565b5b602002602001015110155b610a15576040517f08c379a0000000000000000000000000000000000000000000000000000000008152600401610a0c90611eee565b60405180910390fd5b6064828281518110610a2a57610a29611b5e565b5b6020026020010151600181518110610a4557610a44611b5e565b5b6020026020010151108015610a9057506000828281518110610a6a57610a69611b5e565b5b6020026020010151600181518110610a8557610a84611b5e565b5b602002602001015110155b610acf576040517f08c379a0000000000000000000000000000000000000000000000000000000008152600401610ac690611f80565b60405180910390fd5b6064828281518110610ae457610ae3611b5e565b5b6020026020010151600281518110610aff57610afe611b5e565b5b6020026020010151108015610b4a57506000828281518110610b2457610b23611b5e565b5b6020026020010151600281518110610b3f57610b3e611b5e565b5b602002602001015110155b610b89576040517f08c379a0000000000000000000000000000000000000000000000000000000008152600401610b8090612012565b60405180910390fd5b8080610b9490611a11565b9150506108f4565b50600160009054906101000a900473ffffffffffffffffffffffffffffffffffffffff1673ffffffffffffffffffffffffffffffffffffffff166108fc349081150290604051600060405180830381858888f19350505050158015610c05573d6000803e3d6000fd5b506000606460065434610c189190612032565b610c229190611b2d565b90508034610c30919061193a565b60026000828254610c41919061196e565b9250508190555060005b8251811015610e1d57600d838281518110610c6957610c68611b5e565b5b6020026020010151604051602001610c8191906120f5565b6040516020818303038152906040528051906020012060001c9080600181540180825580915050600190039060005260206000200160009091909190915055600b60003373ffffffffffffffffffffffffffffffffffffffff1673ffffffffffffffffffffffffffffffffffffffff168152602001908152602001600020838281518110610d1257610d11611b5e565b5b6020026020010151908060018154018082558091505060019003906000526020600020016000909190919091509080519060200190610d529291906111fb565b50600a6000848381518110610d6a57610d69611b5e565b5b6020026020010151604051602001610d8291906120f5565b6040516020818303038152906040528051906020012060001c8152602001908152602001600020339080600181540180825580915050600190039060005260206000200160009091909190916101000a81548173ffffffffffffffffffffffffffffffffffffffff021916908373ffffffffffffffffffffffffffffffffffffffff1602179055508080610e1590611a11565b915050610c4b565b507ff9fcd8fad7415931becd04274f2d3e36e2c4a8ccea67edf7a151ac8c2ce93e53600254604051610e4f9190611414565b60405180910390a15050565b6000600254905090565b6060600b60003373ffffffffffffffffffffffffffffffffffffffff1673ffffffffffffffffffffffffffffffffffffffff168152602001908152602001600020805480602002602001604051908101604052809291908181526020016000905b82821015610f3857838290600052602060002001805480602002602001604051908101604052809291908181526020018280548015610f2457602002820191906000526020600020905b815481526020019060010190808311610f10575b505050505081526020019060010190610ec6565b50505050905090565b6000600a600083604051602001610f589190611ae3565b6040516020818303038152906040528051906020012060001c8152602001908152602001600020805490509050919050565b6000600554905090565b610f9c611199565b600080610fb584600184610fb0919061196e565b611134565b600a610fc18685611134565b610fcb9190612032565b610fd5919061196e565b9050600282610fe4919061196e565b91506000610ffe85600185610ff9919061196e565b611134565b600a61100a8786611134565b6110149190612032565b61101e919061196e565b905060028361102d919061196e565b92505b808214156110845761104e85600185611049919061196e565b611134565b600a61105a8786611134565b6110649190612032565b61106e919061196e565b905060028361107d919061196e565b9250611030565b600061109c86600186611097919061196e565b611134565b600a6110a88887611134565b6110b29190612032565b6110bc919061196e565b90505b828114806110cc57508181145b1561110e576110e7866001866110e2919061196e565b611134565b600a6110f38887611134565b6110fd9190612032565b611107919061196e565b90506110bf565b604051806060016040528084815260200183815260200182815250945050505050919050565b60008082141561115257600a8361114b919061210c565b9050611193565b600082600a6111619190612270565b60018461116e919061196e565b600a61117a9190612270565b85611185919061210c565b61118f9190611b2d565b1790505b92915050565b6040518060600160405280600390602082028036833780820191505090505090565b82600381019282156111ea579160200282015b828111156111e95782518255916020019190600101906111ce565b5b5090506111f79190611248565b5090565b828054828255906000526020600020908101928215611237579160200282015b8281111561123657825182559160200191906001019061121b565b5b5090506112449190611248565b5090565b5b80821115611261576000816000905550600101611249565b5090565b600060039050919050565b600081905092915050565b6000819050919050565b6000819050919050565b61129881611285565b82525050565b60006112aa838361128f565b60208301905092915050565b6000602082019050919050565b6112cc81611265565b6112d68184611270565b92506112e18261127b565b8060005b838110156113125781516112f9878261129e565b9650611304836112b6565b9250506001810190506112e5565b505050505050565b600060608201905061132f60008301846112c3565b92915050565b6000604051905090565b600080fd5b600080fd5b6000819050919050565b61135c81611349565b811461136757600080fd5b50565b60008135905061137981611353565b92915050565b6000602082840312156113955761139461133f565b5b60006113a38482850161136a565b91505092915050565b6113b581611285565b81146113c057600080fd5b50565b6000813590506113d2816113ac565b92915050565b6000602082840312156113ee576113ed61133f565b5b60006113fc848285016113c3565b91505092915050565b61140e81611285565b82525050565b60006020820190506114296000830184611405565b92915050565b600080fd5b6000601f19601f8301169050919050565b7f4e487b7100000000000000000000000000000000000000000000000000000000600052604160045260246000fd5b61147d82611434565b810181811067ffffffffffffffff8211171561149c5761149b611445565b5b80604052505050565b60006114af611335565b90506114bb8282611474565b919050565b600067ffffffffffffffff8211156114db576114da611445565b5b602082029050602081019050919050565b600080fd5b600067ffffffffffffffff82111561150c5761150b611445565b5b602082029050602081019050919050565b600061153061152b846114f1565b6114a5565b90508083825260208201905060208402830185811115611553576115526114ec565b5b835b8181101561157c578061156888826113c3565b845260208401935050602081019050611555565b5050509392505050565b600082601f83011261159b5761159a61142f565b5b81356115ab84826020860161151d565b91505092915050565b60006115c76115c2846114c0565b6114a5565b905080838252602082019050602084028301858111156115ea576115e96114ec565b5b835b8181101561163157803567ffffffffffffffff81111561160f5761160e61142f565b5b80860161161c8982611586565b855260208501945050506020810190506115ec565b5050509392505050565b600082601f8301126116505761164f61142f565b5b81356116608482602086016115b4565b91505092915050565b60006020828403121561167f5761167e61133f565b5b600082013567ffffffffffffffff81111561169d5761169c611344565b5b6116a98482850161163b565b91505092915050565b600081519050919050565b600082825260208201905092915050565b6000819050602082019050919050565b600081519050919050565b600082825260208201905092915050565b6000819050602082019050919050565b6000602082019050919050565b6000611722826116de565b61172c81856116e9565b9350611737836116fa565b8060005b8381101561176857815161174f888261129e565b975061175a8361170a565b92505060018101905061173b565b5085935050505092915050565b60006117818383611717565b905092915050565b6000602082019050919050565b60006117a1826116b2565b6117ab81856116bd565b9350836020820285016117bd856116ce565b8060005b858110156117f957848403895281516117da8582611775565b94506117e583611789565b925060208a019950506001810190506117c1565b50829750879550505050505092915050565b600060208201905081810360008301526118258184611796565b905092915050565b600067ffffffffffffffff82111561184857611847611445565b5b602082029050919050565b60006118666118618461182d565b6114a5565b905080602084028301858111156118805761187f6114ec565b5b835b818110156118a9578061189588826113c3565b845260208401935050602081019050611882565b5050509392505050565b600082601f8301126118c8576118c761142f565b5b60036118d5848285611853565b91505092915050565b6000606082840312156118f4576118f361133f565b5b6000611902848285016118b3565b91505092915050565b7f4e487b7100000000000000000000000000000000000000000000000000000000600052601160045260246000fd5b600061194582611285565b915061195083611285565b9250828210156119635761196261190b565b5b828203905092915050565b600061197982611285565b915061198483611285565b9250827fffffffffffffffffffffffffffffffffffffffffffffffffffffffffffffffff038211156119b9576119b861190b565b5b828201905092915050565b6000819050919050565b6119df6119da82611349565b6119c4565b82525050565b60006119f182856119ce565b602082019150611a0182846119ce565b6020820191508190509392505050565b6000611a1c82611285565b91507fffffffffffffffffffffffffffffffffffffffffffffffffffffffffffffffff821415611a4f57611a4e61190b565b5b600182019050919050565b600081905092915050565b611a6e81611285565b82525050565b6000611a808383611a65565b60208301905092915050565b611a9581611265565b611a9f8184611a5a565b9250611aaa8261127b565b8060005b83811015611adb578151611ac28782611a74565b9650611acd836112b6565b925050600181019050611aae565b505050505050565b6000611aef8284611a8c565b60608201915081905092915050565b7f4e487b7100000000000000000000000000000000000000000000000000000000600052601260045260246000fd5b6000611b3882611285565b9150611b4383611285565b925082611b5357611b52611afe565b5b828204905092915050565b7f4e487b7100000000000000000000000000000000000000000000000000000000600052603260045260246000fd5b600073ffffffffffffffffffffffffffffffffffffffff82169050919050565b6000611bb882611b8d565b9050919050565b611bc881611bad565b82525050565b600082825260208201905092915050565b7f4156415800000000000000000000000000000000000000000000000000000000600082015250565b6000611c15600483611bce565b9150611c2082611bdf565b602082019050919050565b6000606082019050611c406000830185611405565b611c4d6020830184611bbf565b8181036040830152611c5e81611c08565b90509392505050565b60008115159050919050565b611c7c81611c67565b8114611c8757600080fd5b50565b600081519050611c9981611c73565b92915050565b600060208284031215611cb557611cb461133f565b5b6000611cc384828501611c8a565b91505092915050565b7f547275737465642070617274792063616e277420626574000000000000000000600082015250565b6000611d02601783611bce565b9150611d0d82611ccc565b602082019050919050565b60006020820190508181036000830152611d3181611cf5565b9050919050565b7f426574732061726520636c6f7365640000000000000000000000000000000000600082015250565b6000611d6e600f83611bce565b9150611d7982611d38565b602082019050919050565b60006020820190508181036000830152611d9d81611d61565b9050919050565b7f426574206e6f74207468652072696768742076616c7565206176617800000000600082015250565b6000611dda601c83611bce565b9150611de582611da4565b602082019050919050565b60006020820190508181036000830152611e0981611dcd565b9050919050565b7f4561636820626574206d75737420686176652033206e756d6265727300000000600082015250565b6000611e46601c83611bce565b9150611e5182611e10565b602082019050919050565b60006020820190508181036000830152611e7581611e39565b9050919050565b7f4e756d6265722031206d757374206265206265747765656e203020616e64203960008201527f3900000000000000000000000000000000000000000000000000000000000000602082015250565b6000611ed8602183611bce565b9150611ee382611e7c565b604082019050919050565b60006020820190508181036000830152611f0781611ecb565b9050919050565b7f4e756d6265722032206d757374206265206265747765656e203020616e64203960008201527f3900000000000000000000000000000000000000000000000000000000000000602082015250565b6000611f6a602183611bce565b9150611f7582611f0e565b604082019050919050565b60006020820190508181036000830152611f9981611f5d565b9050919050565b7f4e756d6265722033206d757374206265206265747765656e203020616e64203960008201527f3900000000000000000000000000000000000000000000000000000000000000602082015250565b6000611ffc602183611bce565b915061200782611fa0565b604082019050919050565b6000602082019050818103600083015261202b81611fef565b9050919050565b600061203d82611285565b915061204883611285565b9250817fffffffffffffffffffffffffffffffffffffffffffffffffffffffffffffffff04831182151516156120815761208061190b565b5b828202905092915050565b600081905092915050565b60006120a2826116de565b6120ac818561208c565b93506120b7836116fa565b8060005b838110156120e85781516120cf8882611a74565b97506120da8361170a565b9250506001810190506120bb565b5085935050505092915050565b60006121018284612097565b915081905092915050565b600061211782611285565b915061212283611285565b92508261213257612131611afe565b5b828206905092915050565b60008160011c9050919050565b6000808291508390505b6001851115612194578086048111156121705761216f61190b565b5b600185161561217f5780820291505b808102905061218d8561213d565b9450612154565b94509492505050565b6000826121ad5760019050612269565b816121bb5760009050612269565b81600181146121d157600281146121db5761220a565b6001915050612269565b60ff8411156121ed576121ec61190b565b5b8360020a9150848211156122045761220361190b565b5b50612269565b5060208310610133831016604e8410600b841016171561223f5782820a90508381111561223a5761223961190b565b5b612269565b61224c848484600161214a565b925090508184048111156122635761226261190b565b5b81810290505b9392505050565b600061227b82611285565b915061228683611285565b92506122b37fffffffffffffffffffffffffffffffffffffffffffffffffffffffffffffffff848461219d565b90509291505056fea2646970667358221220d68eb9ebbaea91d0cb4ffbf4e1bed2a61460421fa52556455943c32ded108dd764736f6c634300080a0033",
  "linkReferences": {},
  "deployedLinkReferences": {}
}