{
  "_format": "hh-sol-artifact-1",
  "contractName": "Lotto",
  "sourceName": "contracts/Lotto.sol",
  "abi": [
    {
      "inputs": [
        {
          "internalType": "address",
          "name": "_trustedParty",
          "type": "address"
        },
        {
          "internalType": "address payable",
          "name": "_treasury",
          "type": "address"
        },
        {
          "internalType": "uint256",
          "name": "_ticketValue",
          "type": "uint256"
        }
      ],
      "stateMutability": "nonpayable",
      "type": "constructor"
    },
    {
      "anonymous": false,
      "inputs": [
        {
          "indexed": false,
          "internalType": "uint256[3]",
          "name": "numbers",
          "type": "uint256[3]"
        }
      ],
      "name": "Draw",
      "type": "event"
    },
    {
      "anonymous": false,
      "inputs": [
        {
          "indexed": false,
          "internalType": "uint256",
          "name": "jackpot",
          "type": "uint256"
        }
      ],
      "name": "jackpotUpdated",
      "type": "event"
    },
    {
      "inputs": [
        {
          "internalType": "uint256[3]",
          "name": "_numbers",
          "type": "uint256[3]"
        }
      ],
      "name": "bet",
      "outputs": [],
      "stateMutability": "payable",
      "type": "function"
    },
    {
      "inputs": [
        {
          "internalType": "uint256[3]",
          "name": "_numbers",
          "type": "uint256[3]"
        }
      ],
      "name": "getAmountOfBetForNumbers",
      "outputs": [
        {
          "internalType": "uint256",
          "name": "",
          "type": "uint256"
        }
      ],
      "stateMutability": "view",
      "type": "function"
    },
    {
      "inputs": [],
      "name": "getBets",
      "outputs": [
        {
          "internalType": "uint256[][]",
          "name": "",
          "type": "uint256[][]"
        }
      ],
      "stateMutability": "view",
      "type": "function"
    },
    {
      "inputs": [],
      "name": "getCurrentJackpot",
      "outputs": [
        {
          "internalType": "uint256",
          "name": "",
          "type": "uint256"
        }
      ],
      "stateMutability": "view",
      "type": "function"
    },
    {
      "inputs": [],
      "name": "getLastDrawNumbers",
      "outputs": [
        {
          "internalType": "uint256[3]",
          "name": "",
          "type": "uint256[3]"
        }
      ],
      "stateMutability": "view",
      "type": "function"
    },
    {
      "inputs": [],
      "name": "getNextDrawTime",
      "outputs": [
        {
          "internalType": "uint256",
          "name": "",
          "type": "uint256"
        }
      ],
      "stateMutability": "view",
      "type": "function"
    },
    {
      "inputs": [
        {
          "internalType": "bytes32",
          "name": "_seed",
          "type": "bytes32"
        }
      ],
      "name": "reveal",
      "outputs": [
        {
          "internalType": "uint256[3]",
          "name": "",
          "type": "uint256[3]"
        }
      ],
      "stateMutability": "nonpayable",
      "type": "function"
    },
    {
      "inputs": [
        {
          "internalType": "bytes32",
          "name": "_sealedSeed",
          "type": "bytes32"
        }
      ],
      "name": "setSealedSeed",
      "outputs": [],
      "stateMutability": "nonpayable",
      "type": "function"
    }
  ],
  "bytecode": "0x608060405260006004556000600760006101000a81548160ff0219169083151502179055506000600760016101000a81548160ff0219169083151502179055506000600760026101000a81548160ff021916908315150217905550600067ffffffffffffffff8111156200007857620000776200020c565b5b604051908082528060200260200182016040528015620000a75781602001602082028036833780820191505090505b50600c9080519060200190620000bf9291906200019b565b50348015620000cd57600080fd5b5060405162002137380380620021378339818101604052810190620000f3919062000325565b826000806101000a81548173ffffffffffffffffffffffffffffffffffffffff021916908373ffffffffffffffffffffffffffffffffffffffff16021790555081600160006101000a81548173ffffffffffffffffffffffffffffffffffffffff021916908373ffffffffffffffffffffffffffffffffffffffff1602179055508060038190555062127500426200018c9190620003b0565b6005819055505050506200040d565b828054828255906000526020600020908101928215620001da579160200282015b82811115620001d9578251825591602001919060010190620001bc565b5b509050620001e99190620001ed565b5090565b5b8082111562000208576000816000905550600101620001ee565b5090565b7f4e487b7100000000000000000000000000000000000000000000000000000000600052604160045260246000fd5b600080fd5b600073ffffffffffffffffffffffffffffffffffffffff82169050919050565b60006200026d8262000240565b9050919050565b6200027f8162000260565b81146200028b57600080fd5b50565b6000815190506200029f8162000274565b92915050565b6000620002b28262000240565b9050919050565b620002c481620002a5565b8114620002d057600080fd5b50565b600081519050620002e481620002b9565b92915050565b6000819050919050565b620002ff81620002ea565b81146200030b57600080fd5b50565b6000815190506200031f81620002f4565b92915050565b6000806000606084860312156200034157620003406200023b565b5b600062000351868287016200028e565b93505060206200036486828701620002d3565b925050604062000377868287016200030e565b9150509250925092565b7f4e487b7100000000000000000000000000000000000000000000000000000000600052601160045260246000fd5b6000620003bd82620002ea565b9150620003ca83620002ea565b9250827fffffffffffffffffffffffffffffffffffffffffffffffffffffffffffffffff0382111562000402576200040162000381565b5b828201905092915050565b611d1a806200041d6000396000f3fe60806040526004361061007b5760003560e01c8063a6afd5fd1161004e578063a6afd5fd1461013c578063be8b48d014610167578063e4c9806f146101a4578063ecfea5d5146101c05761007b565b8063087d0e0b1461008057806341114538146100ab578063701fd0f1146100d45780639f57d16e14610111575b600080fd5b34801561008c57600080fd5b506100956101eb565b6040516100a29190611110565b60405180910390f35b3480156100b757600080fd5b506100d260048036038101906100cd9190611170565b610255565b005b3480156100e057600080fd5b506100fb60048036038101906100f69190611170565b610334565b6040516101089190611110565b60405180910390f35b34801561011d57600080fd5b50610126610708565b60405161013391906111ac565b60405180910390f35b34801561014857600080fd5b50610151610712565b60405161015e9190611320565b60405180910390f35b34801561017357600080fd5b5061018e600480360381019061018991906114b5565b6107ee565b60405161019b91906111ac565b60405180910390f35b6101be60048036038101906101b991906114b5565b610837565b005b3480156101cc57600080fd5b506101d5610d80565b6040516101e291906111ac565b60405180910390f35b6101f3610f8f565b600b600060016004546102069190611511565b815260200190815260200160002060038060200260405190810160405280929190826003801561024b576020028201915b815481526020019060010190808311610237575b5050505050905090565b60008054906101000a900473ffffffffffffffffffffffffffffffffffffffff1673ffffffffffffffffffffffffffffffffffffffff163373ffffffffffffffffffffffffffffffffffffffff16146102ad57600080fd5b600760009054906101000a900460ff16156102c757600080fd5b600760019054906101000a900460ff16156102e157600080fd5b6001600760016101000a81548160ff021916908315150217905550806006819055506001436103109190611545565b6008819055506001600760006101000a81548160ff02191690831515021790555050565b61033c610f8f565b60008054906101000a900473ffffffffffffffffffffffffffffffffffffffff1673ffffffffffffffffffffffffffffffffffffffff163373ffffffffffffffffffffffffffffffffffffffff161461039457600080fd5b600760009054906101000a900460ff166103ad57600080fd5b43600854106103bb57600080fd5b60065482146103c957600080fd5b600082600854406040516020016103e19291906115bc565b6040516020818303038152906040528051906020012060001c9050600061040782610d8a565b905080600b6000600454815260200190815260200160002090600361042d929190610fb1565b5060046000815480929190610441906115e8565b91905055507f782d7ce763b28c71c4396c26548d32590c3a1f9649900b813dad7d691fead901816040516104759190611110565b60405180910390a16000600960008360405160200161049491906116ba565b6040516020818303038152906040528051906020012060001c81526020019081526020016000208054905011600760026101000a81548160ff021916908315150217905550600760029054906101000a900460ff16156106c757600060146002546104ff9190611704565b9050600160009054906101000a900473ffffffffffffffffffffffffffffffffffffffff1673ffffffffffffffffffffffffffffffffffffffff166108fc829081150290604051600060405180830381858888f19350505050158015610569573d6000803e3d6000fd5b50806002546105789190611511565b6002819055506000600960008460405160200161059591906116ba565b6040516020818303038152906040528051906020012060001c81526020019081526020016000208054905090506000816002546105d29190611704565b905060005b828110156106b15760096000866040516020016105f491906116ba565b6040516020818303038152906040528051906020012060001c8152602001908152602001600020818154811061062d5761062c611735565b5b9060005260206000200160009054906101000a900473ffffffffffffffffffffffffffffffffffffffff1673ffffffffffffffffffffffffffffffffffffffff166108fc839081150290604051600060405180830381858888f1935050505015801561069d573d6000803e3d6000fd5b5080806106a9906115e8565b9150506105d7565b5060006002819055508395505050505050610703565b6000600760006101000a81548160ff0219169083151502179055506000600760016101000a81548160ff02191690831515021790555080925050505b919050565b6000600254905090565b6060600a60003373ffffffffffffffffffffffffffffffffffffffff1673ffffffffffffffffffffffffffffffffffffffff168152602001908152602001600020805480602002602001604051908101604052809291908181526020016000905b828210156107e5578382906000526020600020018054806020026020016040519081016040528092919081815260200182805480156107d157602002820191906000526020600020905b8154815260200190600101908083116107bd575b505050505081526020019060010190610773565b50505050905090565b6000600960008360405160200161080591906116ba565b6040516020818303038152906040528051906020012060001c8152602001908152602001600020805490509050919050565b60008054906101000a900473ffffffffffffffffffffffffffffffffffffffff1673ffffffffffffffffffffffffffffffffffffffff163373ffffffffffffffffffffffffffffffffffffffff1614156108c6576040517f08c379a00000000000000000000000000000000000000000000000000000000081526004016108bd906117c1565b60405180910390fd5b600760019054906101000a900460ff1615610916576040517f08c379a000000000000000000000000000000000000000000000000000000000815260040161090d9061182d565b60405180910390fd5b600354341461095a576040517f08c379a000000000000000000000000000000000000000000000000000000000815260040161095190611899565b60405180910390fd5b8060016003811061096e5761096d611735565b5b60200201518160006003811061098757610986611735565b5b6020020151141580156109ca5750806002600381106109a9576109a8611735565b5b6020020151816000600381106109c2576109c1611735565b5b602002015114155b8015610a065750806002600381106109e5576109e4611735565b5b6020020151816001600381106109fe576109fd611735565b5b602002015114155b610a45576040517f08c379a0000000000000000000000000000000000000000000000000000000008152600401610a3c90611905565b60405180910390fd5b600081600060038110610a5b57610a5a611735565b5b602002015110158015610a875750606381600060038110610a7f57610a7e611735565b5b602002015111155b610ac6576040517f08c379a0000000000000000000000000000000000000000000000000000000008152600401610abd90611997565b60405180910390fd5b600081600160038110610adc57610adb611735565b5b602002015110158015610b085750606381600160038110610b0057610aff611735565b5b602002015111155b610b47576040517f08c379a0000000000000000000000000000000000000000000000000000000008152600401610b3e90611a29565b60405180910390fd5b600081600260038110610b5d57610b5c611735565b5b602002015110158015610b895750606381600260038110610b8157610b80611735565b5b602002015111155b610bc8576040517f08c379a0000000000000000000000000000000000000000000000000000000008152600401610bbf90611abb565b60405180910390fd5b3460026000828254610bda9190611545565b92505081905550600c81604051602001610bf491906116ba565b6040516020818303038152906040528051906020012060001c9080600181540180825580915050600190039060005260206000200160009091909190915055600a60003373ffffffffffffffffffffffffffffffffffffffff1673ffffffffffffffffffffffffffffffffffffffff1681526020019081526020016000208190806001815401808255809150506001900390600052602060002001600090919091909150906003610ca6929190610ff1565b506009600082604051602001610cbc91906116ba565b6040516020818303038152906040528051906020012060001c8152602001908152602001600020339080600181540180825580915050600190039060005260206000200160009091909190916101000a81548173ffffffffffffffffffffffffffffffffffffffff021916908373ffffffffffffffffffffffffffffffffffffffff1602179055507ff9fcd8fad7415931becd04274f2d3e36e2c4a8ccea67edf7a151ac8c2ce93e53600254604051610d7591906111ac565b60405180910390a150565b6000600554905090565b610d92610f8f565b600080610dab84600184610da69190611545565b610f2a565b600a610db78685610f2a565b610dc19190611adb565b610dcb9190611545565b9050600282610dda9190611545565b91506000610df485600185610def9190611545565b610f2a565b600a610e008786610f2a565b610e0a9190611adb565b610e149190611545565b9050600283610e239190611545565b92505b80821415610e7a57610e4485600185610e3f9190611545565b610f2a565b600a610e508786610f2a565b610e5a9190611adb565b610e649190611545565b9050600283610e739190611545565b9250610e26565b6000610e9286600186610e8d9190611545565b610f2a565b600a610e9e8887610f2a565b610ea89190611adb565b610eb29190611545565b90505b82811480610ec257508181145b15610f0457610edd86600186610ed89190611545565b610f2a565b600a610ee98887610f2a565b610ef39190611adb565b610efd9190611545565b9050610eb5565b604051806060016040528084815260200183815260200182815250945050505050919050565b600080821415610f4857600a83610f419190611b35565b9050610f89565b600082600a610f579190611c99565b600184610f649190611545565b600a610f709190611c99565b85610f7b9190611b35565b610f859190611704565b1790505b92915050565b6040518060600160405280600390602082028036833780820191505090505090565b8260038101928215610fe0579160200282015b82811115610fdf578251825591602001919060010190610fc4565b5b509050610fed919061103e565b5090565b82805482825590600052602060002090810192821561102d579160200282015b8281111561102c578251825591602001919060010190611011565b5b50905061103a919061103e565b5090565b5b8082111561105757600081600090555060010161103f565b5090565b600060039050919050565b600081905092915050565b6000819050919050565b6000819050919050565b61108e8161107b565b82525050565b60006110a08383611085565b60208301905092915050565b6000602082019050919050565b6110c28161105b565b6110cc8184611066565b92506110d782611071565b8060005b838110156111085781516110ef8782611094565b96506110fa836110ac565b9250506001810190506110db565b505050505050565b600060608201905061112560008301846110b9565b92915050565b6000604051905090565b600080fd5b6000819050919050565b61114d8161113a565b811461115857600080fd5b50565b60008135905061116a81611144565b92915050565b60006020828403121561118657611185611135565b5b60006111948482850161115b565b91505092915050565b6111a68161107b565b82525050565b60006020820190506111c1600083018461119d565b92915050565b600081519050919050565b600082825260208201905092915050565b6000819050602082019050919050565b600081519050919050565b600082825260208201905092915050565b6000819050602082019050919050565b6000602082019050919050565b6000611237826111f3565b61124181856111fe565b935061124c8361120f565b8060005b8381101561127d5781516112648882611094565b975061126f8361121f565b925050600181019050611250565b5085935050505092915050565b6000611296838361122c565b905092915050565b6000602082019050919050565b60006112b6826111c7565b6112c081856111d2565b9350836020820285016112d2856111e3565b8060005b8581101561130e57848403895281516112ef858261128a565b94506112fa8361129e565b925060208a019950506001810190506112d6565b50829750879550505050505092915050565b6000602082019050818103600083015261133a81846112ab565b905092915050565b600080fd5b6000601f19601f8301169050919050565b7f4e487b7100000000000000000000000000000000000000000000000000000000600052604160045260246000fd5b61139082611347565b810181811067ffffffffffffffff821117156113af576113ae611358565b5b80604052505050565b60006113c261112b565b90506113ce8282611387565b919050565b600067ffffffffffffffff8211156113ee576113ed611358565b5b602082029050919050565b600080fd5b6114078161107b565b811461141257600080fd5b50565b600081359050611424816113fe565b92915050565b600061143d611438846113d3565b6113b8565b90508060208402830185811115611457576114566113f9565b5b835b81811015611480578061146c8882611415565b845260208401935050602081019050611459565b5050509392505050565b600082601f83011261149f5761149e611342565b5b60036114ac84828561142a565b91505092915050565b6000606082840312156114cb576114ca611135565b5b60006114d98482850161148a565b91505092915050565b7f4e487b7100000000000000000000000000000000000000000000000000000000600052601160045260246000fd5b600061151c8261107b565b91506115278361107b565b92508282101561153a576115396114e2565b5b828203905092915050565b60006115508261107b565b915061155b8361107b565b9250827fffffffffffffffffffffffffffffffffffffffffffffffffffffffffffffffff038211156115905761158f6114e2565b5b828201905092915050565b6000819050919050565b6115b66115b18261113a565b61159b565b82525050565b60006115c882856115a5565b6020820191506115d882846115a5565b6020820191508190509392505050565b60006115f38261107b565b91507fffffffffffffffffffffffffffffffffffffffffffffffffffffffffffffffff821415611626576116256114e2565b5b600182019050919050565b600081905092915050565b6116458161107b565b82525050565b6000611657838361163c565b60208301905092915050565b61166c8161105b565b6116768184611631565b925061168182611071565b8060005b838110156116b2578151611699878261164b565b96506116a4836110ac565b925050600181019050611685565b505050505050565b60006116c68284611663565b60608201915081905092915050565b7f4e487b7100000000000000000000000000000000000000000000000000000000600052601260045260246000fd5b600061170f8261107b565b915061171a8361107b565b92508261172a576117296116d5565b5b828204905092915050565b7f4e487b7100000000000000000000000000000000000000000000000000000000600052603260045260246000fd5b600082825260208201905092915050565b7f547275737465642070617274792063616e277420626574000000000000000000600082015250565b60006117ab601783611764565b91506117b682611775565b602082019050919050565b600060208201905081810360008301526117da8161179e565b9050919050565b7f426574732061726520636c6f7365640000000000000000000000000000000000600082015250565b6000611817600f83611764565b9150611822826117e1565b602082019050919050565b600060208201905081810360008301526118468161180a565b9050919050565b7f426574206e6f74207468652072696768742076616c7565206176617800000000600082015250565b6000611883601c83611764565b915061188e8261184d565b602082019050919050565b600060208201905081810360008301526118b281611876565b9050919050565b7f45616368206e756d626572206d75737420626520756e69717565000000000000600082015250565b60006118ef601a83611764565b91506118fa826118b9565b602082019050919050565b6000602082019050818103600083015261191e816118e2565b9050919050565b7f4e756d6265722031206d757374206265206265747765656e203020616e64203960008201527f3900000000000000000000000000000000000000000000000000000000000000602082015250565b6000611981602183611764565b915061198c82611925565b604082019050919050565b600060208201905081810360008301526119b081611974565b9050919050565b7f4e756d6265722032206d757374206265206265747765656e203020616e64203960008201527f3900000000000000000000000000000000000000000000000000000000000000602082015250565b6000611a13602183611764565b9150611a1e826119b7565b604082019050919050565b60006020820190508181036000830152611a4281611a06565b9050919050565b7f4e756d6265722033206d757374206265206265747765656e203020616e64203960008201527f3900000000000000000000000000000000000000000000000000000000000000602082015250565b6000611aa5602183611764565b9150611ab082611a49565b604082019050919050565b60006020820190508181036000830152611ad481611a98565b9050919050565b6000611ae68261107b565b9150611af18361107b565b9250817fffffffffffffffffffffffffffffffffffffffffffffffffffffffffffffffff0483118215151615611b2a57611b296114e2565b5b828202905092915050565b6000611b408261107b565b9150611b4b8361107b565b925082611b5b57611b5a6116d5565b5b828206905092915050565b60008160011c9050919050565b6000808291508390505b6001851115611bbd57808604811115611b9957611b986114e2565b5b6001851615611ba85780820291505b8081029050611bb685611b66565b9450611b7d565b94509492505050565b600082611bd65760019050611c92565b81611be45760009050611c92565b8160018114611bfa5760028114611c0457611c33565b6001915050611c92565b60ff841115611c1657611c156114e2565b5b8360020a915084821115611c2d57611c2c6114e2565b5b50611c92565b5060208310610133831016604e8410600b8410161715611c685782820a905083811115611c6357611c626114e2565b5b611c92565b611c758484846001611b73565b92509050818404811115611c8c57611c8b6114e2565b5b81810290505b9392505050565b6000611ca48261107b565b9150611caf8361107b565b9250611cdc7fffffffffffffffffffffffffffffffffffffffffffffffffffffffffffffffff8484611bc6565b90509291505056fea2646970667358221220c8ab14588d08a3f925184bacbee560de766ca57a3f9f2e6d3f5773f11fe5918864736f6c634300080a0033",
  "linkReferences": {},
  "deployedLinkReferences": {}
}