{
  "_format": "hh-sol-artifact-1",
  "contractName": "Lotto",
  "sourceName": "contracts/Lotto.sol",
  "abi": [
    {
      "inputs": [
        {
          "internalType": "address",
          "name": "_trustedParty",
          "type": "address"
        },
        {
          "internalType": "address payable",
          "name": "_treasury",
          "type": "address"
        }
      ],
      "stateMutability": "nonpayable",
      "type": "constructor"
    },
    {
      "anonymous": false,
      "inputs": [
        {
          "indexed": false,
          "internalType": "uint256[3]",
          "name": "numbers",
          "type": "uint256[3]"
        }
      ],
      "name": "Draw",
      "type": "event"
    },
    {
      "anonymous": false,
      "inputs": [
        {
          "indexed": false,
          "internalType": "uint256",
          "name": "jackpot",
          "type": "uint256"
        }
      ],
      "name": "jackpotUpdated",
      "type": "event"
    },
    {
      "inputs": [],
      "name": "_executePayment",
      "outputs": [],
      "stateMutability": "nonpayable",
      "type": "function"
    },
    {
      "inputs": [
        {
          "internalType": "uint256[3]",
          "name": "_numbers",
          "type": "uint256[3]"
        }
      ],
      "name": "bet",
      "outputs": [],
      "stateMutability": "payable",
      "type": "function"
    },
    {
      "inputs": [
        {
          "internalType": "uint256[3]",
          "name": "_numbers",
          "type": "uint256[3]"
        }
      ],
      "name": "getAmountOfBetForNumbers",
      "outputs": [
        {
          "internalType": "uint256",
          "name": "",
          "type": "uint256"
        }
      ],
      "stateMutability": "view",
      "type": "function"
    },
    {
      "inputs": [],
      "name": "getCurrentJackpot",
      "outputs": [
        {
          "internalType": "uint256",
          "name": "",
          "type": "uint256"
        }
      ],
      "stateMutability": "view",
      "type": "function"
    },
    {
      "inputs": [],
      "name": "getLastDraw",
      "outputs": [
        {
          "components": [
            {
              "internalType": "address[]",
              "name": "winners",
              "type": "address[]"
            },
            {
              "internalType": "uint256",
              "name": "jackpot",
              "type": "uint256"
            },
            {
              "internalType": "uint256",
              "name": "drawTime",
              "type": "uint256"
            },
            {
              "internalType": "uint256[3]",
              "name": "numbers",
              "type": "uint256[3]"
            },
            {
              "internalType": "bytes32",
              "name": "sealedSeed",
              "type": "bytes32"
            }
          ],
          "internalType": "struct Lotto.LastDraw",
          "name": "",
          "type": "tuple"
        }
      ],
      "stateMutability": "view",
      "type": "function"
    },
    {
      "inputs": [],
      "name": "getLastDrawNumbers",
      "outputs": [
        {
          "internalType": "uint256[3]",
          "name": "",
          "type": "uint256[3]"
        }
      ],
      "stateMutability": "view",
      "type": "function"
    },
    {
      "inputs": [
        {
          "internalType": "uint256",
          "name": "amount",
          "type": "uint256"
        }
      ],
      "name": "payTreasury",
      "outputs": [],
      "stateMutability": "nonpayable",
      "type": "function"
    },
    {
      "inputs": [
        {
          "internalType": "uint256",
          "name": "amount",
          "type": "uint256"
        }
      ],
      "name": "payoutAllWinners",
      "outputs": [],
      "stateMutability": "nonpayable",
      "type": "function"
    },
    {
      "inputs": [
        {
          "internalType": "bytes32",
          "name": "_seed",
          "type": "bytes32"
        }
      ],
      "name": "reveal",
      "outputs": [
        {
          "internalType": "uint256[3]",
          "name": "",
          "type": "uint256[3]"
        }
      ],
      "stateMutability": "nonpayable",
      "type": "function"
    },
    {
      "inputs": [
        {
          "internalType": "bytes32",
          "name": "_sealedSeed",
          "type": "bytes32"
        }
      ],
      "name": "setSealedSeed",
      "outputs": [],
      "stateMutability": "nonpayable",
      "type": "function"
    }
  ],
  "bytecode": "0x60806040526000600460006101000a81548160ff0219169083151502179055506000600460016101000a81548160ff021916908315150217905550600067ffffffffffffffff811115620000585762000057620001cd565b5b604051908082528060200260200182016040528015620000875781602001602082028036833780820191505090505b50600e90805190602001906200009f9291906200015c565b50348015620000ad57600080fd5b5060405162002682380380620026828339818101604052810190620000d39190620002ab565b816000806101000a81548173ffffffffffffffffffffffffffffffffffffffff021916908373ffffffffffffffffffffffffffffffffffffffff16021790555080600160006101000a81548173ffffffffffffffffffffffffffffffffffffffff021916908373ffffffffffffffffffffffffffffffffffffffff1602179055505050620002f2565b8280548282559060005260206000209081019282156200019b579160200282015b828111156200019a5782518255916020019190600101906200017d565b5b509050620001aa9190620001ae565b5090565b5b80821115620001c9576000816000905550600101620001af565b5090565b7f4e487b7100000000000000000000000000000000000000000000000000000000600052604160045260246000fd5b600080fd5b600073ffffffffffffffffffffffffffffffffffffffff82169050919050565b60006200022e8262000201565b9050919050565b620002408162000221565b81146200024c57600080fd5b50565b600081519050620002608162000235565b92915050565b6000620002738262000201565b9050919050565b620002858162000266565b81146200029157600080fd5b50565b600081519050620002a5816200027a565b92915050565b60008060408385031215620002c557620002c4620001fc565b5b6000620002d5858286016200024f565b9250506020620002e88582860162000294565b9150509250929050565b61238080620003026000396000f3fe6080604052600436106100915760003560e01c80639f57d16e116100595780639f57d16e14610167578063be8b48d014610192578063c7f698f9146101cf578063d9684a7a146101fa578063e4c9806f1461022357610091565b8063087d0e0b1461009657806308deb7ed146100c157806341114538146100ea5780634534904a14610113578063701fd0f11461012a575b600080fd5b3480156100a257600080fd5b506100ab61023f565b6040516100b89190611475565b60405180910390f35b3480156100cd57600080fd5b506100e860048036038101906100e391906114cb565b61028d565b005b3480156100f657600080fd5b50610111600480360381019061010c919061152e565b6103d6565b005b34801561011f57600080fd5b506101286104b5565b005b34801561013657600080fd5b50610151600480360381019061014c919061152e565b6105a7565b60405161015e9190611475565b60405180910390f35b34801561017357600080fd5b5061017c610832565b604051610189919061156a565b60405180910390f35b34801561019e57600080fd5b506101b960048036038101906101b491906116cc565b61083c565b6040516101c6919061156a565b60405180910390f35b3480156101db57600080fd5b506101e4610885565b6040516101f191906118d0565b60405180910390f35b34801561020657600080fd5b50610221600480360381019061021c91906114cb565b610990565b005b61023d600480360381019061023891906116cc565b610b95565b005b610247611275565b6006600301600380602002604051908101604052809291908260038015610283576020028201915b81548152602001906001019080831161026f575b5050505050905090565b60008054906101000a900473ffffffffffffffffffffffffffffffffffffffff1673ffffffffffffffffffffffffffffffffffffffff163373ffffffffffffffffffffffffffffffffffffffff161461031b576040517f08c379a000000000000000000000000000000000000000000000000000000000815260040161031290611975565b60405180910390fd5b600460019054906101000a900460ff1661036a576040517f08c379a0000000000000000000000000000000000000000000000000000000008152600401610361906119e1565b60405180910390fd5b600160009054906101000a900473ffffffffffffffffffffffffffffffffffffffff1673ffffffffffffffffffffffffffffffffffffffff166108fc829081150290604051600060405180830381858888f193505050501580156103d2573d6000803e3d6000fd5b5050565b60008054906101000a900473ffffffffffffffffffffffffffffffffffffffff1673ffffffffffffffffffffffffffffffffffffffff163373ffffffffffffffffffffffffffffffffffffffff161461042e57600080fd5b600460009054906101000a900460ff161561044857600080fd5b600460019054906101000a900460ff161561046257600080fd5b6001600460016101000a81548160ff021916908315150217905550806003819055506001436104919190611a30565b6005819055506001600460006101000a81548160ff02191690831515021790555050565b60008054906101000a900473ffffffffffffffffffffffffffffffffffffffff1673ffffffffffffffffffffffffffffffffffffffff163373ffffffffffffffffffffffffffffffffffffffff161461050d57600080fd5b6000601460025461051e9190611ab5565b90506105298161028d565b806002546105379190611ae6565b6002819055506000600d600060066003016040516020016105589190611c10565b6040516020818303038152906040528051906020012060001c8152602001908152602001600020805490506002546105909190611ab5565b905061059b81610990565b60006002819055505050565b6105af611275565b60008054906101000a900473ffffffffffffffffffffffffffffffffffffffff1673ffffffffffffffffffffffffffffffffffffffff163373ffffffffffffffffffffffffffffffffffffffff161461060757600080fd5b600460009054906101000a900460ff1661062057600080fd5b436005541061062e57600080fd5b600354821461063c57600080fd5b60008260055440604051602001610654929190611c4c565b6040516020818303038152906040528051906020012060001c905061067881611070565b600660030190600361068b929190611297565b50826006800181905550600254600660010181905550600d600060066003016040516020016106ba9190611c10565b6040516020818303038152906040528051906020012060001c815260200190815260200160002060066000019080546106f49291906112d7565b5060006002541115610709576107086104b5565b5b60005b600e8054905081101561076957600d6000600e838154811061073157610730611c78565b5b9060005260206000200154815260200190815260200160002060006107569190611329565b808061076190611ca7565b91505061070c565b50600e6000610778919061134a565b7f782d7ce763b28c71c4396c26548d32590c3a1f9649900b813dad7d691fead90160066003016040516107ab9190611d4e565b60405180910390a16000600460006101000a81548160ff0219169083151502179055506000600460016101000a81548160ff0219169083151502179055506006600301600380602002604051908101604052809291908260038015610825576020028201915b815481526020019060010190808311610811575b5050505050915050919050565b6000600254905090565b6000600d6000836040516020016108539190611dc0565b6040516020818303038152906040528051906020012060001c8152602001908152602001600020805490509050919050565b61088d61136b565b60066040518060a00160405290816000820180548060200260200160405190810160405280929190818152602001828054801561091f57602002820191906000526020600020905b8160009054906101000a900473ffffffffffffffffffffffffffffffffffffffff1673ffffffffffffffffffffffffffffffffffffffff16815260200190600101908083116108d5575b50505050508152602001600182015481526020016002820154815260200160038201600380602002604051908101604052809291908260038015610978576020028201915b815481526020019060010190808311610964575b50505050508152602001600682015481525050905090565b60008054906101000a900473ffffffffffffffffffffffffffffffffffffffff1673ffffffffffffffffffffffffffffffffffffffff163373ffffffffffffffffffffffffffffffffffffffff1614610a1e576040517f08c379a0000000000000000000000000000000000000000000000000000000008152600401610a1590611975565b60405180910390fd5b600460019054906101000a900460ff16610a6d576040517f08c379a0000000000000000000000000000000000000000000000000000000008152600401610a64906119e1565b60405180910390fd5b60005b600d60006006600301604051602001610a899190611c10565b6040516020818303038152906040528051906020012060001c815260200190815260200160002080549050811015610b9157600d60006006600301604051602001610ad49190611c10565b6040516020818303038152906040528051906020012060001c81526020019081526020016000208181548110610b0d57610b0c611c78565b5b9060005260206000200160009054906101000a900473ffffffffffffffffffffffffffffffffffffffff1673ffffffffffffffffffffffffffffffffffffffff166108fc839081150290604051600060405180830381858888f19350505050158015610b7d573d6000803e3d6000fd5b508080610b8990611ca7565b915050610a70565b5050565b60008054906101000a900473ffffffffffffffffffffffffffffffffffffffff1673ffffffffffffffffffffffffffffffffffffffff163373ffffffffffffffffffffffffffffffffffffffff161415610c24576040517f08c379a0000000000000000000000000000000000000000000000000000000008152600401610c1b90611e27565b60405180910390fd5b600460019054906101000a900460ff1615610c74576040517f08c379a0000000000000000000000000000000000000000000000000000000008152600401610c6b90611e93565b60405180910390fd5b670de0b6b3a76400003414610cbe576040517f08c379a0000000000000000000000000000000000000000000000000000000008152600401610cb590611eff565b60405180910390fd5b80600160038110610cd257610cd1611c78565b5b602002015181600060038110610ceb57610cea611c78565b5b602002015114158015610d2e575080600260038110610d0d57610d0c611c78565b5b602002015181600060038110610d2657610d25611c78565b5b602002015114155b8015610d6a575080600260038110610d4957610d48611c78565b5b602002015181600160038110610d6257610d61611c78565b5b602002015114155b610da9576040517f08c379a0000000000000000000000000000000000000000000000000000000008152600401610da090611f6b565b60405180910390fd5b600081600060038110610dbf57610dbe611c78565b5b602002015110158015610deb5750606381600060038110610de357610de2611c78565b5b602002015111155b610e2a576040517f08c379a0000000000000000000000000000000000000000000000000000000008152600401610e2190611ffd565b60405180910390fd5b600081600160038110610e4057610e3f611c78565b5b602002015110158015610e6c5750606381600160038110610e6457610e63611c78565b5b602002015111155b610eab576040517f08c379a0000000000000000000000000000000000000000000000000000000008152600401610ea29061208f565b60405180910390fd5b600081600260038110610ec157610ec0611c78565b5b602002015110158015610eed5750606381600260038110610ee557610ee4611c78565b5b602002015111155b610f2c576040517f08c379a0000000000000000000000000000000000000000000000000000000008152600401610f2390612121565b60405180910390fd5b3460026000828254610f3e9190611a30565b92505081905550600e81604051602001610f589190611dc0565b6040516020818303038152906040528051906020012060001c9080600181540180825580915050600190039060005260206000200160009091909190915055600d600082604051602001610fac9190611dc0565b6040516020818303038152906040528051906020012060001c8152602001908152602001600020339080600181540180825580915050600190039060005260206000200160009091909190916101000a81548173ffffffffffffffffffffffffffffffffffffffff021916908373ffffffffffffffffffffffffffffffffffffffff1602179055507ff9fcd8fad7415931becd04274f2d3e36e2c4a8ccea67edf7a151ac8c2ce93e53600254604051611065919061156a565b60405180910390a150565b611078611275565b6000806110918460018461108c9190611a30565b611210565b600a61109d8685611210565b6110a79190612141565b6110b19190611a30565b90506002826110c09190611a30565b915060006110da856001856110d59190611a30565b611210565b600a6110e68786611210565b6110f09190612141565b6110fa9190611a30565b90506002836111099190611a30565b92505b808214156111605761112a856001856111259190611a30565b611210565b600a6111368786611210565b6111409190612141565b61114a9190611a30565b90506002836111599190611a30565b925061110c565b6000611178866001866111739190611a30565b611210565b600a6111848887611210565b61118e9190612141565b6111989190611a30565b90505b828114806111a857508181145b156111ea576111c3866001866111be9190611a30565b611210565b600a6111cf8887611210565b6111d99190612141565b6111e39190611a30565b905061119b565b604051806060016040528084815260200183815260200182815250945050505050919050565b60008082141561122e57600a83611227919061219b565b905061126f565b600082600a61123d91906122ff565b60018461124a9190611a30565b600a61125691906122ff565b85611261919061219b565b61126b9190611ab5565b1790505b92915050565b6040518060600160405280600390602082028036833780820191505090505090565b82600381019282156112c6579160200282015b828111156112c55782518255916020019190600101906112aa565b5b5090506112d391906113a3565b5090565b8280548282559060005260206000209081019282156113185760005260206000209182015b828111156113175782548255916001019190600101906112fc565b5b50905061132591906113a3565b5090565b508054600082559060005260206000209081019061134791906113a3565b50565b508054600082559060005260206000209081019061136891906113a3565b50565b6040518060a00160405280606081526020016000815260200160008152602001611393611275565b8152602001600080191681525090565b5b808211156113bc5760008160009055506001016113a4565b5090565b600060039050919050565b600081905092915050565b6000819050919050565b6000819050919050565b6113f3816113e0565b82525050565b600061140583836113ea565b60208301905092915050565b6000602082019050919050565b611427816113c0565b61143181846113cb565b925061143c826113d6565b8060005b8381101561146d57815161145487826113f9565b965061145f83611411565b925050600181019050611440565b505050505050565b600060608201905061148a600083018461141e565b92915050565b6000604051905090565b600080fd5b6114a8816113e0565b81146114b357600080fd5b50565b6000813590506114c58161149f565b92915050565b6000602082840312156114e1576114e061149a565b5b60006114ef848285016114b6565b91505092915050565b6000819050919050565b61150b816114f8565b811461151657600080fd5b50565b60008135905061152881611502565b92915050565b6000602082840312156115445761154361149a565b5b600061155284828501611519565b91505092915050565b611564816113e0565b82525050565b600060208201905061157f600083018461155b565b92915050565b600080fd5b6000601f19601f8301169050919050565b7f4e487b7100000000000000000000000000000000000000000000000000000000600052604160045260246000fd5b6115d38261158a565b810181811067ffffffffffffffff821117156115f2576115f161159b565b5b80604052505050565b6000611605611490565b905061161182826115ca565b919050565b600067ffffffffffffffff8211156116315761163061159b565b5b602082029050919050565b600080fd5b600061165461164f84611616565b6115fb565b9050806020840283018581111561166e5761166d61163c565b5b835b81811015611697578061168388826114b6565b845260208401935050602081019050611670565b5050509392505050565b600082601f8301126116b6576116b5611585565b5b60036116c3848285611641565b91505092915050565b6000606082840312156116e2576116e161149a565b5b60006116f0848285016116a1565b91505092915050565b600081519050919050565b600082825260208201905092915050565b6000819050602082019050919050565b600073ffffffffffffffffffffffffffffffffffffffff82169050919050565b600061175082611725565b9050919050565b61176081611745565b82525050565b60006117728383611757565b60208301905092915050565b6000602082019050919050565b6000611796826116f9565b6117a08185611704565b93506117ab83611715565b8060005b838110156117dc5781516117c38882611766565b97506117ce8361177e565b9250506001810190506117af565b5085935050505092915050565b600081905092915050565b6117fd816113c0565b61180781846117e9565b9250611812826113d6565b8060005b8381101561184357815161182a87826113f9565b965061183583611411565b925050600181019050611816565b505050505050565b611854816114f8565b82525050565b600060e0830160008301518482036000860152611877828261178b565b915050602083015161188c60208601826113ea565b50604083015161189f60408601826113ea565b5060608301516118b260608601826117f4565b5060808301516118c560c086018261184b565b508091505092915050565b600060208201905081810360008301526118ea818461185a565b905092915050565b600082825260208201905092915050565b7f5468697320616374696f6e2063616e206f6e6c792062652074616b656e20776860008201527f656e2074686520626574732061726520636c6f73656400000000000000000000602082015250565b600061195f6036836118f2565b915061196a82611903565b604082019050919050565b6000602082019050818103600083015261198e81611952565b9050919050565b7f4265747320617265206e6f7420636c6f73656400000000000000000000000000600082015250565b60006119cb6013836118f2565b91506119d682611995565b602082019050919050565b600060208201905081810360008301526119fa816119be565b9050919050565b7f4e487b7100000000000000000000000000000000000000000000000000000000600052601160045260246000fd5b6000611a3b826113e0565b9150611a46836113e0565b9250827fffffffffffffffffffffffffffffffffffffffffffffffffffffffffffffffff03821115611a7b57611a7a611a01565b5b828201905092915050565b7f4e487b7100000000000000000000000000000000000000000000000000000000600052601260045260246000fd5b6000611ac0826113e0565b9150611acb836113e0565b925082611adb57611ada611a86565b5b828204905092915050565b6000611af1826113e0565b9150611afc836113e0565b925082821015611b0f57611b0e611a01565b5b828203905092915050565b600060039050919050565b600081905092915050565b6000819050919050565b611b43816113e0565b82525050565b6000611b558383611b3a565b60208301905092915050565b60008160001c9050919050565b6000819050919050565b6000611b8b611b8683611b61565b611b6e565b9050919050565b6000611b9e8254611b78565b9050919050565b6000600182019050919050565b611bbb81611b1a565b611bc58184611b25565b9250611bd082611b30565b8060005b83811015611c0857611be582611b92565b611bef8782611b49565b9650611bfa83611ba5565b925050600181019050611bd4565b505050505050565b6000611c1c8284611bb2565b60608201915081905092915050565b6000819050919050565b611c46611c41826114f8565b611c2b565b82525050565b6000611c588285611c35565b602082019150611c688284611c35565b6020820191508190509392505050565b7f4e487b7100000000000000000000000000000000000000000000000000000000600052603260045260246000fd5b6000611cb2826113e0565b91507fffffffffffffffffffffffffffffffffffffffffffffffffffffffffffffffff821415611ce557611ce4611a01565b5b600182019050919050565b611cf981611b1a565b611d0381846113cb565b9250611d0e82611b30565b8060005b83811015611d4657611d2382611b92565b611d2d87826113f9565b9650611d3883611ba5565b925050600181019050611d12565b505050505050565b6000606082019050611d636000830184611cf0565b92915050565b611d72816113c0565b611d7c8184611b25565b9250611d87826113d6565b8060005b83811015611db8578151611d9f8782611b49565b9650611daa83611411565b925050600181019050611d8b565b505050505050565b6000611dcc8284611d69565b60608201915081905092915050565b7f547275737465642070617274792063616e277420626574000000000000000000600082015250565b6000611e116017836118f2565b9150611e1c82611ddb565b602082019050919050565b60006020820190508181036000830152611e4081611e04565b9050919050565b7f426574732061726520636c6f7365640000000000000000000000000000000000600082015250565b6000611e7d600f836118f2565b9150611e8882611e47565b602082019050919050565b60006020820190508181036000830152611eac81611e70565b9050919050565b7f426574206d757374206265203120617661780000000000000000000000000000600082015250565b6000611ee96012836118f2565b9150611ef482611eb3565b602082019050919050565b60006020820190508181036000830152611f1881611edc565b9050919050565b7f45616368206e756d626572206d75737420626520756e69717565000000000000600082015250565b6000611f55601a836118f2565b9150611f6082611f1f565b602082019050919050565b60006020820190508181036000830152611f8481611f48565b9050919050565b7f4e756d6265722031206d757374206265206265747765656e203020616e64203960008201527f3900000000000000000000000000000000000000000000000000000000000000602082015250565b6000611fe76021836118f2565b9150611ff282611f8b565b604082019050919050565b6000602082019050818103600083015261201681611fda565b9050919050565b7f4e756d6265722032206d757374206265206265747765656e203020616e64203960008201527f3900000000000000000000000000000000000000000000000000000000000000602082015250565b60006120796021836118f2565b91506120848261201d565b604082019050919050565b600060208201905081810360008301526120a88161206c565b9050919050565b7f4e756d6265722033206d757374206265206265747765656e203020616e64203960008201527f3900000000000000000000000000000000000000000000000000000000000000602082015250565b600061210b6021836118f2565b9150612116826120af565b604082019050919050565b6000602082019050818103600083015261213a816120fe565b9050919050565b600061214c826113e0565b9150612157836113e0565b9250817fffffffffffffffffffffffffffffffffffffffffffffffffffffffffffffffff04831182151516156121905761218f611a01565b5b828202905092915050565b60006121a6826113e0565b91506121b1836113e0565b9250826121c1576121c0611a86565b5b828206905092915050565b60008160011c9050919050565b6000808291508390505b6001851115612223578086048111156121ff576121fe611a01565b5b600185161561220e5780820291505b808102905061221c856121cc565b94506121e3565b94509492505050565b60008261223c57600190506122f8565b8161224a57600090506122f8565b8160018114612260576002811461226a57612299565b60019150506122f8565b60ff84111561227c5761227b611a01565b5b8360020a91508482111561229357612292611a01565b5b506122f8565b5060208310610133831016604e8410600b84101617156122ce5782820a9050838111156122c9576122c8611a01565b5b6122f8565b6122db84848460016121d9565b925090508184048111156122f2576122f1611a01565b5b81810290505b9392505050565b600061230a826113e0565b9150612315836113e0565b92506123427fffffffffffffffffffffffffffffffffffffffffffffffffffffffffffffffff848461222c565b90509291505056fea26469706673582212200c86fba8f74802a603baca86569d3659fa75ca703112cb0673cdb21dfa8d975f64736f6c634300080a0033",
  "linkReferences": {},
  "deployedLinkReferences": {}
}