{
  "_format": "hh-sol-artifact-1",
  "contractName": "Lotto",
  "sourceName": "contracts/Lotto.sol",
  "abi": [
    {
      "inputs": [
        {
          "internalType": "address",
          "name": "_trustedParty",
          "type": "address"
        },
        {
          "internalType": "address payable",
          "name": "_treasury",
          "type": "address"
        },
        {
          "internalType": "uint256",
          "name": "_ticketValue",
          "type": "uint256"
        }
      ],
      "stateMutability": "nonpayable",
      "type": "constructor"
    },
    {
      "anonymous": false,
      "inputs": [
        {
          "indexed": false,
          "internalType": "uint256[3]",
          "name": "numbers",
          "type": "uint256[3]"
        }
      ],
      "name": "Draw",
      "type": "event"
    },
    {
      "anonymous": false,
      "inputs": [
        {
          "indexed": false,
          "internalType": "uint256",
          "name": "jackpot",
          "type": "uint256"
        }
      ],
      "name": "jackpotUpdated",
      "type": "event"
    },
    {
      "inputs": [
        {
          "internalType": "uint256[][]",
          "name": "_bets",
          "type": "uint256[][]"
        }
      ],
      "name": "bet",
      "outputs": [],
      "stateMutability": "payable",
      "type": "function"
    },
    {
      "inputs": [
        {
          "internalType": "uint256[3]",
          "name": "_numbers",
          "type": "uint256[3]"
        }
      ],
      "name": "getAmountOfBetForNumbers",
      "outputs": [
        {
          "internalType": "uint256",
          "name": "",
          "type": "uint256"
        }
      ],
      "stateMutability": "view",
      "type": "function"
    },
    {
      "inputs": [],
      "name": "getBets",
      "outputs": [
        {
          "internalType": "uint256[][]",
          "name": "",
          "type": "uint256[][]"
        }
      ],
      "stateMutability": "view",
      "type": "function"
    },
    {
      "inputs": [],
      "name": "getCurrentJackpot",
      "outputs": [
        {
          "internalType": "uint256",
          "name": "",
          "type": "uint256"
        }
      ],
      "stateMutability": "view",
      "type": "function"
    },
    {
      "inputs": [],
      "name": "getLastDrawNumbers",
      "outputs": [
        {
          "internalType": "uint256[3]",
          "name": "",
          "type": "uint256[3]"
        }
      ],
      "stateMutability": "view",
      "type": "function"
    },
    {
      "inputs": [],
      "name": "getNextDrawTime",
      "outputs": [
        {
          "internalType": "uint256",
          "name": "",
          "type": "uint256"
        }
      ],
      "stateMutability": "view",
      "type": "function"
    },
    {
      "inputs": [],
      "name": "getTicketPrice",
      "outputs": [
        {
          "internalType": "uint256",
          "name": "",
          "type": "uint256"
        }
      ],
      "stateMutability": "view",
      "type": "function"
    },
    {
      "inputs": [
        {
          "internalType": "bytes32",
          "name": "_seed",
          "type": "bytes32"
        }
      ],
      "name": "reveal",
      "outputs": [
        {
          "internalType": "uint256[3]",
          "name": "",
          "type": "uint256[3]"
        }
      ],
      "stateMutability": "nonpayable",
      "type": "function"
    },
    {
      "inputs": [
        {
          "internalType": "bytes32",
          "name": "_sealedSeed",
          "type": "bytes32"
        }
      ],
      "name": "setSealedSeed",
      "outputs": [],
      "stateMutability": "nonpayable",
      "type": "function"
    }
  ],
  "bytecode": "0x608060405260006004556000600760006101000a81548160ff0219169083151502179055506000600760016101000a81548160ff0219169083151502179055506000600760026101000a81548160ff021916908315150217905550600067ffffffffffffffff8111156200007857620000776200020c565b5b604051908082528060200260200182016040528015620000a75781602001602082028036833780820191505090505b50600c9080519060200190620000bf9291906200019b565b50348015620000cd57600080fd5b5060405162002638380380620026388339818101604052810190620000f3919062000325565b826000806101000a81548173ffffffffffffffffffffffffffffffffffffffff021916908373ffffffffffffffffffffffffffffffffffffffff16021790555081600160006101000a81548173ffffffffffffffffffffffffffffffffffffffff021916908373ffffffffffffffffffffffffffffffffffffffff1602179055508060038190555062093a80426200018c9190620003b0565b6005819055505050506200040d565b828054828255906000526020600020908101928215620001da579160200282015b82811115620001d9578251825591602001919060010190620001bc565b5b509050620001e99190620001ed565b5090565b5b8082111562000208576000816000905550600101620001ee565b5090565b7f4e487b7100000000000000000000000000000000000000000000000000000000600052604160045260246000fd5b600080fd5b600073ffffffffffffffffffffffffffffffffffffffff82169050919050565b60006200026d8262000240565b9050919050565b6200027f8162000260565b81146200028b57600080fd5b50565b6000815190506200029f8162000274565b92915050565b6000620002b28262000240565b9050919050565b620002c481620002a5565b8114620002d057600080fd5b50565b600081519050620002e481620002b9565b92915050565b6000819050919050565b620002ff81620002ea565b81146200030b57600080fd5b50565b6000815190506200031f81620002f4565b92915050565b6000806000606084860312156200034157620003406200023b565b5b600062000351868287016200028e565b93505060206200036486828701620002d3565b925050604062000377868287016200030e565b9150509250925092565b7f4e487b7100000000000000000000000000000000000000000000000000000000600052601160045260246000fd5b6000620003bd82620002ea565b9150620003ca83620002ea565b9250827fffffffffffffffffffffffffffffffffffffffffffffffffffffffffffffffff0382111562000402576200040162000381565b5b828201905092915050565b61221b806200041d6000396000f3fe6080604052600436106100865760003560e01c80639a58bfee116100595780639a58bfee146101475780639f57d16e14610163578063a6afd5fd1461018e578063be8b48d0146101b9578063ecfea5d5146101f657610086565b8063087d0e0b1461008b57806341114538146100b6578063701fd0f1146100df57806387bb7ae01461011c575b600080fd5b34801561009757600080fd5b506100a0610221565b6040516100ad9190611271565b60405180910390f35b3480156100c257600080fd5b506100dd60048036038101906100d891906112d6565b61028b565b005b3480156100eb57600080fd5b50610106600480360381019061010191906112d6565b61036a565b6040516101139190611271565b60405180910390f35b34801561012857600080fd5b50610131610722565b60405161013e9190611312565b60405180910390f35b610161600480360381019061015c9190611593565b61072c565b005b34801561016f57600080fd5b50610178610db2565b6040516101859190611312565b60405180910390f35b34801561019a57600080fd5b506101a3610dbc565b6040516101b09190611735565b60405180910390f35b3480156101c557600080fd5b506101e060048036038101906101db9190611808565b610e98565b6040516101ed9190611312565b60405180910390f35b34801561020257600080fd5b5061020b610ee1565b6040516102189190611312565b60405180910390f35b6102296110f0565b600b6000600160045461023c9190611864565b8152602001908152602001600020600380602002604051908101604052809291908260038015610281576020028201915b81548152602001906001019080831161026d575b5050505050905090565b60008054906101000a900473ffffffffffffffffffffffffffffffffffffffff1673ffffffffffffffffffffffffffffffffffffffff163373ffffffffffffffffffffffffffffffffffffffff16146102e357600080fd5b600760009054906101000a900460ff16156102fd57600080fd5b600760019054906101000a900460ff161561031757600080fd5b6001600760016101000a81548160ff021916908315150217905550806006819055506001436103469190611898565b6008819055506001600760006101000a81548160ff02191690831515021790555050565b6103726110f0565b60008054906101000a900473ffffffffffffffffffffffffffffffffffffffff1673ffffffffffffffffffffffffffffffffffffffff163373ffffffffffffffffffffffffffffffffffffffff16146103ca57600080fd5b600760009054906101000a900460ff166103e357600080fd5b43600854106103f157600080fd5b60065482146103ff57600080fd5b6000826008544060405160200161041792919061190f565b6040516020818303038152906040528051906020012060001c9050600061043d82610eeb565b905080600b60006004548152602001908152602001600020906003610463929190611112565b50600460008154809291906104779061193b565b91905055507f782d7ce763b28c71c4396c26548d32590c3a1f9649900b813dad7d691fead901816040516104ab9190611271565b60405180910390a1600060096000836040516020016104ca9190611a0d565b6040516020818303038152906040528051906020012060001c81526020019081526020016000208054905011600760026101000a81548160ff021916908315150217905550600760029054906101000a900460ff16156106cc576000600960008360405160200161053b9190611a0d565b6040516020818303038152906040528051906020012060001c81526020019081526020016000208054905090506000816002546105789190611a57565b905060005b828110156106b7576000600960008660405160200161059c9190611a0d565b6040516020818303038152906040528051906020012060001c815260200190815260200160002082815481106105d5576105d4611a88565b5b9060005260206000200160009054906101000a900473ffffffffffffffffffffffffffffffffffffffff169050600160009054906101000a900473ffffffffffffffffffffffffffffffffffffffff1673ffffffffffffffffffffffffffffffffffffffff1663a31c1d6e84836040518363ffffffff1660e01b815260040161065f929190611b55565b6020604051808303816000875af115801561067e573d6000803e3d6000fd5b505050506040513d601f19601f820116820180604052508101906106a29190611bc9565b505080806106af9061193b565b91505061057d565b5060006002819055508294505050505061071d565b6000600760006101000a81548160ff0219169083151502179055506000600760016101000a81548160ff02191690831515021790555062093a80436107119190611898565b60058190555080925050505b919050565b6000600354905090565b60008054906101000a900473ffffffffffffffffffffffffffffffffffffffff1673ffffffffffffffffffffffffffffffffffffffff163373ffffffffffffffffffffffffffffffffffffffff1614156107bb576040517f08c379a00000000000000000000000000000000000000000000000000000000081526004016107b290611c42565b60405180910390fd5b600760019054906101000a900460ff161561080b576040517f08c379a000000000000000000000000000000000000000000000000000000000815260040161080290611cae565b60405180910390fd5b60035481513461081b9190611a57565b1461085b576040517f08c379a000000000000000000000000000000000000000000000000000000000815260040161085290611d1a565b60405180910390fd5b60005b8151811015610b0657600382828151811061087c5761087b611a88565b5b602002602001015151146108c5576040517f08c379a00000000000000000000000000000000000000000000000000000000081526004016108bc90611d86565b60405180910390fd5b60648282815181106108da576108d9611a88565b5b60200260200101516000815181106108f5576108f4611a88565b5b60200260200101511080156109405750600082828151811061091a57610919611a88565b5b602002602001015160008151811061093557610934611a88565b5b602002602001015110155b61097f576040517f08c379a000000000000000000000000000000000000000000000000000000000815260040161097690611e18565b60405180910390fd5b606482828151811061099457610993611a88565b5b60200260200101516001815181106109af576109ae611a88565b5b60200260200101511080156109fa575060008282815181106109d4576109d3611a88565b5b60200260200101516001815181106109ef576109ee611a88565b5b602002602001015110155b610a39576040517f08c379a0000000000000000000000000000000000000000000000000000000008152600401610a3090611eaa565b60405180910390fd5b6064828281518110610a4e57610a4d611a88565b5b6020026020010151600281518110610a6957610a68611a88565b5b6020026020010151108015610ab457506000828281518110610a8e57610a8d611a88565b5b6020026020010151600281518110610aa957610aa8611a88565b5b602002602001015110155b610af3576040517f08c379a0000000000000000000000000000000000000000000000000000000008152600401610aea90611f3c565b60405180910390fd5b8080610afe9061193b565b91505061085e565b50600160009054906101000a900473ffffffffffffffffffffffffffffffffffffffff1673ffffffffffffffffffffffffffffffffffffffff166108fc349081150290604051600060405180830381858888f19350505050158015610b6f573d6000803e3d6000fd5b50601e34610b7d9190611a57565b34610b889190611864565b60026000828254610b999190611898565b9250508190555060005b8151811015610d7557600c828281518110610bc157610bc0611a88565b5b6020026020010151604051602001610bd99190611fc5565b6040516020818303038152906040528051906020012060001c9080600181540180825580915050600190039060005260206000200160009091909190915055600a60003373ffffffffffffffffffffffffffffffffffffffff1673ffffffffffffffffffffffffffffffffffffffff168152602001908152602001600020828281518110610c6a57610c69611a88565b5b6020026020010151908060018154018082558091505060019003906000526020600020016000909190919091509080519060200190610caa929190611152565b5060096000838381518110610cc257610cc1611a88565b5b6020026020010151604051602001610cda9190611fc5565b6040516020818303038152906040528051906020012060001c8152602001908152602001600020339080600181540180825580915050600190039060005260206000200160009091909190916101000a81548173ffffffffffffffffffffffffffffffffffffffff021916908373ffffffffffffffffffffffffffffffffffffffff1602179055508080610d6d9061193b565b915050610ba3565b507ff9fcd8fad7415931becd04274f2d3e36e2c4a8ccea67edf7a151ac8c2ce93e53600254604051610da79190611312565b60405180910390a150565b6000600254905090565b6060600a60003373ffffffffffffffffffffffffffffffffffffffff1673ffffffffffffffffffffffffffffffffffffffff168152602001908152602001600020805480602002602001604051908101604052809291908181526020016000905b82821015610e8f57838290600052602060002001805480602002602001604051908101604052809291908181526020018280548015610e7b57602002820191906000526020600020905b815481526020019060010190808311610e67575b505050505081526020019060010190610e1d565b50505050905090565b60006009600083604051602001610eaf9190611a0d565b6040516020818303038152906040528051906020012060001c8152602001908152602001600020805490509050919050565b6000600554905090565b610ef36110f0565b600080610f0c84600184610f079190611898565b61108b565b600a610f18868561108b565b610f229190611fdc565b610f2c9190611898565b9050600282610f3b9190611898565b91506000610f5585600185610f509190611898565b61108b565b600a610f61878661108b565b610f6b9190611fdc565b610f759190611898565b9050600283610f849190611898565b92505b80821415610fdb57610fa585600185610fa09190611898565b61108b565b600a610fb1878661108b565b610fbb9190611fdc565b610fc59190611898565b9050600283610fd49190611898565b9250610f87565b6000610ff386600186610fee9190611898565b61108b565b600a610fff888761108b565b6110099190611fdc565b6110139190611898565b90505b8281148061102357508181145b156110655761103e866001866110399190611898565b61108b565b600a61104a888761108b565b6110549190611fdc565b61105e9190611898565b9050611016565b604051806060016040528084815260200183815260200182815250945050505050919050565b6000808214156110a957600a836110a29190612036565b90506110ea565b600082600a6110b8919061219a565b6001846110c59190611898565b600a6110d1919061219a565b856110dc9190612036565b6110e69190611a57565b1790505b92915050565b6040518060600160405280600390602082028036833780820191505090505090565b8260038101928215611141579160200282015b82811115611140578251825591602001919060010190611125565b5b50905061114e919061119f565b5090565b82805482825590600052602060002090810192821561118e579160200282015b8281111561118d578251825591602001919060010190611172565b5b50905061119b919061119f565b5090565b5b808211156111b85760008160009055506001016111a0565b5090565b600060039050919050565b600081905092915050565b6000819050919050565b6000819050919050565b6111ef816111dc565b82525050565b600061120183836111e6565b60208301905092915050565b6000602082019050919050565b611223816111bc565b61122d81846111c7565b9250611238826111d2565b8060005b8381101561126957815161125087826111f5565b965061125b8361120d565b92505060018101905061123c565b505050505050565b6000606082019050611286600083018461121a565b92915050565b6000604051905090565b600080fd5b600080fd5b6000819050919050565b6112b3816112a0565b81146112be57600080fd5b50565b6000813590506112d0816112aa565b92915050565b6000602082840312156112ec576112eb611296565b5b60006112fa848285016112c1565b91505092915050565b61130c816111dc565b82525050565b60006020820190506113276000830184611303565b92915050565b600080fd5b6000601f19601f8301169050919050565b7f4e487b7100000000000000000000000000000000000000000000000000000000600052604160045260246000fd5b61137b82611332565b810181811067ffffffffffffffff8211171561139a57611399611343565b5b80604052505050565b60006113ad61128c565b90506113b98282611372565b919050565b600067ffffffffffffffff8211156113d9576113d8611343565b5b602082029050602081019050919050565b600080fd5b600067ffffffffffffffff82111561140a57611409611343565b5b602082029050602081019050919050565b611424816111dc565b811461142f57600080fd5b50565b6000813590506114418161141b565b92915050565b600061145a611455846113ef565b6113a3565b9050808382526020820190506020840283018581111561147d5761147c6113ea565b5b835b818110156114a657806114928882611432565b84526020840193505060208101905061147f565b5050509392505050565b600082601f8301126114c5576114c461132d565b5b81356114d5848260208601611447565b91505092915050565b60006114f16114ec846113be565b6113a3565b90508083825260208201905060208402830185811115611514576115136113ea565b5b835b8181101561155b57803567ffffffffffffffff8111156115395761153861132d565b5b80860161154689826114b0565b85526020850194505050602081019050611516565b5050509392505050565b600082601f83011261157a5761157961132d565b5b813561158a8482602086016114de565b91505092915050565b6000602082840312156115a9576115a8611296565b5b600082013567ffffffffffffffff8111156115c7576115c661129b565b5b6115d384828501611565565b91505092915050565b600081519050919050565b600082825260208201905092915050565b6000819050602082019050919050565b600081519050919050565b600082825260208201905092915050565b6000819050602082019050919050565b6000602082019050919050565b600061164c82611608565b6116568185611613565b935061166183611624565b8060005b8381101561169257815161167988826111f5565b975061168483611634565b925050600181019050611665565b5085935050505092915050565b60006116ab8383611641565b905092915050565b6000602082019050919050565b60006116cb826115dc565b6116d581856115e7565b9350836020820285016116e7856115f8565b8060005b858110156117235784840389528151611704858261169f565b945061170f836116b3565b925060208a019950506001810190506116eb565b50829750879550505050505092915050565b6000602082019050818103600083015261174f81846116c0565b905092915050565b600067ffffffffffffffff82111561177257611771611343565b5b602082029050919050565b600061179061178b84611757565b6113a3565b905080602084028301858111156117aa576117a96113ea565b5b835b818110156117d357806117bf8882611432565b8452602084019350506020810190506117ac565b5050509392505050565b600082601f8301126117f2576117f161132d565b5b60036117ff84828561177d565b91505092915050565b60006060828403121561181e5761181d611296565b5b600061182c848285016117dd565b91505092915050565b7f4e487b7100000000000000000000000000000000000000000000000000000000600052601160045260246000fd5b600061186f826111dc565b915061187a836111dc565b92508282101561188d5761188c611835565b5b828203905092915050565b60006118a3826111dc565b91506118ae836111dc565b9250827fffffffffffffffffffffffffffffffffffffffffffffffffffffffffffffffff038211156118e3576118e2611835565b5b828201905092915050565b6000819050919050565b611909611904826112a0565b6118ee565b82525050565b600061191b82856118f8565b60208201915061192b82846118f8565b6020820191508190509392505050565b6000611946826111dc565b91507fffffffffffffffffffffffffffffffffffffffffffffffffffffffffffffffff82141561197957611978611835565b5b600182019050919050565b600081905092915050565b611998816111dc565b82525050565b60006119aa838361198f565b60208301905092915050565b6119bf816111bc565b6119c98184611984565b92506119d4826111d2565b8060005b83811015611a055781516119ec878261199e565b96506119f78361120d565b9250506001810190506119d8565b505050505050565b6000611a1982846119b6565b60608201915081905092915050565b7f4e487b7100000000000000000000000000000000000000000000000000000000600052601260045260246000fd5b6000611a62826111dc565b9150611a6d836111dc565b925082611a7d57611a7c611a28565b5b828204905092915050565b7f4e487b7100000000000000000000000000000000000000000000000000000000600052603260045260246000fd5b600073ffffffffffffffffffffffffffffffffffffffff82169050919050565b6000611ae282611ab7565b9050919050565b611af281611ad7565b82525050565b600082825260208201905092915050565b7f4156415800000000000000000000000000000000000000000000000000000000600082015250565b6000611b3f600483611af8565b9150611b4a82611b09565b602082019050919050565b6000606082019050611b6a6000830185611303565b611b776020830184611ae9565b8181036040830152611b8881611b32565b90509392505050565b60008115159050919050565b611ba681611b91565b8114611bb157600080fd5b50565b600081519050611bc381611b9d565b92915050565b600060208284031215611bdf57611bde611296565b5b6000611bed84828501611bb4565b91505092915050565b7f547275737465642070617274792063616e277420626574000000000000000000600082015250565b6000611c2c601783611af8565b9150611c3782611bf6565b602082019050919050565b60006020820190508181036000830152611c5b81611c1f565b9050919050565b7f426574732061726520636c6f7365640000000000000000000000000000000000600082015250565b6000611c98600f83611af8565b9150611ca382611c62565b602082019050919050565b60006020820190508181036000830152611cc781611c8b565b9050919050565b7f426574206e6f74207468652072696768742076616c7565206176617800000000600082015250565b6000611d04601c83611af8565b9150611d0f82611cce565b602082019050919050565b60006020820190508181036000830152611d3381611cf7565b9050919050565b7f4561636820626574206d75737420686176652033206e756d6265727300000000600082015250565b6000611d70601c83611af8565b9150611d7b82611d3a565b602082019050919050565b60006020820190508181036000830152611d9f81611d63565b9050919050565b7f4e756d6265722031206d757374206265206265747765656e203020616e64203960008201527f3900000000000000000000000000000000000000000000000000000000000000602082015250565b6000611e02602183611af8565b9150611e0d82611da6565b604082019050919050565b60006020820190508181036000830152611e3181611df5565b9050919050565b7f4e756d6265722032206d757374206265206265747765656e203020616e64203960008201527f3900000000000000000000000000000000000000000000000000000000000000602082015250565b6000611e94602183611af8565b9150611e9f82611e38565b604082019050919050565b60006020820190508181036000830152611ec381611e87565b9050919050565b7f4e756d6265722033206d757374206265206265747765656e203020616e64203960008201527f3900000000000000000000000000000000000000000000000000000000000000602082015250565b6000611f26602183611af8565b9150611f3182611eca565b604082019050919050565b60006020820190508181036000830152611f5581611f19565b9050919050565b600081905092915050565b6000611f7282611608565b611f7c8185611f5c565b9350611f8783611624565b8060005b83811015611fb8578151611f9f888261199e565b9750611faa83611634565b925050600181019050611f8b565b5085935050505092915050565b6000611fd18284611f67565b915081905092915050565b6000611fe7826111dc565b9150611ff2836111dc565b9250817fffffffffffffffffffffffffffffffffffffffffffffffffffffffffffffffff048311821515161561202b5761202a611835565b5b828202905092915050565b6000612041826111dc565b915061204c836111dc565b92508261205c5761205b611a28565b5b828206905092915050565b60008160011c9050919050565b6000808291508390505b60018511156120be5780860481111561209a57612099611835565b5b60018516156120a95780820291505b80810290506120b785612067565b945061207e565b94509492505050565b6000826120d75760019050612193565b816120e55760009050612193565b81600181146120fb576002811461210557612134565b6001915050612193565b60ff84111561211757612116611835565b5b8360020a91508482111561212e5761212d611835565b5b50612193565b5060208310610133831016604e8410600b84101617156121695782820a90508381111561216457612163611835565b5b612193565b6121768484846001612074565b9250905081840481111561218d5761218c611835565b5b81810290505b9392505050565b60006121a5826111dc565b91506121b0836111dc565b92506121dd7fffffffffffffffffffffffffffffffffffffffffffffffffffffffffffffffff84846120c7565b90509291505056fea2646970667358221220ad4b3752c67eeed70eafe10592cc29cbd1c9566972e68f9bd602cfea119151bf64736f6c634300080a0033",
  "linkReferences": {},
  "deployedLinkReferences": {}
}