{
  "_format": "hh-sol-artifact-1",
  "contractName": "Lotto",
  "sourceName": "contracts/Lotto.sol",
  "abi": [
    {
      "inputs": [
        {
          "internalType": "address",
          "name": "_trustedParty",
          "type": "address"
        },
        {
          "internalType": "address payable",
          "name": "_treasury",
          "type": "address"
        },
        {
          "internalType": "uint256",
          "name": "_ticketValue",
          "type": "uint256"
        }
      ],
      "stateMutability": "nonpayable",
      "type": "constructor"
    },
    {
      "anonymous": false,
      "inputs": [
        {
          "indexed": false,
          "internalType": "uint256[3]",
          "name": "numbers",
          "type": "uint256[3]"
        }
      ],
      "name": "Draw",
      "type": "event"
    },
    {
      "anonymous": false,
      "inputs": [
        {
          "indexed": false,
          "internalType": "uint256",
          "name": "jackpot",
          "type": "uint256"
        }
      ],
      "name": "jackpotUpdated",
      "type": "event"
    },
    {
      "inputs": [
        {
          "internalType": "uint256[][]",
          "name": "_bets",
          "type": "uint256[][]"
        }
      ],
      "name": "bet",
      "outputs": [],
      "stateMutability": "payable",
      "type": "function"
    },
    {
      "inputs": [
        {
          "internalType": "uint256[3]",
          "name": "_numbers",
          "type": "uint256[3]"
        }
      ],
      "name": "getAmountOfBetForNumbers",
      "outputs": [
        {
          "internalType": "uint256",
          "name": "",
          "type": "uint256"
        }
      ],
      "stateMutability": "view",
      "type": "function"
    },
    {
      "inputs": [],
      "name": "getBets",
      "outputs": [
        {
          "internalType": "uint256[][]",
          "name": "",
          "type": "uint256[][]"
        }
      ],
      "stateMutability": "view",
      "type": "function"
    },
    {
      "inputs": [],
      "name": "getCurrentJackpot",
      "outputs": [
        {
          "internalType": "uint256",
          "name": "",
          "type": "uint256"
        }
      ],
      "stateMutability": "view",
      "type": "function"
    },
    {
      "inputs": [],
      "name": "getLastDrawNumbers",
      "outputs": [
        {
          "internalType": "uint256[3]",
          "name": "",
          "type": "uint256[3]"
        }
      ],
      "stateMutability": "view",
      "type": "function"
    },
    {
      "inputs": [],
      "name": "getNextDrawTime",
      "outputs": [
        {
          "internalType": "uint256",
          "name": "",
          "type": "uint256"
        }
      ],
      "stateMutability": "view",
      "type": "function"
    },
    {
      "inputs": [
        {
          "internalType": "bytes32",
          "name": "_seed",
          "type": "bytes32"
        }
      ],
      "name": "reveal",
      "outputs": [
        {
          "internalType": "uint256[3]",
          "name": "",
          "type": "uint256[3]"
        }
      ],
      "stateMutability": "nonpayable",
      "type": "function"
    },
    {
      "inputs": [
        {
          "internalType": "bytes32",
          "name": "_sealedSeed",
          "type": "bytes32"
        }
      ],
      "name": "setSealedSeed",
      "outputs": [],
      "stateMutability": "nonpayable",
      "type": "function"
    }
  ],
  "bytecode": "0x608060405260006004556000600760006101000a81548160ff0219169083151502179055506000600760016101000a81548160ff0219169083151502179055506000600760026101000a81548160ff021916908315150217905550600067ffffffffffffffff8111156200007857620000776200020c565b5b604051908082528060200260200182016040528015620000a75781602001602082028036833780820191505090505b50600c9080519060200190620000bf9291906200019b565b50348015620000cd57600080fd5b506040516200247b3803806200247b8339818101604052810190620000f3919062000325565b826000806101000a81548173ffffffffffffffffffffffffffffffffffffffff021916908373ffffffffffffffffffffffffffffffffffffffff16021790555081600160006101000a81548173ffffffffffffffffffffffffffffffffffffffff021916908373ffffffffffffffffffffffffffffffffffffffff1602179055508060038190555062093a80426200018c9190620003b0565b6005819055505050506200040d565b828054828255906000526020600020908101928215620001da579160200282015b82811115620001d9578251825591602001919060010190620001bc565b5b509050620001e99190620001ed565b5090565b5b8082111562000208576000816000905550600101620001ee565b5090565b7f4e487b7100000000000000000000000000000000000000000000000000000000600052604160045260246000fd5b600080fd5b600073ffffffffffffffffffffffffffffffffffffffff82169050919050565b60006200026d8262000240565b9050919050565b6200027f8162000260565b81146200028b57600080fd5b50565b6000815190506200029f8162000274565b92915050565b6000620002b28262000240565b9050919050565b620002c481620002a5565b8114620002d057600080fd5b50565b600081519050620002e481620002b9565b92915050565b6000819050919050565b620002ff81620002ea565b81146200030b57600080fd5b50565b6000815190506200031f81620002f4565b92915050565b6000806000606084860312156200034157620003406200023b565b5b600062000351868287016200028e565b93505060206200036486828701620002d3565b925050604062000377868287016200030e565b9150509250925092565b7f4e487b7100000000000000000000000000000000000000000000000000000000600052601160045260246000fd5b6000620003bd82620002ea565b9150620003ca83620002ea565b9250827fffffffffffffffffffffffffffffffffffffffffffffffffffffffffffffffff0382111562000402576200040162000381565b5b828201905092915050565b61205e806200041d6000396000f3fe60806040526004361061007b5760003560e01c80639f57d16e1161004e5780639f57d16e1461012d578063a6afd5fd14610158578063be8b48d014610183578063ecfea5d5146101c05761007b565b8063087d0e0b1461008057806341114538146100ab578063701fd0f1146100d45780639a58bfee14610111575b600080fd5b34801561008c57600080fd5b506100956101eb565b6040516100a291906111e2565b60405180910390f35b3480156100b757600080fd5b506100d260048036038101906100cd9190611247565b610255565b005b3480156100e057600080fd5b506100fb60048036038101906100f69190611247565b610334565b60405161010891906111e2565b60405180910390f35b61012b600480360381019061012691906114da565b61071d565b005b34801561013957600080fd5b50610142610d23565b60405161014f9190611532565b60405180910390f35b34801561016457600080fd5b5061016d610d2d565b60405161017a91906116a6565b60405180910390f35b34801561018f57600080fd5b506101aa60048036038101906101a59190611779565b610e09565b6040516101b79190611532565b60405180910390f35b3480156101cc57600080fd5b506101d5610e52565b6040516101e29190611532565b60405180910390f35b6101f3611061565b600b6000600160045461020691906117d5565b815260200190815260200160002060038060200260405190810160405280929190826003801561024b576020028201915b815481526020019060010190808311610237575b5050505050905090565b60008054906101000a900473ffffffffffffffffffffffffffffffffffffffff1673ffffffffffffffffffffffffffffffffffffffff163373ffffffffffffffffffffffffffffffffffffffff16146102ad57600080fd5b600760009054906101000a900460ff16156102c757600080fd5b600760019054906101000a900460ff16156102e157600080fd5b6001600760016101000a81548160ff021916908315150217905550806006819055506001436103109190611809565b6008819055506001600760006101000a81548160ff02191690831515021790555050565b61033c611061565b60008054906101000a900473ffffffffffffffffffffffffffffffffffffffff1673ffffffffffffffffffffffffffffffffffffffff163373ffffffffffffffffffffffffffffffffffffffff161461039457600080fd5b600760009054906101000a900460ff166103ad57600080fd5b43600854106103bb57600080fd5b60065482146103c957600080fd5b600082600854406040516020016103e1929190611880565b6040516020818303038152906040528051906020012060001c9050600061040782610e5c565b905080600b6000600454815260200190815260200160002090600361042d929190611083565b5060046000815480929190610441906118ac565b91905055507f782d7ce763b28c71c4396c26548d32590c3a1f9649900b813dad7d691fead9018160405161047591906111e2565b60405180910390a160006009600083604051602001610494919061197e565b6040516020818303038152906040528051906020012060001c81526020019081526020016000208054905011600760026101000a81548160ff021916908315150217905550600760029054906101000a900460ff16156106c757600060146002546104ff91906119c8565b9050600160009054906101000a900473ffffffffffffffffffffffffffffffffffffffff1673ffffffffffffffffffffffffffffffffffffffff166108fc829081150290604051600060405180830381858888f19350505050158015610569573d6000803e3d6000fd5b508060025461057891906117d5565b60028190555060006009600084604051602001610595919061197e565b6040516020818303038152906040528051906020012060001c81526020019081526020016000208054905090506000816002546105d291906119c8565b905060005b828110156106b15760096000866040516020016105f4919061197e565b6040516020818303038152906040528051906020012060001c8152602001908152602001600020818154811061062d5761062c6119f9565b5b9060005260206000200160009054906101000a900473ffffffffffffffffffffffffffffffffffffffff1673ffffffffffffffffffffffffffffffffffffffff166108fc839081150290604051600060405180830381858888f1935050505015801561069d573d6000803e3d6000fd5b5080806106a9906118ac565b9150506105d7565b5060006002819055508395505050505050610718565b6000600760006101000a81548160ff0219169083151502179055506000600760016101000a81548160ff02191690831515021790555062093a804361070c9190611809565b60058190555080925050505b919050565b60008054906101000a900473ffffffffffffffffffffffffffffffffffffffff1673ffffffffffffffffffffffffffffffffffffffff163373ffffffffffffffffffffffffffffffffffffffff1614156107ac576040517f08c379a00000000000000000000000000000000000000000000000000000000081526004016107a390611a85565b60405180910390fd5b600760019054906101000a900460ff16156107fc576040517f08c379a00000000000000000000000000000000000000000000000000000000081526004016107f390611af1565b60405180910390fd5b60035481513461080c91906119c8565b1461084c576040517f08c379a000000000000000000000000000000000000000000000000000000000815260040161084390611b5d565b60405180910390fd5b60005b8151811015610af757600382828151811061086d5761086c6119f9565b5b602002602001015151146108b6576040517f08c379a00000000000000000000000000000000000000000000000000000000081526004016108ad90611bc9565b60405180910390fd5b60648282815181106108cb576108ca6119f9565b5b60200260200101516000815181106108e6576108e56119f9565b5b60200260200101511080156109315750600082828151811061090b5761090a6119f9565b5b6020026020010151600081518110610926576109256119f9565b5b602002602001015110155b610970576040517f08c379a000000000000000000000000000000000000000000000000000000000815260040161096790611c5b565b60405180910390fd5b6064828281518110610985576109846119f9565b5b60200260200101516001815181106109a05761099f6119f9565b5b60200260200101511080156109eb575060008282815181106109c5576109c46119f9565b5b60200260200101516001815181106109e0576109df6119f9565b5b602002602001015110155b610a2a576040517f08c379a0000000000000000000000000000000000000000000000000000000008152600401610a2190611ced565b60405180910390fd5b6064828281518110610a3f57610a3e6119f9565b5b6020026020010151600281518110610a5a57610a596119f9565b5b6020026020010151108015610aa557506000828281518110610a7f57610a7e6119f9565b5b6020026020010151600281518110610a9a57610a996119f9565b5b602002602001015110155b610ae4576040517f08c379a0000000000000000000000000000000000000000000000000000000008152600401610adb90611d7f565b60405180910390fd5b8080610aef906118ac565b91505061084f565b503460026000828254610b0a9190611809565b9250508190555060005b8151811015610ce657600c828281518110610b3257610b316119f9565b5b6020026020010151604051602001610b4a9190611e08565b6040516020818303038152906040528051906020012060001c9080600181540180825580915050600190039060005260206000200160009091909190915055600a60003373ffffffffffffffffffffffffffffffffffffffff1673ffffffffffffffffffffffffffffffffffffffff168152602001908152602001600020828281518110610bdb57610bda6119f9565b5b6020026020010151908060018154018082558091505060019003906000526020600020016000909190919091509080519060200190610c1b9291906110c3565b5060096000838381518110610c3357610c326119f9565b5b6020026020010151604051602001610c4b9190611e08565b6040516020818303038152906040528051906020012060001c8152602001908152602001600020339080600181540180825580915050600190039060005260206000200160009091909190916101000a81548173ffffffffffffffffffffffffffffffffffffffff021916908373ffffffffffffffffffffffffffffffffffffffff1602179055508080610cde906118ac565b915050610b14565b507ff9fcd8fad7415931becd04274f2d3e36e2c4a8ccea67edf7a151ac8c2ce93e53600254604051610d189190611532565b60405180910390a150565b6000600254905090565b6060600a60003373ffffffffffffffffffffffffffffffffffffffff1673ffffffffffffffffffffffffffffffffffffffff168152602001908152602001600020805480602002602001604051908101604052809291908181526020016000905b82821015610e0057838290600052602060002001805480602002602001604051908101604052809291908181526020018280548015610dec57602002820191906000526020600020905b815481526020019060010190808311610dd8575b505050505081526020019060010190610d8e565b50505050905090565b60006009600083604051602001610e20919061197e565b6040516020818303038152906040528051906020012060001c8152602001908152602001600020805490509050919050565b6000600554905090565b610e64611061565b600080610e7d84600184610e789190611809565b610ffc565b600a610e898685610ffc565b610e939190611e1f565b610e9d9190611809565b9050600282610eac9190611809565b91506000610ec685600185610ec19190611809565b610ffc565b600a610ed28786610ffc565b610edc9190611e1f565b610ee69190611809565b9050600283610ef59190611809565b92505b80821415610f4c57610f1685600185610f119190611809565b610ffc565b600a610f228786610ffc565b610f2c9190611e1f565b610f369190611809565b9050600283610f459190611809565b9250610ef8565b6000610f6486600186610f5f9190611809565b610ffc565b600a610f708887610ffc565b610f7a9190611e1f565b610f849190611809565b90505b82811480610f9457508181145b15610fd657610faf86600186610faa9190611809565b610ffc565b600a610fbb8887610ffc565b610fc59190611e1f565b610fcf9190611809565b9050610f87565b604051806060016040528084815260200183815260200182815250945050505050919050565b60008082141561101a57600a836110139190611e79565b905061105b565b600082600a6110299190611fdd565b6001846110369190611809565b600a6110429190611fdd565b8561104d9190611e79565b61105791906119c8565b1790505b92915050565b6040518060600160405280600390602082028036833780820191505090505090565b82600381019282156110b2579160200282015b828111156110b1578251825591602001919060010190611096565b5b5090506110bf9190611110565b5090565b8280548282559060005260206000209081019282156110ff579160200282015b828111156110fe5782518255916020019190600101906110e3565b5b50905061110c9190611110565b5090565b5b80821115611129576000816000905550600101611111565b5090565b600060039050919050565b600081905092915050565b6000819050919050565b6000819050919050565b6111608161114d565b82525050565b60006111728383611157565b60208301905092915050565b6000602082019050919050565b6111948161112d565b61119e8184611138565b92506111a982611143565b8060005b838110156111da5781516111c18782611166565b96506111cc8361117e565b9250506001810190506111ad565b505050505050565b60006060820190506111f7600083018461118b565b92915050565b6000604051905090565b600080fd5b600080fd5b6000819050919050565b61122481611211565b811461122f57600080fd5b50565b6000813590506112418161121b565b92915050565b60006020828403121561125d5761125c611207565b5b600061126b84828501611232565b91505092915050565b600080fd5b6000601f19601f8301169050919050565b7f4e487b7100000000000000000000000000000000000000000000000000000000600052604160045260246000fd5b6112c282611279565b810181811067ffffffffffffffff821117156112e1576112e061128a565b5b80604052505050565b60006112f46111fd565b905061130082826112b9565b919050565b600067ffffffffffffffff8211156113205761131f61128a565b5b602082029050602081019050919050565b600080fd5b600067ffffffffffffffff8211156113515761135061128a565b5b602082029050602081019050919050565b61136b8161114d565b811461137657600080fd5b50565b60008135905061138881611362565b92915050565b60006113a161139c84611336565b6112ea565b905080838252602082019050602084028301858111156113c4576113c3611331565b5b835b818110156113ed57806113d98882611379565b8452602084019350506020810190506113c6565b5050509392505050565b600082601f83011261140c5761140b611274565b5b813561141c84826020860161138e565b91505092915050565b600061143861143384611305565b6112ea565b9050808382526020820190506020840283018581111561145b5761145a611331565b5b835b818110156114a257803567ffffffffffffffff8111156114805761147f611274565b5b80860161148d89826113f7565b8552602085019450505060208101905061145d565b5050509392505050565b600082601f8301126114c1576114c0611274565b5b81356114d1848260208601611425565b91505092915050565b6000602082840312156114f0576114ef611207565b5b600082013567ffffffffffffffff81111561150e5761150d61120c565b5b61151a848285016114ac565b91505092915050565b61152c8161114d565b82525050565b60006020820190506115476000830184611523565b92915050565b600081519050919050565b600082825260208201905092915050565b6000819050602082019050919050565b600081519050919050565b600082825260208201905092915050565b6000819050602082019050919050565b6000602082019050919050565b60006115bd82611579565b6115c78185611584565b93506115d283611595565b8060005b838110156116035781516115ea8882611166565b97506115f5836115a5565b9250506001810190506115d6565b5085935050505092915050565b600061161c83836115b2565b905092915050565b6000602082019050919050565b600061163c8261154d565b6116468185611558565b93508360208202850161165885611569565b8060005b8581101561169457848403895281516116758582611610565b945061168083611624565b925060208a0199505060018101905061165c565b50829750879550505050505092915050565b600060208201905081810360008301526116c08184611631565b905092915050565b600067ffffffffffffffff8211156116e3576116e261128a565b5b602082029050919050565b60006117016116fc846116c8565b6112ea565b9050806020840283018581111561171b5761171a611331565b5b835b8181101561174457806117308882611379565b84526020840193505060208101905061171d565b5050509392505050565b600082601f83011261176357611762611274565b5b60036117708482856116ee565b91505092915050565b60006060828403121561178f5761178e611207565b5b600061179d8482850161174e565b91505092915050565b7f4e487b7100000000000000000000000000000000000000000000000000000000600052601160045260246000fd5b60006117e08261114d565b91506117eb8361114d565b9250828210156117fe576117fd6117a6565b5b828203905092915050565b60006118148261114d565b915061181f8361114d565b9250827fffffffffffffffffffffffffffffffffffffffffffffffffffffffffffffffff03821115611854576118536117a6565b5b828201905092915050565b6000819050919050565b61187a61187582611211565b61185f565b82525050565b600061188c8285611869565b60208201915061189c8284611869565b6020820191508190509392505050565b60006118b78261114d565b91507fffffffffffffffffffffffffffffffffffffffffffffffffffffffffffffffff8214156118ea576118e96117a6565b5b600182019050919050565b600081905092915050565b6119098161114d565b82525050565b600061191b8383611900565b60208301905092915050565b6119308161112d565b61193a81846118f5565b925061194582611143565b8060005b8381101561197657815161195d878261190f565b96506119688361117e565b925050600181019050611949565b505050505050565b600061198a8284611927565b60608201915081905092915050565b7f4e487b7100000000000000000000000000000000000000000000000000000000600052601260045260246000fd5b60006119d38261114d565b91506119de8361114d565b9250826119ee576119ed611999565b5b828204905092915050565b7f4e487b7100000000000000000000000000000000000000000000000000000000600052603260045260246000fd5b600082825260208201905092915050565b7f547275737465642070617274792063616e277420626574000000000000000000600082015250565b6000611a6f601783611a28565b9150611a7a82611a39565b602082019050919050565b60006020820190508181036000830152611a9e81611a62565b9050919050565b7f426574732061726520636c6f7365640000000000000000000000000000000000600082015250565b6000611adb600f83611a28565b9150611ae682611aa5565b602082019050919050565b60006020820190508181036000830152611b0a81611ace565b9050919050565b7f426574206e6f74207468652072696768742076616c7565206176617800000000600082015250565b6000611b47601c83611a28565b9150611b5282611b11565b602082019050919050565b60006020820190508181036000830152611b7681611b3a565b9050919050565b7f4561636820626574206d75737420686176652033206e756d6265727300000000600082015250565b6000611bb3601c83611a28565b9150611bbe82611b7d565b602082019050919050565b60006020820190508181036000830152611be281611ba6565b9050919050565b7f4e756d6265722031206d757374206265206265747765656e203020616e64203960008201527f3900000000000000000000000000000000000000000000000000000000000000602082015250565b6000611c45602183611a28565b9150611c5082611be9565b604082019050919050565b60006020820190508181036000830152611c7481611c38565b9050919050565b7f4e756d6265722032206d757374206265206265747765656e203020616e64203960008201527f3900000000000000000000000000000000000000000000000000000000000000602082015250565b6000611cd7602183611a28565b9150611ce282611c7b565b604082019050919050565b60006020820190508181036000830152611d0681611cca565b9050919050565b7f4e756d6265722033206d757374206265206265747765656e203020616e64203960008201527f3900000000000000000000000000000000000000000000000000000000000000602082015250565b6000611d69602183611a28565b9150611d7482611d0d565b604082019050919050565b60006020820190508181036000830152611d9881611d5c565b9050919050565b600081905092915050565b6000611db582611579565b611dbf8185611d9f565b9350611dca83611595565b8060005b83811015611dfb578151611de2888261190f565b9750611ded836115a5565b925050600181019050611dce565b5085935050505092915050565b6000611e148284611daa565b915081905092915050565b6000611e2a8261114d565b9150611e358361114d565b9250817fffffffffffffffffffffffffffffffffffffffffffffffffffffffffffffffff0483118215151615611e6e57611e6d6117a6565b5b828202905092915050565b6000611e848261114d565b9150611e8f8361114d565b925082611e9f57611e9e611999565b5b828206905092915050565b60008160011c9050919050565b6000808291508390505b6001851115611f0157808604811115611edd57611edc6117a6565b5b6001851615611eec5780820291505b8081029050611efa85611eaa565b9450611ec1565b94509492505050565b600082611f1a5760019050611fd6565b81611f285760009050611fd6565b8160018114611f3e5760028114611f4857611f77565b6001915050611fd6565b60ff841115611f5a57611f596117a6565b5b8360020a915084821115611f7157611f706117a6565b5b50611fd6565b5060208310610133831016604e8410600b8410161715611fac5782820a905083811115611fa757611fa66117a6565b5b611fd6565b611fb98484846001611eb7565b92509050818404811115611fd057611fcf6117a6565b5b81810290505b9392505050565b6000611fe88261114d565b9150611ff38361114d565b92506120207fffffffffffffffffffffffffffffffffffffffffffffffffffffffffffffffff8484611f0a565b90509291505056fea264697066735822122003f3b159df4580a4955e3bca4040e185c8ca22e18033dd345e595cef0a4f429364736f6c634300080a0033",
  "linkReferences": {},
  "deployedLinkReferences": {}
}