{
  "_format": "hh-sol-artifact-1",
  "contractName": "Lotto",
  "sourceName": "contracts/Lotto.sol",
  "abi": [
    {
      "inputs": [
        {
          "internalType": "address",
          "name": "_trustedParty",
          "type": "address"
        },
        {
          "internalType": "address payable",
          "name": "_treasury",
          "type": "address"
        },
        {
          "internalType": "uint256",
          "name": "_ticketValue",
          "type": "uint256"
        }
      ],
      "stateMutability": "nonpayable",
      "type": "constructor"
    },
    {
      "anonymous": false,
      "inputs": [
        {
          "indexed": false,
          "internalType": "uint256[3]",
          "name": "numbers",
          "type": "uint256[3]"
        }
      ],
      "name": "Draw",
      "type": "event"
    },
    {
      "anonymous": false,
      "inputs": [
        {
          "indexed": false,
          "internalType": "uint256",
          "name": "jackpot",
          "type": "uint256"
        }
      ],
      "name": "jackpotUpdated",
      "type": "event"
    },
    {
      "inputs": [
        {
          "internalType": "uint256[3]",
          "name": "_numbers",
          "type": "uint256[3]"
        }
      ],
      "name": "bet",
      "outputs": [],
      "stateMutability": "payable",
      "type": "function"
    },
    {
      "inputs": [
        {
          "internalType": "uint256[3]",
          "name": "_numbers",
          "type": "uint256[3]"
        }
      ],
      "name": "getAmountOfBetForNumbers",
      "outputs": [
        {
          "internalType": "uint256",
          "name": "",
          "type": "uint256"
        }
      ],
      "stateMutability": "view",
      "type": "function"
    },
    {
      "inputs": [],
      "name": "getBets",
      "outputs": [
        {
          "internalType": "uint256[][]",
          "name": "",
          "type": "uint256[][]"
        }
      ],
      "stateMutability": "view",
      "type": "function"
    },
    {
      "inputs": [],
      "name": "getCurrentJackpot",
      "outputs": [
        {
          "internalType": "uint256",
          "name": "",
          "type": "uint256"
        }
      ],
      "stateMutability": "view",
      "type": "function"
    },
    {
      "inputs": [],
      "name": "getLastDrawNumbers",
      "outputs": [
        {
          "internalType": "uint256[3]",
          "name": "",
          "type": "uint256[3]"
        }
      ],
      "stateMutability": "view",
      "type": "function"
    },
    {
      "inputs": [
        {
          "internalType": "bytes32",
          "name": "_seed",
          "type": "bytes32"
        }
      ],
      "name": "reveal",
      "outputs": [
        {
          "internalType": "uint256[3]",
          "name": "",
          "type": "uint256[3]"
        }
      ],
      "stateMutability": "nonpayable",
      "type": "function"
    },
    {
      "inputs": [
        {
          "internalType": "bytes32",
          "name": "_sealedSeed",
          "type": "bytes32"
        }
      ],
      "name": "setSealedSeed",
      "outputs": [],
      "stateMutability": "nonpayable",
      "type": "function"
    }
  ],
  "bytecode": "0x608060405260006004556000600760006101000a81548160ff0219169083151502179055506000600760016101000a81548160ff0219169083151502179055506000600760026101000a81548160ff021916908315150217905550600067ffffffffffffffff8111156200007857620000776200020c565b5b604051908082528060200260200182016040528015620000a75781602001602082028036833780820191505090505b50600c9080519060200190620000bf9291906200019b565b50348015620000cd57600080fd5b50604051620020f7380380620020f78339818101604052810190620000f3919062000325565b826000806101000a81548173ffffffffffffffffffffffffffffffffffffffff021916908373ffffffffffffffffffffffffffffffffffffffff16021790555081600160006101000a81548173ffffffffffffffffffffffffffffffffffffffff021916908373ffffffffffffffffffffffffffffffffffffffff1602179055508060038190555062127500426200018c9190620003b0565b6005819055505050506200040d565b828054828255906000526020600020908101928215620001da579160200282015b82811115620001d9578251825591602001919060010190620001bc565b5b509050620001e99190620001ed565b5090565b5b8082111562000208576000816000905550600101620001ee565b5090565b7f4e487b7100000000000000000000000000000000000000000000000000000000600052604160045260246000fd5b600080fd5b600073ffffffffffffffffffffffffffffffffffffffff82169050919050565b60006200026d8262000240565b9050919050565b6200027f8162000260565b81146200028b57600080fd5b50565b6000815190506200029f8162000274565b92915050565b6000620002b28262000240565b9050919050565b620002c481620002a5565b8114620002d057600080fd5b50565b600081519050620002e481620002b9565b92915050565b6000819050919050565b620002ff81620002ea565b81146200030b57600080fd5b50565b6000815190506200031f81620002f4565b92915050565b6000806000606084860312156200034157620003406200023b565b5b600062000351868287016200028e565b93505060206200036486828701620002d3565b925050604062000377868287016200030e565b9150509250925092565b7f4e487b7100000000000000000000000000000000000000000000000000000000600052601160045260246000fd5b6000620003bd82620002ea565b9150620003ca83620002ea565b9250827fffffffffffffffffffffffffffffffffffffffffffffffffffffffffffffffff0382111562000402576200040162000381565b5b828201905092915050565b611cda806200041d6000396000f3fe6080604052600436106100705760003560e01c80639f57d16e1161004e5780639f57d16e14610106578063a6afd5fd14610131578063be8b48d01461015c578063e4c9806f1461019957610070565b8063087d0e0b1461007557806341114538146100a0578063701fd0f1146100c9575b600080fd5b34801561008157600080fd5b5061008a6101b5565b60405161009791906110d0565b60405180910390f35b3480156100ac57600080fd5b506100c760048036038101906100c29190611130565b61021f565b005b3480156100d557600080fd5b506100f060048036038101906100eb9190611130565b6102fe565b6040516100fd91906110d0565b60405180910390f35b34801561011257600080fd5b5061011b6106d2565b604051610128919061116c565b60405180910390f35b34801561013d57600080fd5b506101466106dc565b60405161015391906112e0565b60405180910390f35b34801561016857600080fd5b50610183600480360381019061017e9190611475565b6107b8565b604051610190919061116c565b60405180910390f35b6101b360048036038101906101ae9190611475565b610801565b005b6101bd610f4f565b600b600060016004546101d091906114d1565b8152602001908152602001600020600380602002604051908101604052809291908260038015610215576020028201915b815481526020019060010190808311610201575b5050505050905090565b60008054906101000a900473ffffffffffffffffffffffffffffffffffffffff1673ffffffffffffffffffffffffffffffffffffffff163373ffffffffffffffffffffffffffffffffffffffff161461027757600080fd5b600760009054906101000a900460ff161561029157600080fd5b600760019054906101000a900460ff16156102ab57600080fd5b6001600760016101000a81548160ff021916908315150217905550806006819055506001436102da9190611505565b6008819055506001600760006101000a81548160ff02191690831515021790555050565b610306610f4f565b60008054906101000a900473ffffffffffffffffffffffffffffffffffffffff1673ffffffffffffffffffffffffffffffffffffffff163373ffffffffffffffffffffffffffffffffffffffff161461035e57600080fd5b600760009054906101000a900460ff1661037757600080fd5b436008541061038557600080fd5b600654821461039357600080fd5b600082600854406040516020016103ab92919061157c565b6040516020818303038152906040528051906020012060001c905060006103d182610d4a565b905080600b600060045481526020019081526020016000209060036103f7929190610f71565b506004600081548092919061040b906115a8565b91905055507f782d7ce763b28c71c4396c26548d32590c3a1f9649900b813dad7d691fead9018160405161043f91906110d0565b60405180910390a16000600960008360405160200161045e919061167a565b6040516020818303038152906040528051906020012060001c81526020019081526020016000208054905011600760026101000a81548160ff021916908315150217905550600760029054906101000a900460ff161561069157600060146002546104c991906116c4565b9050600160009054906101000a900473ffffffffffffffffffffffffffffffffffffffff1673ffffffffffffffffffffffffffffffffffffffff166108fc829081150290604051600060405180830381858888f19350505050158015610533573d6000803e3d6000fd5b508060025461054291906114d1565b6002819055506000600960008460405160200161055f919061167a565b6040516020818303038152906040528051906020012060001c815260200190815260200160002080549050905060008160025461059c91906116c4565b905060005b8281101561067b5760096000866040516020016105be919061167a565b6040516020818303038152906040528051906020012060001c815260200190815260200160002081815481106105f7576105f66116f5565b5b9060005260206000200160009054906101000a900473ffffffffffffffffffffffffffffffffffffffff1673ffffffffffffffffffffffffffffffffffffffff166108fc839081150290604051600060405180830381858888f19350505050158015610667573d6000803e3d6000fd5b508080610673906115a8565b9150506105a1565b50600060028190555083955050505050506106cd565b6000600760006101000a81548160ff0219169083151502179055506000600760016101000a81548160ff02191690831515021790555080925050505b919050565b6000600254905090565b6060600a60003373ffffffffffffffffffffffffffffffffffffffff1673ffffffffffffffffffffffffffffffffffffffff168152602001908152602001600020805480602002602001604051908101604052809291908181526020016000905b828210156107af5783829060005260206000200180548060200260200160405190810160405280929190818152602001828054801561079b57602002820191906000526020600020905b815481526020019060010190808311610787575b50505050508152602001906001019061073d565b50505050905090565b600060096000836040516020016107cf919061167a565b6040516020818303038152906040528051906020012060001c8152602001908152602001600020805490509050919050565b60008054906101000a900473ffffffffffffffffffffffffffffffffffffffff1673ffffffffffffffffffffffffffffffffffffffff163373ffffffffffffffffffffffffffffffffffffffff161415610890576040517f08c379a000000000000000000000000000000000000000000000000000000000815260040161088790611781565b60405180910390fd5b600760019054906101000a900460ff16156108e0576040517f08c379a00000000000000000000000000000000000000000000000000000000081526004016108d7906117ed565b60405180910390fd5b6003543414610924576040517f08c379a000000000000000000000000000000000000000000000000000000000815260040161091b90611859565b60405180910390fd5b80600160038110610938576109376116f5565b5b602002015181600060038110610951576109506116f5565b5b602002015114158015610994575080600260038110610973576109726116f5565b5b60200201518160006003811061098c5761098b6116f5565b5b602002015114155b80156109d05750806002600381106109af576109ae6116f5565b5b6020020151816001600381106109c8576109c76116f5565b5b602002015114155b610a0f576040517f08c379a0000000000000000000000000000000000000000000000000000000008152600401610a06906118c5565b60405180910390fd5b600081600060038110610a2557610a246116f5565b5b602002015110158015610a515750606381600060038110610a4957610a486116f5565b5b602002015111155b610a90576040517f08c379a0000000000000000000000000000000000000000000000000000000008152600401610a8790611957565b60405180910390fd5b600081600160038110610aa657610aa56116f5565b5b602002015110158015610ad25750606381600160038110610aca57610ac96116f5565b5b602002015111155b610b11576040517f08c379a0000000000000000000000000000000000000000000000000000000008152600401610b08906119e9565b60405180910390fd5b600081600260038110610b2757610b266116f5565b5b602002015110158015610b535750606381600260038110610b4b57610b4a6116f5565b5b602002015111155b610b92576040517f08c379a0000000000000000000000000000000000000000000000000000000008152600401610b8990611a7b565b60405180910390fd5b3460026000828254610ba49190611505565b92505081905550600c81604051602001610bbe919061167a565b6040516020818303038152906040528051906020012060001c9080600181540180825580915050600190039060005260206000200160009091909190915055600a60003373ffffffffffffffffffffffffffffffffffffffff1673ffffffffffffffffffffffffffffffffffffffff1681526020019081526020016000208190806001815401808255809150506001900390600052602060002001600090919091909150906003610c70929190610fb1565b506009600082604051602001610c86919061167a565b6040516020818303038152906040528051906020012060001c8152602001908152602001600020339080600181540180825580915050600190039060005260206000200160009091909190916101000a81548173ffffffffffffffffffffffffffffffffffffffff021916908373ffffffffffffffffffffffffffffffffffffffff1602179055507ff9fcd8fad7415931becd04274f2d3e36e2c4a8ccea67edf7a151ac8c2ce93e53600254604051610d3f919061116c565b60405180910390a150565b610d52610f4f565b600080610d6b84600184610d669190611505565b610eea565b600a610d778685610eea565b610d819190611a9b565b610d8b9190611505565b9050600282610d9a9190611505565b91506000610db485600185610daf9190611505565b610eea565b600a610dc08786610eea565b610dca9190611a9b565b610dd49190611505565b9050600283610de39190611505565b92505b80821415610e3a57610e0485600185610dff9190611505565b610eea565b600a610e108786610eea565b610e1a9190611a9b565b610e249190611505565b9050600283610e339190611505565b9250610de6565b6000610e5286600186610e4d9190611505565b610eea565b600a610e5e8887610eea565b610e689190611a9b565b610e729190611505565b90505b82811480610e8257508181145b15610ec457610e9d86600186610e989190611505565b610eea565b600a610ea98887610eea565b610eb39190611a9b565b610ebd9190611505565b9050610e75565b604051806060016040528084815260200183815260200182815250945050505050919050565b600080821415610f0857600a83610f019190611af5565b9050610f49565b600082600a610f179190611c59565b600184610f249190611505565b600a610f309190611c59565b85610f3b9190611af5565b610f4591906116c4565b1790505b92915050565b6040518060600160405280600390602082028036833780820191505090505090565b8260038101928215610fa0579160200282015b82811115610f9f578251825591602001919060010190610f84565b5b509050610fad9190610ffe565b5090565b828054828255906000526020600020908101928215610fed579160200282015b82811115610fec578251825591602001919060010190610fd1565b5b509050610ffa9190610ffe565b5090565b5b80821115611017576000816000905550600101610fff565b5090565b600060039050919050565b600081905092915050565b6000819050919050565b6000819050919050565b61104e8161103b565b82525050565b60006110608383611045565b60208301905092915050565b6000602082019050919050565b6110828161101b565b61108c8184611026565b925061109782611031565b8060005b838110156110c85781516110af8782611054565b96506110ba8361106c565b92505060018101905061109b565b505050505050565b60006060820190506110e56000830184611079565b92915050565b6000604051905090565b600080fd5b6000819050919050565b61110d816110fa565b811461111857600080fd5b50565b60008135905061112a81611104565b92915050565b600060208284031215611146576111456110f5565b5b60006111548482850161111b565b91505092915050565b6111668161103b565b82525050565b6000602082019050611181600083018461115d565b92915050565b600081519050919050565b600082825260208201905092915050565b6000819050602082019050919050565b600081519050919050565b600082825260208201905092915050565b6000819050602082019050919050565b6000602082019050919050565b60006111f7826111b3565b61120181856111be565b935061120c836111cf565b8060005b8381101561123d5781516112248882611054565b975061122f836111df565b925050600181019050611210565b5085935050505092915050565b600061125683836111ec565b905092915050565b6000602082019050919050565b600061127682611187565b6112808185611192565b935083602082028501611292856111a3565b8060005b858110156112ce57848403895281516112af858261124a565b94506112ba8361125e565b925060208a01995050600181019050611296565b50829750879550505050505092915050565b600060208201905081810360008301526112fa818461126b565b905092915050565b600080fd5b6000601f19601f8301169050919050565b7f4e487b7100000000000000000000000000000000000000000000000000000000600052604160045260246000fd5b61135082611307565b810181811067ffffffffffffffff8211171561136f5761136e611318565b5b80604052505050565b60006113826110eb565b905061138e8282611347565b919050565b600067ffffffffffffffff8211156113ae576113ad611318565b5b602082029050919050565b600080fd5b6113c78161103b565b81146113d257600080fd5b50565b6000813590506113e4816113be565b92915050565b60006113fd6113f884611393565b611378565b90508060208402830185811115611417576114166113b9565b5b835b81811015611440578061142c88826113d5565b845260208401935050602081019050611419565b5050509392505050565b600082601f83011261145f5761145e611302565b5b600361146c8482856113ea565b91505092915050565b60006060828403121561148b5761148a6110f5565b5b60006114998482850161144a565b91505092915050565b7f4e487b7100000000000000000000000000000000000000000000000000000000600052601160045260246000fd5b60006114dc8261103b565b91506114e78361103b565b9250828210156114fa576114f96114a2565b5b828203905092915050565b60006115108261103b565b915061151b8361103b565b9250827fffffffffffffffffffffffffffffffffffffffffffffffffffffffffffffffff038211156115505761154f6114a2565b5b828201905092915050565b6000819050919050565b611576611571826110fa565b61155b565b82525050565b60006115888285611565565b6020820191506115988284611565565b6020820191508190509392505050565b60006115b38261103b565b91507fffffffffffffffffffffffffffffffffffffffffffffffffffffffffffffffff8214156115e6576115e56114a2565b5b600182019050919050565b600081905092915050565b6116058161103b565b82525050565b600061161783836115fc565b60208301905092915050565b61162c8161101b565b61163681846115f1565b925061164182611031565b8060005b83811015611672578151611659878261160b565b96506116648361106c565b925050600181019050611645565b505050505050565b60006116868284611623565b60608201915081905092915050565b7f4e487b7100000000000000000000000000000000000000000000000000000000600052601260045260246000fd5b60006116cf8261103b565b91506116da8361103b565b9250826116ea576116e9611695565b5b828204905092915050565b7f4e487b7100000000000000000000000000000000000000000000000000000000600052603260045260246000fd5b600082825260208201905092915050565b7f547275737465642070617274792063616e277420626574000000000000000000600082015250565b600061176b601783611724565b915061177682611735565b602082019050919050565b6000602082019050818103600083015261179a8161175e565b9050919050565b7f426574732061726520636c6f7365640000000000000000000000000000000000600082015250565b60006117d7600f83611724565b91506117e2826117a1565b602082019050919050565b60006020820190508181036000830152611806816117ca565b9050919050565b7f426574206e6f74207468652072696768742076616c7565206176617800000000600082015250565b6000611843601c83611724565b915061184e8261180d565b602082019050919050565b6000602082019050818103600083015261187281611836565b9050919050565b7f45616368206e756d626572206d75737420626520756e69717565000000000000600082015250565b60006118af601a83611724565b91506118ba82611879565b602082019050919050565b600060208201905081810360008301526118de816118a2565b9050919050565b7f4e756d6265722031206d757374206265206265747765656e203020616e64203960008201527f3900000000000000000000000000000000000000000000000000000000000000602082015250565b6000611941602183611724565b915061194c826118e5565b604082019050919050565b6000602082019050818103600083015261197081611934565b9050919050565b7f4e756d6265722032206d757374206265206265747765656e203020616e64203960008201527f3900000000000000000000000000000000000000000000000000000000000000602082015250565b60006119d3602183611724565b91506119de82611977565b604082019050919050565b60006020820190508181036000830152611a02816119c6565b9050919050565b7f4e756d6265722033206d757374206265206265747765656e203020616e64203960008201527f3900000000000000000000000000000000000000000000000000000000000000602082015250565b6000611a65602183611724565b9150611a7082611a09565b604082019050919050565b60006020820190508181036000830152611a9481611a58565b9050919050565b6000611aa68261103b565b9150611ab18361103b565b9250817fffffffffffffffffffffffffffffffffffffffffffffffffffffffffffffffff0483118215151615611aea57611ae96114a2565b5b828202905092915050565b6000611b008261103b565b9150611b0b8361103b565b925082611b1b57611b1a611695565b5b828206905092915050565b60008160011c9050919050565b6000808291508390505b6001851115611b7d57808604811115611b5957611b586114a2565b5b6001851615611b685780820291505b8081029050611b7685611b26565b9450611b3d565b94509492505050565b600082611b965760019050611c52565b81611ba45760009050611c52565b8160018114611bba5760028114611bc457611bf3565b6001915050611c52565b60ff841115611bd657611bd56114a2565b5b8360020a915084821115611bed57611bec6114a2565b5b50611c52565b5060208310610133831016604e8410600b8410161715611c285782820a905083811115611c2357611c226114a2565b5b611c52565b611c358484846001611b33565b92509050818404811115611c4c57611c4b6114a2565b5b81810290505b9392505050565b6000611c648261103b565b9150611c6f8361103b565b9250611c9c7fffffffffffffffffffffffffffffffffffffffffffffffffffffffffffffffff8484611b86565b90509291505056fea26469706673582212208b134952d2047cf3dbe2811d9d44e3fde4f9fae8f7c3bb350219b7c752d3ae9464736f6c634300080a0033",
  "linkReferences": {},
  "deployedLinkReferences": {}
}