{
  "_format": "hh-sol-artifact-1",
  "contractName": "Lotto",
  "sourceName": "contracts/Lotto.sol",
  "abi": [
    {
      "inputs": [
        {
          "internalType": "address",
          "name": "_trustedParty",
          "type": "address"
        },
        {
          "internalType": "address payable",
          "name": "_treasury",
          "type": "address"
        }
      ],
      "stateMutability": "nonpayable",
      "type": "constructor"
    },
    {
      "anonymous": false,
      "inputs": [
        {
          "indexed": false,
          "internalType": "uint256[3]",
          "name": "numbers",
          "type": "uint256[3]"
        }
      ],
      "name": "Draw",
      "type": "event"
    },
    {
      "anonymous": false,
      "inputs": [
        {
          "indexed": false,
          "internalType": "uint256",
          "name": "jackpot",
          "type": "uint256"
        }
      ],
      "name": "jackpotUpdated",
      "type": "event"
    },
    {
      "inputs": [],
      "name": "_executePayment",
      "outputs": [],
      "stateMutability": "nonpayable",
      "type": "function"
    },
    {
      "inputs": [
        {
          "internalType": "uint256[3]",
          "name": "_numbers",
          "type": "uint256[3]"
        }
      ],
      "name": "bet",
      "outputs": [],
      "stateMutability": "payable",
      "type": "function"
    },
    {
      "inputs": [
        {
          "internalType": "uint256[3]",
          "name": "_numbers",
          "type": "uint256[3]"
        }
      ],
      "name": "getAmountOfBetForNumbers",
      "outputs": [
        {
          "internalType": "uint256",
          "name": "",
          "type": "uint256"
        }
      ],
      "stateMutability": "view",
      "type": "function"
    },
    {
      "inputs": [],
      "name": "getBets",
      "outputs": [
        {
          "internalType": "uint256[][]",
          "name": "",
          "type": "uint256[][]"
        }
      ],
      "stateMutability": "view",
      "type": "function"
    },
    {
      "inputs": [],
      "name": "getCurrentJackpot",
      "outputs": [
        {
          "internalType": "uint256",
          "name": "",
          "type": "uint256"
        }
      ],
      "stateMutability": "view",
      "type": "function"
    },
    {
      "inputs": [],
      "name": "getLastDraw",
      "outputs": [
        {
          "components": [
            {
              "internalType": "address[]",
              "name": "winners",
              "type": "address[]"
            },
            {
              "internalType": "uint256",
              "name": "jackpot",
              "type": "uint256"
            },
            {
              "internalType": "uint256",
              "name": "drawTime",
              "type": "uint256"
            },
            {
              "internalType": "uint256[3]",
              "name": "numbers",
              "type": "uint256[3]"
            },
            {
              "internalType": "bytes32",
              "name": "sealedSeed",
              "type": "bytes32"
            }
          ],
          "internalType": "struct Lotto.LastDraw",
          "name": "",
          "type": "tuple"
        }
      ],
      "stateMutability": "view",
      "type": "function"
    },
    {
      "inputs": [],
      "name": "getLastDrawNumbers",
      "outputs": [
        {
          "internalType": "uint256[3]",
          "name": "",
          "type": "uint256[3]"
        }
      ],
      "stateMutability": "view",
      "type": "function"
    },
    {
      "inputs": [
        {
          "internalType": "uint256",
          "name": "amount",
          "type": "uint256"
        }
      ],
      "name": "payTreasury",
      "outputs": [],
      "stateMutability": "nonpayable",
      "type": "function"
    },
    {
      "inputs": [
        {
          "internalType": "uint256",
          "name": "amount",
          "type": "uint256"
        }
      ],
      "name": "payoutAllWinners",
      "outputs": [],
      "stateMutability": "nonpayable",
      "type": "function"
    },
    {
      "inputs": [
        {
          "internalType": "bytes32",
          "name": "_seed",
          "type": "bytes32"
        }
      ],
      "name": "reveal",
      "outputs": [
        {
          "internalType": "uint256[3]",
          "name": "",
          "type": "uint256[3]"
        }
      ],
      "stateMutability": "nonpayable",
      "type": "function"
    },
    {
      "inputs": [
        {
          "internalType": "bytes32",
          "name": "_sealedSeed",
          "type": "bytes32"
        }
      ],
      "name": "setSealedSeed",
      "outputs": [],
      "stateMutability": "nonpayable",
      "type": "function"
    }
  ],
  "bytecode": "0x60806040526000600460006101000a81548160ff0219169083151502179055506000600460016101000a81548160ff021916908315150217905550600067ffffffffffffffff811115620000585762000057620001cd565b5b604051908082528060200260200182016040528015620000875781602001602082028036833780820191505090505b50600f90805190602001906200009f9291906200015c565b50348015620000ad57600080fd5b50604051620029d0380380620029d08339818101604052810190620000d39190620002ab565b816000806101000a81548173ffffffffffffffffffffffffffffffffffffffff021916908373ffffffffffffffffffffffffffffffffffffffff16021790555080600160006101000a81548173ffffffffffffffffffffffffffffffffffffffff021916908373ffffffffffffffffffffffffffffffffffffffff1602179055505050620002f2565b8280548282559060005260206000209081019282156200019b579160200282015b828111156200019a5782518255916020019190600101906200017d565b5b509050620001aa9190620001ae565b5090565b5b80821115620001c9576000816000905550600101620001af565b5090565b7f4e487b7100000000000000000000000000000000000000000000000000000000600052604160045260246000fd5b600080fd5b600073ffffffffffffffffffffffffffffffffffffffff82169050919050565b60006200022e8262000201565b9050919050565b620002408162000221565b81146200024c57600080fd5b50565b600081519050620002608162000235565b92915050565b6000620002738262000201565b9050919050565b620002858162000266565b81146200029157600080fd5b50565b600081519050620002a5816200027a565b92915050565b60008060408385031215620002c557620002c4620001fc565b5b6000620002d5858286016200024f565b9250506020620002e88582860162000294565b9150509250929050565b6126ce80620003026000396000f3fe60806040526004361061009c5760003560e01c80639f57d16e116100645780639f57d16e14610172578063a6afd5fd1461019d578063be8b48d0146101c8578063c7f698f914610205578063d9684a7a14610230578063e4c9806f146102595761009c565b8063087d0e0b146100a157806308deb7ed146100cc57806341114538146100f55780634534904a1461011e578063701fd0f114610135575b600080fd5b3480156100ad57600080fd5b506100b6610275565b6040516100c39190611648565b60405180910390f35b3480156100d857600080fd5b506100f360048036038101906100ee919061169e565b6102c3565b005b34801561010157600080fd5b5061011c60048036038101906101179190611701565b61040c565b005b34801561012a57600080fd5b506101336104eb565b005b34801561014157600080fd5b5061015c60048036038101906101579190611701565b6105dd565b6040516101699190611648565b60405180910390f35b34801561017e57600080fd5b50610187610868565b604051610194919061173d565b60405180910390f35b3480156101a957600080fd5b506101b2610872565b6040516101bf91906118b1565b60405180910390f35b3480156101d457600080fd5b506101ef60048036038101906101ea9190611a1a565b61094e565b6040516101fc919061173d565b60405180910390f35b34801561021157600080fd5b5061021a610997565b6040516102279190611c1e565b60405180910390f35b34801561023c57600080fd5b506102576004803603810190610252919061169e565b610aa2565b005b610273600480360381019061026e9190611a1a565b610ca7565b005b61027d6113fb565b60066003016003806020026040519081016040528092919082600380156102b9576020028201915b8154815260200190600101908083116102a5575b5050505050905090565b60008054906101000a900473ffffffffffffffffffffffffffffffffffffffff1673ffffffffffffffffffffffffffffffffffffffff163373ffffffffffffffffffffffffffffffffffffffff1614610351576040517f08c379a000000000000000000000000000000000000000000000000000000000815260040161034890611cc3565b60405180910390fd5b600460019054906101000a900460ff166103a0576040517f08c379a000000000000000000000000000000000000000000000000000000000815260040161039790611d2f565b60405180910390fd5b600160009054906101000a900473ffffffffffffffffffffffffffffffffffffffff1673ffffffffffffffffffffffffffffffffffffffff166108fc829081150290604051600060405180830381858888f19350505050158015610408573d6000803e3d6000fd5b5050565b60008054906101000a900473ffffffffffffffffffffffffffffffffffffffff1673ffffffffffffffffffffffffffffffffffffffff163373ffffffffffffffffffffffffffffffffffffffff161461046457600080fd5b600460009054906101000a900460ff161561047e57600080fd5b600460019054906101000a900460ff161561049857600080fd5b6001600460016101000a81548160ff021916908315150217905550806003819055506001436104c79190611d7e565b6005819055506001600460006101000a81548160ff02191690831515021790555050565b60008054906101000a900473ffffffffffffffffffffffffffffffffffffffff1673ffffffffffffffffffffffffffffffffffffffff163373ffffffffffffffffffffffffffffffffffffffff161461054357600080fd5b600060146002546105549190611e03565b905061055f816102c3565b8060025461056d9190611e34565b6002819055506000600d6000600660030160405160200161058e9190611f5e565b6040516020818303038152906040528051906020012060001c8152602001908152602001600020805490506002546105c69190611e03565b90506105d181610aa2565b60006002819055505050565b6105e56113fb565b60008054906101000a900473ffffffffffffffffffffffffffffffffffffffff1673ffffffffffffffffffffffffffffffffffffffff163373ffffffffffffffffffffffffffffffffffffffff161461063d57600080fd5b600460009054906101000a900460ff1661065657600080fd5b436005541061066457600080fd5b600354821461067257600080fd5b6000826005544060405160200161068a929190611f9a565b6040516020818303038152906040528051906020012060001c90506106ae816111f6565b60066003019060036106c192919061141d565b50826006800181905550600254600660010181905550600d600060066003016040516020016106f09190611f5e565b6040516020818303038152906040528051906020012060001c8152602001908152602001600020600660000190805461072a92919061145d565b506000600254111561073f5761073e6104eb565b5b60005b600f8054905081101561079f57600d6000600f838154811061076757610766611fc6565b5b90600052602060002001548152602001908152602001600020600061078c91906114af565b808061079790611ff5565b915050610742565b50600f60006107ae91906114d0565b7f782d7ce763b28c71c4396c26548d32590c3a1f9649900b813dad7d691fead90160066003016040516107e1919061209c565b60405180910390a16000600460006101000a81548160ff0219169083151502179055506000600460016101000a81548160ff021916908315150217905550600660030160038060200260405190810160405280929190826003801561085b576020028201915b815481526020019060010190808311610847575b5050505050915050919050565b6000600254905090565b6060600e60003373ffffffffffffffffffffffffffffffffffffffff1673ffffffffffffffffffffffffffffffffffffffff168152602001908152602001600020805480602002602001604051908101604052809291908181526020016000905b828210156109455783829060005260206000200180548060200260200160405190810160405280929190818152602001828054801561093157602002820191906000526020600020905b81548152602001906001019080831161091d575b5050505050815260200190600101906108d3565b50505050905090565b6000600d600083604051602001610965919061210e565b6040516020818303038152906040528051906020012060001c8152602001908152602001600020805490509050919050565b61099f6114f1565b60066040518060a001604052908160008201805480602002602001604051908101604052809291908181526020018280548015610a3157602002820191906000526020600020905b8160009054906101000a900473ffffffffffffffffffffffffffffffffffffffff1673ffffffffffffffffffffffffffffffffffffffff16815260200190600101908083116109e7575b50505050508152602001600182015481526020016002820154815260200160038201600380602002604051908101604052809291908260038015610a8a576020028201915b815481526020019060010190808311610a76575b50505050508152602001600682015481525050905090565b60008054906101000a900473ffffffffffffffffffffffffffffffffffffffff1673ffffffffffffffffffffffffffffffffffffffff163373ffffffffffffffffffffffffffffffffffffffff1614610b30576040517f08c379a0000000000000000000000000000000000000000000000000000000008152600401610b2790611cc3565b60405180910390fd5b600460019054906101000a900460ff16610b7f576040517f08c379a0000000000000000000000000000000000000000000000000000000008152600401610b7690611d2f565b60405180910390fd5b60005b600d60006006600301604051602001610b9b9190611f5e565b6040516020818303038152906040528051906020012060001c815260200190815260200160002080549050811015610ca357600d60006006600301604051602001610be69190611f5e565b6040516020818303038152906040528051906020012060001c81526020019081526020016000208181548110610c1f57610c1e611fc6565b5b9060005260206000200160009054906101000a900473ffffffffffffffffffffffffffffffffffffffff1673ffffffffffffffffffffffffffffffffffffffff166108fc839081150290604051600060405180830381858888f19350505050158015610c8f573d6000803e3d6000fd5b508080610c9b90611ff5565b915050610b82565b5050565b60008054906101000a900473ffffffffffffffffffffffffffffffffffffffff1673ffffffffffffffffffffffffffffffffffffffff163373ffffffffffffffffffffffffffffffffffffffff161415610d36576040517f08c379a0000000000000000000000000000000000000000000000000000000008152600401610d2d90612175565b60405180910390fd5b600460019054906101000a900460ff1615610d86576040517f08c379a0000000000000000000000000000000000000000000000000000000008152600401610d7d906121e1565b60405180910390fd5b670de0b6b3a76400003414610dd0576040517f08c379a0000000000000000000000000000000000000000000000000000000008152600401610dc79061224d565b60405180910390fd5b80600160038110610de457610de3611fc6565b5b602002015181600060038110610dfd57610dfc611fc6565b5b602002015114158015610e40575080600260038110610e1f57610e1e611fc6565b5b602002015181600060038110610e3857610e37611fc6565b5b602002015114155b8015610e7c575080600260038110610e5b57610e5a611fc6565b5b602002015181600160038110610e7457610e73611fc6565b5b602002015114155b610ebb576040517f08c379a0000000000000000000000000000000000000000000000000000000008152600401610eb2906122b9565b60405180910390fd5b600081600060038110610ed157610ed0611fc6565b5b602002015110158015610efd5750606381600060038110610ef557610ef4611fc6565b5b602002015111155b610f3c576040517f08c379a0000000000000000000000000000000000000000000000000000000008152600401610f339061234b565b60405180910390fd5b600081600160038110610f5257610f51611fc6565b5b602002015110158015610f7e5750606381600160038110610f7657610f75611fc6565b5b602002015111155b610fbd576040517f08c379a0000000000000000000000000000000000000000000000000000000008152600401610fb4906123dd565b60405180910390fd5b600081600260038110610fd357610fd2611fc6565b5b602002015110158015610fff5750606381600260038110610ff757610ff6611fc6565b5b602002015111155b61103e576040517f08c379a00000000000000000000000000000000000000000000000000000000081526004016110359061246f565b60405180910390fd5b34600260008282546110509190611d7e565b92505081905550600f8160405160200161106a919061210e565b6040516020818303038152906040528051906020012060001c9080600181540180825580915050600190039060005260206000200160009091909190915055600e60003373ffffffffffffffffffffffffffffffffffffffff1673ffffffffffffffffffffffffffffffffffffffff168152602001908152602001600020819080600181540180825580915050600190039060005260206000200160009091909190915090600361111c929190611529565b50600d600082604051602001611132919061210e565b6040516020818303038152906040528051906020012060001c8152602001908152602001600020339080600181540180825580915050600190039060005260206000200160009091909190916101000a81548173ffffffffffffffffffffffffffffffffffffffff021916908373ffffffffffffffffffffffffffffffffffffffff1602179055507ff9fcd8fad7415931becd04274f2d3e36e2c4a8ccea67edf7a151ac8c2ce93e536002546040516111eb919061173d565b60405180910390a150565b6111fe6113fb565b600080611217846001846112129190611d7e565b611396565b600a6112238685611396565b61122d919061248f565b6112379190611d7e565b90506002826112469190611d7e565b915060006112608560018561125b9190611d7e565b611396565b600a61126c8786611396565b611276919061248f565b6112809190611d7e565b905060028361128f9190611d7e565b92505b808214156112e6576112b0856001856112ab9190611d7e565b611396565b600a6112bc8786611396565b6112c6919061248f565b6112d09190611d7e565b90506002836112df9190611d7e565b9250611292565b60006112fe866001866112f99190611d7e565b611396565b600a61130a8887611396565b611314919061248f565b61131e9190611d7e565b90505b8281148061132e57508181145b1561137057611349866001866113449190611d7e565b611396565b600a6113558887611396565b61135f919061248f565b6113699190611d7e565b9050611321565b604051806060016040528084815260200183815260200182815250945050505050919050565b6000808214156113b457600a836113ad91906124e9565b90506113f5565b600082600a6113c3919061264d565b6001846113d09190611d7e565b600a6113dc919061264d565b856113e791906124e9565b6113f19190611e03565b1790505b92915050565b6040518060600160405280600390602082028036833780820191505090505090565b826003810192821561144c579160200282015b8281111561144b578251825591602001919060010190611430565b5b5090506114599190611576565b5090565b82805482825590600052602060002090810192821561149e5760005260206000209182015b8281111561149d578254825591600101919060010190611482565b5b5090506114ab9190611576565b5090565b50805460008255906000526020600020908101906114cd9190611576565b50565b50805460008255906000526020600020908101906114ee9190611576565b50565b6040518060a001604052806060815260200160008152602001600081526020016115196113fb565b8152602001600080191681525090565b828054828255906000526020600020908101928215611565579160200282015b82811115611564578251825591602001919060010190611549565b5b5090506115729190611576565b5090565b5b8082111561158f576000816000905550600101611577565b5090565b600060039050919050565b600081905092915050565b6000819050919050565b6000819050919050565b6115c6816115b3565b82525050565b60006115d883836115bd565b60208301905092915050565b6000602082019050919050565b6115fa81611593565b611604818461159e565b925061160f826115a9565b8060005b8381101561164057815161162787826115cc565b9650611632836115e4565b925050600181019050611613565b505050505050565b600060608201905061165d60008301846115f1565b92915050565b6000604051905090565b600080fd5b61167b816115b3565b811461168657600080fd5b50565b60008135905061169881611672565b92915050565b6000602082840312156116b4576116b361166d565b5b60006116c284828501611689565b91505092915050565b6000819050919050565b6116de816116cb565b81146116e957600080fd5b50565b6000813590506116fb816116d5565b92915050565b6000602082840312156117175761171661166d565b5b6000611725848285016116ec565b91505092915050565b611737816115b3565b82525050565b6000602082019050611752600083018461172e565b92915050565b600081519050919050565b600082825260208201905092915050565b6000819050602082019050919050565b600081519050919050565b600082825260208201905092915050565b6000819050602082019050919050565b6000602082019050919050565b60006117c882611784565b6117d2818561178f565b93506117dd836117a0565b8060005b8381101561180e5781516117f588826115cc565b9750611800836117b0565b9250506001810190506117e1565b5085935050505092915050565b600061182783836117bd565b905092915050565b6000602082019050919050565b600061184782611758565b6118518185611763565b93508360208202850161186385611774565b8060005b8581101561189f5784840389528151611880858261181b565b945061188b8361182f565b925060208a01995050600181019050611867565b50829750879550505050505092915050565b600060208201905081810360008301526118cb818461183c565b905092915050565b600080fd5b6000601f19601f8301169050919050565b7f4e487b7100000000000000000000000000000000000000000000000000000000600052604160045260246000fd5b611921826118d8565b810181811067ffffffffffffffff821117156119405761193f6118e9565b5b80604052505050565b6000611953611663565b905061195f8282611918565b919050565b600067ffffffffffffffff82111561197f5761197e6118e9565b5b602082029050919050565b600080fd5b60006119a261199d84611964565b611949565b905080602084028301858111156119bc576119bb61198a565b5b835b818110156119e557806119d18882611689565b8452602084019350506020810190506119be565b5050509392505050565b600082601f830112611a0457611a036118d3565b5b6003611a1184828561198f565b91505092915050565b600060608284031215611a3057611a2f61166d565b5b6000611a3e848285016119ef565b91505092915050565b600081519050919050565b600082825260208201905092915050565b6000819050602082019050919050565b600073ffffffffffffffffffffffffffffffffffffffff82169050919050565b6000611a9e82611a73565b9050919050565b611aae81611a93565b82525050565b6000611ac08383611aa5565b60208301905092915050565b6000602082019050919050565b6000611ae482611a47565b611aee8185611a52565b9350611af983611a63565b8060005b83811015611b2a578151611b118882611ab4565b9750611b1c83611acc565b925050600181019050611afd565b5085935050505092915050565b600081905092915050565b611b4b81611593565b611b558184611b37565b9250611b60826115a9565b8060005b83811015611b91578151611b7887826115cc565b9650611b83836115e4565b925050600181019050611b64565b505050505050565b611ba2816116cb565b82525050565b600060e0830160008301518482036000860152611bc58282611ad9565b9150506020830151611bda60208601826115bd565b506040830151611bed60408601826115bd565b506060830151611c006060860182611b42565b506080830151611c1360c0860182611b99565b508091505092915050565b60006020820190508181036000830152611c388184611ba8565b905092915050565b600082825260208201905092915050565b7f5468697320616374696f6e2063616e206f6e6c792062652074616b656e20776860008201527f656e2074686520626574732061726520636c6f73656400000000000000000000602082015250565b6000611cad603683611c40565b9150611cb882611c51565b604082019050919050565b60006020820190508181036000830152611cdc81611ca0565b9050919050565b7f4265747320617265206e6f7420636c6f73656400000000000000000000000000600082015250565b6000611d19601383611c40565b9150611d2482611ce3565b602082019050919050565b60006020820190508181036000830152611d4881611d0c565b9050919050565b7f4e487b7100000000000000000000000000000000000000000000000000000000600052601160045260246000fd5b6000611d89826115b3565b9150611d94836115b3565b9250827fffffffffffffffffffffffffffffffffffffffffffffffffffffffffffffffff03821115611dc957611dc8611d4f565b5b828201905092915050565b7f4e487b7100000000000000000000000000000000000000000000000000000000600052601260045260246000fd5b6000611e0e826115b3565b9150611e19836115b3565b925082611e2957611e28611dd4565b5b828204905092915050565b6000611e3f826115b3565b9150611e4a836115b3565b925082821015611e5d57611e5c611d4f565b5b828203905092915050565b600060039050919050565b600081905092915050565b6000819050919050565b611e91816115b3565b82525050565b6000611ea38383611e88565b60208301905092915050565b60008160001c9050919050565b6000819050919050565b6000611ed9611ed483611eaf565b611ebc565b9050919050565b6000611eec8254611ec6565b9050919050565b6000600182019050919050565b611f0981611e68565b611f138184611e73565b9250611f1e82611e7e565b8060005b83811015611f5657611f3382611ee0565b611f3d8782611e97565b9650611f4883611ef3565b925050600181019050611f22565b505050505050565b6000611f6a8284611f00565b60608201915081905092915050565b6000819050919050565b611f94611f8f826116cb565b611f79565b82525050565b6000611fa68285611f83565b602082019150611fb68284611f83565b6020820191508190509392505050565b7f4e487b7100000000000000000000000000000000000000000000000000000000600052603260045260246000fd5b6000612000826115b3565b91507fffffffffffffffffffffffffffffffffffffffffffffffffffffffffffffffff82141561203357612032611d4f565b5b600182019050919050565b61204781611e68565b612051818461159e565b925061205c82611e7e565b8060005b838110156120945761207182611ee0565b61207b87826115cc565b965061208683611ef3565b925050600181019050612060565b505050505050565b60006060820190506120b1600083018461203e565b92915050565b6120c081611593565b6120ca8184611e73565b92506120d5826115a9565b8060005b838110156121065781516120ed8782611e97565b96506120f8836115e4565b9250506001810190506120d9565b505050505050565b600061211a82846120b7565b60608201915081905092915050565b7f547275737465642070617274792063616e277420626574000000000000000000600082015250565b600061215f601783611c40565b915061216a82612129565b602082019050919050565b6000602082019050818103600083015261218e81612152565b9050919050565b7f426574732061726520636c6f7365640000000000000000000000000000000000600082015250565b60006121cb600f83611c40565b91506121d682612195565b602082019050919050565b600060208201905081810360008301526121fa816121be565b9050919050565b7f426574206d757374206265203120617661780000000000000000000000000000600082015250565b6000612237601283611c40565b915061224282612201565b602082019050919050565b600060208201905081810360008301526122668161222a565b9050919050565b7f45616368206e756d626572206d75737420626520756e69717565000000000000600082015250565b60006122a3601a83611c40565b91506122ae8261226d565b602082019050919050565b600060208201905081810360008301526122d281612296565b9050919050565b7f4e756d6265722031206d757374206265206265747765656e203020616e64203960008201527f3900000000000000000000000000000000000000000000000000000000000000602082015250565b6000612335602183611c40565b9150612340826122d9565b604082019050919050565b6000602082019050818103600083015261236481612328565b9050919050565b7f4e756d6265722032206d757374206265206265747765656e203020616e64203960008201527f3900000000000000000000000000000000000000000000000000000000000000602082015250565b60006123c7602183611c40565b91506123d28261236b565b604082019050919050565b600060208201905081810360008301526123f6816123ba565b9050919050565b7f4e756d6265722033206d757374206265206265747765656e203020616e64203960008201527f3900000000000000000000000000000000000000000000000000000000000000602082015250565b6000612459602183611c40565b9150612464826123fd565b604082019050919050565b600060208201905081810360008301526124888161244c565b9050919050565b600061249a826115b3565b91506124a5836115b3565b9250817fffffffffffffffffffffffffffffffffffffffffffffffffffffffffffffffff04831182151516156124de576124dd611d4f565b5b828202905092915050565b60006124f4826115b3565b91506124ff836115b3565b92508261250f5761250e611dd4565b5b828206905092915050565b60008160011c9050919050565b6000808291508390505b60018511156125715780860481111561254d5761254c611d4f565b5b600185161561255c5780820291505b808102905061256a8561251a565b9450612531565b94509492505050565b60008261258a5760019050612646565b816125985760009050612646565b81600181146125ae57600281146125b8576125e7565b6001915050612646565b60ff8411156125ca576125c9611d4f565b5b8360020a9150848211156125e1576125e0611d4f565b5b50612646565b5060208310610133831016604e8410600b841016171561261c5782820a90508381111561261757612616611d4f565b5b612646565b6126298484846001612527565b925090508184048111156126405761263f611d4f565b5b81810290505b9392505050565b6000612658826115b3565b9150612663836115b3565b92506126907fffffffffffffffffffffffffffffffffffffffffffffffffffffffffffffffff848461257a565b90509291505056fea26469706673582212207fa8e0547ba0f043eed00b9c0eea5ed59d198290cf8afedbe6137c78d6f12f9264736f6c634300080a0033",
  "linkReferences": {},
  "deployedLinkReferences": {}
}