{
  "_format": "hh-sol-artifact-1",
  "contractName": "LottoGamebit",
  "sourceName": "contracts/Lotto.sol",
  "abi": [
    {
      "inputs": [
        {
          "internalType": "address",
          "name": "_treasury",
          "type": "address"
        },
        {
          "internalType": "address",
          "name": "_gamitAuth",
          "type": "address"
        },
        {
          "internalType": "address",
          "name": "_gamebitInfra",
          "type": "address"
        },
        {
          "internalType": "address",
          "name": "_trustedParty",
          "type": "address"
        },
        {
          "internalType": "uint256",
          "name": "_ticketValue",
          "type": "uint256"
        },
        {
          "internalType": "uint256",
          "name": "_drawDaysInterval",
          "type": "uint256"
        }
      ],
      "stateMutability": "nonpayable",
      "type": "constructor"
    },
    {
      "anonymous": false,
      "inputs": [
        {
          "indexed": false,
          "internalType": "uint256[3]",
          "name": "numbers",
          "type": "uint256[3]"
        }
      ],
      "name": "Draw",
      "type": "event"
    },
    {
      "anonymous": false,
      "inputs": [
        {
          "indexed": false,
          "internalType": "string",
          "name": "",
          "type": "string"
        }
      ],
      "name": "RngReceived",
      "type": "event"
    },
    {
      "anonymous": false,
      "inputs": [
        {
          "indexed": false,
          "internalType": "uint256",
          "name": "",
          "type": "uint256"
        }
      ],
      "name": "RngRequested",
      "type": "event"
    },
    {
      "anonymous": false,
      "inputs": [
        {
          "indexed": false,
          "internalType": "uint256",
          "name": "jackpot",
          "type": "uint256"
        }
      ],
      "name": "jackpotUpdated",
      "type": "event"
    },
    {
      "inputs": [
        {
          "internalType": "uint256[][]",
          "name": "_bets",
          "type": "uint256[][]"
        }
      ],
      "name": "bet",
      "outputs": [],
      "stateMutability": "payable",
      "type": "function"
    },
    {
      "inputs": [
        {
          "internalType": "uint256[3]",
          "name": "_numbers",
          "type": "uint256[3]"
        }
      ],
      "name": "getAmountOfBetForNumbers",
      "outputs": [
        {
          "internalType": "uint256",
          "name": "",
          "type": "uint256"
        }
      ],
      "stateMutability": "view",
      "type": "function"
    },
    {
      "inputs": [],
      "name": "getBets",
      "outputs": [
        {
          "internalType": "uint256[][]",
          "name": "",
          "type": "uint256[][]"
        }
      ],
      "stateMutability": "view",
      "type": "function"
    },
    {
      "inputs": [],
      "name": "getCurrentJackpot",
      "outputs": [
        {
          "internalType": "uint256",
          "name": "",
          "type": "uint256"
        }
      ],
      "stateMutability": "view",
      "type": "function"
    },
    {
      "inputs": [],
      "name": "getLastDrawNumbers",
      "outputs": [
        {
          "internalType": "uint256[3]",
          "name": "",
          "type": "uint256[3]"
        }
      ],
      "stateMutability": "view",
      "type": "function"
    },
    {
      "inputs": [],
      "name": "getNextDrawTime",
      "outputs": [
        {
          "internalType": "uint256",
          "name": "",
          "type": "uint256"
        }
      ],
      "stateMutability": "view",
      "type": "function"
    },
    {
      "inputs": [],
      "name": "getTicketPrice",
      "outputs": [
        {
          "internalType": "uint256",
          "name": "",
          "type": "uint256"
        }
      ],
      "stateMutability": "view",
      "type": "function"
    },
    {
      "inputs": [
        {
          "internalType": "uint256",
          "name": "_requestId",
          "type": "uint256"
        },
        {
          "internalType": "uint256",
          "name": "_rng",
          "type": "uint256"
        },
        {
          "internalType": "uint256",
          "name": "_provenance",
          "type": "uint256"
        }
      ],
      "name": "validateRng",
      "outputs": [],
      "stateMutability": "nonpayable",
      "type": "function"
    },
    {
      "inputs": [],
      "name": "weeklyDraw",
      "outputs": [],
      "stateMutability": "nonpayable",
      "type": "function"
    }
  ],
  "bytecode": "0x6080604052600060045560006009556000600b60006101000a81548160ff0219169083151502179055506000600b60016101000a81548160ff021916908315150217905550600067ffffffffffffffff811115620000625762000061620002cf565b5b604051908082528060200260200182016040528015620000915781602001602082028036833780820191505090505b50600f9080519060200190620000a99291906200025e565b50348015620000b757600080fd5b5060405162002652380380620026528339818101604052810190620000dd9190620003a3565b858585826000806101000a81548173ffffffffffffffffffffffffffffffffffffffff021916908373ffffffffffffffffffffffffffffffffffffffff16021790555082600360006101000a81548173ffffffffffffffffffffffffffffffffffffffff021916908373ffffffffffffffffffffffffffffffffffffffff16021790555081600160006101000a81548173ffffffffffffffffffffffffffffffffffffffff021916908373ffffffffffffffffffffffffffffffffffffffff16021790555080600260006101000a81548173ffffffffffffffffffffffffffffffffffffffff021916908373ffffffffffffffffffffffffffffffffffffffff16021790555050505082600660006101000a81548173ffffffffffffffffffffffffffffffffffffffff021916908373ffffffffffffffffffffffffffffffffffffffff1602179055508160088190555062015180816200023f91906200046e565b426200024c9190620004cf565b600a819055505050505050506200052c565b8280548282559060005260206000209081019282156200029d579160200282015b828111156200029c5782518255916020019190600101906200027f565b5b509050620002ac9190620002b0565b5090565b5b80821115620002cb576000816000905550600101620002b1565b5090565b7f4e487b7100000000000000000000000000000000000000000000000000000000600052604160045260246000fd5b600080fd5b600073ffffffffffffffffffffffffffffffffffffffff82169050919050565b6000620003308262000303565b9050919050565b620003428162000323565b81146200034e57600080fd5b50565b600081519050620003628162000337565b92915050565b6000819050919050565b6200037d8162000368565b81146200038957600080fd5b50565b6000815190506200039d8162000372565b92915050565b60008060008060008060c08789031215620003c357620003c2620002fe565b5b6000620003d389828a0162000351565b9650506020620003e689828a0162000351565b9550506040620003f989828a0162000351565b94505060606200040c89828a0162000351565b93505060806200041f89828a016200038c565b92505060a06200043289828a016200038c565b9150509295509295509295565b7f4e487b7100000000000000000000000000000000000000000000000000000000600052601160045260246000fd5b60006200047b8262000368565b9150620004888362000368565b9250817fffffffffffffffffffffffffffffffffffffffffffffffffffffffffffffffff0483118215151615620004c457620004c36200043f565b5b828202905092915050565b6000620004dc8262000368565b9150620004e98362000368565b9250827fffffffffffffffffffffffffffffffffffffffffffffffffffffffffffffffff038211156200052157620005206200043f565b5b828201905092915050565b612116806200053c6000396000f3fe6080604052600436106100865760003560e01c80639a58bfee116100595780639a58bfee146101215780639f57d16e1461013d578063a6afd5fd14610168578063be8b48d014610193578063ecfea5d5146101d057610086565b8063087d0e0b1461008b5780635fedd0ab146100b657806363bba9b7146100df57806387bb7ae0146100f6575b600080fd5b34801561009757600080fd5b506100a06101fb565b6040516100ad91906110ec565b60405180910390f35b3480156100c257600080fd5b506100dd60048036038101906100d89190611147565b610265565b005b3480156100eb57600080fd5b506100f46104ba565b005b34801561010257600080fd5b5061010b610611565b60405161011891906111a9565b60405180910390f35b61013b600480360381019061013691906113fe565b61061b565b005b34801561014957600080fd5b50610152610c5d565b60405161015f91906111a9565b60405180910390f35b34801561017457600080fd5b5061017d610c67565b60405161018a91906115a0565b60405180910390f35b34801561019f57600080fd5b506101ba60048036038101906101b59190611673565b610d43565b6040516101c791906111a9565b60405180910390f35b3480156101dc57600080fd5b506101e5610d8c565b6040516101f291906111a9565b60405180910390f35b610203610fab565b600e6000600160095461021691906116cf565b815260200190815260200160002060038060200260405190810160405280929190826003801561025b576020028201915b815481526020019060010190808311610247575b5050505050905090565b600160009054906101000a900473ffffffffffffffffffffffffffffffffffffffff1673ffffffffffffffffffffffffffffffffffffffff166352c6ed30336040518263ffffffff1660e01b81526004016102c09190611744565b602060405180830381865afa1580156102dd573d6000803e3d6000fd5b505050506040513d601f19601f820116820180604052508101906103019190611797565b610340576040517f08c379a000000000000000000000000000000000000000000000000000000000815260040161033790611847565b60405180910390fd5b6005600084815260200190815260200160002060009054906101000a900460ff166103a0576040517f08c379a0000000000000000000000000000000000000000000000000000000008152600401610397906118b3565b60405180910390fd5b600260009054906101000a900473ffffffffffffffffffffffffffffffffffffffff1673ffffffffffffffffffffffffffffffffffffffff16637138360584836040518363ffffffff1660e01b81526004016103fd9291906118d3565b6020604051808303816000875af115801561041c573d6000803e3d6000fd5b505050506040513d601f19601f820116820180604052508101906104409190611797565b61047f576040517f08c379a000000000000000000000000000000000000000000000000000000000815260040161047690611948565b60405180910390fd5b60006005600085815260200190815260200160002060006101000a81548160ff0219169083151502179055506104b58284610d96565b505050565b600160009054906101000a900473ffffffffffffffffffffffffffffffffffffffff1673ffffffffffffffffffffffffffffffffffffffff16637acc2901336040518263ffffffff1660e01b81526004016105159190611744565b602060405180830381865afa158015610532573d6000803e3d6000fd5b505050506040513d601f19601f820116820180604052508101906105569190611797565b610595576040517f08c379a000000000000000000000000000000000000000000000000000000000815260040161058c906119da565b60405180910390fd5b60001515600b60009054906101000a900460ff161515146105eb576040517f08c379a00000000000000000000000000000000000000000000000000000000081526004016105e290611a6c565b60405180910390fd5b6001600b60006101000a81548160ff02191690831515021790555061060e610d9a565b50565b6000600854905090565b600660009054906101000a900473ffffffffffffffffffffffffffffffffffffffff1673ffffffffffffffffffffffffffffffffffffffff163373ffffffffffffffffffffffffffffffffffffffff1614156106ac576040517f08c379a00000000000000000000000000000000000000000000000000000000081526004016106a390611ad8565b60405180910390fd5b600b60009054906101000a900460ff16156106fc576040517f08c379a00000000000000000000000000000000000000000000000000000000081526004016106f390611b44565b60405180910390fd5b60085481513461070c9190611b93565b1461074c576040517f08c379a000000000000000000000000000000000000000000000000000000000815260040161074390611c10565b60405180910390fd5b60005b81518110156109f757600382828151811061076d5761076c611c30565b5b602002602001015151146107b6576040517f08c379a00000000000000000000000000000000000000000000000000000000081526004016107ad90611cab565b60405180910390fd5b60648282815181106107cb576107ca611c30565b5b60200260200101516000815181106107e6576107e5611c30565b5b60200260200101511080156108315750600082828151811061080b5761080a611c30565b5b602002602001015160008151811061082657610825611c30565b5b602002602001015110155b610870576040517f08c379a000000000000000000000000000000000000000000000000000000000815260040161086790611d3d565b60405180910390fd5b606482828151811061088557610884611c30565b5b60200260200101516001815181106108a05761089f611c30565b5b60200260200101511080156108eb575060008282815181106108c5576108c4611c30565b5b60200260200101516001815181106108e0576108df611c30565b5b602002602001015110155b61092a576040517f08c379a000000000000000000000000000000000000000000000000000000000815260040161092190611dcf565b60405180910390fd5b606482828151811061093f5761093e611c30565b5b602002602001015160028151811061095a57610959611c30565b5b60200260200101511080156109a55750600082828151811061097f5761097e611c30565b5b602002602001015160028151811061099a57610999611c30565b5b602002602001015110155b6109e4576040517f08c379a00000000000000000000000000000000000000000000000000000000081526004016109db90611e61565b60405180910390fd5b80806109ef90611e81565b91505061074f565b50600066b1a2bc2ec500008251610a0e9190611eca565b90508034610a1c91906116cf565b60076000828254610a2d9190611f24565b92505081905550610a498134610a4391906116cf565b82610ee7565b5060005b8251811015610c1f57600f838281518110610a6b57610a6a611c30565b5b6020026020010151604051602001610a83919061200a565b6040516020818303038152906040528051906020012060001c9080600181540180825580915050600190039060005260206000200160009091909190915055600d60003373ffffffffffffffffffffffffffffffffffffffff1673ffffffffffffffffffffffffffffffffffffffff168152602001908152602001600020838281518110610b1457610b13611c30565b5b6020026020010151908060018154018082558091505060019003906000526020600020016000909190919091509080519060200190610b54929190610fcd565b50600c6000848381518110610b6c57610b6b611c30565b5b6020026020010151604051602001610b84919061200a565b6040516020818303038152906040528051906020012060001c8152602001908152602001600020339080600181540180825580915050600190039060005260206000200160009091909190916101000a81548173ffffffffffffffffffffffffffffffffffffffff021916908373ffffffffffffffffffffffffffffffffffffffff1602179055508080610c1790611e81565b915050610a4d565b507ff9fcd8fad7415931becd04274f2d3e36e2c4a8ccea67edf7a151ac8c2ce93e53600754604051610c5191906111a9565b60405180910390a15050565b6000600754905090565b6060600d60003373ffffffffffffffffffffffffffffffffffffffff1673ffffffffffffffffffffffffffffffffffffffff168152602001908152602001600020805480602002602001604051908101604052809291908181526020016000905b82821015610d3a57838290600052602060002001805480602002602001604051908101604052809291908181526020018280548015610d2657602002820191906000526020600020905b815481526020019060010190808311610d12575b505050505081526020019060010190610cc8565b50505050905090565b6000600c600083604051602001610d5a9190612083565b6040516020818303038152906040528051906020012060001c8152602001908152602001600020805490509050919050565b6000600a54905090565b5050565b60008060009054906101000a900473ffffffffffffffffffffffffffffffffffffffff1673ffffffffffffffffffffffffffffffffffffffff16635685a8bd6040518163ffffffff1660e01b8152600401600060405180830381600087803b158015610e0557600080fd5b505af1158015610e19573d6000803e3d6000fd5b505050506000600260009054906101000a900473ffffffffffffffffffffffffffffffffffffffff1673ffffffffffffffffffffffffffffffffffffffff166379663e496040518163ffffffff1660e01b81526004016020604051808303816000875af1158015610e8e573d6000803e3d6000fd5b505050506040513d601f19601f82011682018060405250810190610eb291906120b3565b905060016005600083815260200190815260200160002060006101000a81548160ff0219169083151502179055508091505090565b60008260046000828254610efb9190611f24565b9250508190555060008054906101000a900473ffffffffffffffffffffffffffffffffffffffff1673ffffffffffffffffffffffffffffffffffffffff1663072e536b84846040518363ffffffff1660e01b8152600401610f5d9291906118d3565b6020604051808303816000875af1158015610f7c573d6000803e3d6000fd5b505050506040513d601f19601f82011682018060405250810190610fa09190611797565b506001905092915050565b6040518060600160405280600390602082028036833780820191505090505090565b828054828255906000526020600020908101928215611009579160200282015b82811115611008578251825591602001919060010190610fed565b5b509050611016919061101a565b5090565b5b8082111561103357600081600090555060010161101b565b5090565b600060039050919050565b600081905092915050565b6000819050919050565b6000819050919050565b61106a81611057565b82525050565b600061107c8383611061565b60208301905092915050565b6000602082019050919050565b61109e81611037565b6110a88184611042565b92506110b38261104d565b8060005b838110156110e45781516110cb8782611070565b96506110d683611088565b9250506001810190506110b7565b505050505050565b60006060820190506111016000830184611095565b92915050565b6000604051905090565b600080fd5b600080fd5b61112481611057565b811461112f57600080fd5b50565b6000813590506111418161111b565b92915050565b6000806000606084860312156111605761115f611111565b5b600061116e86828701611132565b935050602061117f86828701611132565b925050604061119086828701611132565b9150509250925092565b6111a381611057565b82525050565b60006020820190506111be600083018461119a565b92915050565b600080fd5b6000601f19601f8301169050919050565b7f4e487b7100000000000000000000000000000000000000000000000000000000600052604160045260246000fd5b611212826111c9565b810181811067ffffffffffffffff82111715611231576112306111da565b5b80604052505050565b6000611244611107565b90506112508282611209565b919050565b600067ffffffffffffffff8211156112705761126f6111da565b5b602082029050602081019050919050565b600080fd5b600067ffffffffffffffff8211156112a1576112a06111da565b5b602082029050602081019050919050565b60006112c56112c084611286565b61123a565b905080838252602082019050602084028301858111156112e8576112e7611281565b5b835b8181101561131157806112fd8882611132565b8452602084019350506020810190506112ea565b5050509392505050565b600082601f8301126113305761132f6111c4565b5b81356113408482602086016112b2565b91505092915050565b600061135c61135784611255565b61123a565b9050808382526020820190506020840283018581111561137f5761137e611281565b5b835b818110156113c657803567ffffffffffffffff8111156113a4576113a36111c4565b5b8086016113b1898261131b565b85526020850194505050602081019050611381565b5050509392505050565b600082601f8301126113e5576113e46111c4565b5b81356113f5848260208601611349565b91505092915050565b60006020828403121561141457611413611111565b5b600082013567ffffffffffffffff81111561143257611431611116565b5b61143e848285016113d0565b91505092915050565b600081519050919050565b600082825260208201905092915050565b6000819050602082019050919050565b600081519050919050565b600082825260208201905092915050565b6000819050602082019050919050565b6000602082019050919050565b60006114b782611473565b6114c1818561147e565b93506114cc8361148f565b8060005b838110156114fd5781516114e48882611070565b97506114ef8361149f565b9250506001810190506114d0565b5085935050505092915050565b600061151683836114ac565b905092915050565b6000602082019050919050565b600061153682611447565b6115408185611452565b93508360208202850161155285611463565b8060005b8581101561158e578484038952815161156f858261150a565b945061157a8361151e565b925060208a01995050600181019050611556565b50829750879550505050505092915050565b600060208201905081810360008301526115ba818461152b565b905092915050565b600067ffffffffffffffff8211156115dd576115dc6111da565b5b602082029050919050565b60006115fb6115f6846115c2565b61123a565b9050806020840283018581111561161557611614611281565b5b835b8181101561163e578061162a8882611132565b845260208401935050602081019050611617565b5050509392505050565b600082601f83011261165d5761165c6111c4565b5b600361166a8482856115e8565b91505092915050565b60006060828403121561168957611688611111565b5b600061169784828501611648565b91505092915050565b7f4e487b7100000000000000000000000000000000000000000000000000000000600052601160045260246000fd5b60006116da82611057565b91506116e583611057565b9250828210156116f8576116f76116a0565b5b828203905092915050565b600073ffffffffffffffffffffffffffffffffffffffff82169050919050565b600061172e82611703565b9050919050565b61173e81611723565b82525050565b60006020820190506117596000830184611735565b92915050565b60008115159050919050565b6117748161175f565b811461177f57600080fd5b50565b6000815190506117918161176b565b92915050565b6000602082840312156117ad576117ac611111565b5b60006117bb84828501611782565b91505092915050565b600082825260208201905092915050565b7f4f6e6c79206f6666696369616c20696e6672612063616e2063616c6c2074686960008201527f732066756e6374696f6e00000000000000000000000000000000000000000000602082015250565b6000611831602a836117c4565b915061183c826117d5565b604082019050919050565b6000602082019050818103600083015261186081611824565b9050919050565b7f496e76616c696420726571756573742049440000000000000000000000000000600082015250565b600061189d6012836117c4565b91506118a882611867565b602082019050919050565b600060208201905081810360008301526118cc81611890565b9050919050565b60006040820190506118e8600083018561119a565b6118f5602083018461119a565b9392505050565b7f496e76616c696420636f6d6d6974000000000000000000000000000000000000600082015250565b6000611932600e836117c4565b915061193d826118fc565b602082019050919050565b6000602082019050818103600083015261196181611925565b9050919050565b7f4f6e6c79206f6666696369616c207374616666206f7220676f7665726e616e6360008201527f652063616e2063616c6c20746869732066756e6374696f6e0000000000000000602082015250565b60006119c46038836117c4565b91506119cf82611968565b604082019050919050565b600060208201905081810360008301526119f3816119b7565b9050919050565b7f43616e206f6e6c79207069636b2061206472617720696620626574732061726560008201527f206f70656e000000000000000000000000000000000000000000000000000000602082015250565b6000611a566025836117c4565b9150611a61826119fa565b604082019050919050565b60006020820190508181036000830152611a8581611a49565b9050919050565b7f547275737465642070617274792063616e277420626574000000000000000000600082015250565b6000611ac26017836117c4565b9150611acd82611a8c565b602082019050919050565b60006020820190508181036000830152611af181611ab5565b9050919050565b7f426574732061726520636c6f7365640000000000000000000000000000000000600082015250565b6000611b2e600f836117c4565b9150611b3982611af8565b602082019050919050565b60006020820190508181036000830152611b5d81611b21565b9050919050565b7f4e487b7100000000000000000000000000000000000000000000000000000000600052601260045260246000fd5b6000611b9e82611057565b9150611ba983611057565b925082611bb957611bb8611b64565b5b828204905092915050565b7f426574206e6f74207468652072696768742076616c7565206176617800000000600082015250565b6000611bfa601c836117c4565b9150611c0582611bc4565b602082019050919050565b60006020820190508181036000830152611c2981611bed565b9050919050565b7f4e487b7100000000000000000000000000000000000000000000000000000000600052603260045260246000fd5b7f4561636820626574206d75737420686176652033206e756d6265727300000000600082015250565b6000611c95601c836117c4565b9150611ca082611c5f565b602082019050919050565b60006020820190508181036000830152611cc481611c88565b9050919050565b7f4e756d6265722031206d757374206265206265747765656e203020616e64203960008201527f3900000000000000000000000000000000000000000000000000000000000000602082015250565b6000611d276021836117c4565b9150611d3282611ccb565b604082019050919050565b60006020820190508181036000830152611d5681611d1a565b9050919050565b7f4e756d6265722032206d757374206265206265747765656e203020616e64203960008201527f3900000000000000000000000000000000000000000000000000000000000000602082015250565b6000611db96021836117c4565b9150611dc482611d5d565b604082019050919050565b60006020820190508181036000830152611de881611dac565b9050919050565b7f4e756d6265722033206d757374206265206265747765656e203020616e64203960008201527f3900000000000000000000000000000000000000000000000000000000000000602082015250565b6000611e4b6021836117c4565b9150611e5682611def565b604082019050919050565b60006020820190508181036000830152611e7a81611e3e565b9050919050565b6000611e8c82611057565b91507fffffffffffffffffffffffffffffffffffffffffffffffffffffffffffffffff821415611ebf57611ebe6116a0565b5b600182019050919050565b6000611ed582611057565b9150611ee083611057565b9250817fffffffffffffffffffffffffffffffffffffffffffffffffffffffffffffffff0483118215151615611f1957611f186116a0565b5b828202905092915050565b6000611f2f82611057565b9150611f3a83611057565b9250827fffffffffffffffffffffffffffffffffffffffffffffffffffffffffffffffff03821115611f6f57611f6e6116a0565b5b828201905092915050565b600081905092915050565b611f8e81611057565b82525050565b6000611fa08383611f85565b60208301905092915050565b6000611fb782611473565b611fc18185611f7a565b9350611fcc8361148f565b8060005b83811015611ffd578151611fe48882611f94565b9750611fef8361149f565b925050600181019050611fd0565b5085935050505092915050565b60006120168284611fac565b915081905092915050565b600081905092915050565b61203581611037565b61203f8184612021565b925061204a8261104d565b8060005b8381101561207b5781516120628782611f94565b965061206d83611088565b92505060018101905061204e565b505050505050565b600061208f828461202c565b60608201915081905092915050565b6000815190506120ad8161111b565b92915050565b6000602082840312156120c9576120c8611111565b5b60006120d78482850161209e565b9150509291505056fea2646970667358221220819005c3f51a5567fd9b234189882b8e0afa883773b907a64b17b132bc215aff64736f6c634300080a0033",
  "linkReferences": {},
  "deployedLinkReferences": {}
}